{
  "abi": [
    {
      "inputs": [
        {
          "internalType": "string",
          "name": "_name",
          "type": "string"
        },
        {
          "internalType": "string",
          "name": "_symbol",
          "type": "string"
        },
        {
          "internalType": "uint256",
          "name": "_approvalDelay",
          "type": "uint256"
        }
      ],
      "stateMutability": "nonpayable",
      "type": "constructor"
    },
    {
      "anonymous": false,
      "inputs": [
        {
          "indexed": true,
          "internalType": "address",
          "name": "owner",
          "type": "address"
        },
        {
          "indexed": true,
          "internalType": "address",
          "name": "spender",
          "type": "address"
        },
        {
          "indexed": false,
          "internalType": "uint256",
          "name": "value",
          "type": "uint256"
        }
      ],
      "name": "Approval",
      "type": "event"
    },
    {
      "anonymous": false,
      "inputs": [
        {
          "indexed": true,
          "internalType": "address",
          "name": "user",
          "type": "address"
        },
        {
          "indexed": false,
          "internalType": "uint256",
          "name": "amount",
          "type": "uint256"
        },
        {
          "indexed": false,
          "internalType": "uint256",
          "name": "tvl",
          "type": "uint256"
        }
      ],
      "name": "Deposit",
      "type": "event"
    },
    {
      "anonymous": false,
      "inputs": [
        {
          "indexed": false,
          "internalType": "uint8",
          "name": "version",
          "type": "uint8"
        }
      ],
      "name": "Initialized",
      "type": "event"
    },
    {
      "anonymous": false,
      "inputs": [
        {
          "indexed": false,
          "internalType": "address",
          "name": "implementation",
          "type": "address"
        }
      ],
      "name": "NewStratCandidate",
      "type": "event"
    },
    {
      "anonymous": false,
      "inputs": [
        {
          "indexed": true,
          "internalType": "address",
          "name": "previousOwner",
          "type": "address"
        },
        {
          "indexed": true,
          "internalType": "address",
          "name": "newOwner",
          "type": "address"
        }
      ],
      "name": "OwnershipTransferred",
      "type": "event"
    },
    {
      "anonymous": false,
      "inputs": [
        {
          "indexed": true,
          "internalType": "address",
          "name": "from",
          "type": "address"
        },
        {
          "indexed": true,
          "internalType": "address",
          "name": "to",
          "type": "address"
        },
        {
          "indexed": false,
          "internalType": "uint256",
          "name": "value",
          "type": "uint256"
        }
      ],
      "name": "Transfer",
      "type": "event"
    },
    {
      "anonymous": false,
      "inputs": [
        {
          "indexed": false,
          "internalType": "address",
          "name": "implementation",
          "type": "address"
        }
      ],
      "name": "UpgradeStrat",
      "type": "event"
    },
    {
      "anonymous": false,
      "inputs": [
        {
          "indexed": true,
          "internalType": "address",
          "name": "user",
          "type": "address"
        },
        {
          "indexed": false,
          "internalType": "uint256",
          "name": "amount",
          "type": "uint256"
        },
        {
          "indexed": false,
          "internalType": "uint256",
          "name": "tvl",
          "type": "uint256"
        }
      ],
      "name": "Withdraw",
      "type": "event"
    },
    {
      "inputs": [
        {
          "internalType": "address",
          "name": "owner",
          "type": "address"
        },
        {
          "internalType": "address",
          "name": "spender",
          "type": "address"
        }
      ],
      "name": "allowance",
      "outputs": [
        {
          "internalType": "uint256",
          "name": "",
          "type": "uint256"
        }
      ],
      "stateMutability": "view",
      "type": "function"
    },
    {
      "inputs": [],
      "name": "approvalDelay",
      "outputs": [
        {
          "internalType": "uint256",
          "name": "",
          "type": "uint256"
        }
      ],
      "stateMutability": "view",
      "type": "function"
    },
    {
      "inputs": [
        {
          "internalType": "address",
          "name": "spender",
          "type": "address"
        },
        {
          "internalType": "uint256",
          "name": "amount",
          "type": "uint256"
        }
      ],
      "name": "approve",
      "outputs": [
        {
          "internalType": "bool",
          "name": "",
          "type": "bool"
        }
      ],
      "stateMutability": "nonpayable",
      "type": "function"
    },
    {
      "inputs": [],
      "name": "available",
      "outputs": [
        {
          "internalType": "uint256",
          "name": "",
          "type": "uint256"
        }
      ],
      "stateMutability": "view",
      "type": "function"
    },
    {
      "inputs": [],
      "name": "balance",
      "outputs": [
        {
          "internalType": "uint256",
          "name": "",
          "type": "uint256"
        }
      ],
      "stateMutability": "view",
      "type": "function"
    },
    {
      "inputs": [
        {
          "internalType": "address",
          "name": "account",
          "type": "address"
        }
      ],
      "name": "balanceOf",
      "outputs": [
        {
          "internalType": "uint256",
          "name": "",
          "type": "uint256"
        }
      ],
      "stateMutability": "view",
      "type": "function"
    },
    {
      "inputs": [],
      "name": "decimals",
      "outputs": [
        {
          "internalType": "uint8",
          "name": "",
          "type": "uint8"
        }
      ],
      "stateMutability": "view",
      "type": "function"
    },
    {
      "inputs": [
        {
          "internalType": "address",
          "name": "spender",
          "type": "address"
        },
        {
          "internalType": "uint256",
          "name": "subtractedValue",
          "type": "uint256"
        }
      ],
      "name": "decreaseAllowance",
      "outputs": [
        {
          "internalType": "bool",
          "name": "",
          "type": "bool"
        }
      ],
      "stateMutability": "nonpayable",
      "type": "function"
    },
    {
      "inputs": [
        {
          "internalType": "uint256",
          "name": "_amount",
          "type": "uint256"
        }
      ],
      "name": "deposit",
      "outputs": [],
      "stateMutability": "nonpayable",
      "type": "function"
    },
    {
      "inputs": [],
      "name": "depositAll",
      "outputs": [],
      "stateMutability": "nonpayable",
      "type": "function"
    },
    {
      "inputs": [],
      "name": "earn",
      "outputs": [],
      "stateMutability": "nonpayable",
      "type": "function"
    },
    {
      "inputs": [],
      "name": "getPricePerFullShare",
      "outputs": [
        {
          "internalType": "uint256",
          "name": "",
          "type": "uint256"
        }
      ],
      "stateMutability": "view",
      "type": "function"
    },
    {
      "inputs": [],
      "name": "getStratProposal",
      "outputs": [
        {
          "components": [
            {
              "internalType": "address",
              "name": "implementation",
              "type": "address"
            },
            {
              "internalType": "uint256",
              "name": "proposedTime",
              "type": "uint256"
            }
          ],
          "internalType": "struct StratCandidate",
          "name": "",
          "type": "tuple"
        }
      ],
      "stateMutability": "view",
      "type": "function"
    },
    {
      "inputs": [
        {
          "internalType": "address",
          "name": "_token",
          "type": "address"
        }
      ],
      "name": "inCaseTokensGetStuck",
      "outputs": [],
      "stateMutability": "nonpayable",
      "type": "function"
    },
    {
      "inputs": [
        {
          "internalType": "address",
          "name": "spender",
          "type": "address"
        },
        {
          "internalType": "uint256",
          "name": "addedValue",
          "type": "uint256"
        }
      ],
      "name": "increaseAllowance",
      "outputs": [
        {
          "internalType": "bool",
          "name": "",
          "type": "bool"
        }
      ],
      "stateMutability": "nonpayable",
      "type": "function"
    },
    {
      "inputs": [
        {
          "internalType": "contract IStrategy",
          "name": "_strategy",
          "type": "address"
        }
      ],
      "name": "init",
      "outputs": [],
      "stateMutability": "nonpayable",
      "type": "function"
    },
    {
      "inputs": [],
      "name": "name",
      "outputs": [
        {
          "internalType": "string",
          "name": "",
          "type": "string"
        }
      ],
      "stateMutability": "view",
      "type": "function"
    },
    {
      "inputs": [],
      "name": "owner",
      "outputs": [
        {
          "internalType": "address",
          "name": "",
          "type": "address"
        }
      ],
      "stateMutability": "view",
      "type": "function"
    },
    {
      "inputs": [
        {
          "internalType": "address",
          "name": "_implementation",
          "type": "address"
        }
      ],
      "name": "proposeStrat",
      "outputs": [],
      "stateMutability": "nonpayable",
      "type": "function"
    },
    {
      "inputs": [],
      "name": "renounceOwnership",
      "outputs": [],
      "stateMutability": "nonpayable",
      "type": "function"
    },
    {
      "inputs": [],
      "name": "stake",
      "outputs": [
        {
          "internalType": "contract IERC20",
          "name": "",
          "type": "address"
        }
      ],
      "stateMutability": "view",
      "type": "function"
    },
    {
      "inputs": [],
      "name": "stratCandidate",
      "outputs": [
        {
          "internalType": "address",
          "name": "implementation",
          "type": "address"
        },
        {
          "internalType": "uint256",
          "name": "proposedTime",
          "type": "uint256"
        }
      ],
      "stateMutability": "view",
      "type": "function"
    },
    {
      "inputs": [],
      "name": "strategy",
      "outputs": [
        {
          "internalType": "contract IStrategy",
          "name": "",
          "type": "address"
        }
      ],
      "stateMutability": "view",
      "type": "function"
    },
    {
      "inputs": [],
      "name": "symbol",
      "outputs": [
        {
          "internalType": "string",
          "name": "",
          "type": "string"
        }
      ],
      "stateMutability": "view",
      "type": "function"
    },
    {
      "inputs": [],
      "name": "totalSupply",
      "outputs": [
        {
          "internalType": "uint256",
          "name": "",
          "type": "uint256"
        }
      ],
      "stateMutability": "view",
      "type": "function"
    },
    {
      "inputs": [
        {
          "internalType": "address",
          "name": "to",
          "type": "address"
        },
        {
          "internalType": "uint256",
          "name": "amount",
          "type": "uint256"
        }
      ],
      "name": "transfer",
      "outputs": [
        {
          "internalType": "bool",
          "name": "",
          "type": "bool"
        }
      ],
      "stateMutability": "nonpayable",
      "type": "function"
    },
    {
      "inputs": [
        {
          "internalType": "address",
          "name": "from",
          "type": "address"
        },
        {
          "internalType": "address",
          "name": "to",
          "type": "address"
        },
        {
          "internalType": "uint256",
          "name": "amount",
          "type": "uint256"
        }
      ],
      "name": "transferFrom",
      "outputs": [
        {
          "internalType": "bool",
          "name": "",
          "type": "bool"
        }
      ],
      "stateMutability": "nonpayable",
      "type": "function"
    },
    {
      "inputs": [
        {
          "internalType": "address",
          "name": "newOwner",
          "type": "address"
        }
      ],
      "name": "transferOwnership",
      "outputs": [],
      "stateMutability": "nonpayable",
      "type": "function"
    },
    {
      "inputs": [],
      "name": "upgradeStrat",
      "outputs": [],
      "stateMutability": "nonpayable",
      "type": "function"
    },
    {
      "inputs": [
        {
          "internalType": "uint256",
          "name": "_shares",
          "type": "uint256"
        }
      ],
      "name": "withdraw",
      "outputs": [],
      "stateMutability": "nonpayable",
      "type": "function"
    },
    {
      "inputs": [],
      "name": "withdrawAll",
      "outputs": [],
      "stateMutability": "nonpayable",
      "type": "function"
    }
  ],
  "bytecode": {
    "object": "0x60a06040523480156200001157600080fd5b506040516200227d3803806200227d83398101604081905262000034916200019c565b828260036200004483826200029e565b5060046200005382826200029e565b505050620000706200006a6200008160201b60201c565b62000085565b6001600655608052506200036a9050565b3390565b600580546001600160a01b038381166001600160a01b0319831681179093556040519116919082907f8be0079c531659141344cd1fd0a4f28419497f9722a3daafe3b4186f6b6457e090600090a35050565b634e487b7160e01b600052604160045260246000fd5b600082601f830112620000ff57600080fd5b81516001600160401b03808211156200011c576200011c620000d7565b604051601f8301601f19908116603f01168101908282118183101715620001475762000147620000d7565b816040528381526020925086838588010111156200016457600080fd5b600091505b8382101562000188578582018301518183018401529082019062000169565b600093810190920192909252949350505050565b600080600060608486031215620001b257600080fd5b83516001600160401b0380821115620001ca57600080fd5b620001d887838801620000ed565b94506020860151915080821115620001ef57600080fd5b50620001fe86828701620000ed565b925050604084015190509250925092565b600181811c908216806200022457607f821691505b6020821081036200024557634e487b7160e01b600052602260045260246000fd5b50919050565b601f8211156200029957600081815260208120601f850160051c81016020861015620002745750805b601f850160051c820191505b81811015620002955782815560010162000280565b5050505b505050565b81516001600160401b03811115620002ba57620002ba620000d7565b620002d281620002cb84546200020f565b846200024b565b602080601f8311600181146200030a5760008415620002f15750858301515b600019600386901b1c1916600185901b17855562000295565b600085815260208120601f198616915b828110156200033b578886015182559484019460019091019084016200031a565b50858210156200035a5787850151600019600388901b60f8161c191681555b5050505050600190811b01905550565b608051611ef06200038d6000396000818161043b01526111460152611ef06000f3fe608060405234801561001057600080fd5b50600436106101e55760003560e01c806377c7b8fc1161010f578063b6b55f25116100a2578063def68a9c11610071578063def68a9c14610423578063e2d1e75c14610436578063e66852441461045d578063f2fde38b1461046557600080fd5b8063b6b55f25146103ed578063d389800f14610400578063dd62ed3e14610408578063de5f62681461041b57600080fd5b8063a457c2d7116100de578063a457c2d7146103ac578063a8c62e76146103bf578063a9059cbb146103d2578063b69ef8a8146103e557600080fd5b806377c7b8fc14610383578063853828b61461038b5780638da5cb5b1461039357806395d89b41146103a457600080fd5b8063313ce567116101875780635b12ff9b116101565780635b12ff9b1461030957806370a082311461031c578063715018a61461034557806376dfabb81461034d57600080fd5b8063313ce567146102bf57806339509351146102ce5780633a4b66f1146102e157806348a0d7541461030157600080fd5b806319ab453c116101c357806319ab453c1461023d57806323b872dd1461025257806329659788146102655780632e1a7d4d146102ac57600080fd5b806306fdde03146101ea578063095ea7b31461020857806318160ddd1461022b575b600080fd5b6101f2610478565b6040516101ff9190611c73565b60405180910390f35b61021b610216366004611cbb565b61050a565b60405190151581526020016101ff565b6002545b6040519081526020016101ff565b61025061024b366004611ce7565b610524565b005b61021b610260366004611d04565b61064e565b6040805180820182526000808252602091820152815180830183526008546001600160a01b03168082526009549183019182528351908152905191810191909152016101ff565b6102506102ba366004611d45565b610672565b604051601281526020016101ff565b61021b6102dc366004611cbb565b6108a9565b6102e96108cb565b6040516001600160a01b0390911681526020016101ff565b61022f61093e565b610250610317366004611ce7565b6109b2565b61022f61032a366004611ce7565b6001600160a01b031660009081526020819052604090205490565b610250610b95565b600854600954610364916001600160a01b03169082565b604080516001600160a01b0390931683526020830191909152016101ff565b61022f610ba9565b610250610be6565b6005546001600160a01b03166102e9565b6101f2610bff565b61021b6103ba366004611cbb565b610c0e565b600a546102e9906001600160a01b031681565b61021b6103e0366004611cbb565b610c89565b61022f610c97565b6102506103fb366004611d45565b610d8b565b610250610edb565b61022f610416366004611d5e565b610f74565b610250610f9f565b610250610431366004611ce7565b611014565b61022f7f000000000000000000000000000000000000000000000000000000000000000081565b6102506110ee565b610250610473366004611ce7565b61126f565b60606003805461048790611d97565b80601f01602080910402602001604051908101604052809291908181526020018280546104b390611d97565b80156105005780601f106104d557610100808354040283529160200191610500565b820191906000526020600020905b8154815290600101906020018083116104e357829003601f168201915b5050505050905090565b6000336105188185856112e5565b60019150505b92915050565b600754610100900460ff16158080156105445750600754600160ff909116105b8061055e5750303b15801561055e575060075460ff166001145b6105c65760405162461bcd60e51b815260206004820152602e60248201527f496e697469616c697a61626c653a20636f6e747261637420697320616c72656160448201526d191e481a5b9a5d1a585b1a5e995960921b60648201526084015b60405180910390fd5b6007805460ff1916600117905580156105e9576007805461ff0019166101001790555b600a80546001600160a01b0319166001600160a01b038416179055801561064a576007805461ff0019169055604051600181527f7f26b83ff96e1f2b6a682f133852f6798a09c465da95921460cefb38474024989060200160405180910390a15b5050565b60003361065c85828561140a565b610667858585611484565b506001949350505050565b61067a611628565b610682611682565b60006106a861069060025490565b6106a28461069c610c97565b906116db565b906116ee565b90506106b433836116fa565b60006106be6108cb565b6040516370a0823160e01b81523060048201526001600160a01b0391909116906370a0823190602401602060405180830381865afa158015610704573d6000803e3d6000fd5b505050506040513d601f19601f820116820180604052508101906107289190611dd1565b90508181101561083a57600061073e8383611829565b600a54604051632e1a7d4d60e01b8152600481018390529192506001600160a01b031690632e1a7d4d90602401600060405180830381600087803b15801561078557600080fd5b505af1158015610799573d6000803e3d6000fd5b5050505060006107a76108cb565b6040516370a0823160e01b81523060048201526001600160a01b0391909116906370a0823190602401602060405180830381865afa1580156107ed573d6000803e3d6000fd5b505050506040513d601f19601f820116820180604052508101906108119190611dd1565b9050600061081f8285611829565b905082811015610836576108338482611835565b94505b5050505b61085733836108476108cb565b6001600160a01b03169190611841565b337ff279e6a1f5e320cca91135676d9cb6e44ca8a08c0b88342bcdb1144f6511b56883610882610c97565b6040805192835260208301919091520160405180910390a250506108a66001600655565b50565b6000336105188185856108bc8383610f74565b6108c69190611e00565b6112e5565b600a5460408051633a4b66f160e01b815290516000926001600160a01b031691633a4b66f19160048083019260209291908290030181865afa158015610915573d6000803e3d6000fd5b505050506040513d601f19601f820116820180604052508101906109399190611e13565b905090565b60006109486108cb565b6040516370a0823160e01b81523060048201526001600160a01b0391909116906370a0823190602401602060405180830381865afa15801561098e573d6000803e3d6000fd5b505050506040513d601f19601f820116820180604052508101906109399190611dd1565b6005546001600160a01b0316331480610a3e5750600a546040805163481c6a7560e01b8152905133926001600160a01b03169163481c6a759160048083019260209291908290030181865afa158015610a0f573d6000803e3d6000fd5b505050506040513d601f19601f82011682018060405250810190610a339190611e13565b6001600160a01b0316145b610a805760405162461bcd60e51b815260206004820152601360248201527221286f776e6572207c7c206d616e616765722960681b60448201526064016105bd565b806001600160a01b031663fbfa77cf6040518163ffffffff1660e01b8152600401602060405180830381865afa158015610abe573d6000803e3d6000fd5b505050506040513d601f19601f82011682018060405250810190610ae29190611e13565b6001600160a01b0316306001600160a01b031614610b2e5760405162461bcd60e51b8152602060048201526009602482015268085c1c9bdc1bdcd85b60ba1b60448201526064016105bd565b6040805180820182526001600160a01b038316808252426020928301819052600880546001600160a01b0319168317905560095591519182527f1aae2ec5647db56da2d513de40528ba3565c6057525637050660c4323bbac7df910160405180910390a150565b610b9d611628565b610ba760006118a4565b565b6000610bb460025490565b15610bd957610939610bc560025490565b6106a2670de0b6b3a764000061069c610c97565b50670de0b6b3a764000090565b33600090815260208190526040902054610ba790610672565b60606004805461048790611d97565b60003381610c1c8286610f74565b905083811015610c7c5760405162461bcd60e51b815260206004820152602560248201527f45524332303a2064656372656173656420616c6c6f77616e63652062656c6f77604482015264207a65726f60d81b60648201526084016105bd565b61066782868684036112e5565b600033610518818585611484565b6000610939600a60009054906101000a90046001600160a01b03166001600160a01b031663722713f76040518163ffffffff1660e01b8152600401602060405180830381865afa158015610cef573d6000803e3d6000fd5b505050506040513d601f19601f82011682018060405250810190610d139190611dd1565b610d1b6108cb565b6040516370a0823160e01b81523060048201526001600160a01b0391909116906370a0823190602401602060405180830381865afa158015610d61573d6000803e3d6000fd5b505050506040513d601f19601f82011682018060405250810190610d859190611dd1565b90611835565b610d93611682565b610d9b611628565b600a60009054906101000a90046001600160a01b03166001600160a01b031663573fef0a6040518163ffffffff1660e01b8152600401600060405180830381600087803b158015610deb57600080fd5b505af1158015610dff573d6000803e3d6000fd5b505050506000610e0d610c97565b9050610e2e333084610e1d6108cb565b6001600160a01b03169291906118f6565b610e36610edb565b6000610e40610c97565b9050610e4c8183611829565b92506000610e5960025490565b600003610e67575082610e81565b610e7e836106a2610e7760025490565b87906116db565b90505b610e8b338261192e565b337f90890809c654f11d6e72a28fa60149770a0d11ec6c92319d6ceb2bb0a4ea1a1585610eb6610c97565b6040805192835260208301919091520160405180910390a25050506108a66001600655565b610ee3611628565b6000610eed61093e565b600a54909150610f09906001600160a01b0316826108476108cb565b600a60009054906101000a90046001600160a01b03166001600160a01b031663d0e30db06040518163ffffffff1660e01b8152600401600060405180830381600087803b158015610f5957600080fd5b505af1158015610f6d573d6000803e3d6000fd5b5050505050565b6001600160a01b03918216600090815260016020908152604080832093909416825291909152205490565b610ba7610faa6108cb565b6040516370a0823160e01b81523360048201526001600160a01b0391909116906370a0823190602401602060405180830381865afa158015610ff0573d6000803e3d6000fd5b505050506040513d601f19601f820116820180604052508101906103fb9190611dd1565b61101c611628565b6110246108cb565b6001600160a01b0316816001600160a01b03160361106d5760405162461bcd60e51b815260206004820152600660248201526510ba37b5b2b760d11b60448201526064016105bd565b6040516370a0823160e01b81523060048201526000906001600160a01b038316906370a0823190602401602060405180830381865afa1580156110b4573d6000803e3d6000fd5b505050506040513d601f19601f820116820180604052508101906110d89190611dd1565b905061064a6001600160a01b0383163383611841565b6110f6611628565b6008546001600160a01b031661113b5760405162461bcd60e51b815260206004820152600a6024820152692163616e64696461746560b01b60448201526064016105bd565b600954429061116a907f0000000000000000000000000000000000000000000000000000000000000000611835565b106111a05760405162461bcd60e51b81526020600482015260066024820152652164656c617960d01b60448201526064016105bd565b6008546040516001600160a01b0390911681527f7f37d440e85aba7fbf641c4bda5ca4ef669a80bffaacde2aa8d9feb1b048c82c9060200160405180910390a1600a8054600880546001600160a01b03198084166001600160a01b038381169190911790955516905564012a05f2006009556040805163fb61778760e01b815290519290911691829163fb61778791600480830192600092919082900301818387803b15801561124f57600080fd5b505af1158015611263573d6000803e3d6000fd5b505050506108a6610edb565b611277611628565b6001600160a01b0381166112dc5760405162461bcd60e51b815260206004820152602660248201527f4f776e61626c653a206e6577206f776e657220697320746865207a65726f206160448201526564647265737360d01b60648201526084016105bd565b6108a6816118a4565b6001600160a01b0383166113475760405162461bcd60e51b8152602060048201526024808201527f45524332303a20617070726f76652066726f6d20746865207a65726f206164646044820152637265737360e01b60648201526084016105bd565b6001600160a01b0382166113a85760405162461bcd60e51b815260206004820152602260248201527f45524332303a20617070726f766520746f20746865207a65726f206164647265604482015261737360f01b60648201526084016105bd565b6001600160a01b0383811660008181526001602090815260408083209487168084529482529182902085905590518481527f8c5be1e5ebec7d5bd14f71427d1e84f3dd0314c0f7b2291e5b200ac8c7c3b92591015b60405180910390a3505050565b60006114168484610f74565b9050600019811461147e57818110156114715760405162461bcd60e51b815260206004820152601d60248201527f45524332303a20696e73756666696369656e7420616c6c6f77616e636500000060448201526064016105bd565b61147e84848484036112e5565b50505050565b6001600160a01b0383166114e85760405162461bcd60e51b815260206004820152602560248201527f45524332303a207472616e736665722066726f6d20746865207a65726f206164604482015264647265737360d81b60648201526084016105bd565b6001600160a01b03821661154a5760405162461bcd60e51b815260206004820152602360248201527f45524332303a207472616e7366657220746f20746865207a65726f206164647260448201526265737360e81b60648201526084016105bd565b6001600160a01b038316600090815260208190526040902054818110156115c25760405162461bcd60e51b815260206004820152602660248201527f45524332303a207472616e7366657220616d6f756e7420657863656564732062604482015265616c616e636560d01b60648201526084016105bd565b6001600160a01b03848116600081815260208181526040808320878703905593871680835291849020805487019055925185815290927fddf252ad1be2c89b69c2b068fc378daa952ba7f163c4a11628f55a4df523b3ef910160405180910390a361147e565b6005546001600160a01b03163314610ba75760405162461bcd60e51b815260206004820181905260248201527f4f776e61626c653a2063616c6c6572206973206e6f7420746865206f776e657260448201526064016105bd565b6002600654036116d45760405162461bcd60e51b815260206004820152601f60248201527f5265656e7472616e637947756172643a207265656e7472616e742063616c6c0060448201526064016105bd565b6002600655565b60006116e78284611e30565b9392505050565b60006116e78284611e47565b6001600160a01b03821661175a5760405162461bcd60e51b815260206004820152602160248201527f45524332303a206275726e2066726f6d20746865207a65726f206164647265736044820152607360f81b60648201526084016105bd565b6001600160a01b038216600090815260208190526040902054818110156117ce5760405162461bcd60e51b815260206004820152602260248201527f45524332303a206275726e20616d6f756e7420657863656564732062616c616e604482015261636560f01b60648201526084016105bd565b6001600160a01b0383166000818152602081815260408083208686039055600280548790039055518581529192917fddf252ad1be2c89b69c2b068fc378daa952ba7f163c4a11628f55a4df523b3ef91016113fd565b505050565b60006116e78284611e69565b60006116e78284611e00565b6040516001600160a01b03831660248201526044810182905261182490849063a9059cbb60e01b906064015b60408051601f198184030181529190526020810180516001600160e01b03166001600160e01b0319909316929092179091526119ed565b600580546001600160a01b038381166001600160a01b0319831681179093556040519116919082907f8be0079c531659141344cd1fd0a4f28419497f9722a3daafe3b4186f6b6457e090600090a35050565b6040516001600160a01b038085166024830152831660448201526064810182905261147e9085906323b872dd60e01b9060840161186d565b6001600160a01b0382166119845760405162461bcd60e51b815260206004820152601f60248201527f45524332303a206d696e7420746f20746865207a65726f20616464726573730060448201526064016105bd565b80600260008282546119969190611e00565b90915550506001600160a01b038216600081815260208181526040808320805486019055518481527fddf252ad1be2c89b69c2b068fc378daa952ba7f163c4a11628f55a4df523b3ef910160405180910390a35050565b6000611a42826040518060400160405280602081526020017f5361666545524332303a206c6f772d6c6576656c2063616c6c206661696c6564815250856001600160a01b0316611abf9092919063ffffffff16565b8051909150156118245780806020019051810190611a609190611e7c565b6118245760405162461bcd60e51b815260206004820152602a60248201527f5361666545524332303a204552433230206f7065726174696f6e20646964206e6044820152691bdd081cdd58d8d9595960b21b60648201526084016105bd565b6060611ace8484600085611ad6565b949350505050565b606082471015611b375760405162461bcd60e51b815260206004820152602660248201527f416464726573733a20696e73756666696369656e742062616c616e636520666f6044820152651c8818d85b1b60d21b60648201526084016105bd565b600080866001600160a01b03168587604051611b539190611e9e565b60006040518083038185875af1925050503d8060008114611b90576040519150601f19603f3d011682016040523d82523d6000602084013e611b95565b606091505b5091509150611ba687838387611bb1565b979650505050505050565b60608315611c20578251600003611c19576001600160a01b0385163b611c195760405162461bcd60e51b815260206004820152601d60248201527f416464726573733a2063616c6c20746f206e6f6e2d636f6e747261637400000060448201526064016105bd565b5081611ace565b611ace8383815115611c355781518083602001fd5b8060405162461bcd60e51b81526004016105bd9190611c73565b60005b83811015611c6a578181015183820152602001611c52565b50506000910152565b6020815260008251806020840152611c92816040850160208701611c4f565b601f01601f19169190910160400192915050565b6001600160a01b03811681146108a657600080fd5b60008060408385031215611cce57600080fd5b8235611cd981611ca6565b946020939093013593505050565b600060208284031215611cf957600080fd5b81356116e781611ca6565b600080600060608486031215611d1957600080fd5b8335611d2481611ca6565b92506020840135611d3481611ca6565b929592945050506040919091013590565b600060208284031215611d5757600080fd5b5035919050565b60008060408385031215611d7157600080fd5b8235611d7c81611ca6565b91506020830135611d8c81611ca6565b809150509250929050565b600181811c90821680611dab57607f821691505b602082108103611dcb57634e487b7160e01b600052602260045260246000fd5b50919050565b600060208284031215611de357600080fd5b5051919050565b634e487b7160e01b600052601160045260246000fd5b8082018082111561051e5761051e611dea565b600060208284031215611e2557600080fd5b81516116e781611ca6565b808202811582820484141761051e5761051e611dea565b600082611e6457634e487b7160e01b600052601260045260246000fd5b500490565b8181038181111561051e5761051e611dea565b600060208284031215611e8e57600080fd5b815180151581146116e757600080fd5b60008251611eb0818460208701611c4f565b919091019291505056fea2646970667358221220acdf92d3e697547d14a22b1981b38242f186ff3df18cd0774e7b9ea7c9cbc58964736f6c63430008110033",
    "linkReferences": {}
  },
  "methodIdentifiers": {
    "allowance(address,address)": "dd62ed3e",
    "approvalDelay()": "e2d1e75c",
    "approve(address,uint256)": "095ea7b3",
    "available()": "48a0d754",
    "balance()": "b69ef8a8",
    "balanceOf(address)": "70a08231",
    "decimals()": "313ce567",
    "decreaseAllowance(address,uint256)": "a457c2d7",
    "deposit(uint256)": "b6b55f25",
    "depositAll()": "de5f6268",
    "earn()": "d389800f",
    "getPricePerFullShare()": "77c7b8fc",
    "getStratProposal()": "29659788",
    "inCaseTokensGetStuck(address)": "def68a9c",
    "increaseAllowance(address,uint256)": "39509351",
    "init(address)": "19ab453c",
    "name()": "06fdde03",
    "owner()": "8da5cb5b",
    "proposeStrat(address)": "5b12ff9b",
    "renounceOwnership()": "715018a6",
    "stake()": "3a4b66f1",
    "stratCandidate()": "76dfabb8",
    "strategy()": "a8c62e76",
    "symbol()": "95d89b41",
    "totalSupply()": "18160ddd",
    "transfer(address,uint256)": "a9059cbb",
    "transferFrom(address,address,uint256)": "23b872dd",
    "transferOwnership(address)": "f2fde38b",
    "upgradeStrat()": "e6685244",
    "withdraw(uint256)": "2e1a7d4d",
    "withdrawAll()": "853828b6"
  },
  "id": 75
}