{
  "abi": [
    {
      "inputs": [
        {
          "internalType": "address",
          "name": "_stake",
          "type": "address"
        },
        {
          "internalType": "address",
          "name": "_vault",
          "type": "address"
        }
      ],
      "stateMutability": "nonpayable",
      "type": "constructor"
    },
    {
      "anonymous": false,
      "inputs": [
        {
          "indexed": false,
          "internalType": "uint256",
          "name": "tvl",
          "type": "uint256"
        },
        {
          "indexed": false,
          "internalType": "uint256",
          "name": "amount",
          "type": "uint256"
        }
      ],
      "name": "Deposit",
      "type": "event"
    },
    {
      "anonymous": false,
      "inputs": [
        {
          "indexed": false,
          "internalType": "address",
          "name": "account",
          "type": "address"
        }
      ],
      "name": "Paused",
      "type": "event"
    },
    {
      "anonymous": false,
      "inputs": [
        {
          "indexed": false,
          "internalType": "address",
          "name": "account",
          "type": "address"
        }
      ],
      "name": "Unpaused",
      "type": "event"
    },
    {
      "anonymous": false,
      "inputs": [
        {
          "indexed": false,
          "internalType": "uint256",
          "name": "tvl",
          "type": "uint256"
        },
        {
          "indexed": false,
          "internalType": "uint256",
          "name": "amount",
          "type": "uint256"
        }
      ],
      "name": "Withdraw",
      "type": "event"
    },
    {
      "inputs": [],
      "name": "balanceOf",
      "outputs": [
        {
          "internalType": "uint256",
          "name": "",
          "type": "uint256"
        }
      ],
      "stateMutability": "view",
      "type": "function"
    },
    {
      "inputs": [],
      "name": "beforeDeposit",
      "outputs": [],
      "stateMutability": "nonpayable",
      "type": "function"
    },
    {
      "inputs": [],
      "name": "deposit",
      "outputs": [],
      "stateMutability": "nonpayable",
      "type": "function"
    },
    {
      "inputs": [],
      "name": "manager",
      "outputs": [
        {
          "internalType": "address",
          "name": "",
          "type": "address"
        }
      ],
      "stateMutability": "view",
      "type": "function"
    },
    {
      "inputs": [],
      "name": "paused",
      "outputs": [
        {
          "internalType": "bool",
          "name": "",
          "type": "bool"
        }
      ],
      "stateMutability": "view",
      "type": "function"
    },
    {
      "inputs": [],
      "name": "stake",
      "outputs": [
        {
          "internalType": "address",
          "name": "",
          "type": "address"
        }
      ],
      "stateMutability": "view",
      "type": "function"
    },
    {
      "inputs": [],
      "name": "vault",
      "outputs": [
        {
          "internalType": "address",
          "name": "",
          "type": "address"
        }
      ],
      "stateMutability": "view",
      "type": "function"
    },
    {
      "inputs": [
        {
          "internalType": "uint256",
          "name": "_amount",
          "type": "uint256"
        }
      ],
      "name": "withdraw",
      "outputs": [],
      "stateMutability": "nonpayable",
      "type": "function"
    }
  ],
  "bytecode": {
    "object": "0x608060405234801561001057600080fd5b506040516107e13803806107e183398101604081905261002f91610095565b600080546001600160a01b03938416610100026001600160a81b031990911617905560018054919092166001600160a01b03199182161790915560028054909116331790556100c8565b80516001600160a01b038116811461009057600080fd5b919050565b600080604083850312156100a857600080fd5b6100b183610079565b91506100bf60208401610079565b90509250929050565b61070a806100d76000396000f3fe608060405234801561001057600080fd5b50600436106100885760003560e01c80635c975abb1161005b5780635c975abb146100ea578063722713f714610100578063d0e30db014610116578063fbfa77cf1461011e57600080fd5b80632e1a7d4d1461008d5780633a4b66f1146100a2578063481c6a75146100d7578063573fef0a146100a0575b600080fd5b6100a061009b366004610606565b610131565b005b6000546100ba9061010090046001600160a01b031681565b6040516001600160a01b0390911681526020015b60405180910390f35b6002546100ba906001600160a01b031681565b60005460ff1660405190151581526020016100ce565b610108610215565b6040519081526020016100ce565b6100a061028b565b6001546100ba906001600160a01b031681565b600080546040516370a0823160e01b81523060048201526101009091046001600160a01b0316906370a0823190602401602060405180830381865afa15801561017e573d6000803e3d6000fd5b505050506040513d601f19601f820116820180604052508101906101a2919061061f565b9050818111156101af5750805b6001546000546101d1916001600160a01b036101009092048216911683610348565b7f56ca301a9219608c91e7bcee90e083c19671d2cdcc96752c7af291cee5f9c8c86101fa610215565b60408051918252602082018490520160405180910390a15050565b600080546040516370a0823160e01b81523060048201526101009091046001600160a01b0316906370a0823190602401602060405180830381865afa158015610262573d6000803e3d6000fd5b505050506040513d601f19601f82011682018060405250810190610286919061061f565b905090565b600080546040516370a0823160e01b81523060048201526101009091046001600160a01b0316906370a0823190602401602060405180830381865afa1580156102d8573d6000803e3d6000fd5b505050506040513d601f19601f820116820180604052508101906102fc919061061f565b90508015610345577fa3af609bf46297028ce551832669030f9effef2b02606d02cbbcc40fe6b47c5561032d610215565b60408051918252602082018490520160405180910390a15b50565b604080516001600160a01b038416602482015260448082018490528251808303909101815260649091019091526020810180516001600160e01b031663a9059cbb60e01b17905261039a90849061039f565b505050565b60006103f4826040518060400160405280602081526020017f5361666545524332303a206c6f772d6c6576656c2063616c6c206661696c6564815250856001600160a01b03166104769092919063ffffffff16565b80519091501561039a57808060200190518101906104129190610638565b61039a5760405162461bcd60e51b815260206004820152602a60248201527f5361666545524332303a204552433230206f7065726174696f6e20646964206e6044820152691bdd081cdd58d8d9595960b21b60648201526084015b60405180910390fd5b6060610485848460008561048d565b949350505050565b6060824710156104ee5760405162461bcd60e51b815260206004820152602660248201527f416464726573733a20696e73756666696369656e742062616c616e636520666f6044820152651c8818d85b1b60d21b606482015260840161046d565b600080866001600160a01b0316858760405161050a9190610685565b60006040518083038185875af1925050503d8060008114610547576040519150601f19603f3d011682016040523d82523d6000602084013e61054c565b606091505b509150915061055d87838387610568565b979650505050505050565b606083156105d75782516000036105d0576001600160a01b0385163b6105d05760405162461bcd60e51b815260206004820152601d60248201527f416464726573733a2063616c6c20746f206e6f6e2d636f6e7472616374000000604482015260640161046d565b5081610485565b61048583838151156105ec5781518083602001fd5b8060405162461bcd60e51b815260040161046d91906106a1565b60006020828403121561061857600080fd5b5035919050565b60006020828403121561063157600080fd5b5051919050565b60006020828403121561064a57600080fd5b8151801515811461065a57600080fd5b9392505050565b60005b8381101561067c578181015183820152602001610664565b50506000910152565b60008251610697818460208701610661565b9190910192915050565b60208152600082518060208401526106c0816040850160208701610661565b601f01601f1916919091016040019291505056fea264697066735822122064b94e4113c30c3b92b9049475978e38a72d011198eaea2bed03769905c9997f64736f6c63430008110033",
    "linkReferences": {}
  },
  "methodIdentifiers": {
    "balanceOf()": "722713f7",
    "beforeDeposit()": "573fef0a",
    "deposit()": "d0e30db0",
    "manager()": "481c6a75",
    "paused()": "5c975abb",
    "stake()": "3a4b66f1",
    "vault()": "fbfa77cf",
    "withdraw(uint256)": "2e1a7d4d"
  },
  "id": 86
}