{
  "abi": [
    {
      "anonymous": false,
      "inputs": [
        {
          "indexed": false,
          "internalType": "uint256",
          "name": "tvl",
          "type": "uint256"
        },
        {
          "indexed": false,
          "internalType": "uint256",
          "name": "amount",
          "type": "uint256"
        }
      ],
      "name": "Deposit",
      "type": "event"
    },
    {
      "anonymous": false,
      "inputs": [
        {
          "indexed": false,
          "internalType": "uint8",
          "name": "version",
          "type": "uint8"
        }
      ],
      "name": "Initialized",
      "type": "event"
    },
    {
      "anonymous": false,
      "inputs": [
        {
          "indexed": true,
          "internalType": "address",
          "name": "previousOwner",
          "type": "address"
        },
        {
          "indexed": true,
          "internalType": "address",
          "name": "newOwner",
          "type": "address"
        }
      ],
      "name": "OwnershipTransferred",
      "type": "event"
    },
    {
      "anonymous": false,
      "inputs": [
        {
          "indexed": false,
          "internalType": "address",
          "name": "account",
          "type": "address"
        }
      ],
      "name": "Paused",
      "type": "event"
    },
    {
      "anonymous": false,
      "inputs": [
        {
          "indexed": false,
          "internalType": "int24",
          "name": "tickLower",
          "type": "int24"
        },
        {
          "indexed": false,
          "internalType": "int24",
          "name": "tickUpper",
          "type": "int24"
        }
      ],
      "name": "RangeChange",
      "type": "event"
    },
    {
      "anonymous": false,
      "inputs": [
        {
          "indexed": false,
          "internalType": "address[]",
          "name": "newRewardToLp0AddressPath",
          "type": "address[]"
        },
        {
          "indexed": false,
          "internalType": "uint24[]",
          "name": "newRewardToLp0FeePath",
          "type": "uint24[]"
        }
      ],
      "name": "RewardToLp0PathChange",
      "type": "event"
    },
    {
      "anonymous": false,
      "inputs": [
        {
          "indexed": false,
          "internalType": "address[]",
          "name": "newRewardToLp1AddressPath",
          "type": "address[]"
        },
        {
          "indexed": false,
          "internalType": "uint24[]",
          "name": "newRewardToLp1FeePath",
          "type": "uint24[]"
        }
      ],
      "name": "RewardToLp1PathChange",
      "type": "event"
    },
    {
      "anonymous": false,
      "inputs": [
        {
          "indexed": false,
          "internalType": "address",
          "name": "manager",
          "type": "address"
        }
      ],
      "name": "SetManager",
      "type": "event"
    },
    {
      "anonymous": false,
      "inputs": [
        {
          "indexed": true,
          "internalType": "address",
          "name": "harvester",
          "type": "address"
        },
        {
          "indexed": false,
          "internalType": "uint256",
          "name": "stakeHarvested",
          "type": "uint256"
        },
        {
          "indexed": false,
          "internalType": "uint256",
          "name": "tvl",
          "type": "uint256"
        }
      ],
      "name": "StratHarvest",
      "type": "event"
    },
    {
      "anonymous": false,
      "inputs": [
        {
          "indexed": false,
          "internalType": "address",
          "name": "caller",
          "type": "address"
        },
        {
          "indexed": false,
          "internalType": "uint256",
          "name": "tvl",
          "type": "uint256"
        }
      ],
      "name": "StratRebalance",
      "type": "event"
    },
    {
      "anonymous": false,
      "inputs": [
        {
          "indexed": false,
          "internalType": "address",
          "name": "account",
          "type": "address"
        }
      ],
      "name": "Unpaused",
      "type": "event"
    },
    {
      "anonymous": false,
      "inputs": [
        {
          "indexed": false,
          "internalType": "uint256",
          "name": "tvl",
          "type": "uint256"
        },
        {
          "indexed": false,
          "internalType": "uint256",
          "name": "amount",
          "type": "uint256"
        }
      ],
      "name": "Withdraw",
      "type": "event"
    },
    {
      "inputs": [],
      "name": "MANTISSA",
      "outputs": [
        {
          "internalType": "uint256",
          "name": "",
          "type": "uint256"
        }
      ],
      "stateMutability": "view",
      "type": "function"
    },
    {
      "inputs": [],
      "name": "NonfungiblePositionManager",
      "outputs": [
        {
          "internalType": "address",
          "name": "",
          "type": "address"
        }
      ],
      "stateMutability": "view",
      "type": "function"
    },
    {
      "inputs": [],
      "name": "_burnAndCollectV3",
      "outputs": [
        {
          "internalType": "uint256",
          "name": "amount0",
          "type": "uint256"
        },
        {
          "internalType": "uint256",
          "name": "amount1",
          "type": "uint256"
        }
      ],
      "stateMutability": "nonpayable",
      "type": "function"
    },
    {
      "inputs": [],
      "name": "_increaseLiquidity",
      "outputs": [],
      "stateMutability": "nonpayable",
      "type": "function"
    },
    {
      "inputs": [],
      "name": "_mintAndAddLiquidityV3",
      "outputs": [],
      "stateMutability": "nonpayable",
      "type": "function"
    },
    {
      "inputs": [],
      "name": "_stakeNonFungibleLiquidityPosition",
      "outputs": [],
      "stateMutability": "nonpayable",
      "type": "function"
    },
    {
      "inputs": [],
      "name": "_swapAssetsToNewRangeRatio",
      "outputs": [],
      "stateMutability": "nonpayable",
      "type": "function"
    },
    {
      "inputs": [],
      "name": "assettoNativeFeed",
      "outputs": [
        {
          "internalType": "address",
          "name": "",
          "type": "address"
        }
      ],
      "stateMutability": "view",
      "type": "function"
    },
    {
      "inputs": [],
      "name": "balanceOf",
      "outputs": [
        {
          "internalType": "uint256",
          "name": "",
          "type": "uint256"
        }
      ],
      "stateMutability": "view",
      "type": "function"
    },
    {
      "inputs": [
        {
          "internalType": "int24",
          "name": "_tickLower",
          "type": "int24"
        },
        {
          "internalType": "int24",
          "name": "_tickUpper",
          "type": "int24"
        }
      ],
      "name": "changeRange",
      "outputs": [],
      "stateMutability": "nonpayable",
      "type": "function"
    },
    {
      "inputs": [],
      "name": "chef",
      "outputs": [
        {
          "internalType": "address",
          "name": "",
          "type": "address"
        }
      ],
      "stateMutability": "view",
      "type": "function"
    },
    {
      "inputs": [],
      "name": "deposit",
      "outputs": [],
      "stateMutability": "nonpayable",
      "type": "function"
    },
    {
      "inputs": [],
      "name": "depositV3",
      "outputs": [],
      "stateMutability": "nonpayable",
      "type": "function"
    },
    {
      "inputs": [],
      "name": "distribution",
      "outputs": [
        {
          "internalType": "address",
          "name": "",
          "type": "address"
        }
      ],
      "stateMutability": "view",
      "type": "function"
    },
    {
      "inputs": [],
      "name": "fullMathLib",
      "outputs": [
        {
          "internalType": "address",
          "name": "",
          "type": "address"
        }
      ],
      "stateMutability": "view",
      "type": "function"
    },
    {
      "inputs": [],
      "name": "getDepositToken",
      "outputs": [
        {
          "internalType": "address",
          "name": "",
          "type": "address"
        }
      ],
      "stateMutability": "view",
      "type": "function"
    },
    {
      "inputs": [],
      "name": "getDepositvToken",
      "outputs": [
        {
          "internalType": "address",
          "name": "",
          "type": "address"
        }
      ],
      "stateMutability": "view",
      "type": "function"
    },
    {
      "inputs": [],
      "name": "getNeutralToken",
      "outputs": [
        {
          "internalType": "address",
          "name": "",
          "type": "address"
        }
      ],
      "stateMutability": "view",
      "type": "function"
    },
    {
      "inputs": [],
      "name": "getNeutralvToken",
      "outputs": [
        {
          "internalType": "address",
          "name": "",
          "type": "address"
        }
      ],
      "stateMutability": "view",
      "type": "function"
    },
    {
      "inputs": [],
      "name": "harvest",
      "outputs": [],
      "stateMutability": "nonpayable",
      "type": "function"
    },
    {
      "inputs": [
        {
          "components": [
            {
              "internalType": "int24",
              "name": "tickLower",
              "type": "int24"
            },
            {
              "internalType": "int24",
              "name": "tickUpper",
              "type": "int24"
            },
            {
              "internalType": "address",
              "name": "stake",
              "type": "address"
            },
            {
              "internalType": "address",
              "name": "chef",
              "type": "address"
            },
            {
              "internalType": "address",
              "name": "reward",
              "type": "address"
            },
            {
              "internalType": "address",
              "name": "tickMathLib",
              "type": "address"
            },
            {
              "internalType": "address",
              "name": "sqrtPriceMathLib",
              "type": "address"
            },
            {
              "internalType": "address",
              "name": "liquidityMathLib",
              "type": "address"
            },
            {
              "internalType": "address",
              "name": "safeCastLib",
              "type": "address"
            },
            {
              "internalType": "address",
              "name": "liquidityAmountsLib",
              "type": "address"
            },
            {
              "internalType": "address",
              "name": "fullMathLib",
              "type": "address"
            },
            {
              "internalType": "address[]",
              "name": "rewardToLp0AddressPath",
              "type": "address[]"
            },
            {
              "internalType": "uint24[]",
              "name": "rewardToLp0FeePath",
              "type": "uint24[]"
            },
            {
              "internalType": "address[]",
              "name": "rewardToLp1AddressPath",
              "type": "address[]"
            },
            {
              "internalType": "uint24[]",
              "name": "rewardToLp1FeePath",
              "type": "uint24[]"
            },
            {
              "internalType": "address",
              "name": "rewardtoNativeFeed",
              "type": "address"
            },
            {
              "internalType": "address",
              "name": "assettoNativeFeed",
              "type": "address"
            }
          ],
          "internalType": "struct CakePoolParams",
          "name": "_cakePoolParams",
          "type": "tuple"
        },
        {
          "components": [
            {
              "internalType": "address",
              "name": "vault",
              "type": "address"
            },
            {
              "internalType": "address",
              "name": "router",
              "type": "address"
            },
            {
              "internalType": "address",
              "name": "NonfungiblePositionManager",
              "type": "address"
            }
          ],
          "internalType": "struct CommonAddresses",
          "name": "_commonAddresses",
          "type": "tuple"
        },
        {
          "internalType": "uint256",
          "name": "safetyFactor_",
          "type": "uint256"
        },
        {
          "internalType": "address",
          "name": "vToken0_",
          "type": "address"
        },
        {
          "internalType": "address",
          "name": "vToken1_",
          "type": "address"
        },
        {
          "internalType": "address",
          "name": "distribution_",
          "type": "address"
        }
      ],
      "name": "init",
      "outputs": [],
      "stateMutability": "nonpayable",
      "type": "function"
    },
    {
      "inputs": [
        {
          "components": [
            {
              "internalType": "int24",
              "name": "tickLower",
              "type": "int24"
            },
            {
              "internalType": "int24",
              "name": "tickUpper",
              "type": "int24"
            },
            {
              "internalType": "address",
              "name": "stake",
              "type": "address"
            },
            {
              "internalType": "address",
              "name": "chef",
              "type": "address"
            },
            {
              "internalType": "address",
              "name": "reward",
              "type": "address"
            },
            {
              "internalType": "address",
              "name": "tickMathLib",
              "type": "address"
            },
            {
              "internalType": "address",
              "name": "sqrtPriceMathLib",
              "type": "address"
            },
            {
              "internalType": "address",
              "name": "liquidityMathLib",
              "type": "address"
            },
            {
              "internalType": "address",
              "name": "safeCastLib",
              "type": "address"
            },
            {
              "internalType": "address",
              "name": "liquidityAmountsLib",
              "type": "address"
            },
            {
              "internalType": "address",
              "name": "fullMathLib",
              "type": "address"
            },
            {
              "internalType": "address[]",
              "name": "rewardToLp0AddressPath",
              "type": "address[]"
            },
            {
              "internalType": "uint24[]",
              "name": "rewardToLp0FeePath",
              "type": "uint24[]"
            },
            {
              "internalType": "address[]",
              "name": "rewardToLp1AddressPath",
              "type": "address[]"
            },
            {
              "internalType": "uint24[]",
              "name": "rewardToLp1FeePath",
              "type": "uint24[]"
            },
            {
              "internalType": "address",
              "name": "rewardtoNativeFeed",
              "type": "address"
            },
            {
              "internalType": "address",
              "name": "assettoNativeFeed",
              "type": "address"
            }
          ],
          "internalType": "struct CakePoolParams",
          "name": "_cakePoolParams",
          "type": "tuple"
        },
        {
          "components": [
            {
              "internalType": "address",
              "name": "vault",
              "type": "address"
            },
            {
              "internalType": "address",
              "name": "router",
              "type": "address"
            },
            {
              "internalType": "address",
              "name": "NonfungiblePositionManager",
              "type": "address"
            }
          ],
          "internalType": "struct CommonAddresses",
          "name": "_commonAddresses",
          "type": "tuple"
        }
      ],
      "name": "init",
      "outputs": [],
      "stateMutability": "nonpayable",
      "type": "function"
    },
    {
      "inputs": [],
      "name": "isTokenZeroDeposit",
      "outputs": [
        {
          "internalType": "bool",
          "name": "",
          "type": "bool"
        }
      ],
      "stateMutability": "view",
      "type": "function"
    },
    {
      "inputs": [],
      "name": "lastHarvest",
      "outputs": [
        {
          "internalType": "uint256",
          "name": "",
          "type": "uint256"
        }
      ],
      "stateMutability": "view",
      "type": "function"
    },
    {
      "inputs": [],
      "name": "liquidityAmountsLib",
      "outputs": [
        {
          "internalType": "address",
          "name": "",
          "type": "address"
        }
      ],
      "stateMutability": "view",
      "type": "function"
    },
    {
      "inputs": [],
      "name": "liquidityBalance",
      "outputs": [
        {
          "internalType": "uint128",
          "name": "liquidity",
          "type": "uint128"
        }
      ],
      "stateMutability": "view",
      "type": "function"
    },
    {
      "inputs": [],
      "name": "liquidityMathLib",
      "outputs": [
        {
          "internalType": "address",
          "name": "",
          "type": "address"
        }
      ],
      "stateMutability": "view",
      "type": "function"
    },
    {
      "inputs": [],
      "name": "lpRewardsAvailable",
      "outputs": [
        {
          "internalType": "uint256",
          "name": "lpFeesDepositToken",
          "type": "uint256"
        }
      ],
      "stateMutability": "view",
      "type": "function"
    },
    {
      "inputs": [],
      "name": "lpToken0",
      "outputs": [
        {
          "internalType": "address",
          "name": "",
          "type": "address"
        }
      ],
      "stateMutability": "view",
      "type": "function"
    },
    {
      "inputs": [],
      "name": "lpToken1",
      "outputs": [
        {
          "internalType": "address",
          "name": "",
          "type": "address"
        }
      ],
      "stateMutability": "view",
      "type": "function"
    },
    {
      "inputs": [],
      "name": "manager",
      "outputs": [
        {
          "internalType": "address",
          "name": "",
          "type": "address"
        }
      ],
      "stateMutability": "view",
      "type": "function"
    },
    {
      "inputs": [
        {
          "internalType": "address",
          "name": "",
          "type": "address"
        },
        {
          "internalType": "address",
          "name": "",
          "type": "address"
        },
        {
          "internalType": "uint256",
          "name": "",
          "type": "uint256"
        },
        {
          "internalType": "bytes",
          "name": "",
          "type": "bytes"
        }
      ],
      "name": "onERC721Received",
      "outputs": [
        {
          "internalType": "bytes4",
          "name": "",
          "type": "bytes4"
        }
      ],
      "stateMutability": "nonpayable",
      "type": "function"
    },
    {
      "inputs": [],
      "name": "onlyManager",
      "outputs": [],
      "stateMutability": "view",
      "type": "function"
    },
    {
      "inputs": [],
      "name": "onlyVault",
      "outputs": [],
      "stateMutability": "view",
      "type": "function"
    },
    {
      "inputs": [],
      "name": "owner",
      "outputs": [
        {
          "internalType": "address",
          "name": "",
          "type": "address"
        }
      ],
      "stateMutability": "view",
      "type": "function"
    },
    {
      "inputs": [],
      "name": "panic",
      "outputs": [],
      "stateMutability": "nonpayable",
      "type": "function"
    },
    {
      "inputs": [],
      "name": "pause",
      "outputs": [],
      "stateMutability": "nonpayable",
      "type": "function"
    },
    {
      "inputs": [],
      "name": "paused",
      "outputs": [
        {
          "internalType": "bool",
          "name": "",
          "type": "bool"
        }
      ],
      "stateMutability": "view",
      "type": "function"
    },
    {
      "inputs": [],
      "name": "poolFee",
      "outputs": [
        {
          "internalType": "uint24",
          "name": "",
          "type": "uint24"
        }
      ],
      "stateMutability": "view",
      "type": "function"
    },
    {
      "inputs": [],
      "name": "rebalance",
      "outputs": [],
      "stateMutability": "nonpayable",
      "type": "function"
    },
    {
      "inputs": [],
      "name": "renounceOwnership",
      "outputs": [],
      "stateMutability": "nonpayable",
      "type": "function"
    },
    {
      "inputs": [],
      "name": "retireStrat",
      "outputs": [],
      "stateMutability": "nonpayable",
      "type": "function"
    },
    {
      "inputs": [],
      "name": "reward",
      "outputs": [
        {
          "internalType": "address",
          "name": "",
          "type": "address"
        }
      ],
      "stateMutability": "view",
      "type": "function"
    },
    {
      "inputs": [
        {
          "internalType": "uint256",
          "name": "",
          "type": "uint256"
        }
      ],
      "name": "rewardToLp0AddressPath",
      "outputs": [
        {
          "internalType": "address",
          "name": "",
          "type": "address"
        }
      ],
      "stateMutability": "view",
      "type": "function"
    },
    {
      "inputs": [
        {
          "internalType": "uint256",
          "name": "",
          "type": "uint256"
        }
      ],
      "name": "rewardToLp0FeePath",
      "outputs": [
        {
          "internalType": "uint24",
          "name": "",
          "type": "uint24"
        }
      ],
      "stateMutability": "view",
      "type": "function"
    },
    {
      "inputs": [
        {
          "internalType": "uint256",
          "name": "",
          "type": "uint256"
        }
      ],
      "name": "rewardToLp1AddressPath",
      "outputs": [
        {
          "internalType": "address",
          "name": "",
          "type": "address"
        }
      ],
      "stateMutability": "view",
      "type": "function"
    },
    {
      "inputs": [
        {
          "internalType": "uint256",
          "name": "",
          "type": "uint256"
        }
      ],
      "name": "rewardToLp1FeePath",
      "outputs": [
        {
          "internalType": "uint24",
          "name": "",
          "type": "uint24"
        }
      ],
      "stateMutability": "view",
      "type": "function"
    },
    {
      "inputs": [],
      "name": "rewardsAvailable",
      "outputs": [
        {
          "internalType": "uint256",
          "name": "rewardsAvbl",
          "type": "uint256"
        }
      ],
      "stateMutability": "view",
      "type": "function"
    },
    {
      "inputs": [],
      "name": "rewardtoNativeFeed",
      "outputs": [
        {
          "internalType": "address",
          "name": "",
          "type": "address"
        }
      ],
      "stateMutability": "view",
      "type": "function"
    },
    {
      "inputs": [],
      "name": "router",
      "outputs": [
        {
          "internalType": "address",
          "name": "",
          "type": "address"
        }
      ],
      "stateMutability": "view",
      "type": "function"
    },
    {
      "inputs": [],
      "name": "safeCastLib",
      "outputs": [
        {
          "internalType": "address",
          "name": "",
          "type": "address"
        }
      ],
      "stateMutability": "view",
      "type": "function"
    },
    {
      "inputs": [],
      "name": "safetyFactor",
      "outputs": [
        {
          "internalType": "uint256",
          "name": "",
          "type": "uint256"
        }
      ],
      "stateMutability": "view",
      "type": "function"
    },
    {
      "inputs": [
        {
          "internalType": "address",
          "name": "_manager",
          "type": "address"
        }
      ],
      "name": "setManager",
      "outputs": [],
      "stateMutability": "nonpayable",
      "type": "function"
    },
    {
      "inputs": [
        {
          "internalType": "address[]",
          "name": "rewardToLp0AddressPath_",
          "type": "address[]"
        },
        {
          "internalType": "uint24[]",
          "name": "rewardToLp0FeePath_",
          "type": "uint24[]"
        }
      ],
      "name": "setRewardToLp0Path",
      "outputs": [],
      "stateMutability": "nonpayable",
      "type": "function"
    },
    {
      "inputs": [
        {
          "internalType": "address[]",
          "name": "rewardToLp1AddressPath_",
          "type": "address[]"
        },
        {
          "internalType": "uint24[]",
          "name": "rewardToLp1FeePath_",
          "type": "uint24[]"
        }
      ],
      "name": "setRewardToLp1Path",
      "outputs": [],
      "stateMutability": "nonpayable",
      "type": "function"
    },
    {
      "inputs": [],
      "name": "sqrtPriceMathLib",
      "outputs": [
        {
          "internalType": "address",
          "name": "",
          "type": "address"
        }
      ],
      "stateMutability": "view",
      "type": "function"
    },
    {
      "inputs": [],
      "name": "stake",
      "outputs": [
        {
          "internalType": "address",
          "name": "",
          "type": "address"
        }
      ],
      "stateMutability": "view",
      "type": "function"
    },
    {
      "inputs": [],
      "name": "tickLower",
      "outputs": [
        {
          "internalType": "int24",
          "name": "",
          "type": "int24"
        }
      ],
      "stateMutability": "view",
      "type": "function"
    },
    {
      "inputs": [],
      "name": "tickMathLib",
      "outputs": [
        {
          "internalType": "address",
          "name": "",
          "type": "address"
        }
      ],
      "stateMutability": "view",
      "type": "function"
    },
    {
      "inputs": [],
      "name": "tickUpper",
      "outputs": [
        {
          "internalType": "int24",
          "name": "",
          "type": "int24"
        }
      ],
      "stateMutability": "view",
      "type": "function"
    },
    {
      "inputs": [],
      "name": "tokenID",
      "outputs": [
        {
          "internalType": "uint256",
          "name": "",
          "type": "uint256"
        }
      ],
      "stateMutability": "view",
      "type": "function"
    },
    {
      "inputs": [
        {
          "internalType": "address",
          "name": "newOwner",
          "type": "address"
        }
      ],
      "name": "transferOwnership",
      "outputs": [],
      "stateMutability": "nonpayable",
      "type": "function"
    },
    {
      "inputs": [],
      "name": "unpause",
      "outputs": [],
      "stateMutability": "nonpayable",
      "type": "function"
    },
    {
      "inputs": [],
      "name": "vToken0",
      "outputs": [
        {
          "internalType": "address",
          "name": "",
          "type": "address"
        }
      ],
      "stateMutability": "view",
      "type": "function"
    },
    {
      "inputs": [],
      "name": "vToken1",
      "outputs": [
        {
          "internalType": "address",
          "name": "",
          "type": "address"
        }
      ],
      "stateMutability": "view",
      "type": "function"
    },
    {
      "inputs": [],
      "name": "vault",
      "outputs": [
        {
          "internalType": "address",
          "name": "",
          "type": "address"
        }
      ],
      "stateMutability": "view",
      "type": "function"
    },
    {
      "inputs": [
        {
          "internalType": "uint256",
          "name": "amount",
          "type": "uint256"
        }
      ],
      "name": "withdraw",
      "outputs": [],
      "stateMutability": "nonpayable",
      "type": "function"
    }
  ],
  "bytecode": {
    "object": "0x60a0604052670de0b6b3a76400006080523480156200001d57600080fd5b50620000293362000041565b6000805460ff60a01b19169055600160055562000091565b600080546001600160a01b038381166001600160a01b0319831681178455604051919092169283917f8be0079c531659141344cd1fd0a4f28419497f9722a3daafe3b4186f6b6457e09190a35050565b6080516152a5620000bb600039600081816104c101528181610dba015261352701526152a56000f3fe608060405234801561001057600080fd5b50600436106103f15760003560e01c80638b4f9c5011610215578063c5dc114c11610125578063ef21c994116100b8578063f887ea4011610087578063f887ea4014610847578063f8cea66c1461085a578063fb1b5c7b14610862578063fb6177871461086a578063fbfa77cf1461087257600080fd5b8063ef21c9941461081a578063f02ecb7114610822578063f1a392da1461082b578063f2fde38b1461083457600080fd5b8063e7a7250a116100f4578063e7a7250a146107d9578063e93d5fc1146107e1578063eb582d13146107f4578063ebf678f01461080757600080fd5b8063c5dc114c14610798578063d0e30db0146107ab578063d0ebdbe7146107b3578063e00bb0b5146107c657600080fd5b8063b018d38e116101a8578063b97db3cf11610177578063b97db3cf1461072c578063ba4eb8261461073f578063c3926a2914610752578063c3e3fd8114610772578063c597499d1461078557600080fd5b8063b018d38e146106f6578063b3a9c91c14610709578063b5164afd14610711578063b5669b6f1461072457600080fd5b8063aac41ef9116101e4578063aac41ef9146106ca578063abba9686146106d2578063adf085a2146106da578063afbd1378146106e257600080fd5b80638b4f9c501461068a5780638da5cb5b1461069d578063a075af0b146106ae578063a5c42ef1146106c157600080fd5b80634700d305116103105780635ee167c0116102a3578063715018a611610272578063715018a614610657578063722713f71461065f5780637d7c2a1c146106675780638456cb591461066f578063877562b61461067757600080fd5b80635ee167c01461060b5780635ee58efc1461061e57806368b80723146106315780636d9adeb01461064457600080fd5b80635774c0f6116102df5780635774c0f6146105c5578063595ce3c8146105d857806359c4f905146105e05780635c975abb146105ed57600080fd5b80634700d3051461057b578063481c6a751461058357806355b812a81461059657806355f28fee146105bd57600080fd5b80632e37c985116103885780633a4b66f1116103575780633a4b66f1146105455780633dd3e3c9146105585780633f4ba83a1461056b5780634641257d1461057357600080fd5b80632e37c98514610504578063342226dd1461051757806334be0ad61461052a57806334bf65181461053257600080fd5b8063228cb733116103c4578063228cb733146104865780632534434d1461049f5780632703984c146104bc5780632e1a7d4d146104f157600080fd5b8063089fe6aa146103f65780630ca1cc5b14610425578063150b7a021461042f5780631fc8bc5d1461045b575b600080fd5b60135461040c90600160301b900462ffffff1681565b60405162ffffff90911681526020015b60405180910390f35b61042d610885565b005b61044261043d366004614406565b610a5c565b6040516001600160e01b0319909116815260200161041c565b600a5461046e906001600160a01b031681565b6040516001600160a01b03909116815260200161041c565b60065461046e906201000090046001600160a01b031681565b6104a7610a6d565b6040805192835260208301919091520161041c565b6104e37f000000000000000000000000000000000000000000000000000000000000000081565b60405190815260200161041c565b61042d6104ff3660046144ca565b610d05565b61042d610512366004614827565b61102f565b600b5461046e906001600160a01b031681565b61046e61123b565b61042d6105403660046148b9565b611271565b60075461046e906001600160a01b031681565b601c5461046e906001600160a01b031681565b61042d611480565b61042d6114a2565b61042d6118a6565b60035461046e906001600160a01b031681565b6013546105aa906301000000900460020b81565b60405160029190910b815260200161041c565b61046e6118e4565b61046e6105d33660046144ca565b611918565b61042d611942565b6013546105aa9060020b81565b600054600160a01b900460ff165b604051901515815260200161041c565b60085461046e906001600160a01b031681565b601d5461046e906001600160a01b031681565b61042d61063f3660046148f2565b611b53565b60105461046e906001600160a01b031681565b61042d611bdb565b6104e3611bed565b61042d611f3b565b61042d612098565b60095461046e906001600160a01b031681565b600e5461046e906001600160a01b031681565b6000546001600160a01b031661046e565b601b5461046e906001600160a01b031681565b6104e360125481565b6104e36120b0565b61042d61219e565b61042d61240c565b6009546105fb90600160a01b900460ff1681565b61042d6107043660046148f2565b612497565b61042d612513565b60185461046e906001600160a01b031681565b61046e612556565b61040c61073a3660046144ca565b61258a565b61046e61074d3660046144ca565b6125c3565b61075a6125d3565b6040516001600160801b03909116815260200161041c565b600d5461046e906001600160a01b031681565b600f5461046e906001600160a01b031681565b61042d6107a6366004614956565b612654565b61042d612cba565b61042d6107c13660046149a5565b612cd2565b600c5461046e906001600160a01b031681565b6104e3612d2e565b61040c6107ef3660046144ca565b612d7c565b60045461046e906001600160a01b031681565b60195461046e906001600160a01b031681565b61042d612d8c565b6104e3601a5481565b6104e360115481565b61042d6108423660046149a5565b612dd1565b60025461046e906001600160a01b031681565b61042d612e4a565b61046e612e6c565b61042d612e91565b60015461046e906001600160a01b031681565b6008546040516370a0823160e01b81523060048201526000916001600160a01b0316906370a0823190602401602060405180830381865afa1580156108ce573d6000803e3d6000fd5b505050506040513d601f19601f820116820180604052508101906108f291906149c9565b6009546040516370a0823160e01b81523060048201529192506000916001600160a01b03909116906370a0823190602401602060405180830381865afa158015610940573d6000803e3d6000fd5b505050506040513d601f19601f8201168201806040525081019061096491906149c9565b6004805460408051610160810182526008546001600160a01b0390811682526009548116602083015260135462ffffff600160301b82041683850152600281810b60608501526301000000909104900b608083015260a0820188905260c08201869052600060e08301819052610100830181905230610120840152426101408401529251634418b22b60e11b815295965091949190921692638831645692610a0e929091016149e2565b6080604051808303816000875af1158015610a2d573d6000803e3d6000fd5b505050506040513d601f19601f82011682018060405250810190610a519190614abd565b505050601255505050565b630a85bd0160e11b5b949350505050565b600080610a78612e99565b6000610a826125d3565b90506000816001600160801b031611610adb5760405162461bcd60e51b81526020600482015260166024820152754e6f204c697175696469747920617661696c61626c6560501b60448201526064015b60405180910390fd5b600a54601254604051627b8a6760e11b815260048101919091523060248201526001600160a01b039091169062f714ce906044016020604051808303816000875af1158015610b2e573d6000803e3d6000fd5b505050506040513d601f19601f82011682018060405250810190610b5291906149c9565b50600480546040805160a08101825260125481526001600160801b0385166020820152600081830181905260608201524260808201529051630624e65f60e11b81526001600160a01b0390921692630c49ccbe92610bb1929101614af9565b60408051808303816000875af1158015610bcf573d6000803e3d6000fd5b505050506040513d601f19601f82011682018060405250810190610bf39190614b3c565b5050600480546040805160808101825260125481523060208201526001600160801b038183018190526060820152905163fc6f786560e01b81526001600160a01b039092169263fc6f786592610c4a929101614b60565b60408051808303816000875af1158015610c68573d6000803e3d6000fd5b505050506040513d601f19601f82011682018060405250810190610c8c9190614b3c565b60048054601254604051630852cd8d60e31b8152928301529295509093506001600160a01b03909116906342966c6890602401600060405180830381600087803b158015610cd957600080fd5b505af1158015610ced573d6000803e3d6000fd5b5050600060125550610d019150612ef29050565b9091565b610d0d612513565b6040805160e081018252601354600281810b83526301000000909104900b6020808301919091526b204fce5e3e2502611000000082840152600e546001600160a01b03908116606080850191909152600c548216608080860191909152600b54831660a080870191909152600754841660c080880191909152875161014081018952600954600160a01b900460ff16151581526000968101879052978801899052601a54938801939093527f000000000000000000000000000000000000000000000000000000000000000091870191909152601054909216918501919091529092839273__$ab2715d400332d487105c050b5399f15a9$__92633e722c5392908101610e186118e4565b6001600160a01b03168152602001610e2e61123b565b6001600160a01b039081168252601d5416602082015230604091820152516001600160e01b031960e085901b168152610e6b929190600401614c08565b6040805180830381865af4158015610e87573d6000803e3d6000fd5b505050506040513d601f19601f82011682018060405250810190610eab9190614b3c565b915091506000610eb9612e6c565b6040516370a0823160e01b81523060048201526001600160a01b0391909116906370a0823190602401602060405180830381865afa158015610eff573d6000803e3d6000fd5b505050506040513d601f19601f82011682018060405250810190610f2391906149c9565b9050610f37610f328486614cc2565b612ef9565b5050610f4382846131a0565b600154610fe8906001600160a01b031682610f5c612e6c565b6040516370a0823160e01b81523060048201526001600160a01b0391909116906370a0823190602401602060405180830381865afa158015610fa2573d6000803e3d6000fd5b505050506040513d601f19601f82011682018060405250810190610fc691906149c9565b610fd09190614cc2565b610fd8612e6c565b6001600160a01b03169190613348565b7f56ca301a9219608c91e7bcee90e083c19671d2cdcc96752c7af291cee5f9c8c8611011611bed565b6040805191825260208201879052015b60405180910390a150505050565b600654610100900460ff161580801561104f5750600654600160ff909116105b806110695750303b158015611069575060065460ff166001145b6110855760405162461bcd60e51b8152600401610ad290614cdb565b6006805460ff1916600117905580156110a8576006805461ff0019166101001790555b601a859055601b80546001600160a01b038681166001600160a01b031992831617909255601c8054868416908316179055601d8054928516929091169190911790556040805160028082526060820183526000926020830190803683375050601b5482519293506001600160a01b03169183915060009061112b5761112b614d29565b6001600160a01b039283166020918202929092010152601c5482519116908290600190811061115c5761115c614d29565b6001600160a01b039283166020918202929092010152601d54604051631853304760e31b815291169063c299823890611199908490600401614d83565b6000604051808303816000875af11580156111b8573d6000803e3d6000fd5b505050506040513d6000823e601f3d908101601f191682016040526111e09190810190614d96565b506111eb8888612654565b508015611232576006805461ff0019169055604051600181527f7f26b83ff96e1f2b6a682f133852f6798a09c465da95921460cefb38474024989060200160405180910390a15b50505050505050565b600954600090600160a01b900460ff1661125f5750601b546001600160a01b031690565b601c546001600160a01b03165b905090565b6112796133ab565b601354600b54600754604051638745d9e760e01b815273__$5e45ab65a274056c1a42c62f410605b0da$__93638745d9e7936112db93600283810b946301000000909404900b92899289926001600160a01b0391821692911690600401614e1c565b60006040518083038186803b1580156112f357600080fd5b505af4158015611307573d6000803e3d6000fd5b50505050611313610a6d565b5050600061131f612556565b6040516305eff7ef60e21b81523060048201526001600160a01b0391909116906317bfdfbc906024016020604051808303816000875af1158015611367573d6000803e3d6000fd5b505050506040513d601f19601f8201168201806040525081019061138b91906149c9565b90506000611397612e6c565b604051633af9e66960e01b81523060048201526001600160a01b039190911690633af9e669906024016020604051808303816000875af11580156113df573d6000803e3d6000fd5b505050506040513d601f19601f8201168201806040525081019061140391906149c9565b905061140f82826131a0565b6013805462ffffff85811663010000000265ffffffffffff199092169087161717905561143a613405565b60135460408051600283810b8252630100000090930490920b60208301527fd00a8d17a19b7ceda57ab41f25a4626f485d085482b0525baaaa7caac12b492e9101611021565b611488612d8c565b61149061371e565b611498613773565b6114a0612cba565b565b6114aa6137f5565b600a54601254604051630c7e663b60e11b815260048101919091523060248201526001600160a01b03909116906318fccc76906044016020604051808303816000875af11580156114ff573d6000803e3d6000fd5b505050506040513d601f19601f8201168201806040525081019061152391906149c9565b506006546040516370a0823160e01b81523060048201526000916201000090046001600160a01b0316906370a0823190602401602060405180830381865afa158015611573573d6000803e3d6000fd5b505050506040513d601f19601f8201168201806040525081019061159791906149c9565b905080156117ab576006546008546001600160a01b039081166201000090920416148015906115cf5750600954600160a01b900460ff165b156116b5576116b3601480548060200260200160405190810160405280929190818152602001828054801561162d57602002820191906000526020600020905b81546001600160a01b0316815260019091019060200180831161160f575b505050505060158054806020026020016040519081016040528092919081815260200182805480156116a857602002820191906000526020600020906000905b82829054906101000a900462ffffff1662ffffff168152602001906003019060208260020104928301926001038202915080841161166d5790505b505050505083613842565b505b6006546009546001600160a01b039081166201000090920416148015906116e65750600954600160a01b900460ff16155b156117a6576117a4601680548060200260200160405190810160405280929190818152602001828054801561174457602002820191906000526020600020905b81546001600160a01b03168152600190910190602001808311611726575b505050505060178054806020026020016040519081016040528092919081815260200182805480156116a8576000918252602091829020805462ffffff16845290820283019290916003910180841161166d579050505050505083613842565b505b426011555b600a546040805160808101825260125481523060208201526001600160801b038183018190526060820152905163fc6f786560e01b815260009283926001600160a01b039091169163fc6f78659161180591600401614b60565b60408051808303816000875af1158015611823573d6000803e3d6000fd5b505050506040513d601f19601f820116820180604052508101906118479190614b3c565b9150915061185582826139b6565b5061185e613405565b337f9bc239f1724cacfb88cb1d66a2dc437467699b68a8c90d7b63110cf4b6f9241084611889611bed565b6040805192835260208301919091520160405180910390a2505050565b6118ae612d8c565b6118b6612098565b6000806118c1610a6d565b60015491935091506118e0906001600160a01b0316610fd084846139b6565b5050565b600954600090600160a01b900460ff166119085750601c546001600160a01b031690565b50601b546001600160a01b031690565b6014818154811061192857600080fd5b6000918252602090912001546001600160a01b0316905081565b6008546040516370a0823160e01b81523060048201526000916001600160a01b0316906370a0823190602401602060405180830381865afa15801561198b573d6000803e3d6000fd5b505050506040513d601f19601f820116820180604052508101906119af91906149c9565b6009546040516370a0823160e01b81523060048201529192506000916001600160a01b03909116906370a0823190602401602060405180830381865afa1580156119fd573d6000803e3d6000fd5b505050506040513d601f19601f82011682018060405250810190611a2191906149c9565b600480546040805160c081018252601254815260208101878152818301868152600060608401818152608085019182524260a08601908152955163219f5d1760e01b81529451978501979097529151602484015251604483015293516064820152925160848401525160a48301529192506001600160a01b039091169063219f5d179060c4016060604051808303816000875af1158015611ac6573d6000803e3d6000fd5b505050506040513d601f19601f82011682018060405250810190611aea9190614e58565b5050600a54601254604051636768488960e11b815260048101919091526001600160a01b03909116915063ced0911290602401600060405180830381600087803b158015611b3757600080fd5b505af1158015611b4b573d6000803e3d6000fd5b505050505050565b611b5b612d8c565b60018251611b699190614cc2565b815114611b885760405162461bcd60e51b8152600401610ad290614e8d565b611b93601483613a83565b611b9e601582613aef565b7f92ec361f55eabacf1c0ffe0509739dc2462b2e206c59631b15d558124e1dda188282604051611bcf929190614ea9565b60405180910390a15050565b611be36133ab565b6114a06000613b72565b600080611bf86125d3565b6040805160e081018252601354600281810b83526301000000909104900b60208201526001600160801b03831681830152600e546001600160a01b039081166060830152600c5481166080830152600b54811660a08301526007541660c082015290516338c4b34760e21b8152919250600091829173__$5e45ab65a274056c1a42c62f410605b0da$__9163e312cd1c91611c9591600401614f05565b6040805180830381865af4158015611cb1573d6000803e3d6000fd5b505050506040513d601f19601f82011682018060405250810190611cd59190614b3c565b6008546040516370a0823160e01b81523060048201529294509092506000916001600160a01b03909116906370a0823190602401602060405180830381865afa158015611d26573d6000803e3d6000fd5b505050506040513d601f19601f82011682018060405250810190611d4a91906149c9565b6009546040516370a0823160e01b81523060048201529192506000916001600160a01b03909116906370a0823190602401602060405180830381865afa158015611d98573d6000803e3d6000fd5b505050506040513d601f19601f82011682018060405250810190611dbc91906149c9565b600954909150600160a01b900460ff1615611e8f5773__$5e45ab65a274056c1a42c62f410605b0da$__632ca89132611df58386614f13565b60075460105460405160e085901b6001600160e01b031916815260048101939093526001600160a01b039182166024840152166044820152606401602060405180830381865af4158015611e4d573d6000803e3d6000fd5b505050506040513d601f19601f82011682018060405250810190611e7191906149c9565b611e7b8386614f13565b611e859190614f13565b9550505050505090565b808373__$5e45ab65a274056c1a42c62f410605b0da$__636520a11d611eb58689614f13565b60075460105460405160e085901b6001600160e01b031916815260048101939093526001600160a01b039182166024840152166044820152606401602060405180830381865af4158015611f0d573d6000803e3d6000fd5b505050506040513d601f19601f82011682018060405250810190611f3191906149c9565b611e7b9190614f13565b611f436137f5565b611f4b610a6d565b50506000611f57612556565b6040516305eff7ef60e21b81523060048201526001600160a01b0391909116906317bfdfbc906024016020604051808303816000875af1158015611f9f573d6000803e3d6000fd5b505050506040513d601f19601f82011682018060405250810190611fc391906149c9565b90506000611fcf612e6c565b604051633af9e66960e01b81523060048201526001600160a01b039190911690633af9e669906024016020604051808303816000875af1158015612017573d6000803e3d6000fd5b505050506040513d601f19601f8201168201806040525081019061203b91906149c9565b905061204782826131a0565b61204f613405565b7f126b3fa8421f8d3ab311795b7c316430c168a76c08b2edbad54ae6a725c3423933612079611bed565b604080516001600160a01b039093168352602083019190915201611bcf565b6120a0612d8c565b6120a8613bc2565b6114a0613c05565b6040805160a081018252600954600160a01b900460ff1615158152601254602082019081526007546001600160a01b0390811683850190815260048054831660608601908152601054841660808701908152965163d001211f60e01b815295511515918601919091529251602485015251811660448401529051811660648301529151909116608482015260009073__$5e45ab65a274056c1a42c62f410605b0da$__9063d001211f9060a401602060405180830381865af415801561217a573d6000803e3d6000fd5b505050506040513d601f19601f8201168201806040525081019061126c91906149c9565b6008546040516370a0823160e01b81523060048201526000916001600160a01b0316906370a0823190602401602060405180830381865afa1580156121e7573d6000803e3d6000fd5b505050506040513d601f19601f8201168201806040525081019061220b91906149c9565b6009546040516370a0823160e01b81523060048201529192506000916001600160a01b03909116906370a0823190602401602060405180830381865afa158015612259573d6000803e3d6000fd5b505050506040513d601f19601f8201168201806040525081019061227d91906149c9565b6040805160e081018252601354600281810b835263010000008204900b6020808401919091526b204fce5e3e2502611000000083850152600e546001600160a01b03908116606080860191909152600c548216608080870191909152600b54831660a0870152600754831660c087015286519081018752600160301b90940462ffffff1684529183018890528285018690526010541690820152915163bf37f00f60e01b8152929350600092839273__$5e45ab65a274056c1a42c62f410605b0da$__9263bf37f00f926123549290600401614f26565b6040805180830381865af4158015612370573d6000803e3d6000fd5b505050506040513d601f19601f820116820180604052508101906123949190614b3c565b91509150816000146123d0576008546009546013546123ce926001600160a01b039081169216908590600160301b900462ffffff16613c49565b505b801561240657600954600854601354612404926001600160a01b039081169216908490600160301b900462ffffff16613c49565b505b50505050565b6124146137f5565b61241c612e99565b60048054600a54601254604051632142170760e11b815230948101949094526001600160a01b039182166024850152604484015216906342842e0e90606401600060405180830381600087803b15801561247557600080fd5b505af1158015612489573d6000803e3d6000fd5b505050506114a06001600555565b61249f612d8c565b600182516124ad9190614cc2565b8151146124cc5760405162461bcd60e51b8152600401610ad290614e8d565b6124d7601683613a83565b6124e2601782613aef565b7fd60de51c4b7b31568ee8c6a5fcc0338f89e13844171d916ff7cce68943275e5f8282604051611bcf929190614ea9565b6001546001600160a01b031633146114a05760405162461bcd60e51b8152602060048201526006602482015265085d985d5b1d60d21b6044820152606401610ad2565b600954600090600160a01b900460ff1661257a57506008546001600160a01b031690565b506009546001600160a01b031690565b6015818154811061259a57600080fd5b90600052602060002090600a9182820401919006600302915054906101000a900462ffffff1681565b6016818154811061192857600080fd5b600a54601254604051630ec6b3dd60e21b815260048101919091526000916001600160a01b031690633b1acf749060240161012060405180830381865afa158015612622573d6000803e3d6000fd5b505050506040513d601f19601f820116820180604052508101906126469190614f72565b509698975050505050505050565b600654610100900460ff16158080156126745750600654600160ff909116105b8061268e5750303b15801561268e575060065460ff166001145b6126aa5760405162461bcd60e51b8152600401610ad290614cdb565b6006805460ff1916600117905580156126cd576006805461ff0019166101001790555b60a0830151600b80546001600160a01b03199081166001600160a01b039384161790915560c0850151600c8054831691841691909117905560e0850151600d80548316918416919091179055610100850151600e80548316918416919091179055610120850151600f8054831691841691909117905561014085015160108054831691841691909117905560408501516007805483169184169190911790556060850151600a805490921690831617905560808401516006805462010000600160b01b031916620100009290931691909102919091179055610160830151516127b890600190614cc2565b83610180015151146127dc5760405162461bcd60e51b8152600401610ad290614e8d565b6001836101a00151516127ef9190614cc2565b836101c0015151146128135760405162461bcd60e51b8152600401610ad290614e8d565b610160830151805161282d91601491602090910190614253565b506101808301518051612848916015916020909101906142b8565b506101a0830151805161286391601691602090910190614253565b506101c0830151805161287e916017916020909101906142b8565b5082516020840151600b54600754604051638745d9e760e01b815273__$5e45ab65a274056c1a42c62f410605b0da$__94638745d9e7946128d69460009485946001600160a01b039283169290911690600401614e1c565b60006040518083038186803b1580156128ee57600080fd5b505af4158015612902573d6000803e3d6000fd5b505084516013805460208089015162ffffff90811663010000000265ffffffffffff199093169416939093171790556007546040805163ddca3f4360e01b815290516001600160a01b03909216945063ddca3f43935060048082019392918290030181865afa158015612979573d6000803e3d6000fd5b505050506040513d601f19601f8201168201806040525081019061299d9190615009565b601360066101000a81548162ffffff021916908362ffffff160217905550600760009054906101000a90046001600160a01b03166001600160a01b0316630dfe16816040518163ffffffff1660e01b8152600401602060405180830381865afa158015612a0e573d6000803e3d6000fd5b505050506040513d601f19601f82011682018060405250810190612a329190615026565b600880546001600160a01b0319166001600160a01b039283161790556007546040805163d21220a760e01b81529051919092169163d21220a79160048083019260209291908290030181865afa158015612a90573d6000803e3d6000fd5b505050506040513d601f19601f82011682018060405250810190612ab49190615026565b600980546001600160a01b039283166001600160a01b0319909116179055825160408051808201825260078152666173736574282960c81b60209182015281516004815260248101835290810180516001600160e01b03166338d52e0f60e01b179052905160009384931691612b2991615067565b6000604051808303816000865af19150503d8060008114612b66576040519150601f19603f3d011682016040523d82523d6000602084013e612b6b565b606091505b509150915081612ba25760405162461bcd60e51b815260206004820152600260248201526120a360f11b6044820152606401610ad2565b60085481516001600160a01b0390911690612bc69083016020908101908401615026565b6009805460ff60a01b19166001600160a01b0392831693909314600160a01b02929092179091556101e0860151601880546001600160a01b03199081169284169290921790556102008701516019805483169184169190911790558551600180548316918416919091179055602086015160028054831691841691909117905560038054339083161790556040860151600480549092169216919091179055612c6d613773565b50508015612cb5576006805461ff0019169055604051600181527f7f26b83ff96e1f2b6a682f133852f6798a09c465da95921460cefb38474024989060200160405180910390a15b505050565b612cc26137f5565b612cca612513565b6114a0613405565b612cda612d8c565b600380546001600160a01b0319166001600160a01b0383169081179091556040519081527f54a6385aa0292b04e1ef8513253c17d1863f7cdfc87029d77fd55cc4c2e717e29060200160405180910390a150565b600a5460125460405163672f9ce360e11b815260048101919091526000916001600160a01b03169063ce5f39c690602401602060405180830381865afa15801561217a573d6000803e3d6000fd5b6017818154811061259a57600080fd5b6003546001600160a01b031633146114a05760405162461bcd60e51b815260206004820152600860248201526710b6b0b730b3b2b960c11b6044820152606401610ad2565b612dd96133ab565b6001600160a01b038116612e3e5760405162461bcd60e51b815260206004820152602660248201527f4f776e61626c653a206e6577206f776e657220697320746865207a65726f206160448201526564647265737360d01b6064820152608401610ad2565b612e4781613b72565b50565b601254600003612e6457612e5c610885565b6114a061240c565b6114a0611942565b600954600090600160a01b900460ff161561257a57506008546001600160a01b031690565b6118b6612513565b600260055403612eeb5760405162461bcd60e51b815260206004820152601f60248201527f5265656e7472616e637947756172643a207265656e7472616e742063616c6c006044820152606401610ad2565b6002600555565b6001600555565b6040805160e081018252601354600281810b835263010000008204900b6020808401919091526b204fce5e3e2502611000000083850152600e546001600160a01b03908116606080860191909152600c548216608080870191909152600b54831660a080880191909152600754841660c088015287519081018852600954600160a01b900460ff1615158152600160301b90950462ffffff1693850193909352838601879052601054821690840152600f54169082015291516328dd68f160e11b81526000928392839273__$5e45ab65a274056c1a42c62f410605b0da$__926351bad1e292612fee92909190600401615083565b602060405180830381865af415801561300b573d6000803e3d6000fd5b505050506040513d601f19601f8201168201806040525081019061302f91906150e1565b9050600061303b6125d3565b9050806001600160801b0316826001600160801b0316111561305b578091505b600a546040805160a08101825260125481526001600160801b0385166020820152600081830181905260608201524260808201529051630624e65f60e11b81526001600160a01b0390921691630c49ccbe916130b991600401614af9565b60408051808303816000875af11580156130d7573d6000803e3d6000fd5b505050506040513d601f19601f820116820180604052508101906130fb9190614b3c565b5050600a546040805160808101825260125481523060208201526001600160801b038183018190526060820152905163fc6f786560e01b81526001600160a01b039092169163fc6f78659161315291600401614b60565b60408051808303816000875af1158015613170573d6000803e3d6000fd5b505050506040513d601f19601f820116820180604052508101906131949190614b3c565b90969095509350505050565b60006131aa612556565b6040516370a0823160e01b81523060048201526001600160a01b0391909116906370a0823190602401602060405180830381865afa1580156131f0573d6000803e3d6000fd5b505050506040513d601f19601f8201168201806040525081019061321491906149c9565b9050828110156132515761324f613229612e6c565b613231612556565b61323b8487614cc2565b601354600160301b900462ffffff16613cb4565b505b8115612cb55761325f61123b565b6001600160a01b0316630e752702846040518263ffffffff1660e01b815260040161328c91815260200190565b6020604051808303816000875af11580156132ab573d6000803e3d6000fd5b505050506040513d601f19601f820116820180604052508101906132cf91906149c9565b506132d86118e4565b6001600160a01b031663852a12e3836040518263ffffffff1660e01b815260040161330591815260200190565b6020604051808303816000875af1158015613324573d6000803e3d6000fd5b505050506040513d601f19601f8201168201806040525081019061240691906149c9565b6040516001600160a01b038316602482015260448101829052612cb590849063a9059cbb60e01b906064015b60408051601f198184030181529190526020810180516001600160e01b03166001600160e01b031990931692909217909152613d20565b6000546001600160a01b031633146114a05760405162461bcd60e51b815260206004820181905260248201527f4f776e61626c653a2063616c6c6572206973206e6f7420746865206f776e65726044820152606401610ad2565b600061340f612e6c565b6040516370a0823160e01b81523060048201526001600160a01b0391909116906370a0823190602401602060405180830381865afa158015613455573d6000803e3d6000fd5b505050506040513d601f19601f8201168201806040525081019061347991906149c9565b6040805160e081018252601354600281810b83526301000000909104900b6020808301919091526b204fce5e3e2502611000000082840152600e546001600160a01b03908116606080850191909152600c548216608080860191909152600b54831660a080870191909152600754841660c080880191909152875161014081018952600954600160a01b900460ff1615158152600196810196909652968501889052601a54928501929092527f00000000000000000000000000000000000000000000000000000000000000009084015260105490911690820152929350600092839273__$ab2715d400332d487105c050b5399f15a9$__92633e722c5392909181016135846118e4565b6001600160a01b0316815260200161359a61123b565b6001600160a01b039081168252601d5416602082015230604091820152516001600160e01b031960e085901b1681526135d7929190600401614c08565b6040805180830381865af41580156135f3573d6000803e3d6000fd5b505050506040513d601f19601f820116820180604052508101906136179190614b3c565b91509150816000146137165761362b6118e4565b6001600160a01b031663a0712d68836040518263ffffffff1660e01b815260040161365891815260200190565b6020604051808303816000875af1158015613677573d6000803e3d6000fd5b505050506040513d601f19601f8201168201806040525081019061369b91906149c9565b506136a461123b565b6001600160a01b031663c5ebeaec826040518263ffffffff1660e01b81526004016136d191815260200190565b6020604051808303816000875af11580156136f0573d6000803e3d6000fd5b505050506040513d601f19601f8201168201806040525081019061371491906149c9565b505b612cb5612e4a565b613726613df2565b6000805460ff60a01b191690557f5db9ee0a495bf2e6ff9c91a7834c1ba4fdd244a5e8aa4e537bd38aeae4b073aa335b6040516001600160a01b03909116815260200160405180910390a1565b601b54600854613791916001600160a01b0391821691166000613e42565b601b546008546137b0916001600160a01b039182169116600019613e42565b601c546009546137ce916001600160a01b0391821691166000613e42565b601c546009546137ed916001600160a01b039182169116600019613e42565b6114a0613f57565b600054600160a01b900460ff16156114a05760405162461bcd60e51b815260206004820152601060248201526f14185d5cd8589b194e881c185d5cd95960821b6044820152606401610ad2565b6000808460008151811061385857613858614d29565b6020026020010151604051602001613888919060609190911b6bffffffffffffffffffffffff1916815260140190565b604051602081830303815290604052905060005b845181101561391c57818582815181106138b8576138b8614d29565b6020026020010151878360016138ce9190614f13565b815181106138de576138de614d29565b60200260200101516040516020016138f8939291906150fc565b6040516020818303038152906040529150808061391490615148565b91505061389c565b506002546040805160808101825283815230602082015280820186905260006060820152905163b858183f60e01b81526001600160a01b039092169163b858183f9161396a9160040161518d565b6020604051808303816000875af1158015613989573d6000803e3d6000fd5b505050506040513d601f19601f820116820180604052508101906139ad91906149c9565b95945050505050565b6000806139c1612e6c565b6008549091506000906001600160a01b038084169116148015906139e457508415155b15613a2157600854601354613a12916001600160a01b03169084908890600160301b900462ffffff16613c49565b9050613a1e8185614f13565b92505b6009546001600160a01b03838116911614801590613a3e57508315155b15613a7b57600954601354613a6c916001600160a01b03169084908790600160301b900462ffffff16613c49565b9050613a788186614f13565b92505b505092915050565b60005b8151811015612cb55782828281518110613aa257613aa2614d29565b60209081029190910181015182546001810184556000938452919092200180546001600160a01b0319166001600160a01b0390921691909117905580613ae781615148565b915050613a86565b60005b8151811015612cb55782828281518110613b0e57613b0e614d29565b602002602001015190806001815401808255809150506001900390600052602060002090600a91828204019190066003029091909190916101000a81548162ffffff021916908362ffffff1602179055508080613b6a90615148565b915050613af2565b600080546001600160a01b038381166001600160a01b0319831681178455604051919092169283917f8be0079c531659141344cd1fd0a4f28419497f9722a3daafe3b4186f6b6457e09190a35050565b613bca6137f5565b6000805460ff60a01b1916600160a01b1790557f62e78cea01bee320cd4e420270b5ea74000d11b0c9f74754ebdbfc544b05a2586137563390565b601b54600854613c23916001600160a01b0391821691166000613e42565b601c54600954613c41916001600160a01b0391821691166000613e42565b6114a0614094565b6002546040805160e0810182526001600160a01b038781168252868116602083015262ffffff85168284015230606083015260808201869052600060a0830181905260c0830181905292516304e45aaf60e01b8152929316916304e45aaf9161396a916004016151db565b6002546040805160e0810182526001600160a01b038781168252868116602083015262ffffff8516828401523060608301526080820186905260001960a0830152600060c083018190529251635023b4df60e01b815292931691635023b4df9161396a916004016151db565b6000613d75826040518060400160405280602081526020017f5361666545524332303a206c6f772d6c6576656c2063616c6c206661696c6564815250856001600160a01b03166141309092919063ffffffff16565b805190915015612cb55780806020019051810190613d93919061523a565b612cb55760405162461bcd60e51b815260206004820152602a60248201527f5361666545524332303a204552433230206f7065726174696f6e20646964206e6044820152691bdd081cdd58d8d9595960b21b6064820152608401610ad2565b600054600160a01b900460ff166114a05760405162461bcd60e51b815260206004820152601460248201527314185d5cd8589b194e881b9bdd081c185d5cd95960621b6044820152606401610ad2565b801580613ebc5750604051636eb1769f60e11b81523060048201526001600160a01b03838116602483015284169063dd62ed3e90604401602060405180830381865afa158015613e96573d6000803e3d6000fd5b505050506040513d601f19601f82011682018060405250810190613eba91906149c9565b155b613f275760405162461bcd60e51b815260206004820152603660248201527f5361666545524332303a20617070726f76652066726f6d206e6f6e2d7a65726f60448201527520746f206e6f6e2d7a65726f20616c6c6f77616e636560501b6064820152608401610ad2565b6040516001600160a01b038316602482015260448101829052612cb590849063095ea7b360e01b90606401613374565b600254600654613f7b916001600160a01b0362010000909204821691166000613e42565b600254600654613fa0916001600160a01b036201000090920482169116600019613e42565b600254600854613fbe916001600160a01b0391821691166000613e42565b600254600854613fdd916001600160a01b039182169116600019613e42565b600254600954613ffb916001600160a01b0391821691166000613e42565b60025460095461401a916001600160a01b039182169116600019613e42565b600454600854614038916001600160a01b0391821691166000613e42565b600454600854614057916001600160a01b039182169116600019613e42565b600454600954614075916001600160a01b0391821691166000613e42565b6004546009546114a0916001600160a01b039182169116600019613e42565b6002546006546140b8916001600160a01b0362010000909204821691166000613e42565b6002546008546140d6916001600160a01b0391821691166000613e42565b6002546009546140f4916001600160a01b0391821691166000613e42565b600454600854614112916001600160a01b0391821691166000613e42565b6004546009546114a0916001600160a01b0391821691166000613e42565b6060610a65848460008585600080866001600160a01b031685876040516141579190615067565b60006040518083038185875af1925050503d8060008114614194576040519150601f19603f3d011682016040523d82523d6000602084013e614199565b606091505b50915091506141aa878383876141b5565b979650505050505050565b6060831561422457825160000361421d576001600160a01b0385163b61421d5760405162461bcd60e51b815260206004820152601d60248201527f416464726573733a2063616c6c20746f206e6f6e2d636f6e74726163740000006044820152606401610ad2565b5081610a65565b610a6583838151156142395781518083602001fd5b8060405162461bcd60e51b8152600401610ad2919061525c565b8280548282559060005260206000209081019282156142a8579160200282015b828111156142a857825182546001600160a01b0319166001600160a01b03909116178255602090920191600190910190614273565b506142b492915061435b565b5090565b82805482825590600052602060002090600901600a900481019282156142a85791602002820160005b8382111561432357835183826101000a81548162ffffff021916908362ffffff16021790555092602001926003016020816002010492830192600103026142e1565b80156143525782816101000a81549062ffffff0219169055600301602081600201049283019260010302614323565b50506142b49291505b5b808211156142b4576000815560010161435c565b6001600160a01b0381168114612e4757600080fd5b803561439081614370565b919050565b634e487b7160e01b600052604160045260246000fd5b604051610220810167ffffffffffffffff811182821017156143cf576143cf614395565b60405290565b604051601f8201601f1916810167ffffffffffffffff811182821017156143fe576143fe614395565b604052919050565b6000806000806080858703121561441c57600080fd5b843561442781614370565b935060208581013561443881614370565b935060408601359250606086013567ffffffffffffffff8082111561445c57600080fd5b818801915088601f83011261447057600080fd5b81358181111561448257614482614395565b614494601f8201601f191685016143d5565b915080825289848285010111156144aa57600080fd5b808484018584013760008482840101525080935050505092959194509250565b6000602082840312156144dc57600080fd5b5035919050565b8060020b8114612e4757600080fd5b8035614390816144e3565b600067ffffffffffffffff82111561451757614517614395565b5060051b60200190565b600082601f83011261453257600080fd5b81356020614547614542836144fd565b6143d5565b82815260059290921b8401810191818101908684111561456657600080fd5b8286015b8481101561458a57803561457d81614370565b835291830191830161456a565b509695505050505050565b62ffffff81168114612e4757600080fd5b600082601f8301126145b757600080fd5b813560206145c7614542836144fd565b82815260059290921b840181019181810190868411156145e657600080fd5b8286015b8481101561458a5780356145fd81614595565b83529183019183016145ea565b6000610220828403121561461d57600080fd5b6146256143ab565b9050614630826144f2565b815261463e602083016144f2565b602082015261464f60408301614385565b604082015261466060608301614385565b606082015261467160808301614385565b608082015261468260a08301614385565b60a082015261469360c08301614385565b60c08201526146a460e08301614385565b60e08201526101006146b7818401614385565b908201526101206146c9838201614385565b908201526101406146db838201614385565b908201526101608281013567ffffffffffffffff808211156146fc57600080fd5b61470886838701614521565b8385015261018092508285013591508082111561472457600080fd5b614730868387016145a6565b838501526101a092508285013591508082111561474c57600080fd5b61475886838701614521565b838501526101c092508285013591508082111561477457600080fd5b50614781858286016145a6565b8284015250506101e0614795818401614385565b908201526102006147a7838201614385565b9082015292915050565b6000606082840312156147c357600080fd5b6040516060810181811067ffffffffffffffff821117156147e6576147e6614395565b60405290508082356147f781614370565b8152602083013561480781614370565b6020820152604083013561481a81614370565b6040919091015292915050565b600080600080600080610100878903121561484157600080fd5b863567ffffffffffffffff81111561485857600080fd5b61486489828a0161460a565b96505061487488602089016147b1565b94506080870135935060a087013561488b81614370565b925060c087013561489b81614370565b915060e08701356148ab81614370565b809150509295509295509295565b600080604083850312156148cc57600080fd5b82356148d7816144e3565b915060208301356148e7816144e3565b809150509250929050565b6000806040838503121561490557600080fd5b823567ffffffffffffffff8082111561491d57600080fd5b61492986838701614521565b9350602085013591508082111561493f57600080fd5b5061494c858286016145a6565b9150509250929050565b6000806080838503121561496957600080fd5b823567ffffffffffffffff81111561498057600080fd5b61498c8582860161460a565b92505061499c84602085016147b1565b90509250929050565b6000602082840312156149b757600080fd5b81356149c281614370565b9392505050565b6000602082840312156149db57600080fd5b5051919050565b81516001600160a01b0316815261016081016020830151614a0e60208401826001600160a01b03169052565b506040830151614a25604084018262ffffff169052565b506060830151614a3a606084018260020b9052565b506080830151614a4f608084018260020b9052565b5060a083015160a083015260c083015160c083015260e083015160e083015261010080840151818401525061012080840151614a95828501826001600160a01b03169052565b505061014092830151919092015290565b80516001600160801b038116811461439057600080fd5b60008060008060808587031215614ad357600080fd5b84519350614ae360208601614aa6565b6040860151606090960151949790965092505050565b600060a082019050825182526001600160801b03602084015116602083015260408301516040830152606083015160608301526080830151608083015292915050565b60008060408385031215614b4f57600080fd5b505080516020909101519092909150565b815181526020808301516001600160a01b0316908201526040808301516001600160801b0390811691830191909152606092830151169181019190915260800190565b805160020b8252602081015160020b60208301526001600160801b036040820151166040830152606081015160018060a01b0380821660608501528060808401511660808501528060a08401511660a08501528060c08401511660c085015250505050565b6102208101614c178285614ba3565b8251151560e08301526020830151610100614c358185018315159052565b6040850151610120858101919091526060860151610140860152608086015161016086015260a08601516001600160a01b0390811661018087015260c087015181166101a087015260e087015181166101c08701529186015182166101e08601528501519081166102008501529050509392505050565b634e487b7160e01b600052601160045260246000fd5b81810381811115614cd557614cd5614cac565b92915050565b6020808252602e908201527f496e697469616c697a61626c653a20636f6e747261637420697320616c72656160408201526d191e481a5b9a5d1a585b1a5e995960921b606082015260800190565b634e487b7160e01b600052603260045260246000fd5b600081518084526020808501945080840160005b83811015614d785781516001600160a01b031687529582019590820190600101614d53565b509495945050505050565b6020815260006149c26020830184614d3f565b60006020808385031215614da957600080fd5b825167ffffffffffffffff811115614dc057600080fd5b8301601f81018513614dd157600080fd5b8051614ddf614542826144fd565b81815260059190911b82018301908381019087831115614dfe57600080fd5b928401925b828410156141aa57835182529284019290840190614e03565b600296870b815294860b602086015292850b6040850152930b60608301526001600160a01b03928316608083015290911660a082015260c00190565b600080600060608486031215614e6d57600080fd5b614e7684614aa6565b925060208401519150604084015190509250925092565b602080825260029082015261049560f41b604082015260600190565b604081526000614ebc6040830185614d3f565b82810360208481019190915284518083528582019282019060005b81811015614ef857845162ffffff1683529383019391830191600101614ed7565b5090979650505050505050565b60e08101614cd58284614ba3565b80820180821115614cd557614cd5614cac565b6101608101614f358285614ba3565b825162ffffff1660e0830152602083015161010083015260408301516101208301526060909201516001600160a01b031661014090910152919050565b60008060008060008060008060006101208a8c031215614f9157600080fd5b614f9a8a614aa6565b9850614fa860208b01614aa6565b975060408a0151614fb8816144e3565b60608b0151909750614fc9816144e3565b8096505060808a0151945060a08a0151935060c08a0151614fe981614370565b8093505060e08a015191506101008a015190509295985092959850929598565b60006020828403121561501b57600080fd5b81516149c281614595565b60006020828403121561503857600080fd5b81516149c281614370565b60005b8381101561505e578181015183820152602001615046565b50506000910152565b60008251615079818460208701615043565b9190910192915050565b61018081016150928285614ba3565b8251151560e0830152602083015162ffffff16610100830152604083015161012083015260608301516001600160a01b0390811661014084015260809093015190921661016090910152919050565b6000602082840312156150f357600080fd5b6149c282614aa6565b6000845161510e818460208901615043565b60e89490941b6001600160e81b0319169190930190815260609190911b6bffffffffffffffffffffffff1916600382015260170192915050565b60006001820161515a5761515a614cac565b5060010190565b60008151808452615179816020860160208601615043565b601f01601f19169290920160200192915050565b6020815260008251608060208401526151a960a0840182615161565b905060018060a01b03602085015116604084015260408401516060840152606084015160808401528091505092915050565b60e08101614cd5828480516001600160a01b03908116835260208083015182169084015260408083015162ffffff16908401526060808301518216908401526080808301519084015260a0828101519084015260c09182015116910152565b60006020828403121561524c57600080fd5b815180151581146149c257600080fd5b6020815260006149c2602083018461516156fea264697066735822122057bb20ab307691f60cc033800d0690fd7b9d2b86743df309e6833126e2645bfb64736f6c63430008110033",
    "linkReferences": {
      "src/libs/DexV3Calculations.sol": {
        "DexV3Calculations": [
          {
            "start": 4940,
            "length": 20
          },
          {
            "start": 7466,
            "length": 20
          },
          {
            "start": 7822,
            "length": 20
          },
          {
            "start": 8014,
            "length": 20
          },
          {
            "start": 8699,
            "length": 20
          },
          {
            "start": 9192,
            "length": 20
          },
          {
            "start": 10582,
            "length": 20
          },
          {
            "start": 12416,
            "length": 20
          }
        ]
      },
      "src/libs/LendingBasedMarketNeutralCalculations.sol": {
        "LendingBasedMarketNeutralCalculations": [
          {
            "start": 3758,
            "length": 20
          },
          {
            "start": 13849,
            "length": 20
          }
        ]
      }
    }
  },
  "methodIdentifiers": {
    "MANTISSA()": "2703984c",
    "NonfungiblePositionManager()": "eb582d13",
    "_burnAndCollectV3()": "2534434d",
    "_increaseLiquidity()": "595ce3c8",
    "_mintAndAddLiquidityV3()": "0ca1cc5b",
    "_stakeNonFungibleLiquidityPosition()": "adf085a2",
    "_swapAssetsToNewRangeRatio()": "abba9686",
    "assettoNativeFeed()": "ebf678f0",
    "balanceOf()": "722713f7",
    "changeRange(int24,int24)": "34bf6518",
    "chef()": "1fc8bc5d",
    "deposit()": "d0e30db0",
    "depositV3()": "f8cea66c",
    "distribution()": "5ee58efc",
    "fullMathLib()": "6d9adeb0",
    "getDepositToken()": "fb1b5c7b",
    "getDepositvToken()": "55f28fee",
    "getNeutralToken()": "b5669b6f",
    "getNeutralvToken()": "34be0ad6",
    "harvest()": "4641257d",
    "init((int24,int24,address,address,address,address,address,address,address,address,address,address[],uint24[],address[],uint24[],address,address),(address,address,address))": "c5dc114c",
    "init((int24,int24,address,address,address,address,address,address,address,address,address,address[],uint24[],address[],uint24[],address,address),(address,address,address),uint256,address,address,address)": "2e37c985",
    "isTokenZeroDeposit()": "afbd1378",
    "lastHarvest()": "f1a392da",
    "liquidityAmountsLib()": "c597499d",
    "liquidityBalance()": "c3926a29",
    "liquidityMathLib()": "c3e3fd81",
    "lpRewardsAvailable()": "aac41ef9",
    "lpToken0()": "5ee167c0",
    "lpToken1()": "877562b6",
    "manager()": "481c6a75",
    "onERC721Received(address,address,uint256,bytes)": "150b7a02",
    "onlyManager()": "ef21c994",
    "onlyVault()": "b3a9c91c",
    "owner()": "8da5cb5b",
    "panic()": "4700d305",
    "pause()": "8456cb59",
    "paused()": "5c975abb",
    "poolFee()": "089fe6aa",
    "rebalance()": "7d7c2a1c",
    "renounceOwnership()": "715018a6",
    "retireStrat()": "fb617787",
    "reward()": "228cb733",
    "rewardToLp0AddressPath(uint256)": "5774c0f6",
    "rewardToLp0FeePath(uint256)": "b97db3cf",
    "rewardToLp1AddressPath(uint256)": "ba4eb826",
    "rewardToLp1FeePath(uint256)": "e93d5fc1",
    "rewardsAvailable()": "e7a7250a",
    "rewardtoNativeFeed()": "b5164afd",
    "router()": "f887ea40",
    "safeCastLib()": "8b4f9c50",
    "safetyFactor()": "f02ecb71",
    "setManager(address)": "d0ebdbe7",
    "setRewardToLp0Path(address[],uint24[])": "68b80723",
    "setRewardToLp1Path(address[],uint24[])": "b018d38e",
    "sqrtPriceMathLib()": "e00bb0b5",
    "stake()": "3a4b66f1",
    "tickLower()": "59c4f905",
    "tickMathLib()": "342226dd",
    "tickUpper()": "55b812a8",
    "tokenID()": "a5c42ef1",
    "transferOwnership(address)": "f2fde38b",
    "unpause()": "3f4ba83a",
    "vToken0()": "a075af0b",
    "vToken1()": "3dd3e3c9",
    "vault()": "fbfa77cf",
    "withdraw(uint256)": "2e1a7d4d"
  },
  "id": 69
}