{
  "abi": [
    {
      "inputs": [
        {
          "internalType": "address",
          "name": "_chef",
          "type": "address"
        },
        {
          "internalType": "address",
          "name": "_router",
          "type": "address"
        },
        {
          "internalType": "address",
          "name": "_NonfungiblePositionManager",
          "type": "address"
        },
        {
          "internalType": "address",
          "name": "_stratFactory",
          "type": "address"
        }
      ],
      "stateMutability": "nonpayable",
      "type": "constructor"
    },
    {
      "anonymous": false,
      "inputs": [
        {
          "indexed": true,
          "internalType": "address",
          "name": "user",
          "type": "address"
        },
        {
          "indexed": true,
          "internalType": "address",
          "name": "stake",
          "type": "address"
        },
        {
          "indexed": false,
          "internalType": "address",
          "name": "vault",
          "type": "address"
        }
      ],
      "name": "VaultCreated",
      "type": "event"
    },
    {
      "inputs": [],
      "name": "NonfungiblePositionManager",
      "outputs": [
        {
          "internalType": "address",
          "name": "",
          "type": "address"
        }
      ],
      "stateMutability": "view",
      "type": "function"
    },
    {
      "inputs": [
        {
          "internalType": "uint256",
          "name": "",
          "type": "uint256"
        }
      ],
      "name": "allVaults",
      "outputs": [
        {
          "internalType": "address",
          "name": "",
          "type": "address"
        }
      ],
      "stateMutability": "view",
      "type": "function"
    },
    {
      "inputs": [],
      "name": "chef",
      "outputs": [
        {
          "internalType": "address",
          "name": "",
          "type": "address"
        }
      ],
      "stateMutability": "view",
      "type": "function"
    },
    {
      "inputs": [
        {
          "components": [
            {
              "internalType": "address",
              "name": "asset",
              "type": "address"
            },
            {
              "internalType": "uint256",
              "name": "totalTvlCap",
              "type": "uint256"
            },
            {
              "internalType": "uint256",
              "name": "approvalDelay",
              "type": "uint256"
            },
            {
              "internalType": "string",
              "name": "tokenName",
              "type": "string"
            },
            {
              "internalType": "string",
              "name": "tokenSymbol",
              "type": "string"
            },
            {
              "internalType": "int24",
              "name": "tickLower",
              "type": "int24"
            },
            {
              "internalType": "int24",
              "name": "tickUpper",
              "type": "int24"
            },
            {
              "internalType": "address",
              "name": "stake",
              "type": "address"
            },
            {
              "internalType": "address[]",
              "name": "rewardToLp0AddressPath",
              "type": "address[]"
            },
            {
              "internalType": "uint24[]",
              "name": "rewardToLp0FeePath",
              "type": "uint24[]"
            },
            {
              "internalType": "address[]",
              "name": "rewardToLp1AddressPath",
              "type": "address[]"
            },
            {
              "internalType": "uint24[]",
              "name": "rewardToLp1FeePath",
              "type": "uint24[]"
            },
            {
              "internalType": "address",
              "name": "rewardtoNativeFeed",
              "type": "address"
            },
            {
              "internalType": "address",
              "name": "assettoNativeFeed",
              "type": "address"
            },
            {
              "internalType": "address",
              "name": "tickMathLib",
              "type": "address"
            },
            {
              "internalType": "address",
              "name": "sqrtPriceMathLib",
              "type": "address"
            },
            {
              "internalType": "address",
              "name": "liquidityMathLib",
              "type": "address"
            },
            {
              "internalType": "address",
              "name": "safeCastLib",
              "type": "address"
            },
            {
              "internalType": "address",
              "name": "liquidityAmountsLib",
              "type": "address"
            },
            {
              "internalType": "address",
              "name": "fullMathLib",
              "type": "address"
            }
          ],
          "internalType": "struct PancakeVaultParams",
          "name": "createVaultParams",
          "type": "tuple"
        }
      ],
      "name": "createVault",
      "outputs": [
        {
          "internalType": "address",
          "name": "vaultAddress",
          "type": "address"
        }
      ],
      "stateMutability": "nonpayable",
      "type": "function"
    },
    {
      "inputs": [],
      "name": "listAllVaults",
      "outputs": [
        {
          "internalType": "address[]",
          "name": "",
          "type": "address[]"
        }
      ],
      "stateMutability": "view",
      "type": "function"
    },
    {
      "inputs": [],
      "name": "manager",
      "outputs": [
        {
          "internalType": "address",
          "name": "",
          "type": "address"
        }
      ],
      "stateMutability": "view",
      "type": "function"
    },
    {
      "inputs": [],
      "name": "router",
      "outputs": [
        {
          "internalType": "address",
          "name": "",
          "type": "address"
        }
      ],
      "stateMutability": "view",
      "type": "function"
    },
    {
      "inputs": [],
      "name": "stratFactory",
      "outputs": [
        {
          "internalType": "address",
          "name": "",
          "type": "address"
        }
      ],
      "stateMutability": "view",
      "type": "function"
    },
    {
      "inputs": [],
      "name": "vaultType",
      "outputs": [
        {
          "internalType": "enum VaultType",
          "name": "",
          "type": "uint8"
        }
      ],
      "stateMutability": "view",
      "type": "function"
    }
  ],
  "bytecode": {
    "object": "0x60a0604052600260805234801561001557600080fd5b5060405162003ead38038062003ead833981016040819052610036916100b1565b600180546001600160a01b03199081166001600160a01b03968716179091556002805482169486169490941790935560038054841692851692909217909155600580548316919093161790915560048054339216919091179055610105565b80516001600160a01b03811681146100ac57600080fd5b919050565b600080600080608085870312156100c757600080fd5b6100d085610095565b93506100de60208601610095565b92506100ec60408601610095565b91506100fa60608601610095565b905092959194509250565b608051613d8d62000120600039600060ef0152613d8d6000f3fe60806040523480156200001157600080fd5b50600436106200009f5760003560e01c80639094a91e116200006e5780639094a91e1462000139578063cda27d8c1462000150578063d292785b1462000167578063eb582d13146200017b578063f887ea40146200018f57600080fd5b80631fc8bc5d14620000a4578063481c6a7514620000d55780634ac032be14620000e957806366a9a1bb1462000120575b600080fd5b600154620000b8906001600160a01b031681565b6040516001600160a01b0390911681526020015b60405180910390f35b600454620000b8906001600160a01b031681565b620001117f000000000000000000000000000000000000000000000000000000000000000081565b604051620000cc919062000483565b6200012a620001a3565b604051620000cc9190620004ac565b620000b86200014a366004620004fb565b62000207565b620000b8620001613660046200075b565b62000232565b600554620000b8906001600160a01b031681565b600354620000b8906001600160a01b031681565b600254620000b8906001600160a01b031681565b60606000805480602002602001604051908101604052809291908181526020018280548015620001fd57602002820191906000526020600020905b81546001600160a01b03168152600190910190602001808311620001de575b5050505050905090565b600081815481106200021857600080fd5b6000918252602090912001546001600160a01b0316905081565b600080826000015183606001518460800151856040015186602001516040516200025c9062000475565b6200026c959493929190620009f6565b604051809103906000f08015801562000289573d6000803e3d6000fd5b50600554600480546002546003546001546040516306c501d360e21b81529698508897506000966001600160a01b0396871696631b14074c96620002e3968d968c9633969285169591851694908116939216910162000ac2565b6020604051808303816000875af115801562000303573d6000803e3d6000fd5b505050506040513d601f19601f8201168201806040525081019062000329919062000d04565b60405163f2fde38b60e01b81523360048201529091506001600160a01b0383169063f2fde38b90602401600060405180830381600087803b1580156200036e57600080fd5b505af115801562000383573d6000803e3d6000fd5b505060405163066ad14f60e21b81526001600160a01b038481166004830152851692506319ab453c9150602401600060405180830381600087803b158015620003cb57600080fd5b505af1158015620003e0573d6000803e3d6000fd5b5050600080546001810182559080527f290decd9548b62a8d60345a988386fc84ba6bc95484008f6362f93160ef3e5630180546001600160a01b0319166001600160a01b0387811691821790925560e088015160405191825290911692503391507f897c133dfbfe1f6239e98b4ffd7e4f6c86a62350a131a7a37790419f58af02f99060200160405180910390a35050919050565b61302c8062000d2c83390190565b6020810160038310620004a657634e487b7160e01b600052602160045260246000fd5b91905290565b6020808252825182820181905260009190848201906040850190845b81811015620004ef5783516001600160a01b031683529284019291840191600101620004c8565b50909695505050505050565b6000602082840312156200050e57600080fd5b5035919050565b634e487b7160e01b600052604160045260246000fd5b604051610280810167ffffffffffffffff8111828210171562000552576200055262000515565b60405290565b604051601f8201601f1916810167ffffffffffffffff8111828210171562000584576200058462000515565b604052919050565b6001600160a01b0381168114620005a257600080fd5b50565b8035620005b2816200058c565b919050565b600082601f830112620005c957600080fd5b813567ffffffffffffffff811115620005e657620005e662000515565b620005fb601f8201601f191660200162000558565b8181528460208386010111156200061157600080fd5b816020850160208301376000918101602001919091529392505050565b8035600281900b8114620005b257600080fd5b600067ffffffffffffffff8211156200065e576200065e62000515565b5060051b60200190565b600082601f8301126200067a57600080fd5b81356020620006936200068d8362000641565b62000558565b82815260059290921b84018101918181019086841115620006b357600080fd5b8286015b84811015620006db578035620006cd816200058c565b8352918301918301620006b7565b509695505050505050565b600082601f830112620006f857600080fd5b813560206200070b6200068d8362000641565b82815260059290921b840181019181810190868411156200072b57600080fd5b8286015b84811015620006db57803562ffffff811681146200074d5760008081fd5b83529183019183016200072f565b6000602082840312156200076e57600080fd5b813567ffffffffffffffff808211156200078757600080fd5b9083019061028082860312156200079d57600080fd5b620007a76200052b565b620007b283620005a5565b81526020830135602082015260408301356040820152606083013582811115620007db57600080fd5b620007e987828601620005b7565b6060830152506080830135828111156200080257600080fd5b6200081087828601620005b7565b6080830152506200082460a084016200062e565b60a08201526200083760c084016200062e565b60c08201526200084a60e08401620005a5565b60e082015261010080840135838111156200086457600080fd5b620008728882870162000668565b82840152505061012080840135838111156200088d57600080fd5b6200089b88828701620006e6565b8284015250506101408084013583811115620008b657600080fd5b620008c48882870162000668565b8284015250506101608084013583811115620008df57600080fd5b620008ed88828701620006e6565b828401525050610180915062000905828401620005a5565b828201526101a091506200091b828401620005a5565b828201526101c0915062000931828401620005a5565b828201526101e0915062000947828401620005a5565b8282015261020091506200095d828401620005a5565b82820152610220915062000973828401620005a5565b82820152610240915062000989828401620005a5565b8282015261026091506200099f828401620005a5565b91810191909152949350505050565b6000815180845260005b81811015620009d657602081850181015186830182015201620009b8565b506000602082860101526020601f19601f83011685010191505092915050565b6001600160a01b038616815260a06020820181905260009062000a1c90830187620009ae565b828103604084015262000a308187620009ae565b60608401959095525050608001529392505050565b600081518084526020808501945080840160005b8381101562000a805781516001600160a01b03168752958201959082019060010162000a59565b509495945050505050565b600081518084526020808501945080840160005b8381101562000a8057815162ffffff168752958201959082019060010162000a9f565b60e0815262000add60e0820189516001600160a01b03169052565b60208801516101008201526040880151610120820152606088015161028061014083015260009062000b14610360840182620009ae565b905060808a015160df19808584030161016086015262000b358383620009ae565b925060a08c0151915062000b4f61018086018360020b9052565b60c08c0151915062000b676101a086018360020b9052565b60e08c01516001600160a01b03166101c08601526101008c015185840382016101e0870152915062000b9a838362000a45565b92506101208c0151915061020081868503018187015262000bbc848462000a8b565b93506101408d0151925061022082878603018188015262000bde858562000a45565b94506101608e0151935061024083888703018189015262000c00868662000a8b565b95506101808f01519450610260935062000c24848901866001600160a01b03169052565b6101a08f01516001600160a01b0381166102808a015294506101c08f01516001600160a01b0381166102a08a015294506101e08f01516001600160a01b0381166102c08a015294508e8301516001600160a01b0381166102e08a015294508e8201516001600160a01b0381166103008a015294508e01516001600160a01b038116610320890152935062000cb6915050565b909a01516001600160a01b03908116610340850152988916602084015296881660408301525093861660608501529185166080840152841660a083015290921660c090920191909152919050565b60006020828403121562000d1757600080fd5b815162000d24816200058c565b939250505056fe60e06040523480156200001157600080fd5b506040516200302c3803806200302c8339810160408190526200003491620002dc565b848484848484848460036200004a838262000408565b50600462000059828262000408565b5050506000806200007083620000d360201b60201c565b915091508162000095576200008f620001b860201b6200195e1760201c565b62000097565b805b60ff1660a05250506001600160a01b0316608052620000b633620001bd565b600160065560c091909152600b55506200050c9650505050505050565b60408051600481526024810182526020810180516001600160e01b031663313ce56760e01b17905290516000918291829182916001600160a01b038716916200011c91620004d4565b600060405180830381855afa9150503d806000811462000159576040519150601f19603f3d011682016040523d82523d6000602084013e6200015e565b606091505b50915091508180156200017357506020815110155b15620001ab57600081806020019051810190620001919190620004f2565b905060ff8111620001a9576001969095509350505050565b505b5060009485945092505050565b601290565b600580546001600160a01b038381166001600160a01b0319831681179093556040519116919082907f8be0079c531659141344cd1fd0a4f28419497f9722a3daafe3b4186f6b6457e090600090a35050565b634e487b7160e01b600052604160045260246000fd5b60005b838110156200024257818101518382015260200162000228565b50506000910152565b600082601f8301126200025d57600080fd5b81516001600160401b03808211156200027a576200027a6200020f565b604051601f8301601f19908116603f01168101908282118183101715620002a557620002a56200020f565b81604052838152866020858801011115620002bf57600080fd5b620002d284602083016020890162000225565b9695505050505050565b600080600080600060a08688031215620002f557600080fd5b85516001600160a01b03811681146200030d57600080fd5b60208701519095506001600160401b03808211156200032b57600080fd5b6200033989838a016200024b565b955060408801519150808211156200035057600080fd5b506200035f888289016200024b565b606088015160809098015196999598509695949350505050565b600181811c908216806200038e57607f821691505b602082108103620003af57634e487b7160e01b600052602260045260246000fd5b50919050565b601f8211156200040357600081815260208120601f850160051c81016020861015620003de5750805b601f850160051c820191505b81811015620003ff57828155600101620003ea565b5050505b505050565b81516001600160401b038111156200042457620004246200020f565b6200043c8162000435845462000379565b84620003b5565b602080601f8311600181146200047457600084156200045b5750858301515b600019600386901b1c1916600185901b178555620003ff565b600085815260208120601f198616915b82811015620004a55788860151825594840194600190910190840162000484565b5085821015620004c45787850151600019600388901b60f8161c191681555b5050505050600190811b01905550565b60008251620004e881846020870162000225565b9190910192915050565b6000602082840312156200050557600080fd5b5051919050565b60805160a05160c051612acd6200055f6000396000818161083a01526117bc015260006103f00152600081816104290152818161167b01528181611d7901528181611e9b01526121260152612acd6000f3fe6080604052600436106102725760003560e01c80638da5cb5b1161014f578063ba087652116100c1578063dd62ed3e1161007a578063dd62ed3e146107e8578063def68a9c14610808578063e2d1e75c14610828578063e66852441461085c578063ef8b30f71461075b578063f2fde38b1461087157600080fd5b8063ba0876521461071b578063c63d75b61461073b578063c6e6f5921461075b578063ce96cb771461077b578063d42892791461079b578063d905777e146107c857600080fd5b8063a457c2d711610113578063a457c2d71461065b578063a8c62e761461067b578063a9059cbb1461069b578063b3d7f6b9146106bb578063b460af94146106db578063b85d9c25146106fb57600080fd5b80638da5cb5b146105b857806394bf804d146105d657806395d89b41146105f65780639674ca6e1461060b5780639b19251a1461062b57600080fd5b806339509351116101e85780635b12ff9b116101ac5780635b12ff9b146104d75780636e553f65146104f757806370a082311461050a578063715018a61461054057806376dfabb81461055557806378c8cda71461059857600080fd5b80633950935114610461578063402d267d1461048157806340bd2f32146104a15780634cdad506146102c157806351b0fc1c146104b757600080fd5b806318160ddd1161023a57806318160ddd1461033157806319ab453c1461034657806323b872dd146103685780632965978814610388578063313ce567146103dc57806338d52e0f1461041a57600080fd5b806301e1d1141461027757806306fdde031461029f57806307a2d13a146102c1578063095ea7b3146102e15780630a28a47714610311575b600080fd5b34801561028357600080fd5b5061028c610891565b6040519081526020015b60405180910390f35b3480156102ab57600080fd5b506102b4610904565b60405161029691906127f6565b3480156102cd57600080fd5b5061028c6102dc366004612829565b610996565b3480156102ed57600080fd5b506103016102fc366004612857565b6109a9565b6040519015158152602001610296565b34801561031d57600080fd5b5061028c61032c366004612829565b6109c1565b34801561033d57600080fd5b5060025461028c565b34801561035257600080fd5b50610366610361366004612883565b6109ce565b005b34801561037457600080fd5b506103016103833660046128a0565b610af8565b34801561039457600080fd5b506040805180820182526000808252602091820152815180830183526008546001600160a01b0316808252600954918301918252835190815290519181019190915201610296565b3480156103e857600080fd5b5060405160ff7f0000000000000000000000000000000000000000000000000000000000000000168152602001610296565b34801561042657600080fd5b507f00000000000000000000000000000000000000000000000000000000000000005b6040516001600160a01b039091168152602001610296565b34801561046d57600080fd5b5061030161047c366004612857565b610b1e565b34801561048d57600080fd5b5061028c61049c366004612883565b610b40565b3480156104ad57600080fd5b5061028c600b5481565b3480156104c357600080fd5b506103666104d2366004612829565b610c5a565b3480156104e357600080fd5b506103666104f2366004612883565b610cf2565b61028c6105053660046128e1565b610ed5565b34801561051657600080fd5b5061028c610525366004612883565b6001600160a01b031660009081526020819052604090205490565b34801561054c57600080fd5b50610366610f48565b34801561056157600080fd5b50600854600954610579916001600160a01b03169082565b604080516001600160a01b039093168352602083019190915201610296565b3480156105a457600080fd5b506103666105b3366004612883565b610f5c565b3480156105c457600080fd5b506005546001600160a01b0316610449565b3480156105e257600080fd5b5061028c6105f13660046128e1565b61102f565b34801561060257600080fd5b506102b46110a2565b34801561061757600080fd5b50610366610626366004612883565b6110b1565b34801561063757600080fd5b50610301610646366004612883565b600d6020526000908152604090205460ff1681565b34801561066757600080fd5b50610301610676366004612857565b6111a5565b34801561068757600080fd5b50600a54610449906001600160a01b031681565b3480156106a757600080fd5b506103016106b6366004612857565b61122b565b3480156106c757600080fd5b5061028c6106d6366004612829565b611239565b3480156106e757600080fd5b5061028c6106f6366004612911565b611246565b34801561070757600080fd5b50610366610716366004612857565b6112c2565b34801561072757600080fd5b5061028c610736366004612911565b6113ca565b34801561074757600080fd5b5061028c610756366004612883565b61143e565b34801561076757600080fd5b5061028c610776366004612829565b6115f7565b34801561078757600080fd5b5061028c610796366004612883565b611604565b3480156107a757600080fd5b5061028c6107b6366004612883565b600c6020526000908152604090205481565b3480156107d457600080fd5b5061028c6107e3366004612883565b611628565b3480156107f457600080fd5b5061028c610803366004612953565b611646565b34801561081457600080fd5b50610366610823366004612883565b611671565b34801561083457600080fd5b5061028c7f000000000000000000000000000000000000000000000000000000000000000081565b34801561086857600080fd5b50610366611764565b34801561087d57600080fd5b5061036661088c366004612883565b6118e8565b600a546040805163722713f760e01b815290516000926001600160a01b03169163722713f79160048083019260209291908290030181865afa1580156108db573d6000803e3d6000fd5b505050506040513d601f19601f820116820180604052508101906108ff9190612981565b905090565b6060600380546109139061299a565b80601f016020809104026020016040519081016040528092919081815260200182805461093f9061299a565b801561098c5780601f106109615761010080835404028352916020019161098c565b820191906000526020600020905b81548152906001019060200180831161096f57829003601f168201915b5050505050905090565b60006109a3826000611963565b92915050565b6000336109b7818585611996565b5060019392505050565b60006109a3826001611aba565b600754610100900460ff16158080156109ee5750600754600160ff909116105b80610a085750303b158015610a08575060075460ff166001145b610a705760405162461bcd60e51b815260206004820152602e60248201527f496e697469616c697a61626c653a20636f6e747261637420697320616c72656160448201526d191e481a5b9a5d1a585b1a5e995960921b60648201526084015b60405180910390fd5b6007805460ff191660011790558015610a93576007805461ff0019166101001790555b600a80546001600160a01b0319166001600160a01b0384161790558015610af4576007805461ff0019169055604051600181527f7f26b83ff96e1f2b6a682f133852f6798a09c465da95921460cefb38474024989060200160405180910390a15b5050565b600033610b06858285611aec565b610b11858585611b66565b60019150505b9392505050565b6000336109b7818585610b318383611646565b610b3b91906129ea565b611996565b600a5460408051635c975abb60e01b815290516000926001600160a01b031691635c975abb9160048083019260209291908290030181865afa158015610b8a573d6000803e3d6000fd5b505050506040513d601f19601f82011682018060405250810190610bae91906129fd565b15610bbb57506000919050565b6000610bc5610891565b600b54610bd29190612a1f565b6001600160a01b0384166000908152600c602052604081205491925081610bfb57600019610c40565b610c1d6106d6866001600160a01b031660009081526020819052604090205490565b6001600160a01b0386166000908152600c6020526040902054610c409190612a1f565b9050808310610c4f5780610c51565b825b95945050505050565b610c62611d0a565b80600b5403610ca25760405162461bcd60e51b815260206004820152600c60248201526b053616d652054564c206361760a41b6044820152606401610a67565b600554600b5460408051918252602082018490526001600160a01b03909216917f62be5807a2922ba46a7c1a6af65af203ab5f9840c6d0b9f469a7689fdfb58eec910160405180910390a2600b55565b6005546001600160a01b0316331480610d7e5750600a546040805163481c6a7560e01b8152905133926001600160a01b03169163481c6a759160048083019260209291908290030181865afa158015610d4f573d6000803e3d6000fd5b505050506040513d601f19601f82011682018060405250810190610d739190612a32565b6001600160a01b0316145b610dc05760405162461bcd60e51b815260206004820152601360248201527221286f776e6572207c7c206d616e616765722960681b6044820152606401610a67565b806001600160a01b031663fbfa77cf6040518163ffffffff1660e01b8152600401602060405180830381865afa158015610dfe573d6000803e3d6000fd5b505050506040513d601f19601f82011682018060405250810190610e229190612a32565b6001600160a01b0316306001600160a01b031614610e6e5760405162461bcd60e51b8152602060048201526009602482015268085c1c9bdc1bdcd85b60ba1b6044820152606401610a67565b6040805180820182526001600160a01b038316808252426020928301819052600880546001600160a01b0319168317905560095591519182527f1aae2ec5647db56da2d513de40528ba3565c6057525637050660c4323bbac7df910160405180910390a150565b6000610ee082610b40565b831115610f2f5760405162461bcd60e51b815260206004820152601e60248201527f455243343632363a206465706f736974206d6f7265207468616e206d617800006044820152606401610a67565b6000610f3a846115f7565b9050610b1733848684611d64565b610f50611d0a565b610f5a6000611e0f565b565b610f64611d0a565b6001600160a01b0381166000908152600d602052604090205460ff16610fde5760405162461bcd60e51b815260206004820152602960248201527f57686974656c69737446696c7465723a2052656d6f76696e67204e6f6e2057686044820152681a5d195b1a5cdd195960ba1b6064820152608401610a67565b6001600160a01b038181166000818152600d6020526040808220805460ff1916905560055490519316927f403c5e5cf4d35483fc4491cc180e7c00fd44449e95dc52cf2f470d8c02699f659190a350565b600061103a8261143e565b8311156110895760405162461bcd60e51b815260206004820152601b60248201527f455243343632363a206d696e74206d6f7265207468616e206d617800000000006044820152606401610a67565b600061109484611239565b9050610b1733848387611d64565b6060600480546109139061299a565b6110b9611d0a565b6001600160a01b0381166000908152600d602052604090205460ff161561112e5760405162461bcd60e51b8152602060048201526024808201527f57686974656c69737446696c7465723a20416c72656164792057686974656c696044820152631cdd195960e21b6064820152608401610a67565b6001600160a01b0381166000908152600d60205260409020805460ff191660011790556111636005546001600160a01b031690565b6001600160a01b0316816001600160a01b03167f74dd9d466f35e6d6ff9fa8b6ba203f926982ab037ba5d8e8457a0a9516e27e1460405160405180910390a350565b600033816111b38286611646565b9050838110156112135760405162461bcd60e51b815260206004820152602560248201527f45524332303a2064656372656173656420616c6c6f77616e63652062656c6f77604482015264207a65726f60d81b6064820152608401610a67565b6112208286868403611996565b506001949350505050565b6000336109b7818585611b66565b60006109a3826001611963565b600061125182611604565b8411156112a05760405162461bcd60e51b815260206004820152601f60248201527f455243343632363a207769746864726177206d6f7265207468616e206d6178006044820152606401610a67565b60006112ab856109c1565b90506112ba3385858885611e61565b949350505050565b6112ca611d0a565b6001600160a01b0382166000908152600c60205260409020548190036113225760405162461bcd60e51b815260206004820152600d60248201526c053616d6520557365722063617609c1b6044820152606401610a67565b816001600160a01b031661133e6005546001600160a01b031690565b6001600160a01b03167fc1fa2a9952be0d43691fcfb2f79585c61f18978d7be1af78c4882302c3f8d296600c6000866001600160a01b03166001600160a01b0316815260200190815260200160002054846040516113a6929190918252602082015260400190565b60405180910390a36001600160a01b039091166000908152600c6020526040902055565b60006113d582611628565b8411156114245760405162461bcd60e51b815260206004820152601d60248201527f455243343632363a2072656465656d206d6f7265207468616e206d61780000006044820152606401610a67565b600061142f85610996565b90506112ba3385858489611e61565b600a5460408051635c975abb60e01b815290516000926001600160a01b031691635c975abb9160048083019260209291908290030181865afa158015611488573d6000803e3d6000fd5b505050506040513d601f19601f820116820180604052508101906114ac91906129fd565b156114b957506000919050565b6000306001600160a01b031663c6e6f592306001600160a01b03166301e1d1146040518163ffffffff1660e01b8152600401602060405180830381865afa158015611508573d6000803e3d6000fd5b505050506040513d601f19601f8201168201806040525081019061152c9190612981565b600b546115399190612a1f565b6040518263ffffffff1660e01b815260040161155791815260200190565b602060405180830381865afa158015611574573d6000803e3d6000fd5b505050506040513d601f19601f820116820180604052508101906115989190612981565b6001600160a01b0384166000908152600c6020526040812054919250816115c157600019610c40565b6001600160a01b03851660009081526020818152604080832054600c909252909120546115ed906115f7565b610c409190612a1f565b60006109a3826000611aba565b6001600160a01b0381166000908152602081905260408120546109a3906000611963565b6001600160a01b0381166000908152602081905260408120546109a3565b6001600160a01b03918216600090815260016020908152604080832093909416825291909152205490565b611679611d0a565b7f00000000000000000000000000000000000000000000000000000000000000006001600160a01b0316816001600160a01b0316036116e35760405162461bcd60e51b815260206004820152600660248201526510ba37b5b2b760d11b6044820152606401610a67565b6040516370a0823160e01b81523060048201526000906001600160a01b038316906370a0823190602401602060405180830381865afa15801561172a573d6000803e3d6000fd5b505050506040513d601f19601f8201168201806040525081019061174e9190612981565b9050610af46001600160a01b03831633836120ae565b61176c611d0a565b6008546001600160a01b03166117b15760405162461bcd60e51b815260206004820152600a6024820152692163616e64696461746560b01b6044820152606401610a67565b60095442906117e0907f0000000000000000000000000000000000000000000000000000000000000000612116565b106118165760405162461bcd60e51b81526020600482015260066024820152652164656c617960d01b6044820152606401610a67565b6008546040516001600160a01b0390911681527f7f37d440e85aba7fbf641c4bda5ca4ef669a80bffaacde2aa8d9feb1b048c82c9060200160405180910390a1600a8054600880546001600160a01b03198084166001600160a01b038381169190911790955516905564012a05f2006009556040805163fb61778760e01b815290519290911691829163fb61778791600480830192600092919082900301818387803b1580156118c557600080fd5b505af11580156118d9573d6000803e3d6000fd5b505050506118e5612122565b50565b6118f0611d0a565b6001600160a01b0381166119555760405162461bcd60e51b815260206004820152602660248201527f4f776e61626c653a206e6577206f776e657220697320746865207a65726f206160448201526564647265737360d01b6064820152608401610a67565b6118e581611e0f565b601290565b60008061196f60025490565b905080156119905761198b611982610891565b85908386612237565b6112ba565b836112ba565b6001600160a01b0383166119f85760405162461bcd60e51b8152602060048201526024808201527f45524332303a20617070726f76652066726f6d20746865207a65726f206164646044820152637265737360e01b6064820152608401610a67565b6001600160a01b038216611a595760405162461bcd60e51b815260206004820152602260248201527f45524332303a20617070726f766520746f20746865207a65726f206164647265604482015261737360f01b6064820152608401610a67565b6001600160a01b0383811660008181526001602090815260408083209487168084529482529182902085905590518481527f8c5be1e5ebec7d5bd14f71427d1e84f3dd0314c0f7b2291e5b200ac8c7c3b925910160405180910390a3505050565b600080611ac660025490565b9050831580611ad3575080155b6119905761198b81611ae3610891565b86919086612237565b6000611af88484611646565b90506000198114611b605781811015611b535760405162461bcd60e51b815260206004820152601d60248201527f45524332303a20696e73756666696369656e7420616c6c6f77616e63650000006044820152606401610a67565b611b608484848403611996565b50505050565b6001600160a01b038316611bca5760405162461bcd60e51b815260206004820152602560248201527f45524332303a207472616e736665722066726f6d20746865207a65726f206164604482015264647265737360d81b6064820152608401610a67565b6001600160a01b038216611c2c5760405162461bcd60e51b815260206004820152602360248201527f45524332303a207472616e7366657220746f20746865207a65726f206164647260448201526265737360e81b6064820152608401610a67565b6001600160a01b03831660009081526020819052604090205481811015611ca45760405162461bcd60e51b815260206004820152602660248201527f45524332303a207472616e7366657220616d6f756e7420657863656564732062604482015265616c616e636560d01b6064820152608401610a67565b6001600160a01b03848116600081815260208181526040808320878703905593871680835291849020805487019055925185815290927fddf252ad1be2c89b69c2b068fc378daa952ba7f163c4a11628f55a4df523b3ef910160405180910390a3611b60565b6005546001600160a01b03163314610f5a5760405162461bcd60e51b815260206004820181905260248201527f4f776e61626c653a2063616c6c6572206973206e6f7420746865206f776e65726044820152606401610a67565b611d6c612292565b611da16001600160a01b037f00000000000000000000000000000000000000000000000000000000000000001685308561229a565b611da9612122565b611db383826122d2565b826001600160a01b0316846001600160a01b03167fdcbc1c05240f31ff3ad067ef1ee35ce4997762752e3a095284754544f4c709d78484604051611e01929190918252602082015260400190565b60405180910390a350505050565b600580546001600160a01b038381166001600160a01b0319831681179093556040519116919082907f8be0079c531659141344cd1fd0a4f28419497f9722a3daafe3b4186f6b6457e090600090a35050565b611e69612292565b826001600160a01b0316856001600160a01b031614611e8d57611e8d838683611aec565b611e978382612391565b60007f00000000000000000000000000000000000000000000000000000000000000006040516370a0823160e01b81523060048201529091506000906001600160a01b038316906370a0823190602401602060405180830381865afa158015611f04573d6000803e3d6000fd5b505050506040513d601f19601f82011682018060405250810190611f289190612981565b905083811015612031576000611f3e85836124c3565b600a54604051632e1a7d4d60e01b8152600481018390529192506001600160a01b031690632e1a7d4d90602401600060405180830381600087803b158015611f8557600080fd5b505af1158015611f99573d6000803e3d6000fd5b50506040516370a0823160e01b8152306004820152600092506001600160a01b03861691506370a0823190602401602060405180830381865afa158015611fe4573d6000803e3d6000fd5b505050506040513d601f19601f820116820180604052508101906120089190612981565b9050600061201682856124c3565b90508281101561202d5761202a8482612116565b96505b5050505b6120456001600160a01b03831687866120ae565b846001600160a01b0316866001600160a01b0316886001600160a01b03167ffbde797d201c681b91056529119e0b02407c7bb96a4a2c75c01fc9667232c8db878760405161209d929190918252602082015260400190565b60405180910390a450505050505050565b6040516001600160a01b03831660248201526044810182905261211190849063a9059cbb60e01b906064015b60408051601f198184030181529190526020810180516001600160e01b03166001600160e01b0319909316929092179091526124cf565b505050565b6000610b1782846129ea565b60007f0000000000000000000000000000000000000000000000000000000000000000600a546040516370a0823160e01b81523060048201529192506121cc916001600160a01b03918216918416906370a0823190602401602060405180830381865afa158015612197573d6000803e3d6000fd5b505050506040513d601f19601f820116820180604052508101906121bb9190612981565b6001600160a01b03841691906120ae565b600a60009054906101000a90046001600160a01b03166001600160a01b031663d0e30db06040518163ffffffff1660e01b8152600401600060405180830381600087803b15801561221c57600080fd5b505af1158015612230573d6000803e3d6000fd5b5050505050565b6000806122458686866125a1565b9050600183600281111561225b5761225b612a4f565b14801561227857506000848061227357612273612a65565b868809115b15610c51576122886001826129ea565b9695505050505050565b610f5a612650565b6040516001600160a01b0380851660248301528316604482015260648101829052611b609085906323b872dd60e01b906084016120da565b6001600160a01b0382166123285760405162461bcd60e51b815260206004820152601f60248201527f45524332303a206d696e7420746f20746865207a65726f2061646472657373006044820152606401610a67565b806002600082825461233a91906129ea565b90915550506001600160a01b038216600081815260208181526040808320805486019055518481527fddf252ad1be2c89b69c2b068fc378daa952ba7f163c4a11628f55a4df523b3ef910160405180910390a35050565b6001600160a01b0382166123f15760405162461bcd60e51b815260206004820152602160248201527f45524332303a206275726e2066726f6d20746865207a65726f206164647265736044820152607360f81b6064820152608401610a67565b6001600160a01b038216600090815260208190526040902054818110156124655760405162461bcd60e51b815260206004820152602260248201527f45524332303a206275726e20616d6f756e7420657863656564732062616c616e604482015261636560f01b6064820152608401610a67565b6001600160a01b0383166000818152602081815260408083208686039055600280548790039055518581529192917fddf252ad1be2c89b69c2b068fc378daa952ba7f163c4a11628f55a4df523b3ef910160405180910390a3505050565b6000610b178284612a1f565b6000612524826040518060400160405280602081526020017f5361666545524332303a206c6f772d6c6576656c2063616c6c206661696c6564815250856001600160a01b03166126af9092919063ffffffff16565b805190915015612111578080602001905181019061254291906129fd565b6121115760405162461bcd60e51b815260206004820152602a60248201527f5361666545524332303a204552433230206f7065726174696f6e20646964206e6044820152691bdd081cdd58d8d9595960b21b6064820152608401610a67565b60008080600019858709858702925082811083820303915050806000036125db578382816125d1576125d1612a65565b0492505050610b17565b8084116125e757600080fd5b60008486880960026001871981018816978890046003810283188082028403028082028403028082028403028082028403028082028403029081029092039091026000889003889004909101858311909403939093029303949094049190911702949350505050565b336000908152600d602052604090205460ff16610f5a5760405162461bcd60e51b815260206004820152601d60248201527f57686974656c69737446696c7465723a202177686974656c69737465640000006044820152606401610a67565b60606112ba848460008585600080866001600160a01b031685876040516126d69190612a7b565b60006040518083038185875af1925050503d8060008114612713576040519150601f19603f3d011682016040523d82523d6000602084013e612718565b606091505b509150915061272987838387612734565b979650505050505050565b606083156127a357825160000361279c576001600160a01b0385163b61279c5760405162461bcd60e51b815260206004820152601d60248201527f416464726573733a2063616c6c20746f206e6f6e2d636f6e74726163740000006044820152606401610a67565b50816112ba565b6112ba83838151156127b85781518083602001fd5b8060405162461bcd60e51b8152600401610a6791906127f6565b60005b838110156127ed5781810151838201526020016127d5565b50506000910152565b60208152600082518060208401526128158160408501602087016127d2565b601f01601f19169190910160400192915050565b60006020828403121561283b57600080fd5b5035919050565b6001600160a01b03811681146118e557600080fd5b6000806040838503121561286a57600080fd5b823561287581612842565b946020939093013593505050565b60006020828403121561289557600080fd5b8135610b1781612842565b6000806000606084860312156128b557600080fd5b83356128c081612842565b925060208401356128d081612842565b929592945050506040919091013590565b600080604083850312156128f457600080fd5b82359150602083013561290681612842565b809150509250929050565b60008060006060848603121561292657600080fd5b83359250602084013561293881612842565b9150604084013561294881612842565b809150509250925092565b6000806040838503121561296657600080fd5b823561297181612842565b9150602083013561290681612842565b60006020828403121561299357600080fd5b5051919050565b600181811c908216806129ae57607f821691505b6020821081036129ce57634e487b7160e01b600052602260045260246000fd5b50919050565b634e487b7160e01b600052601160045260246000fd5b808201808211156109a3576109a36129d4565b600060208284031215612a0f57600080fd5b81518015158114610b1757600080fd5b818103818111156109a3576109a36129d4565b600060208284031215612a4457600080fd5b8151610b1781612842565b634e487b7160e01b600052602160045260246000fd5b634e487b7160e01b600052601260045260246000fd5b60008251612a8d8184602087016127d2565b919091019291505056fea2646970667358221220bba5de38baf82fdb04888a8f3b9f24ec05ccb9f5d9d814b382114f71567eae2064736f6c63430008110033a26469706673582212201f0ab032b03d8491564e4b432a614f6b32ea87417ecdf6f5073590ba86e3419664736f6c63430008110033",
    "linkReferences": {}
  },
  "methodIdentifiers": {
    "NonfungiblePositionManager()": "eb582d13",
    "allVaults(uint256)": "9094a91e",
    "chef()": "1fc8bc5d",
    "createVault((address,uint256,uint256,string,string,int24,int24,address,address[],uint24[],address[],uint24[],address,address,address,address,address,address,address,address))": "cda27d8c",
    "listAllVaults()": "66a9a1bb",
    "manager()": "481c6a75",
    "router()": "f887ea40",
    "stratFactory()": "d292785b",
    "vaultType()": "4ac032be"
  },
  "id": 53
}