{
  "abi": [
    {
      "inputs": [
        {
          "components": [
            {
              "internalType": "int24",
              "name": "tickLower",
              "type": "int24"
            },
            {
              "internalType": "int24",
              "name": "tickUpper",
              "type": "int24"
            },
            {
              "internalType": "uint128",
              "name": "liquidityDelta",
              "type": "uint128"
            },
            {
              "internalType": "address",
              "name": "safeCastLib",
              "type": "address"
            },
            {
              "internalType": "address",
              "name": "sqrtPriceMathLib",
              "type": "address"
            },
            {
              "internalType": "address",
              "name": "tickMathLib",
              "type": "address"
            },
            {
              "internalType": "address",
              "name": "poolAddress",
              "type": "address"
            }
          ],
          "internalType": "struct LiquidityToAmountCalcParams",
          "name": "liquidityToAmountCalcParams",
          "type": "tuple"
        },
        {
          "components": [
            {
              "internalType": "bool",
              "name": "isTokenZeroDeposit",
              "type": "bool"
            },
            {
              "internalType": "uint24",
              "name": "poolFee",
              "type": "uint24"
            },
            {
              "internalType": "uint256",
              "name": "assetAmount",
              "type": "uint256"
            },
            {
              "internalType": "address",
              "name": "fullMathLib",
              "type": "address"
            },
            {
              "internalType": "address",
              "name": "liquidityAmountsLib",
              "type": "address"
            }
          ],
          "internalType": "struct LiquidityDeltaForAssetAmountParams",
          "name": "liquidityDeltaForAssetAmountParams",
          "type": "tuple"
        }
      ],
      "name": "calculateLiquidityDeltaForAssetAmount",
      "outputs": [
        {
          "internalType": "uint128",
          "name": "liquidityDelta",
          "type": "uint128"
        }
      ],
      "stateMutability": "view",
      "type": "function"
    },
    {
      "inputs": [
        {
          "components": [
            {
              "internalType": "int24",
              "name": "tickLower",
              "type": "int24"
            },
            {
              "internalType": "int24",
              "name": "tickUpper",
              "type": "int24"
            },
            {
              "internalType": "uint128",
              "name": "liquidityDelta",
              "type": "uint128"
            },
            {
              "internalType": "address",
              "name": "safeCastLib",
              "type": "address"
            },
            {
              "internalType": "address",
              "name": "sqrtPriceMathLib",
              "type": "address"
            },
            {
              "internalType": "address",
              "name": "tickMathLib",
              "type": "address"
            },
            {
              "internalType": "address",
              "name": "poolAddress",
              "type": "address"
            }
          ],
          "internalType": "struct LiquidityToAmountCalcParams",
          "name": "liquidityToAmountCalcParams",
          "type": "tuple"
        },
        {
          "components": [
            {
              "internalType": "uint24",
              "name": "poolFee",
              "type": "uint24"
            },
            {
              "internalType": "uint256",
              "name": "currAmount0Bal",
              "type": "uint256"
            },
            {
              "internalType": "uint256",
              "name": "currAmount1Bal",
              "type": "uint256"
            },
            {
              "internalType": "address",
              "name": "fullMathLib",
              "type": "address"
            }
          ],
          "internalType": "struct ChangeInAmountsForNewRatioParams",
          "name": "changeInAmountsForNewRatioParams",
          "type": "tuple"
        }
      ],
      "name": "changeInAmountsToNewRangeRatio",
      "outputs": [
        {
          "internalType": "uint256",
          "name": "x",
          "type": "uint256"
        },
        {
          "internalType": "uint256",
          "name": "y",
          "type": "uint256"
        }
      ],
      "stateMutability": "view",
      "type": "function"
    },
    {
      "inputs": [
        {
          "internalType": "int24",
          "name": "tickLower_",
          "type": "int24"
        },
        {
          "internalType": "int24",
          "name": "tickUpper_",
          "type": "int24"
        },
        {
          "internalType": "address",
          "name": "tickMathLib",
          "type": "address"
        },
        {
          "internalType": "address",
          "name": "pool",
          "type": "address"
        }
      ],
      "name": "checkTicks",
      "outputs": [],
      "stateMutability": "view",
      "type": "function"
    },
    {
      "inputs": [
        {
          "internalType": "uint256",
          "name": "amount0",
          "type": "uint256"
        },
        {
          "internalType": "address",
          "name": "pool",
          "type": "address"
        },
        {
          "internalType": "address",
          "name": "fullMathLib",
          "type": "address"
        }
      ],
      "name": "convertAmount0ToAmount1",
      "outputs": [
        {
          "internalType": "uint256",
          "name": "amount1",
          "type": "uint256"
        }
      ],
      "stateMutability": "view",
      "type": "function"
    },
    {
      "inputs": [
        {
          "internalType": "uint256",
          "name": "amount1",
          "type": "uint256"
        },
        {
          "internalType": "address",
          "name": "pool",
          "type": "address"
        },
        {
          "internalType": "address",
          "name": "fullMathLib",
          "type": "address"
        }
      ],
      "name": "convertAmount1ToAmount0",
      "outputs": [
        {
          "internalType": "uint256",
          "name": "amount0",
          "type": "uint256"
        }
      ],
      "stateMutability": "view",
      "type": "function"
    },
    {
      "inputs": [
        {
          "components": [
            {
              "internalType": "int24",
              "name": "tickLower",
              "type": "int24"
            },
            {
              "internalType": "int24",
              "name": "tickUpper",
              "type": "int24"
            },
            {
              "internalType": "uint128",
              "name": "liquidityDelta",
              "type": "uint128"
            },
            {
              "internalType": "address",
              "name": "safeCastLib",
              "type": "address"
            },
            {
              "internalType": "address",
              "name": "sqrtPriceMathLib",
              "type": "address"
            },
            {
              "internalType": "address",
              "name": "tickMathLib",
              "type": "address"
            },
            {
              "internalType": "address",
              "name": "poolAddress",
              "type": "address"
            }
          ],
          "internalType": "struct LiquidityToAmountCalcParams",
          "name": "liquidityToAmountCalcParams",
          "type": "tuple"
        }
      ],
      "name": "liquidityToAmounts",
      "outputs": [
        {
          "internalType": "uint256",
          "name": "amount0",
          "type": "uint256"
        },
        {
          "internalType": "uint256",
          "name": "amount1",
          "type": "uint256"
        }
      ],
      "stateMutability": "view",
      "type": "function"
    }
  ],
  "bytecode": {
    "object": "0x61220c61003a600b82828239805160001a60731461002d57634e487b7160e01b600052600060045260246000fd5b30600052607381538281f3fe730000000000000000000000000000000000000000301460806040526004361061006c5760003560e01c806317d7acc8146100715780632ca891321461008657806351bad1e2146100ac5780636520a11d146100d7578063bf37f00f146100ea578063e312cd1c14610112575b600080fd5b61008461007f366004611dbc565b610125565b005b610099610094366004611e18565b610367565b6040519081526020015b60405180910390f35b6100bf6100ba366004611e72565b6104d9565b6040516001600160801b0390911681526020016100a3565b6100996100e5366004611e18565b610c6a565b6100fd6100f8366004611eb3565b610d96565b604080519283526020830191909152016100a3565b6100fd610120366004611ee6565b61164f565b8260020b8460020b126101655760405162461bcd60e51b8152602060048201526003602482015262544f4960e81b60448201526064015b60405180910390fd5b816001600160a01b031663a1634b146040518163ffffffff1660e01b8152600401602060405180830381865afa1580156101a3573d6000803e3d6000fd5b505050506040513d601f19601f820116820180604052508101906101c79190611f09565b60020b8460020b12156102055760405162461bcd60e51b815260040161015c906020808252600490820152631315151360e21b604082015260600190565b816001600160a01b0316636882a8886040518163ffffffff1660e01b8152600401602060405180830381865afa158015610243573d6000803e3d6000fd5b505050506040513d601f19601f820116820180604052508101906102679190611f09565b60020b8360020b13156102a55760405162461bcd60e51b815260040161015c906020808252600490820152630aaa8a8960e31b604082015260600190565b6000816001600160a01b031663d0c93a7c6040518163ffffffff1660e01b8152600401602060405180830381865afa1580156102e5573d6000803e3d6000fd5b505050506040513d601f19601f820116820180604052508101906103099190611f09565b90506103158186611f3c565b60020b15801561032f575061032a8185611f3c565b60020b155b6103605760405162461bcd60e51b8152602060048201526002602482015261125560f21b604482015260640161015c565b5050505050565b600080836001600160a01b0316633850c7bd6040518163ffffffff1660e01b815260040160e060405180830381865afa1580156103a8573d6000803e3d6000fd5b505050506040513d601f19601f820116820180604052508101906103cc9190611f83565b505060405163554d048960e11b8152600481018b9052600160601b60248201526001600160a01b0380871660448301529596509488169463aa9a091294508593508492506064019050602060405180830381865afa158015610432573d6000803e3d6000fd5b505050506040513d601f19601f82011682018060405250810190610456919061201e565b6040516001600160e01b031960e084901b1681526004810191909152600160601b60248201526001600160a01b03841660448201526064015b602060405180830381865afa1580156104ac573d6000803e3d6000fd5b505050506040513d601f19601f820116820180604052508101906104d0919061201e565b95945050505050565b60008060006104e78561164f565b90925090506000806104fc6020870187612037565b1561066a576105116080870160608801612054565b6001600160a01b031663aa9a0912876040013585610582620f42408b602001602081019061053f9190612071565b61054e9062ffffff168a6120ac565b61055891906120c9565b61056290896120dd565b61057260e08e0160c08f01612054565b61009460808e0160608f01612054565b61058c90896120f0565b6040516001600160e01b031960e086901b168152600481019390935260248301919091526044820152606401602060405180830381865afa1580156105d5573d6000803e3d6000fd5b505050506040513d601f19601f820116820180604052508101906105f9919061201e565b9050610655620f42406106126040890160208a01612071565b6106219062ffffff16846120ac565b61062b91906120c9565b61063590836120dd565b61064560e08a0160c08b01612054565b61009460808a0160608b01612054565b6106639060408801356120dd565b91506107cf565b61067a6080870160608801612054565b6001600160a01b031663aa9a09128760400135866106eb620f42408b60200160208101906106a89190612071565b6106b79062ffffff168b6120ac565b6106c191906120c9565b6106cb908a6120dd565b6106db60e08e0160c08f01612054565b6100e560808e0160608f01612054565b6106f590886120f0565b6040516001600160e01b031960e086901b168152600481019390935260248301919091526044820152606401602060405180830381865afa15801561073e573d6000803e3d6000fd5b505050506040513d601f19601f82011682018060405250810190610762919061201e565b91506107be620f424061077b6040890160208a01612071565b61078a9062ffffff16856120ac565b61079491906120c9565b61079e90846120dd565b6107ae60e08a0160c08b01612054565b6100e560808a0160608b01612054565b6107cc9060408801356120dd565b90505b60006107e160e0890160c08a01612054565b9050600080826001600160a01b0316633850c7bd6040518163ffffffff1660e01b815260040160e060405180830381865afa158015610824573d6000803e3d6000fd5b505050506040513d601f19601f820116820180604052508101906108489190611f83565b5050505050915091508960000160208101906108649190612103565b60020b8160020b1215610a2e5761088160a08a0160808b01612054565b6001600160a01b03166367df6e8961089f60c08d0160a08e01612054565b6001600160a01b031663986cfba36108ba60208f018f612103565b6040516001600160e01b031960e084901b16815260029190910b6004820152602401602060405180830381865afa1580156108f9573d6000803e3d6000fd5b505050506040513d601f19601f8201168201806040525081019061091d9190612120565b61092d60c08e0160a08f01612054565b6001600160a01b031663986cfba38e602001602081019061094e9190612103565b6040516001600160e01b031960e084901b16815260029190910b6004820152602401602060405180830381865afa15801561098d573d6000803e3d6000fd5b505050506040513d601f19601f820116820180604052508101906109b19190612120565b6040516001600160e01b031960e085901b1681526001600160a01b0392831660048201529116602482015260448101889052606401602060405180830381865afa158015610a03573d6000803e3d6000fd5b505050506040513d601f19601f82011682018060405250810190610a279190612152565b9750610c5d565b610a3e60408b0160208c01612103565b60020b8160020b1215610a7a57610a5b60a08a0160808b01612054565b6001600160a01b03166367df6e898361092d60c08e0160a08f01612054565b610a8a60a08a0160808b01612054565b6001600160a01b03166308c0f795610aa860c08d0160a08e01612054565b6001600160a01b031663986cfba3610ac360208f018f612103565b6040516001600160e01b031960e084901b16815260029190910b6004820152602401602060405180830381865afa158015610b02573d6000803e3d6000fd5b505050506040513d601f19601f82011682018060405250810190610b269190612120565b610b3660c08e0160a08f01612054565b6001600160a01b031663986cfba38e6020016020810190610b579190612103565b6040516001600160e01b031960e084901b16815260029190910b6004820152602401602060405180830381865afa158015610b96573d6000803e3d6000fd5b505050506040513d601f19601f82011682018060405250810190610bba9190612120565b610be4888f60c0016020810190610bd19190612054565b8f60600160208101906100e59190612054565b6040516001600160e01b031960e086901b1681526001600160a01b0393841660048201529290911660248301526044820152606401602060405180830381865afa158015610c36573d6000803e3d6000fd5b505050506040513d601f19601f82011682018060405250810190610c5a9190612152565b97505b5050505050505092915050565b600080836001600160a01b0316633850c7bd6040518163ffffffff1660e01b815260040160e060405180830381865afa158015610cab573d6000803e3d6000fd5b505050506040513d601f19601f82011682018060405250810190610ccf9190611f83565b505060405163554d048960e11b8152600481018b90526001600160a01b038087166024830152600160601b60448301529596509488169463aa9a091294508593508492506064019050602060405180830381865afa158015610d35573d6000803e3d6000fd5b505050506040513d601f19601f82011682018060405250810190610d59919061201e565b6040516001600160e01b031960e084901b16815260048101919091526001600160a01b0384166024820152600160601b604482015260640161048f565b6000806020830135158015610dad57506040830135155b15610ddf5760405162461bcd60e51b81526020600482015260026024820152614e4160f01b604482015260640161015c565b600080610deb8661164f565b9150915081600003610e035784602001359350611646565b80600003610e175784604001359250611646565b846040013585602001351115611346578460400135600003610f3457610e436080860160608701612054565b6001600160a01b031663aa9a09128260208801803590620f424090610e68908b612071565b610e779062ffffff16876120ac565b610e8191906120c9565b85610eac888d60c0016020810190610e999190612054565b8d60600160208101906100e59190612054565b610eb691906120f0565b610ec091906120f0565b6040516001600160e01b031960e086901b168152600481019390935260248301919091526044820152606401602060405180830381865afa158015610f09573d6000803e3d6000fd5b505050506040513d601f19601f82011682018060405250810190610f2d919061201e565b9350611646565b610f3e81836120c9565b610f50604087013560208801356120c9565b111561114157610f666080860160608701612054565b6001600160a01b031663aa9a0912836040880135620f4240610f8b60208b018b612071565b610f9a9062ffffff16876120ac565b610fa491906120c9565b85610fbc888d60c0016020810190610e999190612054565b610fc691906120f0565b610fd091906120f0565b6040516001600160e01b031960e086901b168152600481019390935260248301919091526044820152606401602060405180830381865afa158015611019573d6000803e3d6000fd5b505050506040513d601f19601f8201168201806040525081019061103d919061201e565b61104d6080870160608801612054565b6001600160a01b031663aa9a09128360208901803590620f424090611072908c612071565b6110819062ffffff16886120ac565b61108b91906120c9565b866110b6898e60c00160208101906110a39190612054565b8e60600160208101906100e59190612054565b6110c091906120f0565b6110ca91906120f0565b6040516001600160e01b031960e086901b168152600481019390935260248301919091526044820152606401602060405180830381865afa158015611113573d6000803e3d6000fd5b505050506040513d601f19601f82011682018060405250810190611137919061201e565b610f2d91906120dd565b6111516080860160608701612054565b6001600160a01b031663aa9a09128260208801803590620f424090611176908b612071565b6111859062ffffff16886120ac565b61118f91906120c9565b866111ba878d60c00160208101906111a79190612054565b8d60600160208101906100949190612054565b6111c491906120f0565b6111ce91906120f0565b6040516001600160e01b031960e086901b168152600481019390935260248301919091526044820152606401602060405180830381865afa158015611217573d6000803e3d6000fd5b505050506040513d601f19601f8201168201806040525081019061123b919061201e565b61124b6080870160608801612054565b6001600160a01b031663aa9a0912846040890135620f424061127060208c018c612071565b61127f9062ffffff16896120ac565b61128991906120c9565b876112b4888e60c00160208101906112a19190612054565b8e60600160208101906100949190612054565b6112be91906120f0565b6112c891906120f0565b6040516001600160e01b031960e086901b168152600481019390935260248301919091526044820152606401602060405180830381865afa158015611311573d6000803e3d6000fd5b505050506040513d601f19601f82011682018060405250810190611335919061201e565b61133f91906120dd565b9250611646565b8460200135600003611439576113626080860160608701612054565b6001600160a01b031663aa9a0912836040880135620f424061138760208b018b612071565b6113969062ffffff16886120ac565b6113a091906120c9565b866113b8878d60c00160208101906111a79190612054565b6113c291906120f0565b6113cc91906120f0565b6040516001600160e01b031960e086901b168152600481019390935260248301919091526044820152606401602060405180830381865afa158015611415573d6000803e3d6000fd5b505050506040513d601f19601f8201168201806040525081019061133f919061201e565b61144382826120c9565b611455602087013560408801356120c9565b111561146b576111516080860160608701612054565b61147b6080860160608701612054565b6001600160a01b031663aa9a0912836040880135620f42406114a060208b018b612071565b6114af9062ffffff16876120ac565b6114b991906120c9565b856114d1888d60c0016020810190610e999190612054565b6114db91906120f0565b6114e591906120f0565b6040516001600160e01b031960e086901b168152600481019390935260248301919091526044820152606401602060405180830381865afa15801561152e573d6000803e3d6000fd5b505050506040513d601f19601f82011682018060405250810190611552919061201e565b6115626080870160608801612054565b6001600160a01b031663aa9a09128360208901803590620f424090611587908c612071565b6115969062ffffff16886120ac565b6115a091906120c9565b866115b8898e60c00160208101906110a39190612054565b6115c291906120f0565b6115cc91906120f0565b6040516001600160e01b031960e086901b168152600481019390935260248301919091526044820152606401602060405180830381865afa158015611615573d6000803e3d6000fd5b505050506040513d601f19601f82011682018060405250810190611639919061201e565b61164391906120dd565b93505b50509250929050565b6000808061166360e0850160c08601612054565b9050600080826001600160a01b0316633850c7bd6040518163ffffffff1660e01b815260040160e060405180830381865afa1580156116a6573d6000803e3d6000fd5b505050506040513d601f19601f820116820180604052508101906116ca9190611f83565b50505050509150915060008660600160208101906116e89190612054565b6001600160a01b031663dd2a031661170660808a0160608b01612054565b6001600160a01b031663dfbe873b61172460608c0160408d0161216f565b6001600160801b03166040518263ffffffff1660e01b815260040161174b91815260200190565b602060405180830381865afa158015611768573d6000803e3d6000fd5b505050506040513d601f19601f8201168201806040525081019061178c919061201e565b6040518263ffffffff1660e01b81526004016117aa91815260200190565b602060405180830381865afa1580156117c7573d6000803e3d6000fd5b505050506040513d601f19601f820116820180604052508101906117eb919061218c565b90506117fa6020880188612103565b60020b8260020b12156119ab5761181760a0880160808901612054565b6001600160a01b031663c932699b61183560c08a0160a08b01612054565b6001600160a01b031663986cfba361185060208c018c612103565b6040516001600160e01b031960e084901b16815260029190910b6004820152602401602060405180830381865afa15801561188f573d6000803e3d6000fd5b505050506040513d601f19601f820116820180604052508101906118b39190612120565b6118c360c08b0160a08c01612054565b6001600160a01b031663986cfba36118e160408d0160208e01612103565b6040516001600160e01b031960e084901b16815260029190910b6004820152602401602060405180830381865afa158015611920573d6000803e3d6000fd5b505050506040513d601f19601f820116820180604052508101906119449190612120565b846040518463ffffffff1660e01b8152600401611963939291906121af565b602060405180830381865afa158015611980573d6000803e3d6000fd5b505050506040513d601f19601f820116820180604052508101906119a4919061201e565b9550611d8c565b6119bb6040880160208901612103565b60020b8260020b1215611bed576119d860a0880160808901612054565b6001600160a01b031663c932699b846119f760c08b0160a08c01612054565b6001600160a01b031663986cfba3611a1560408d0160208e01612103565b6040516001600160e01b031960e084901b16815260029190910b6004820152602401602060405180830381865afa158015611a54573d6000803e3d6000fd5b505050506040513d601f19601f82011682018060405250810190611a789190612120565b846040518463ffffffff1660e01b8152600401611a97939291906121af565b602060405180830381865afa158015611ab4573d6000803e3d6000fd5b505050506040513d601f19601f82011682018060405250810190611ad8919061201e565b9550611aea60a0880160808901612054565b6001600160a01b031662c11862611b0760c08a0160a08b01612054565b6001600160a01b031663986cfba3611b2260208c018c612103565b6040516001600160e01b031960e084901b16815260029190910b6004820152602401602060405180830381865afa158015611b61573d6000803e3d6000fd5b505050506040513d601f19601f82011682018060405250810190611b859190612120565b85846040518463ffffffff1660e01b8152600401611ba5939291906121af565b602060405180830381865afa158015611bc2573d6000803e3d6000fd5b505050506040513d601f19601f82011682018060405250810190611be6919061201e565b9450611d8c565b611bfd60a0880160808901612054565b6001600160a01b031662c11862611c1a60c08a0160a08b01612054565b6001600160a01b031663986cfba3611c3560208c018c612103565b6040516001600160e01b031960e084901b16815260029190910b6004820152602401602060405180830381865afa158015611c74573d6000803e3d6000fd5b505050506040513d601f19601f82011682018060405250810190611c989190612120565b611ca860c08b0160a08c01612054565b6001600160a01b031663986cfba3611cc660408d0160208e01612103565b6040516001600160e01b031960e084901b16815260029190910b6004820152602401602060405180830381865afa158015611d05573d6000803e3d6000fd5b505050506040513d601f19601f82011682018060405250810190611d299190612120565b846040518463ffffffff1660e01b8152600401611d48939291906121af565b602060405180830381865afa158015611d65573d6000803e3d6000fd5b505050506040513d601f19601f82011682018060405250810190611d89919061201e565b94505b50505050915091565b8060020b8114611da457600080fd5b50565b6001600160a01b0381168114611da457600080fd5b60008060008060808587031215611dd257600080fd5b8435611ddd81611d95565b93506020850135611ded81611d95565b92506040850135611dfd81611da7565b91506060850135611e0d81611da7565b939692955090935050565b600080600060608486031215611e2d57600080fd5b833592506020840135611e3f81611da7565b91506040840135611e4f81611da7565b809150509250925092565b600060e08284031215611e6c57600080fd5b50919050565b600080828403610180811215611e8757600080fd5b611e918585611e5a565b925060a060df1982011215611ea557600080fd5b5060e0830190509250929050565b600080828403610160811215611ec857600080fd5b611ed28585611e5a565b9250608060df1982011215611ea557600080fd5b600060e08284031215611ef857600080fd5b611f028383611e5a565b9392505050565b600060208284031215611f1b57600080fd5b8151611f0281611d95565b634e487b7160e01b600052601260045260246000fd5b60008260020b80611f4f57611f4f611f26565b808360020b0791505092915050565b805161ffff81168114611f7057600080fd5b919050565b8015158114611da457600080fd5b600080600080600080600060e0888a031215611f9e57600080fd5b8751611fa981611da7565b6020890151909750611fba81611d95565b9550611fc860408901611f5e565b9450611fd660608901611f5e565b9350611fe460808901611f5e565b925060a088015163ffffffff81168114611ffd57600080fd5b60c089015190925061200e81611f75565b8091505092959891949750929550565b60006020828403121561203057600080fd5b5051919050565b60006020828403121561204957600080fd5b8135611f0281611f75565b60006020828403121561206657600080fd5b8135611f0281611da7565b60006020828403121561208357600080fd5b813562ffffff81168114611f0257600080fd5b634e487b7160e01b600052601160045260246000fd5b80820281158282048414176120c3576120c3612096565b92915050565b6000826120d8576120d8611f26565b500490565b818103818111156120c3576120c3612096565b808201808211156120c3576120c3612096565b60006020828403121561211557600080fd5b8135611f0281611d95565b60006020828403121561213257600080fd5b8151611f0281611da7565b6001600160801b0381168114611da457600080fd5b60006020828403121561216457600080fd5b8151611f028161213d565b60006020828403121561218157600080fd5b8135611f028161213d565b60006020828403121561219e57600080fd5b815180600f0b8114611f0257600080fd5b6001600160a01b039384168152919092166020820152600f9190910b60408201526060019056fea2646970667358221220e7435e97c056dcdf6c683a8e82ebb6a959306c8872bc8750f97c803536fb268864736f6c63430008110033",
    "linkReferences": {}
  },
  "methodIdentifiers": {
    "calculateLiquidityDeltaForAssetAmount(LiquidityToAmountCalcParams,LiquidityDeltaForAssetAmountParams)": "51bad1e2",
    "changeInAmountsToNewRangeRatio(LiquidityToAmountCalcParams,ChangeInAmountsForNewRatioParams)": "bf37f00f",
    "checkTicks(int24,int24,address,address)": "17d7acc8",
    "convertAmount0ToAmount1(uint256,address,address)": "6520a11d",
    "convertAmount1ToAmount0(uint256,address,address)": "2ca89132",
    "liquidityToAmounts(LiquidityToAmountCalcParams)": "e312cd1c"
  },
  "id": 47
}