{
  "abi": [
    {
      "inputs": [
        {
          "components": [
            {
              "internalType": "int24",
              "name": "tickLower",
              "type": "int24"
            },
            {
              "internalType": "int24",
              "name": "tickUpper",
              "type": "int24"
            },
            {
              "internalType": "uint128",
              "name": "liquidityDelta",
              "type": "uint128"
            },
            {
              "internalType": "address",
              "name": "safeCastLib",
              "type": "address"
            },
            {
              "internalType": "address",
              "name": "sqrtPriceMathLib",
              "type": "address"
            },
            {
              "internalType": "address",
              "name": "tickMathLib",
              "type": "address"
            },
            {
              "internalType": "address",
              "name": "poolAddress",
              "type": "address"
            }
          ],
          "internalType": "struct LiquidityToAmountCalcParams",
          "name": "liquidityToAmountCalcParams",
          "type": "tuple"
        },
        {
          "components": [
            {
              "internalType": "bool",
              "name": "isTokenZeroDeposit",
              "type": "bool"
            },
            {
              "internalType": "uint24",
              "name": "poolFee",
              "type": "uint24"
            },
            {
              "internalType": "uint256",
              "name": "assetAmount",
              "type": "uint256"
            },
            {
              "internalType": "address",
              "name": "fullMathLib",
              "type": "address"
            },
            {
              "internalType": "address",
              "name": "liquidityAmountsLib",
              "type": "address"
            }
          ],
          "internalType": "struct LiquidityDeltaForAssetAmountParams",
          "name": "liquidityDeltaForAssetAmountParams",
          "type": "tuple"
        }
      ],
      "name": "calculateLiquidityDeltaForAssetAmount",
      "outputs": [
        {
          "internalType": "uint128",
          "name": "liquidityDelta",
          "type": "uint128"
        }
      ],
      "stateMutability": "view",
      "type": "function"
    },
    {
      "inputs": [
        {
          "components": [
            {
              "internalType": "int24",
              "name": "tickLower",
              "type": "int24"
            },
            {
              "internalType": "int24",
              "name": "tickUpper",
              "type": "int24"
            },
            {
              "internalType": "uint128",
              "name": "liquidityDelta",
              "type": "uint128"
            },
            {
              "internalType": "address",
              "name": "safeCastLib",
              "type": "address"
            },
            {
              "internalType": "address",
              "name": "sqrtPriceMathLib",
              "type": "address"
            },
            {
              "internalType": "address",
              "name": "tickMathLib",
              "type": "address"
            },
            {
              "internalType": "address",
              "name": "poolAddress",
              "type": "address"
            }
          ],
          "internalType": "struct LiquidityToAmountCalcParams",
          "name": "liquidityToAmountCalcParams",
          "type": "tuple"
        },
        {
          "components": [
            {
              "internalType": "uint24",
              "name": "poolFee",
              "type": "uint24"
            },
            {
              "internalType": "uint256",
              "name": "currAmount0Bal",
              "type": "uint256"
            },
            {
              "internalType": "uint256",
              "name": "currAmount1Bal",
              "type": "uint256"
            },
            {
              "internalType": "address",
              "name": "fullMathLib",
              "type": "address"
            }
          ],
          "internalType": "struct ChangeInAmountsForNewRatioParams",
          "name": "changeInAmountsForNewRatioParams",
          "type": "tuple"
        }
      ],
      "name": "changeInAmountsToNewRangeRatio",
      "outputs": [
        {
          "internalType": "uint256",
          "name": "x",
          "type": "uint256"
        },
        {
          "internalType": "uint256",
          "name": "y",
          "type": "uint256"
        }
      ],
      "stateMutability": "view",
      "type": "function"
    },
    {
      "inputs": [
        {
          "internalType": "int24",
          "name": "tickLower",
          "type": "int24"
        },
        {
          "internalType": "int24",
          "name": "tickUpper",
          "type": "int24"
        },
        {
          "internalType": "int24",
          "name": "tickLower_",
          "type": "int24"
        },
        {
          "internalType": "int24",
          "name": "tickUpper_",
          "type": "int24"
        },
        {
          "internalType": "address",
          "name": "tickMathLib",
          "type": "address"
        },
        {
          "internalType": "address",
          "name": "pool",
          "type": "address"
        }
      ],
      "name": "checkTicks",
      "outputs": [],
      "stateMutability": "view",
      "type": "function"
    },
    {
      "inputs": [
        {
          "internalType": "uint256",
          "name": "amount0",
          "type": "uint256"
        },
        {
          "internalType": "address",
          "name": "pool",
          "type": "address"
        },
        {
          "internalType": "address",
          "name": "fullMathLib",
          "type": "address"
        }
      ],
      "name": "convertAmount0ToAmount1",
      "outputs": [
        {
          "internalType": "uint256",
          "name": "amount1",
          "type": "uint256"
        }
      ],
      "stateMutability": "view",
      "type": "function"
    },
    {
      "inputs": [
        {
          "internalType": "uint256",
          "name": "amount1",
          "type": "uint256"
        },
        {
          "internalType": "address",
          "name": "pool",
          "type": "address"
        },
        {
          "internalType": "address",
          "name": "fullMathLib",
          "type": "address"
        }
      ],
      "name": "convertAmount1ToAmount0",
      "outputs": [
        {
          "internalType": "uint256",
          "name": "amount0",
          "type": "uint256"
        }
      ],
      "stateMutability": "view",
      "type": "function"
    },
    {
      "inputs": [
        {
          "components": [
            {
              "internalType": "int24",
              "name": "tickLower",
              "type": "int24"
            },
            {
              "internalType": "int24",
              "name": "tickUpper",
              "type": "int24"
            },
            {
              "internalType": "uint128",
              "name": "liquidityDelta",
              "type": "uint128"
            },
            {
              "internalType": "address",
              "name": "safeCastLib",
              "type": "address"
            },
            {
              "internalType": "address",
              "name": "sqrtPriceMathLib",
              "type": "address"
            },
            {
              "internalType": "address",
              "name": "tickMathLib",
              "type": "address"
            },
            {
              "internalType": "address",
              "name": "poolAddress",
              "type": "address"
            }
          ],
          "internalType": "struct LiquidityToAmountCalcParams",
          "name": "liquidityToAmountCalcParams",
          "type": "tuple"
        }
      ],
      "name": "liquidityToAmounts",
      "outputs": [
        {
          "internalType": "uint256",
          "name": "amount0",
          "type": "uint256"
        },
        {
          "internalType": "uint256",
          "name": "amount1",
          "type": "uint256"
        }
      ],
      "stateMutability": "view",
      "type": "function"
    },
    {
      "inputs": [
        {
          "components": [
            {
              "internalType": "bool",
              "name": "isToken0Deposit",
              "type": "bool"
            },
            {
              "internalType": "uint256",
              "name": "tokenId",
              "type": "uint256"
            },
            {
              "internalType": "address",
              "name": "poolAddress",
              "type": "address"
            },
            {
              "internalType": "address",
              "name": "nonFungiblePositionManger",
              "type": "address"
            },
            {
              "internalType": "address",
              "name": "fullMathLib",
              "type": "address"
            }
          ],
          "internalType": "struct UnclaimedLpFeesParams",
          "name": "params",
          "type": "tuple"
        }
      ],
      "name": "unclaimedFeesOfLpPosition",
      "outputs": [
        {
          "internalType": "uint256",
          "name": "",
          "type": "uint256"
        }
      ],
      "stateMutability": "view",
      "type": "function"
    }
  ],
  "bytecode": {
    "object": "0x612c9d61003a600b82828239805160001a60731461002d57634e487b7160e01b600052600060045260246000fd5b30600052607381538281f3fe73000000000000000000000000000000000000000030146080604052600436106100875760003560e01c80638745d9e7116100655780638745d9e7146100f0578063bf37f00f14610105578063d001211f1461012d578063e312cd1c1461014057600080fd5b80632ca891321461008c57806351bad1e2146100b25780636520a11d146100dd575b600080fd5b61009f61009a366004612625565b610153565b6040519081526020015b60405180910390f35b6100c56100c0366004612691565b6102c5565b6040516001600160801b0390911681526020016100a9565b61009f6100eb366004612625565b610a56565b6101036100fe3660046126d6565b610b82565b005b610118610113366004612758565b610e12565b604080519283526020830191909152016100a9565b61009f61013b366004612799565b6116cb565b61011861014e3660046127bc565b611ec7565b600080836001600160a01b0316633850c7bd6040518163ffffffff1660e01b815260040160e060405180830381865afa158015610194573d6000803e3d6000fd5b505050506040513d601f19601f820116820180604052508101906101b8919061281c565b505060405163554d048960e11b8152600481018b9052600160601b60248201526001600160a01b0380871660448301529596509488169463aa9a091294508593508492506064019050602060405180830381865afa15801561021e573d6000803e3d6000fd5b505050506040513d601f19601f8201168201806040525081019061024291906128ab565b6040516001600160e01b031960e084901b1681526004810191909152600160601b60248201526001600160a01b03841660448201526064015b602060405180830381865afa158015610298573d6000803e3d6000fd5b505050506040513d601f19601f820116820180604052508101906102bc91906128ab565b95945050505050565b60008060006102d385611ec7565b90925090506000806102e860208701876128c4565b15610456576102fd60808701606088016128e1565b6001600160a01b031663aa9a091287604001358561036e620f42408b602001602081019061032b919061290f565b61033a9062ffffff168a612942565b6103449190612975565b61034e9089612989565b61035e60e08e0160c08f016128e1565b61009a60808e0160608f016128e1565b610378908961299c565b6040516001600160e01b031960e086901b168152600481019390935260248301919091526044820152606401602060405180830381865afa1580156103c1573d6000803e3d6000fd5b505050506040513d601f19601f820116820180604052508101906103e591906128ab565b9050610441620f42406103fe6040890160208a0161290f565b61040d9062ffffff1684612942565b6104179190612975565b6104219083612989565b61043160e08a0160c08b016128e1565b61009a60808a0160608b016128e1565b61044f906040880135612989565b91506105bb565b61046660808701606088016128e1565b6001600160a01b031663aa9a09128760400135866104d7620f42408b6020016020810190610494919061290f565b6104a39062ffffff168b612942565b6104ad9190612975565b6104b7908a612989565b6104c760e08e0160c08f016128e1565b6100eb60808e0160608f016128e1565b6104e1908861299c565b6040516001600160e01b031960e086901b168152600481019390935260248301919091526044820152606401602060405180830381865afa15801561052a573d6000803e3d6000fd5b505050506040513d601f19601f8201168201806040525081019061054e91906128ab565b91506105aa620f42406105676040890160208a0161290f565b6105769062ffffff1685612942565b6105809190612975565b61058a9084612989565b61059a60e08a0160c08b016128e1565b6100eb60808a0160608b016128e1565b6105b8906040880135612989565b90505b60006105cd60e0890160c08a016128e1565b9050600080826001600160a01b0316633850c7bd6040518163ffffffff1660e01b815260040160e060405180830381865afa158015610610573d6000803e3d6000fd5b505050506040513d601f19601f82011682018060405250810190610634919061281c565b50505050509150915089600001602081019061065091906129af565b60020b8160020b121561081a5761066d60a08a0160808b016128e1565b6001600160a01b03166367df6e8961068b60c08d0160a08e016128e1565b6001600160a01b031663986cfba36106a660208f018f6129af565b6040516001600160e01b031960e084901b16815260029190910b6004820152602401602060405180830381865afa1580156106e5573d6000803e3d6000fd5b505050506040513d601f19601f8201168201806040525081019061070991906129cc565b61071960c08e0160a08f016128e1565b6001600160a01b031663986cfba38e602001602081019061073a91906129af565b6040516001600160e01b031960e084901b16815260029190910b6004820152602401602060405180830381865afa158015610779573d6000803e3d6000fd5b505050506040513d601f19601f8201168201806040525081019061079d91906129cc565b6040516001600160e01b031960e085901b1681526001600160a01b0392831660048201529116602482015260448101889052606401602060405180830381865afa1580156107ef573d6000803e3d6000fd5b505050506040513d601f19601f820116820180604052508101906108139190612a09565b9750610a49565b61082a60408b0160208c016129af565b60020b8160020b12156108665761084760a08a0160808b016128e1565b6001600160a01b03166367df6e898361071960c08e0160a08f016128e1565b61087660a08a0160808b016128e1565b6001600160a01b03166308c0f79561089460c08d0160a08e016128e1565b6001600160a01b031663986cfba36108af60208f018f6129af565b6040516001600160e01b031960e084901b16815260029190910b6004820152602401602060405180830381865afa1580156108ee573d6000803e3d6000fd5b505050506040513d601f19601f8201168201806040525081019061091291906129cc565b61092260c08e0160a08f016128e1565b6001600160a01b031663986cfba38e602001602081019061094391906129af565b6040516001600160e01b031960e084901b16815260029190910b6004820152602401602060405180830381865afa158015610982573d6000803e3d6000fd5b505050506040513d601f19601f820116820180604052508101906109a691906129cc565b6109d0888f60c00160208101906109bd91906128e1565b8f60600160208101906100eb91906128e1565b6040516001600160e01b031960e086901b1681526001600160a01b0393841660048201529290911660248301526044820152606401602060405180830381865afa158015610a22573d6000803e3d6000fd5b505050506040513d601f19601f82011682018060405250810190610a469190612a09565b97505b5050505050505092915050565b600080836001600160a01b0316633850c7bd6040518163ffffffff1660e01b815260040160e060405180830381865afa158015610a97573d6000803e3d6000fd5b505050506040513d601f19601f82011682018060405250810190610abb919061281c565b505060405163554d048960e11b8152600481018b90526001600160a01b038087166024830152600160601b60448301529596509488169463aa9a091294508593508492506064019050602060405180830381865afa158015610b21573d6000803e3d6000fd5b505050506040513d601f19601f82011682018060405250810190610b4591906128ab565b6040516001600160e01b031960e084901b16815260048101919091526001600160a01b0384166024820152600160601b604482015260640161027b565b8360020b8660020b148015610b9c57508260020b8560020b145b15610bd35760405162461bcd60e51b815260206004820152600260248201526129a960f11b60448201526064015b60405180910390fd5b8260020b8460020b12610c0e5760405162461bcd60e51b8152602060048201526003602482015262544f4960e81b6044820152606401610bca565b816001600160a01b031663a1634b146040518163ffffffff1660e01b8152600401602060405180830381865afa158015610c4c573d6000803e3d6000fd5b505050506040513d601f19601f82011682018060405250810190610c709190612a26565b60020b8460020b1215610cae5760405162461bcd60e51b8152600401610bca906020808252600490820152631315151360e21b604082015260600190565b816001600160a01b0316636882a8886040518163ffffffff1660e01b8152600401602060405180830381865afa158015610cec573d6000803e3d6000fd5b505050506040513d601f19601f82011682018060405250810190610d109190612a26565b60020b8360020b1315610d4e5760405162461bcd60e51b8152600401610bca906020808252600490820152630aaa8a8960e31b604082015260600190565b6000816001600160a01b031663d0c93a7c6040518163ffffffff1660e01b8152600401602060405180830381865afa158015610d8e573d6000803e3d6000fd5b505050506040513d601f19601f82011682018060405250810190610db29190612a26565b9050610dbe8186612a43565b60020b158015610dd85750610dd38185612a43565b60020b155b610e095760405162461bcd60e51b8152602060048201526002602482015261125560f21b6044820152606401610bca565b50505050505050565b6000806020830135158015610e2957506040830135155b15610e5b5760405162461bcd60e51b81526020600482015260026024820152614e4160f01b6044820152606401610bca565b600080610e6786611ec7565b9150915081600003610e7f57846020013593506116c2565b80600003610e9357846040013592506116c2565b8460400135856020013511156113c2578460400135600003610fb057610ebf60808601606087016128e1565b6001600160a01b031663aa9a09128260208801803590620f424090610ee4908b61290f565b610ef39062ffffff1687612942565b610efd9190612975565b85610f28888d60c0016020810190610f1591906128e1565b8d60600160208101906100eb91906128e1565b610f32919061299c565b610f3c919061299c565b6040516001600160e01b031960e086901b168152600481019390935260248301919091526044820152606401602060405180830381865afa158015610f85573d6000803e3d6000fd5b505050506040513d601f19601f82011682018060405250810190610fa991906128ab565b93506116c2565b610fba8183612975565b610fcc60408701356020880135612975565b11156111bd57610fe260808601606087016128e1565b6001600160a01b031663aa9a0912836040880135620f424061100760208b018b61290f565b6110169062ffffff1687612942565b6110209190612975565b85611038888d60c0016020810190610f1591906128e1565b611042919061299c565b61104c919061299c565b6040516001600160e01b031960e086901b168152600481019390935260248301919091526044820152606401602060405180830381865afa158015611095573d6000803e3d6000fd5b505050506040513d601f19601f820116820180604052508101906110b991906128ab565b6110c960808701606088016128e1565b6001600160a01b031663aa9a09128360208901803590620f4240906110ee908c61290f565b6110fd9062ffffff1688612942565b6111079190612975565b86611132898e60c001602081019061111f91906128e1565b8e60600160208101906100eb91906128e1565b61113c919061299c565b611146919061299c565b6040516001600160e01b031960e086901b168152600481019390935260248301919091526044820152606401602060405180830381865afa15801561118f573d6000803e3d6000fd5b505050506040513d601f19601f820116820180604052508101906111b391906128ab565b610fa99190612989565b6111cd60808601606087016128e1565b6001600160a01b031663aa9a09128260208801803590620f4240906111f2908b61290f565b6112019062ffffff1688612942565b61120b9190612975565b86611236878d60c001602081019061122391906128e1565b8d606001602081019061009a91906128e1565b611240919061299c565b61124a919061299c565b6040516001600160e01b031960e086901b168152600481019390935260248301919091526044820152606401602060405180830381865afa158015611293573d6000803e3d6000fd5b505050506040513d601f19601f820116820180604052508101906112b791906128ab565b6112c760808701606088016128e1565b6001600160a01b031663aa9a0912846040890135620f42406112ec60208c018c61290f565b6112fb9062ffffff1689612942565b6113059190612975565b87611330888e60c001602081019061131d91906128e1565b8e606001602081019061009a91906128e1565b61133a919061299c565b611344919061299c565b6040516001600160e01b031960e086901b168152600481019390935260248301919091526044820152606401602060405180830381865afa15801561138d573d6000803e3d6000fd5b505050506040513d601f19601f820116820180604052508101906113b191906128ab565b6113bb9190612989565b92506116c2565b84602001356000036114b5576113de60808601606087016128e1565b6001600160a01b031663aa9a0912836040880135620f424061140360208b018b61290f565b6114129062ffffff1688612942565b61141c9190612975565b86611434878d60c001602081019061122391906128e1565b61143e919061299c565b611448919061299c565b6040516001600160e01b031960e086901b168152600481019390935260248301919091526044820152606401602060405180830381865afa158015611491573d6000803e3d6000fd5b505050506040513d601f19601f820116820180604052508101906113bb91906128ab565b6114bf8282612975565b6114d160208701356040880135612975565b11156114e7576111cd60808601606087016128e1565b6114f760808601606087016128e1565b6001600160a01b031663aa9a0912836040880135620f424061151c60208b018b61290f565b61152b9062ffffff1687612942565b6115359190612975565b8561154d888d60c0016020810190610f1591906128e1565b611557919061299c565b611561919061299c565b6040516001600160e01b031960e086901b168152600481019390935260248301919091526044820152606401602060405180830381865afa1580156115aa573d6000803e3d6000fd5b505050506040513d601f19601f820116820180604052508101906115ce91906128ab565b6115de60808701606088016128e1565b6001600160a01b031663aa9a09128360208901803590620f424090611603908c61290f565b6116129062ffffff1688612942565b61161c9190612975565b86611634898e60c001602081019061111f91906128e1565b61163e919061299c565b611648919061299c565b6040516001600160e01b031960e086901b168152600481019390935260248301919091526044820152606401602060405180830381865afa158015611691573d6000803e3d6000fd5b505050506040513d601f19601f820116820180604052508101906116b591906128ab565b6116bf9190612989565b93505b50509250929050565b6000611743604051806101800160405280600060020b8152602001600060020b8152602001600060020b815260200160006001600160801b0316815260200160008152602001600081526020016000815260200160008152602001600081526020016000815260200160008152602001600081525090565b61175360808401606085016128e1565b60405163133f757160e31b8152602085013560048201526001600160a01b0391909116906399fbab889060240161018060405180830381865afa15801561179e573d6000803e3d6000fd5b505050506040513d601f19601f820116820180604052508101906117c29190612a7b565b505060a08b015260808a01526001600160801b03166060808a0191909152600291820b60208a015291900b8752600095506118079450880192505050604086016128e1565b6001600160a01b0316633850c7bd6040518163ffffffff1660e01b815260040160e060405180830381865afa158015611844573d6000803e3d6000fd5b505050506040513d601f19601f82011682018060405250810190611868919061281c565b505050505091505083604001602081019061188391906128e1565b6001600160a01b031663f30583996040518163ffffffff1660e01b8152600401602060405180830381865afa1580156118c0573d6000803e3d6000fd5b505050506040513d601f19601f820116820180604052508101906118e491906128ab565b60c08301526118f960608501604086016128e1565b6001600160a01b031663461413196040518163ffffffff1660e01b8152600401602060405180830381865afa158015611936573d6000803e3d6000fd5b505050506040513d601f19601f8201168201806040525081019061195a91906128ab565b60e083015261196f60608501604086016128e1565b825160405163f30dba9360e01b815260029190910b60048201526001600160a01b03919091169063f30dba939060240161010060405180830381865afa1580156119bd573d6000803e3d6000fd5b505050506040513d601f19601f820116820180604052508101906119e19190612b6e565b5050505061012086015261010085015250611a04905060608501604086016128e1565b602083015160405163f30dba9360e01b815260029190910b60048201526001600160a01b03919091169063f30dba939060240161010060405180830381865afa158015611a55573d6000803e3d6000fd5b505050506040513d601f19601f82011682018060405250810190611a799190612b6e565b50505050610160860152610140850152505060208201516000908190600290810b9084900b12611ad6578361014001518460c00151611ab89190612989565b91508361016001518460e00151611acf9190612989565b9050611ae5565b50506101408201516101608301515b600080856000015160020b8560020b12611b0c575050610100840151610120850151611b3b565b8561010001518660c00151611b219190612989565b91508561012001518660e00151611b389190612989565b90505b611b4860208901896128c4565b611d0657611b5c60a0890160808a016128e1565b6001600160a01b031663aa9a091287606001518860a0015186858b60e00151611b859190612989565b611b8f9190612989565b611b999190612989565b6040516001600160e01b031960e085901b1681526001600160801b0390921660048301526024820152600160801b6044820152606401602060405180830381865afa158015611bec573d6000803e3d6000fd5b505050506040513d601f19601f82011682018060405250810190611c1091906128ab565b611cf7611c2360a08b0160808c016128e1565b6001600160a01b031663aa9a091289606001518a6080015189888d60c00151611c4c9190612989565b611c569190612989565b611c609190612989565b6040516001600160e01b031960e085901b1681526001600160801b0390921660048301526024820152600160801b6044820152606401602060405180830381865afa158015611cb3573d6000803e3d6000fd5b505050506040513d601f19601f82011682018060405250810190611cd791906128ab565b611ce760608c0160408d016128e1565b6100eb60a08d0160808e016128e1565b611d01919061299c565b611ebb565b611ded611d1960a08a0160808b016128e1565b6001600160a01b031663aa9a091288606001518960a0015187868c60e00151611d429190612989565b611d4c9190612989565b611d569190612989565b6040516001600160e01b031960e085901b1681526001600160801b0390921660048301526024820152600160801b6044820152606401602060405180830381865afa158015611da9573d6000803e3d6000fd5b505050506040513d601f19601f82011682018060405250810190611dcd91906128ab565b611ddd60608b0160408c016128e1565b61009a60a08c0160808d016128e1565b611dfd60a08a0160808b016128e1565b6001600160a01b031663aa9a09128860600151896080015188878c60c00151611e269190612989565b611e309190612989565b611e3a9190612989565b6040516001600160e01b031960e085901b1681526001600160801b0390921660048301526024820152600160801b6044820152606401602060405180830381865afa158015611e8d573d6000803e3d6000fd5b505050506040513d601f19601f82011682018060405250810190611eb191906128ab565b611ebb919061299c565b98975050505050505050565b60008080611edb60e0850160c086016128e1565b9050600080826001600160a01b0316633850c7bd6040518163ffffffff1660e01b815260040160e060405180830381865afa158015611f1e573d6000803e3d6000fd5b505050506040513d601f19601f82011682018060405250810190611f42919061281c565b5050505050915091506000866060016020810190611f6091906128e1565b6001600160a01b031663dd2a0316611f7e60808a0160608b016128e1565b6001600160a01b031663dfbe873b611f9c60608c0160408d01612c08565b6001600160801b03166040518263ffffffff1660e01b8152600401611fc391815260200190565b602060405180830381865afa158015611fe0573d6000803e3d6000fd5b505050506040513d601f19601f8201168201806040525081019061200491906128ab565b6040518263ffffffff1660e01b815260040161202291815260200190565b602060405180830381865afa15801561203f573d6000803e3d6000fd5b505050506040513d601f19601f820116820180604052508101906120639190612c25565b905061207260208801886129af565b60020b8260020b12156122235761208f60a08801608089016128e1565b6001600160a01b031663c932699b6120ad60c08a0160a08b016128e1565b6001600160a01b031663986cfba36120c860208c018c6129af565b6040516001600160e01b031960e084901b16815260029190910b6004820152602401602060405180830381865afa158015612107573d6000803e3d6000fd5b505050506040513d601f19601f8201168201806040525081019061212b91906129cc565b61213b60c08b0160a08c016128e1565b6001600160a01b031663986cfba361215960408d0160208e016129af565b6040516001600160e01b031960e084901b16815260029190910b6004820152602401602060405180830381865afa158015612198573d6000803e3d6000fd5b505050506040513d601f19601f820116820180604052508101906121bc91906129cc565b846040518463ffffffff1660e01b81526004016121db93929190612c40565b602060405180830381865afa1580156121f8573d6000803e3d6000fd5b505050506040513d601f19601f8201168201806040525081019061221c91906128ab565b9550612604565b61223360408801602089016129af565b60020b8260020b12156124655761225060a08801608089016128e1565b6001600160a01b031663c932699b8461226f60c08b0160a08c016128e1565b6001600160a01b031663986cfba361228d60408d0160208e016129af565b6040516001600160e01b031960e084901b16815260029190910b6004820152602401602060405180830381865afa1580156122cc573d6000803e3d6000fd5b505050506040513d601f19601f820116820180604052508101906122f091906129cc565b846040518463ffffffff1660e01b815260040161230f93929190612c40565b602060405180830381865afa15801561232c573d6000803e3d6000fd5b505050506040513d601f19601f8201168201806040525081019061235091906128ab565b955061236260a08801608089016128e1565b6001600160a01b031662c1186261237f60c08a0160a08b016128e1565b6001600160a01b031663986cfba361239a60208c018c6129af565b6040516001600160e01b031960e084901b16815260029190910b6004820152602401602060405180830381865afa1580156123d9573d6000803e3d6000fd5b505050506040513d601f19601f820116820180604052508101906123fd91906129cc565b85846040518463ffffffff1660e01b815260040161241d93929190612c40565b602060405180830381865afa15801561243a573d6000803e3d6000fd5b505050506040513d601f19601f8201168201806040525081019061245e91906128ab565b9450612604565b61247560a08801608089016128e1565b6001600160a01b031662c1186261249260c08a0160a08b016128e1565b6001600160a01b031663986cfba36124ad60208c018c6129af565b6040516001600160e01b031960e084901b16815260029190910b6004820152602401602060405180830381865afa1580156124ec573d6000803e3d6000fd5b505050506040513d601f19601f8201168201806040525081019061251091906129cc565b61252060c08b0160a08c016128e1565b6001600160a01b031663986cfba361253e60408d0160208e016129af565b6040516001600160e01b031960e084901b16815260029190910b6004820152602401602060405180830381865afa15801561257d573d6000803e3d6000fd5b505050506040513d601f19601f820116820180604052508101906125a191906129cc565b846040518463ffffffff1660e01b81526004016125c093929190612c40565b602060405180830381865afa1580156125dd573d6000803e3d6000fd5b505050506040513d601f19601f8201168201806040525081019061260191906128ab565b94505b50505050915091565b6001600160a01b038116811461262257600080fd5b50565b60008060006060848603121561263a57600080fd5b83359250602084013561264c8161260d565b9150604084013561265c8161260d565b809150509250925092565b600060e0828403121561267957600080fd5b50919050565b600060a0828403121561267957600080fd5b60008061018083850312156126a557600080fd5b6126af8484612667565b91506126be8460e0850161267f565b90509250929050565b8060020b811461262257600080fd5b60008060008060008060c087890312156126ef57600080fd5b86356126fa816126c7565b9550602087013561270a816126c7565b9450604087013561271a816126c7565b9350606087013561272a816126c7565b9250608087013561273a8161260d565b915060a087013561274a8161260d565b809150509295509295509295565b60008082840361016081121561276d57600080fd5b6127778585612667565b9250608060df198201121561278b57600080fd5b5060e0830190509250929050565b600060a082840312156127ab57600080fd5b6127b5838361267f565b9392505050565b600060e082840312156127ce57600080fd5b6127b58383612667565b80516127e3816126c7565b919050565b805161ffff811681146127e357600080fd5b805163ffffffff811681146127e357600080fd5b801515811461262257600080fd5b600080600080600080600060e0888a03121561283757600080fd5b87516128428161260d565b6020890151909750612853816126c7565b9550612861604089016127e8565b945061286f606089016127e8565b935061287d608089016127e8565b925061288b60a089016127fa565b915060c088015161289b8161280e565b8091505092959891949750929550565b6000602082840312156128bd57600080fd5b5051919050565b6000602082840312156128d657600080fd5b81356127b58161280e565b6000602082840312156128f357600080fd5b81356127b58161260d565b62ffffff8116811461262257600080fd5b60006020828403121561292157600080fd5b81356127b5816128fe565b634e487b7160e01b600052601160045260246000fd5b80820281158282048414176129595761295961292c565b92915050565b634e487b7160e01b600052601260045260246000fd5b6000826129845761298461295f565b500490565b818103818111156129595761295961292c565b808201808211156129595761295961292c565b6000602082840312156129c157600080fd5b81356127b5816126c7565b6000602082840312156129de57600080fd5b81516127b58161260d565b6001600160801b038116811461262257600080fd5b80516127e3816129e9565b600060208284031215612a1b57600080fd5b81516127b5816129e9565b600060208284031215612a3857600080fd5b81516127b5816126c7565b60008260020b80612a5657612a5661295f565b808360020b0791505092915050565b80516127e38161260d565b80516127e3816128fe565b6000806000806000806000806000806000806101808d8f031215612a9e57600080fd5b8c516bffffffffffffffffffffffff81168114612aba57600080fd5b9b50612ac860208e01612a65565b9a50612ad660408e01612a65565b9950612ae460608e01612a65565b9850612af260808e01612a70565b9750612b0060a08e016127d8565b9650612b0e60c08e016127d8565b9550612b1c60e08e016129fe565b94506101008d015193506101208d01519250612b3b6101408e016129fe565b9150612b4a6101608e016129fe565b90509295989b509295989b509295989b565b8051600f81900b81146127e357600080fd5b600080600080600080600080610100898b031215612b8b57600080fd5b8851612b96816129e9565b9750612ba460208a01612b5c565b9650604089015195506060890151945060808901518060060b8114612bc857600080fd5b60a08a0151909450612bd98161260d565b9250612be760c08a016127fa565b915060e0890151612bf78161280e565b809150509295985092959890939650565b600060208284031215612c1a57600080fd5b81356127b5816129e9565b600060208284031215612c3757600080fd5b6127b582612b5c565b6001600160a01b039384168152919092166020820152600f9190910b60408201526060019056fea2646970667358221220a801a09ff6cf35802738ae5a553cc3f2e0f46da744494fdb4d49aacb3336aa9c64736f6c63430008110033",
    "linkReferences": {}
  },
  "methodIdentifiers": {
    "calculateLiquidityDeltaForAssetAmount(LiquidityToAmountCalcParams,LiquidityDeltaForAssetAmountParams)": "51bad1e2",
    "changeInAmountsToNewRangeRatio(LiquidityToAmountCalcParams,ChangeInAmountsForNewRatioParams)": "bf37f00f",
    "checkTicks(int24,int24,int24,int24,address,address)": "8745d9e7",
    "convertAmount0ToAmount1(uint256,address,address)": "6520a11d",
    "convertAmount1ToAmount0(uint256,address,address)": "2ca89132",
    "liquidityToAmounts(LiquidityToAmountCalcParams)": "e312cd1c",
    "unclaimedFeesOfLpPosition(UnclaimedLpFeesParams)": "d001211f"
  },
  "id": 60
}