{
  "abi": [
    {
      "inputs": [
        {
          "components": [
            {
              "internalType": "address",
              "name": "stake",
              "type": "address"
            },
            {
              "internalType": "uint256",
              "name": "poolId",
              "type": "uint256"
            },
            {
              "internalType": "address",
              "name": "chef",
              "type": "address"
            },
            {
              "internalType": "address[]",
              "name": "rewardToLp0Route",
              "type": "address[]"
            },
            {
              "internalType": "address[]",
              "name": "rewardToLp1Route",
              "type": "address[]"
            }
          ],
          "internalType": "struct CakePoolParams",
          "name": "_cakePoolParams",
          "type": "tuple"
        },
        {
          "components": [
            {
              "internalType": "address",
              "name": "vault",
              "type": "address"
            },
            {
              "internalType": "address",
              "name": "router",
              "type": "address"
            }
          ],
          "internalType": "struct CommonAddresses",
          "name": "_commonAddresses",
          "type": "tuple"
        }
      ],
      "stateMutability": "nonpayable",
      "type": "constructor"
    },
    {
      "anonymous": false,
      "inputs": [
        {
          "indexed": false,
          "internalType": "uint256",
          "name": "tvl",
          "type": "uint256"
        },
        {
          "indexed": false,
          "internalType": "uint256",
          "name": "amount",
          "type": "uint256"
        }
      ],
      "name": "Deposit",
      "type": "event"
    },
    {
      "anonymous": false,
      "inputs": [
        {
          "indexed": true,
          "internalType": "address",
          "name": "previousOwner",
          "type": "address"
        },
        {
          "indexed": true,
          "internalType": "address",
          "name": "newOwner",
          "type": "address"
        }
      ],
      "name": "OwnershipTransferred",
      "type": "event"
    },
    {
      "anonymous": false,
      "inputs": [
        {
          "indexed": false,
          "internalType": "address",
          "name": "account",
          "type": "address"
        }
      ],
      "name": "Paused",
      "type": "event"
    },
    {
      "anonymous": false,
      "inputs": [
        {
          "indexed": false,
          "internalType": "address",
          "name": "manager",
          "type": "address"
        }
      ],
      "name": "SetManager",
      "type": "event"
    },
    {
      "anonymous": false,
      "inputs": [
        {
          "indexed": false,
          "internalType": "address",
          "name": "unirouter",
          "type": "address"
        }
      ],
      "name": "SetRouter",
      "type": "event"
    },
    {
      "anonymous": false,
      "inputs": [
        {
          "indexed": false,
          "internalType": "address",
          "name": "vault",
          "type": "address"
        }
      ],
      "name": "SetVault",
      "type": "event"
    },
    {
      "anonymous": false,
      "inputs": [
        {
          "indexed": true,
          "internalType": "address",
          "name": "harvester",
          "type": "address"
        },
        {
          "indexed": false,
          "internalType": "uint256",
          "name": "stakeHarvested",
          "type": "uint256"
        },
        {
          "indexed": false,
          "internalType": "uint256",
          "name": "tvl",
          "type": "uint256"
        }
      ],
      "name": "StratHarvest",
      "type": "event"
    },
    {
      "anonymous": false,
      "inputs": [
        {
          "indexed": false,
          "internalType": "address",
          "name": "account",
          "type": "address"
        }
      ],
      "name": "Unpaused",
      "type": "event"
    },
    {
      "anonymous": false,
      "inputs": [
        {
          "indexed": false,
          "internalType": "uint256",
          "name": "tvl",
          "type": "uint256"
        },
        {
          "indexed": false,
          "internalType": "uint256",
          "name": "amount",
          "type": "uint256"
        }
      ],
      "name": "Withdraw",
      "type": "event"
    },
    {
      "inputs": [],
      "name": "balanceOf",
      "outputs": [
        {
          "internalType": "uint256",
          "name": "",
          "type": "uint256"
        }
      ],
      "stateMutability": "view",
      "type": "function"
    },
    {
      "inputs": [],
      "name": "balanceOfPool",
      "outputs": [
        {
          "internalType": "uint256",
          "name": "",
          "type": "uint256"
        }
      ],
      "stateMutability": "view",
      "type": "function"
    },
    {
      "inputs": [],
      "name": "balanceOfStake",
      "outputs": [
        {
          "internalType": "uint256",
          "name": "",
          "type": "uint256"
        }
      ],
      "stateMutability": "view",
      "type": "function"
    },
    {
      "inputs": [],
      "name": "beforeDeposit",
      "outputs": [],
      "stateMutability": "nonpayable",
      "type": "function"
    },
    {
      "inputs": [],
      "name": "chef",
      "outputs": [
        {
          "internalType": "address",
          "name": "",
          "type": "address"
        }
      ],
      "stateMutability": "view",
      "type": "function"
    },
    {
      "inputs": [],
      "name": "deposit",
      "outputs": [],
      "stateMutability": "nonpayable",
      "type": "function"
    },
    {
      "inputs": [],
      "name": "harvest",
      "outputs": [],
      "stateMutability": "nonpayable",
      "type": "function"
    },
    {
      "inputs": [],
      "name": "lastHarvest",
      "outputs": [
        {
          "internalType": "uint256",
          "name": "",
          "type": "uint256"
        }
      ],
      "stateMutability": "view",
      "type": "function"
    },
    {
      "inputs": [],
      "name": "lpToken0",
      "outputs": [
        {
          "internalType": "address",
          "name": "",
          "type": "address"
        }
      ],
      "stateMutability": "view",
      "type": "function"
    },
    {
      "inputs": [],
      "name": "lpToken1",
      "outputs": [
        {
          "internalType": "address",
          "name": "",
          "type": "address"
        }
      ],
      "stateMutability": "view",
      "type": "function"
    },
    {
      "inputs": [],
      "name": "manager",
      "outputs": [
        {
          "internalType": "address",
          "name": "",
          "type": "address"
        }
      ],
      "stateMutability": "view",
      "type": "function"
    },
    {
      "inputs": [],
      "name": "managerHarvest",
      "outputs": [],
      "stateMutability": "nonpayable",
      "type": "function"
    },
    {
      "inputs": [],
      "name": "onlyManager",
      "outputs": [],
      "stateMutability": "view",
      "type": "function"
    },
    {
      "inputs": [],
      "name": "onlyVault",
      "outputs": [],
      "stateMutability": "view",
      "type": "function"
    },
    {
      "inputs": [],
      "name": "owner",
      "outputs": [
        {
          "internalType": "address",
          "name": "",
          "type": "address"
        }
      ],
      "stateMutability": "view",
      "type": "function"
    },
    {
      "inputs": [],
      "name": "panic",
      "outputs": [],
      "stateMutability": "nonpayable",
      "type": "function"
    },
    {
      "inputs": [],
      "name": "pause",
      "outputs": [],
      "stateMutability": "nonpayable",
      "type": "function"
    },
    {
      "inputs": [],
      "name": "paused",
      "outputs": [
        {
          "internalType": "bool",
          "name": "",
          "type": "bool"
        }
      ],
      "stateMutability": "view",
      "type": "function"
    },
    {
      "inputs": [],
      "name": "pendingRewardsFunctionName",
      "outputs": [
        {
          "internalType": "string",
          "name": "",
          "type": "string"
        }
      ],
      "stateMutability": "view",
      "type": "function"
    },
    {
      "inputs": [],
      "name": "poolId",
      "outputs": [
        {
          "internalType": "uint256",
          "name": "",
          "type": "uint256"
        }
      ],
      "stateMutability": "view",
      "type": "function"
    },
    {
      "inputs": [],
      "name": "renounceOwnership",
      "outputs": [],
      "stateMutability": "nonpayable",
      "type": "function"
    },
    {
      "inputs": [],
      "name": "retireStrat",
      "outputs": [],
      "stateMutability": "nonpayable",
      "type": "function"
    },
    {
      "inputs": [],
      "name": "reward",
      "outputs": [
        {
          "internalType": "address",
          "name": "",
          "type": "address"
        }
      ],
      "stateMutability": "view",
      "type": "function"
    },
    {
      "inputs": [],
      "name": "rewardToLp0",
      "outputs": [
        {
          "internalType": "address[]",
          "name": "",
          "type": "address[]"
        }
      ],
      "stateMutability": "view",
      "type": "function"
    },
    {
      "inputs": [
        {
          "internalType": "uint256",
          "name": "",
          "type": "uint256"
        }
      ],
      "name": "rewardToLp0Route",
      "outputs": [
        {
          "internalType": "address",
          "name": "",
          "type": "address"
        }
      ],
      "stateMutability": "view",
      "type": "function"
    },
    {
      "inputs": [],
      "name": "rewardToLp1",
      "outputs": [
        {
          "internalType": "address[]",
          "name": "",
          "type": "address[]"
        }
      ],
      "stateMutability": "view",
      "type": "function"
    },
    {
      "inputs": [
        {
          "internalType": "uint256",
          "name": "",
          "type": "uint256"
        }
      ],
      "name": "rewardToLp1Route",
      "outputs": [
        {
          "internalType": "address",
          "name": "",
          "type": "address"
        }
      ],
      "stateMutability": "view",
      "type": "function"
    },
    {
      "inputs": [],
      "name": "rewardsAvailable",
      "outputs": [
        {
          "internalType": "uint256",
          "name": "",
          "type": "uint256"
        }
      ],
      "stateMutability": "view",
      "type": "function"
    },
    {
      "inputs": [],
      "name": "router",
      "outputs": [
        {
          "internalType": "address",
          "name": "",
          "type": "address"
        }
      ],
      "stateMutability": "view",
      "type": "function"
    },
    {
      "inputs": [
        {
          "internalType": "address",
          "name": "_manager",
          "type": "address"
        }
      ],
      "name": "setManager",
      "outputs": [],
      "stateMutability": "nonpayable",
      "type": "function"
    },
    {
      "inputs": [
        {
          "internalType": "string",
          "name": "_pendingRewardsFunctionName",
          "type": "string"
        }
      ],
      "name": "setPendingRewardsFunctionName",
      "outputs": [],
      "stateMutability": "nonpayable",
      "type": "function"
    },
    {
      "inputs": [
        {
          "internalType": "address",
          "name": "_router",
          "type": "address"
        }
      ],
      "name": "setRouter",
      "outputs": [],
      "stateMutability": "nonpayable",
      "type": "function"
    },
    {
      "inputs": [
        {
          "internalType": "address",
          "name": "_vault",
          "type": "address"
        }
      ],
      "name": "setVault",
      "outputs": [],
      "stateMutability": "nonpayable",
      "type": "function"
    },
    {
      "inputs": [],
      "name": "stake",
      "outputs": [
        {
          "internalType": "address",
          "name": "",
          "type": "address"
        }
      ],
      "stateMutability": "view",
      "type": "function"
    },
    {
      "inputs": [
        {
          "internalType": "address",
          "name": "newOwner",
          "type": "address"
        }
      ],
      "name": "transferOwnership",
      "outputs": [],
      "stateMutability": "nonpayable",
      "type": "function"
    },
    {
      "inputs": [],
      "name": "unpause",
      "outputs": [],
      "stateMutability": "nonpayable",
      "type": "function"
    },
    {
      "inputs": [],
      "name": "vault",
      "outputs": [
        {
          "internalType": "address",
          "name": "",
          "type": "address"
        }
      ],
      "stateMutability": "view",
      "type": "function"
    },
    {
      "inputs": [
        {
          "internalType": "uint256",
          "name": "_amount",
          "type": "uint256"
        }
      ],
      "name": "withdraw",
      "outputs": [],
      "stateMutability": "nonpayable",
      "type": "function"
    }
  ],
  "bytecode": {
    "object": "0x60806040523480156200001157600080fd5b5060405162002f1638038062002f16833981016040819052620000349162000b67565b80620000403362000452565b6000805460ff60a01b191681558151600180546001600160a01b03199081166001600160a01b039384161782556020948501516002805483169185169190911790556003805433908316179055600491909155855160068054831691841691909117905592850151600a5560408501516009805490941691161790915560608301516080840151815191929091839190620000df57620000df62000c48565b602090810291909101810151600580546001600160a01b0319166001600160a01b0392831617905560065460408051630dfe168160e01b815290519190921692630dfe168192600480820193918290030181865afa15801562000146573d6000803e3d6000fd5b505050506040513d601f19601f820116820180604052508101906200016c919062000c5e565b600780546001600160a01b0319166001600160a01b0392831617905560055483519116908390600090620001a457620001a462000c48565b60200260200101516001600160a01b031614620001fc5760405162461bcd60e51b815260206004820152601160248201527021726577617264546f4c7030526f75746560781b60448201526064015b60405180910390fd5b60075482516001600160a01b039091169083906200021d9060019062000c83565b8151811062000230576200023062000c48565b60200260200101516001600160a01b031614620002845760405162461bcd60e51b815260206004820152601160248201527021726577617264546f4c7030526f75746560781b6044820152606401620001f3565b81516200029990600d90602085019062000981565b50600660009054906101000a90046001600160a01b03166001600160a01b031663d21220a76040518163ffffffff1660e01b8152600401602060405180830381865afa158015620002ee573d6000803e3d6000fd5b505050506040513d601f19601f8201168201806040525081019062000314919062000c5e565b600880546001600160a01b0319166001600160a01b03928316179055600554825191169082906000906200034c576200034c62000c48565b60200260200101516001600160a01b031614620003a05760405162461bcd60e51b815260206004820152601160248201527021726577617264546f4c7031526f75746560781b6044820152606401620001f3565b60085481516001600160a01b03909116908290620003c19060019062000c83565b81518110620003d457620003d462000c48565b60200260200101516001600160a01b031614620004285760405162461bcd60e51b815260206004820152601160248201527021726577617264546f4c7031526f75746560781b6044820152606401620001f3565b80516200043d90600e90602084019062000981565b5062000448620004a2565b5050505062000d62565b600080546001600160a01b038381166001600160a01b0319831681178455604051919092169283917f8be0079c531659141344cd1fd0a4f28419497f9722a3daafe3b4186f6b6457e09190a35050565b600954600654620004cf916001600160a01b039182169116600019620005b0602090811b62000e4c17901c565b600254600554620004fc916001600160a01b039182169116600019620005b0602090811b62000e4c17901c565b60025460075462000528916001600160a01b0391821691166000620005b0602090811b62000e4c17901c565b60025460075462000555916001600160a01b039182169116600019620005b0602090811b62000e4c17901c565b60025460085462000581916001600160a01b0391821691166000620005b0602090811b62000e4c17901c565b600254600854620005ae916001600160a01b039182169116600019620005b0602090811b62000e4c17901c565b565b8015806200062e5750604051636eb1769f60e11b81523060048201526001600160a01b03838116602483015284169063dd62ed3e90604401602060405180830381865afa15801562000606573d6000803e3d6000fd5b505050506040513d601f19601f820116820180604052508101906200062c919062000cab565b155b620006a25760405162461bcd60e51b815260206004820152603660248201527f5361666545524332303a20617070726f76652066726f6d206e6f6e2d7a65726f60448201527f20746f206e6f6e2d7a65726f20616c6c6f77616e6365000000000000000000006064820152608401620001f3565b604080516001600160a01b038416602482015260448082018490528251808303909101815260649091019091526020810180516001600160e01b0390811663095ea7b360e01b17909152620006fa918591620006ff16565b505050565b60006200075b826040518060400160405280602081526020017f5361666545524332303a206c6f772d6c6576656c2063616c6c206661696c6564815250856001600160a01b0316620007dd60201b62000f94179092919060201c565b805190915015620006fa57808060200190518101906200077c919062000cc5565b620006fa5760405162461bcd60e51b815260206004820152602a60248201527f5361666545524332303a204552433230206f7065726174696f6e20646964206e6044820152691bdd081cdd58d8d9595960b21b6064820152608401620001f3565b6060620007ee8484600085620007f6565b949350505050565b606082471015620008595760405162461bcd60e51b815260206004820152602660248201527f416464726573733a20696e73756666696369656e742062616c616e636520666f6044820152651c8818d85b1b60d21b6064820152608401620001f3565b600080866001600160a01b0316858760405162000877919062000d0f565b60006040518083038185875af1925050503d8060008114620008b6576040519150601f19603f3d011682016040523d82523d6000602084013e620008bb565b606091505b509092509050620008cf87838387620008da565b979650505050505050565b606083156200094e57825160000362000946576001600160a01b0385163b620009465760405162461bcd60e51b815260206004820152601d60248201527f416464726573733a2063616c6c20746f206e6f6e2d636f6e74726163740000006044820152606401620001f3565b5081620007ee565b620007ee8383815115620009655781518083602001fd5b8060405162461bcd60e51b8152600401620001f3919062000d2d565b828054828255906000526020600020908101928215620009d9579160200282015b82811115620009d957825182546001600160a01b0319166001600160a01b03909116178255602090920191600190910190620009a2565b50620009e7929150620009eb565b5090565b5b80821115620009e75760008155600101620009ec565b634e487b7160e01b600052604160045260246000fd5b60405160a081016001600160401b038111828210171562000a3d5762000a3d62000a02565b60405290565b80516001600160a01b038116811462000a5b57600080fd5b919050565b600082601f83011262000a7257600080fd5b815160206001600160401b038083111562000a915762000a9162000a02565b8260051b604051601f19603f8301168101818110848211171562000ab95762000ab962000a02565b60405293845285810183019383810192508785111562000ad857600080fd5b83870191505b84821015620008cf5762000af28262000a43565b8352918301919083019062000ade565b60006040828403121562000b1557600080fd5b604080519081016001600160401b038111828210171562000b3a5762000b3a62000a02565b60405290508062000b4b8362000a43565b815262000b5b6020840162000a43565b60208201525092915050565b6000806060838503121562000b7b57600080fd5b82516001600160401b038082111562000b9357600080fd5b9084019060a0828703121562000ba857600080fd5b62000bb262000a18565b62000bbd8362000a43565b81526020830151602082015262000bd76040840162000a43565b604082015260608301518281111562000bef57600080fd5b62000bfd8882860162000a60565b60608301525060808301518281111562000c1657600080fd5b62000c248882860162000a60565b60808301525080945050505062000c3f846020850162000b02565b90509250929050565b634e487b7160e01b600052603260045260246000fd5b60006020828403121562000c7157600080fd5b62000c7c8262000a43565b9392505050565b8181038181111562000ca557634e487b7160e01b600052601160045260246000fd5b92915050565b60006020828403121562000cbe57600080fd5b5051919050565b60006020828403121562000cd857600080fd5b8151801515811462000c7c57600080fd5b60005b8381101562000d0657818101518382015260200162000cec565b50506000910152565b6000825162000d2381846020870162000ce9565b9190910192915050565b602081526000825180602084015262000d4e81604085016020870162000ce9565b601f01601f19169190910160400192915050565b6121a48062000d726000396000f3fe608060405234801561001057600080fd5b50600436106102325760003560e01c8063722713f711610130578063d0e30db0116100b8578063f1a392da1161007c578063f1a392da1461042c578063f2fde38b14610435578063f887ea4014610448578063fb6177871461045b578063fbfa77cf1461046357600080fd5b8063d0e30db0146103f9578063d0ebdbe714610401578063d801d94614610414578063e7a7250a1461041c578063ef21c9941461042457600080fd5b8063a11d3556116100ff578063a11d3556146103ae578063a839d5e6146103c3578063b3a9c91c146103d6578063be3fbd1c146103de578063c0d78655146103e657600080fd5b8063722713f71461037a5780638456cb5914610382578063877562b61461038a5780638da5cb5b1461039d57600080fd5b80634641257d116101be57806359e791381161018257806359e791381461031c5780635c975abb1461032f5780635ee167c01461034c5780636817031b1461035f578063715018a61461037257600080fd5b80634641257d146102e65780634700d305146102ee57806348162c79146102f6578063481c6a7514610309578063573fef0a146102c057600080fd5b8063286a876b11610205578063286a876b146102a55780632e1a7d4d146102ad5780633a4b66f1146102c25780633e0dc34e146102d55780633f4ba83a146102de57600080fd5b806311588086146102375780631fc8bc5d14610252578063228cb7331461027d578063277e5cfd14610290575b600080fd5b61023f610476565b6040519081526020015b60405180910390f35b600954610265906001600160a01b031681565b6040516001600160a01b039091168152602001610249565b600554610265906001600160a01b031681565b6102986104f8565b6040516102499190611c54565b61023f610586565b6102c06102bb366004611c87565b6105f8565b005b600654610265906001600160a01b031681565b61023f600a5481565b6102c06107dc565b6102c06107fe565b6102c0610806565b610265610304366004611c87565b61087f565b600354610265906001600160a01b031681565b6102c061032a366004611ca0565b6108a9565b600054600160a01b900460ff166040519015158152602001610249565b600754610265906001600160a01b031681565b6102c061036d366004611d12565b6108c3565b6102c0610920565b61023f610932565b6102c061094e565b600854610265906001600160a01b031681565b6000546001600160a01b0316610265565b6103b6610966565b6040516102499190611d3b565b6102656103d1366004611c87565b6109c8565b6102c06109d8565b6103b6610a20565b6102c06103f4366004611d12565b610a80565b6102c0610ad6565b6102c061040f366004611d12565b610ade565b6102c0610b34565b61023f610b3c565b6102c0610c93565b61023f600b5481565b6102c0610443366004611d12565b610cd8565b600254610265906001600160a01b031681565b6102c0610d4e565b600154610265906001600160a01b031681565b600954600a546040516393f1a40b60e01b8152600481019190915230602482015260009182916001600160a01b03909116906393f1a40b906044016040805180830381865afa1580156104cd573d6000803e3d6000fd5b505050506040513d601f19601f820116820180604052508101906104f19190611d88565b5092915050565b600c805461050590611dac565b80601f016020809104026020016040519081016040528092919081815260200182805461053190611dac565b801561057e5780601f106105535761010080835404028352916020019161057e565b820191906000526020600020905b81548152906001019060200180831161056157829003601f168201915b505050505081565b6006546040516370a0823160e01b81523060048201526000916001600160a01b0316906370a0823190602401602060405180830381865afa1580156105cf573d6000803e3d6000fd5b505050506040513d601f19601f820116820180604052508101906105f39190611de6565b905090565b610600610fab565b6106086109d8565b6006546040516370a0823160e01b81523060048201526000916001600160a01b0316906370a0823190602401602060405180830381865afa158015610651573d6000803e3d6000fd5b505050506040513d601f19601f820116820180604052508101906106759190611de6565b90508181101561076657600954600a546001600160a01b039091169063441a3e70906106a18486611e15565b6040516001600160e01b031960e085901b16815260048101929092526024820152604401600060405180830381600087803b1580156106df57600080fd5b505af11580156106f3573d6000803e3d6000fd5b50506006546040516370a0823160e01b81523060048201526001600160a01b0390911692506370a082319150602401602060405180830381865afa15801561073f573d6000803e3d6000fd5b505050506040513d601f19601f820116820180604052508101906107639190611de6565b90505b818111156107715750805b60015460065461078e916001600160a01b03918216911683611004565b7f56ca301a9219608c91e7bcee90e083c19671d2cdcc96752c7af291cee5f9c8c86107b7610932565b60408051918252602082018490520160405180910390a1506107d96001600455565b50565b6107e4610c93565b6107ec611034565b6107f4611089565b6107fc611141565b565b6107fc611280565b61080e610c93565b61081661094e565b600954600a54604051632989754760e11b81526001600160a01b0390921691635312ea8e9161084b9160040190815260200190565b600060405180830381600087803b15801561086557600080fd5b505af1158015610879573d6000803e3d6000fd5b50505050565b600d818154811061088f57600080fd5b6000918252602090912001546001600160a01b0316905081565b6108b1610c93565b600c6108be828483611e84565b505050565b6108cb610c93565b600180546001600160a01b0319166001600160a01b0383169081179091556040519081527fd459c7242e23d490831b5676a611c4342d899d28f342d89ae80793e56a930f30906020015b60405180910390a150565b6109286113cf565b6107fc6000611429565b600061093c610476565b610944610586565b6105f39190611f45565b610956610c93565b61095e611479565b6107fc6114bc565b6060600e8054806020026020016040519081016040528092919081815260200182805480156109be57602002820191906000526020600020905b81546001600160a01b031681526001909101906020018083116109a0575b5050505050905090565b600e818154811061088f57600080fd5b6001546001600160a01b031633146107fc5760405162461bcd60e51b8152602060048201526006602482015265085d985d5b1d60d21b60448201526064015b60405180910390fd5b6060600d8054806020026020016040519081016040528092919081815260200182805480156109be576020028201919060005260206000209081546001600160a01b031681526001909101906020018083116109a0575050505050905090565b610a88610c93565b600280546001600160a01b0319166001600160a01b0383169081179091556040519081527f6de4326a8b9054d72d9dbab97d27bc4edffadee7d966f5af9cc4eafdaf8e545590602001610915565b6107f46109d8565b610ae6610c93565b600380546001600160a01b0319166001600160a01b0383169081179091556040519081527f54a6385aa0292b04e1ef8513253c17d1863f7cdfc87029d77fd55cc4c2e717e290602001610915565b6107fe610c93565b600080610bfc600c8054610b4f90611dac565b80601f0160208091040260200160405190810160405280929190818152602001828054610b7b90611dac565b8015610bc85780601f10610b9d57610100808354040283529160200191610bc8565b820191906000526020600020905b815481529060010190602001808311610bab57829003601f168201915b5050505050604051806040016040528060118152602001702875696e743235362c616464726573732960781b815250611534565b600954600a546040516024810191909152306044820152919250600091610c76916001600160a01b031690849060640160408051601f198184030181529082905291610c4791611f58565b6040519081900390206020820180516001600160e01b03166001600160e01b0319909216919091179052611561565b905080806020019051810190610c8c9190611de6565b9250505090565b6003546001600160a01b031633146107fc5760405162461bcd60e51b815260206004820152600860248201526710b6b0b730b3b2b960c11b6044820152606401610a17565b610ce06113cf565b6001600160a01b038116610d455760405162461bcd60e51b815260206004820152602660248201527f4f776e61626c653a206e6577206f776e657220697320746865207a65726f206160448201526564647265737360d01b6064820152608401610a17565b6107d981611429565b610d566109d8565b600954600a54604051632989754760e11b81526001600160a01b0390921691635312ea8e91610d8b9160040190815260200190565b600060405180830381600087803b158015610da557600080fd5b505af1158015610db9573d6000803e3d6000fd5b50506006546040516370a0823160e01b8152306004820152600093506001600160a01b0390911691506370a0823190602401602060405180830381865afa158015610e08573d6000803e3d6000fd5b505050506040513d601f19601f82011682018060405250810190610e2c9190611de6565b6001546006549192506107d9916001600160a01b03908116911683611004565b801580610ec65750604051636eb1769f60e11b81523060048201526001600160a01b03838116602483015284169063dd62ed3e90604401602060405180830381865afa158015610ea0573d6000803e3d6000fd5b505050506040513d601f19601f82011682018060405250810190610ec49190611de6565b155b610f315760405162461bcd60e51b815260206004820152603660248201527f5361666545524332303a20617070726f76652066726f6d206e6f6e2d7a65726f60448201527520746f206e6f6e2d7a65726f20616c6c6f77616e636560501b6064820152608401610a17565b6040516001600160a01b0383166024820152604481018290526108be90849063095ea7b360e01b906064015b60408051601f198184030181529190526020810180516001600160e01b03166001600160e01b03199093169290921790915261158d565b6060610fa3848460008561165f565b949350505050565b600260045403610ffd5760405162461bcd60e51b815260206004820152601f60248201527f5265656e7472616e637947756172643a207265656e7472616e742063616c6c006044820152606401610a17565b6002600455565b6040516001600160a01b0383166024820152604481018290526108be90849063a9059cbb60e01b90606401610f5d565b61103c61173a565b6000805460ff60a01b191690557f5db9ee0a495bf2e6ff9c91a7834c1ba4fdd244a5e8aa4e537bd38aeae4b073aa335b6040516001600160a01b03909116815260200160405180910390a1565b6009546006546110a8916001600160a01b039182169116600019610e4c565b6002546005546110c7916001600160a01b039182169116600019610e4c565b6002546007546110e5916001600160a01b0391821691166000610e4c565b600254600754611104916001600160a01b039182169116600019610e4c565b600254600854611122916001600160a01b0391821691166000610e4c565b6002546008546107fc916001600160a01b039182169116600019610e4c565b61114961178a565b611151610fab565b6006546040516370a0823160e01b81523060048201526000916001600160a01b0316906370a0823190602401602060405180830381865afa15801561119a573d6000803e3d6000fd5b505050506040513d601f19601f820116820180604052508101906111be9190611de6565b9050801561127557600954600a54604051631c57762b60e31b81526001600160a01b039092169163e2bbb15891611202918590600401918252602082015260400190565b600060405180830381600087803b15801561121c57600080fd5b505af1158015611230573d6000803e3d6000fd5b505050507fa3af609bf46297028ce551832669030f9effef2b02606d02cbbcc40fe6b47c5561125d610932565b60408051918252602082018490520160405180910390a15b506107fc6001600455565b61128861178a565b600954600a54604051631c57762b60e31b81526004810191909152600060248201526001600160a01b039091169063e2bbb15890604401600060405180830381600087803b1580156112d957600080fd5b505af11580156112ed573d6000803e3d6000fd5b50506005546040516370a0823160e01b8152306004820152600093506001600160a01b0390911691506370a0823190602401602060405180830381865afa15801561133c573d6000803e3d6000fd5b505050506040513d601f19601f820116820180604052508101906113609190611de6565b905080156107d9576113706117d7565b600061137a610586565b9050611384611141565b42600b55337f9bc239f1724cacfb88cb1d66a2dc437467699b68a8c90d7b63110cf4b6f92410826113b3610932565b6040805192835260208301919091520160405180910390a25050565b6000546001600160a01b031633146107fc5760405162461bcd60e51b815260206004820181905260248201527f4f776e61626c653a2063616c6c6572206973206e6f7420746865206f776e65726044820152606401610a17565b600080546001600160a01b038381166001600160a01b0319831681178455604051919092169283917f8be0079c531659141344cd1fd0a4f28419497f9722a3daafe3b4186f6b6457e09190a35050565b61148161178a565b6000805460ff60a01b1916600160a01b1790557f62e78cea01bee320cd4e420270b5ea74000d11b0c9f74754ebdbfc544b05a25861106c3390565b6009546006546114da916001600160a01b0391821691166000610e4c565b6002546005546114f8916001600160a01b0391821691166000610e4c565b600254600754611516916001600160a01b0391821691166000610e4c565b6002546008546107fc916001600160a01b0391821691166000610e4c565b60608282604051602001611549929190611f74565b60405160208183030381529060405290505b92915050565b6060611586838360405180606001604052806025815260200161214a60259139611b1a565b9392505050565b60006115e2826040518060400160405280602081526020017f5361666545524332303a206c6f772d6c6576656c2063616c6c206661696c6564815250856001600160a01b0316610f949092919063ffffffff16565b8051909150156108be57808060200190518101906116009190611fa3565b6108be5760405162461bcd60e51b815260206004820152602a60248201527f5361666545524332303a204552433230206f7065726174696f6e20646964206e6044820152691bdd081cdd58d8d9595960b21b6064820152608401610a17565b6060824710156116c05760405162461bcd60e51b815260206004820152602660248201527f416464726573733a20696e73756666696369656e742062616c616e636520666f6044820152651c8818d85b1b60d21b6064820152608401610a17565b600080866001600160a01b031685876040516116dc9190611f58565b60006040518083038185875af1925050503d8060008114611719576040519150601f19603f3d011682016040523d82523d6000602084013e61171e565b606091505b509150915061172f87838387611b92565b979650505050505050565b600054600160a01b900460ff166107fc5760405162461bcd60e51b815260206004820152601460248201527314185d5cd8589b194e881b9bdd081c185d5cd95960621b6044820152606401610a17565b600054600160a01b900460ff16156107fc5760405162461bcd60e51b815260206004820152601060248201526f14185d5cd8589b194e881c185d5cd95960821b6044820152606401610a17565b6005546040516370a0823160e01b81523060048201526000916002916001600160a01b03909116906370a0823190602401602060405180830381865afa158015611825573d6000803e3d6000fd5b505050506040513d601f19601f820116820180604052508101906118499190611de6565b6118539190611fc5565b6005546007549192506001600160a01b039182169116146118f1576002546040516338ed173960e01b81526001600160a01b03909116906338ed1739906118a8908490600090600d9030904290600401611fe7565b6000604051808303816000875af11580156118c7573d6000803e3d6000fd5b505050506040513d6000823e601f3d908101601f191682016040526118ef919081019061205d565b505b6005546008546001600160a01b0390811691161461198c576002546040516338ed173960e01b81526001600160a01b03909116906338ed173990611943908490600090600e9030904290600401611fe7565b6000604051808303816000875af1158015611962573d6000803e3d6000fd5b505050506040513d6000823e601f3d908101601f1916820160405261198a919081019061205d565b505b6007546040516370a0823160e01b81523060048201526000916001600160a01b0316906370a0823190602401602060405180830381865afa1580156119d5573d6000803e3d6000fd5b505050506040513d601f19601f820116820180604052508101906119f99190611de6565b6008546040516370a0823160e01b81523060048201529192506000916001600160a01b03909116906370a0823190602401602060405180830381865afa158015611a47573d6000803e3d6000fd5b505050506040513d601f19601f82011682018060405250810190611a6b9190611de6565b60025460075460085460405162e8e33760e81b81526001600160a01b0392831660048201529082166024820152604481018690526064810184905260016084820181905260a48201523060c48201524260e4820152929350169063e8e3370090610104016060604051808303816000875af1158015611aee573d6000803e3d6000fd5b505050506040513d601f19601f82011682018060405250810190611b12919061211b565b505050505050565b6060600080856001600160a01b031685604051611b379190611f58565b600060405180830381855afa9150503d8060008114611b72576040519150601f19603f3d011682016040523d82523d6000602084013e611b77565b606091505b5091509150611b8886838387611b92565b9695505050505050565b60608315611c01578251600003611bfa576001600160a01b0385163b611bfa5760405162461bcd60e51b815260206004820152601d60248201527f416464726573733a2063616c6c20746f206e6f6e2d636f6e74726163740000006044820152606401610a17565b5081610fa3565b610fa38383815115611c165781518083602001fd5b8060405162461bcd60e51b8152600401610a179190611c54565b60005b83811015611c4b578181015183820152602001611c33565b50506000910152565b6020815260008251806020840152611c73816040850160208701611c30565b601f01601f19169190910160400192915050565b600060208284031215611c9957600080fd5b5035919050565b60008060208385031215611cb357600080fd5b823567ffffffffffffffff80821115611ccb57600080fd5b818501915085601f830112611cdf57600080fd5b813581811115611cee57600080fd5b866020828501011115611d0057600080fd5b60209290920196919550909350505050565b600060208284031215611d2457600080fd5b81356001600160a01b038116811461158657600080fd5b6020808252825182820181905260009190848201906040850190845b81811015611d7c5783516001600160a01b031683529284019291840191600101611d57565b50909695505050505050565b60008060408385031215611d9b57600080fd5b505080516020909101519092909150565b600181811c90821680611dc057607f821691505b602082108103611de057634e487b7160e01b600052602260045260246000fd5b50919050565b600060208284031215611df857600080fd5b5051919050565b634e487b7160e01b600052601160045260246000fd5b8181038181111561155b5761155b611dff565b634e487b7160e01b600052604160045260246000fd5b601f8211156108be57600081815260208120601f850160051c81016020861015611e655750805b601f850160051c820191505b81811015611b1257828155600101611e71565b67ffffffffffffffff831115611e9c57611e9c611e28565b611eb083611eaa8354611dac565b83611e3e565b6000601f841160018114611ee45760008515611ecc5750838201355b600019600387901b1c1916600186901b178355611f3e565b600083815260209020601f19861690835b82811015611f155786850135825560209485019460019092019101611ef5565b5086821015611f325760001960f88860031b161c19848701351681555b505060018560011b0183555b5050505050565b8082018082111561155b5761155b611dff565b60008251611f6a818460208701611c30565b9190910192915050565b60008351611f86818460208801611c30565b835190830190611f9a818360208801611c30565b01949350505050565b600060208284031215611fb557600080fd5b8151801515811461158657600080fd5b600082611fe257634e487b7160e01b600052601260045260246000fd5b500490565b600060a082018783526020878185015260a0604085015281875480845260c0860191508860005282600020935060005b8181101561203c5784546001600160a01b031683526001948501949284019201612017565b50506001600160a01b03969096166060850152505050608001529392505050565b6000602080838503121561207057600080fd5b825167ffffffffffffffff8082111561208857600080fd5b818501915085601f83011261209c57600080fd5b8151818111156120ae576120ae611e28565b8060051b604051601f19603f830116810181811085821117156120d3576120d3611e28565b6040529182528482019250838101850191888311156120f157600080fd5b938501935b8285101561210f578451845293850193928501926120f6565b98975050505050505050565b60008060006060848603121561213057600080fd5b835192506020840151915060408401519050925092509256fe416464726573733a206c6f772d6c6576656c207374617469632063616c6c206661696c6564a26469706673582212208c650ed252e841daa97c34f437e9523a0f8b7b25828b797543aba5ba9893c3f664736f6c63430008110033",
    "linkReferences": {}
  },
  "methodIdentifiers": {
    "balanceOf()": "722713f7",
    "balanceOfPool()": "11588086",
    "balanceOfStake()": "286a876b",
    "beforeDeposit()": "573fef0a",
    "chef()": "1fc8bc5d",
    "deposit()": "d0e30db0",
    "harvest()": "4641257d",
    "lastHarvest()": "f1a392da",
    "lpToken0()": "5ee167c0",
    "lpToken1()": "877562b6",
    "manager()": "481c6a75",
    "managerHarvest()": "d801d946",
    "onlyManager()": "ef21c994",
    "onlyVault()": "b3a9c91c",
    "owner()": "8da5cb5b",
    "panic()": "4700d305",
    "pause()": "8456cb59",
    "paused()": "5c975abb",
    "pendingRewardsFunctionName()": "277e5cfd",
    "poolId()": "3e0dc34e",
    "renounceOwnership()": "715018a6",
    "retireStrat()": "fb617787",
    "reward()": "228cb733",
    "rewardToLp0()": "be3fbd1c",
    "rewardToLp0Route(uint256)": "48162c79",
    "rewardToLp1()": "a11d3556",
    "rewardToLp1Route(uint256)": "a839d5e6",
    "rewardsAvailable()": "e7a7250a",
    "router()": "f887ea40",
    "setManager(address)": "d0ebdbe7",
    "setPendingRewardsFunctionName(string)": "59e79138",
    "setRouter(address)": "c0d78655",
    "setVault(address)": "6817031b",
    "stake()": "3a4b66f1",
    "transferOwnership(address)": "f2fde38b",
    "unpause()": "3f4ba83a",
    "vault()": "fbfa77cf",
    "withdraw(uint256)": "2e1a7d4d"
  },
  "id": 64
}