{
  "abi": [
    {
      "inputs": [
        {
          "internalType": "address",
          "name": "asset_",
          "type": "address"
        },
        {
          "internalType": "string",
          "name": "_name",
          "type": "string"
        },
        {
          "internalType": "string",
          "name": "_symbol",
          "type": "string"
        },
        {
          "internalType": "uint256",
          "name": "_approvalDelay",
          "type": "uint256"
        },
        {
          "internalType": "uint256",
          "name": "_totalTvlCap",
          "type": "uint256"
        }
      ],
      "stateMutability": "nonpayable",
      "type": "constructor"
    },
    {
      "anonymous": false,
      "inputs": [
        {
          "indexed": true,
          "internalType": "address",
          "name": "owner",
          "type": "address"
        },
        {
          "indexed": true,
          "internalType": "address",
          "name": "spender",
          "type": "address"
        },
        {
          "indexed": false,
          "internalType": "uint256",
          "name": "value",
          "type": "uint256"
        }
      ],
      "name": "Approval",
      "type": "event"
    },
    {
      "anonymous": false,
      "inputs": [
        {
          "indexed": true,
          "internalType": "address",
          "name": "sender",
          "type": "address"
        },
        {
          "indexed": true,
          "internalType": "address",
          "name": "owner",
          "type": "address"
        },
        {
          "indexed": false,
          "internalType": "uint256",
          "name": "assets",
          "type": "uint256"
        },
        {
          "indexed": false,
          "internalType": "uint256",
          "name": "shares",
          "type": "uint256"
        }
      ],
      "name": "Deposit",
      "type": "event"
    },
    {
      "anonymous": false,
      "inputs": [
        {
          "indexed": false,
          "internalType": "uint8",
          "name": "version",
          "type": "uint8"
        }
      ],
      "name": "Initialized",
      "type": "event"
    },
    {
      "anonymous": false,
      "inputs": [
        {
          "indexed": false,
          "internalType": "address",
          "name": "implementation",
          "type": "address"
        }
      ],
      "name": "NewStratCandidate",
      "type": "event"
    },
    {
      "anonymous": false,
      "inputs": [
        {
          "indexed": true,
          "internalType": "address",
          "name": "previousOwner",
          "type": "address"
        },
        {
          "indexed": true,
          "internalType": "address",
          "name": "newOwner",
          "type": "address"
        }
      ],
      "name": "OwnershipTransferred",
      "type": "event"
    },
    {
      "anonymous": false,
      "inputs": [
        {
          "indexed": true,
          "internalType": "address",
          "name": "from",
          "type": "address"
        },
        {
          "indexed": true,
          "internalType": "address",
          "name": "to",
          "type": "address"
        },
        {
          "indexed": false,
          "internalType": "uint256",
          "name": "value",
          "type": "uint256"
        }
      ],
      "name": "Transfer",
      "type": "event"
    },
    {
      "anonymous": false,
      "inputs": [
        {
          "indexed": true,
          "internalType": "address",
          "name": "onwer_",
          "type": "address"
        },
        {
          "indexed": false,
          "internalType": "uint256",
          "name": "oldTvlCap",
          "type": "uint256"
        },
        {
          "indexed": false,
          "internalType": "uint256",
          "name": "newTvlCap",
          "type": "uint256"
        }
      ],
      "name": "TvlCapChange",
      "type": "event"
    },
    {
      "anonymous": false,
      "inputs": [
        {
          "indexed": false,
          "internalType": "address",
          "name": "implementation",
          "type": "address"
        }
      ],
      "name": "UpgradeStrat",
      "type": "event"
    },
    {
      "anonymous": false,
      "inputs": [
        {
          "indexed": true,
          "internalType": "address",
          "name": "onwer_",
          "type": "address"
        },
        {
          "indexed": true,
          "internalType": "address",
          "name": "user",
          "type": "address"
        },
        {
          "indexed": false,
          "internalType": "uint256",
          "name": "oldTvlCap",
          "type": "uint256"
        },
        {
          "indexed": false,
          "internalType": "uint256",
          "name": "newTvlCap",
          "type": "uint256"
        }
      ],
      "name": "UserTvlCapChange",
      "type": "event"
    },
    {
      "anonymous": false,
      "inputs": [
        {
          "indexed": true,
          "internalType": "address",
          "name": "sender",
          "type": "address"
        },
        {
          "indexed": true,
          "internalType": "address",
          "name": "receiver",
          "type": "address"
        },
        {
          "indexed": true,
          "internalType": "address",
          "name": "owner",
          "type": "address"
        },
        {
          "indexed": false,
          "internalType": "uint256",
          "name": "assets",
          "type": "uint256"
        },
        {
          "indexed": false,
          "internalType": "uint256",
          "name": "shares",
          "type": "uint256"
        }
      ],
      "name": "Withdraw",
      "type": "event"
    },
    {
      "inputs": [
        {
          "internalType": "address",
          "name": "owner",
          "type": "address"
        },
        {
          "internalType": "address",
          "name": "spender",
          "type": "address"
        }
      ],
      "name": "allowance",
      "outputs": [
        {
          "internalType": "uint256",
          "name": "",
          "type": "uint256"
        }
      ],
      "stateMutability": "view",
      "type": "function"
    },
    {
      "inputs": [],
      "name": "approvalDelay",
      "outputs": [
        {
          "internalType": "uint256",
          "name": "",
          "type": "uint256"
        }
      ],
      "stateMutability": "view",
      "type": "function"
    },
    {
      "inputs": [
        {
          "internalType": "address",
          "name": "spender",
          "type": "address"
        },
        {
          "internalType": "uint256",
          "name": "amount",
          "type": "uint256"
        }
      ],
      "name": "approve",
      "outputs": [
        {
          "internalType": "bool",
          "name": "",
          "type": "bool"
        }
      ],
      "stateMutability": "nonpayable",
      "type": "function"
    },
    {
      "inputs": [],
      "name": "asset",
      "outputs": [
        {
          "internalType": "address",
          "name": "",
          "type": "address"
        }
      ],
      "stateMutability": "view",
      "type": "function"
    },
    {
      "inputs": [
        {
          "internalType": "address",
          "name": "account",
          "type": "address"
        }
      ],
      "name": "balanceOf",
      "outputs": [
        {
          "internalType": "uint256",
          "name": "",
          "type": "uint256"
        }
      ],
      "stateMutability": "view",
      "type": "function"
    },
    {
      "inputs": [
        {
          "internalType": "uint256",
          "name": "shares",
          "type": "uint256"
        }
      ],
      "name": "convertToAssets",
      "outputs": [
        {
          "internalType": "uint256",
          "name": "assets",
          "type": "uint256"
        }
      ],
      "stateMutability": "view",
      "type": "function"
    },
    {
      "inputs": [
        {
          "internalType": "uint256",
          "name": "assets",
          "type": "uint256"
        }
      ],
      "name": "convertToShares",
      "outputs": [
        {
          "internalType": "uint256",
          "name": "shares",
          "type": "uint256"
        }
      ],
      "stateMutability": "view",
      "type": "function"
    },
    {
      "inputs": [],
      "name": "decimals",
      "outputs": [
        {
          "internalType": "uint8",
          "name": "",
          "type": "uint8"
        }
      ],
      "stateMutability": "view",
      "type": "function"
    },
    {
      "inputs": [
        {
          "internalType": "address",
          "name": "spender",
          "type": "address"
        },
        {
          "internalType": "uint256",
          "name": "subtractedValue",
          "type": "uint256"
        }
      ],
      "name": "decreaseAllowance",
      "outputs": [
        {
          "internalType": "bool",
          "name": "",
          "type": "bool"
        }
      ],
      "stateMutability": "nonpayable",
      "type": "function"
    },
    {
      "inputs": [
        {
          "internalType": "uint256",
          "name": "assets",
          "type": "uint256"
        },
        {
          "internalType": "address",
          "name": "receiver",
          "type": "address"
        }
      ],
      "name": "deposit",
      "outputs": [
        {
          "internalType": "uint256",
          "name": "",
          "type": "uint256"
        }
      ],
      "stateMutability": "payable",
      "type": "function"
    },
    {
      "inputs": [],
      "name": "getStratProposal",
      "outputs": [
        {
          "components": [
            {
              "internalType": "address",
              "name": "implementation",
              "type": "address"
            },
            {
              "internalType": "uint256",
              "name": "proposedTime",
              "type": "uint256"
            }
          ],
          "internalType": "struct StratCandidate",
          "name": "",
          "type": "tuple"
        }
      ],
      "stateMutability": "view",
      "type": "function"
    },
    {
      "inputs": [
        {
          "internalType": "address",
          "name": "_token",
          "type": "address"
        }
      ],
      "name": "inCaseTokensGetStuck",
      "outputs": [],
      "stateMutability": "nonpayable",
      "type": "function"
    },
    {
      "inputs": [
        {
          "internalType": "address",
          "name": "spender",
          "type": "address"
        },
        {
          "internalType": "uint256",
          "name": "addedValue",
          "type": "uint256"
        }
      ],
      "name": "increaseAllowance",
      "outputs": [
        {
          "internalType": "bool",
          "name": "",
          "type": "bool"
        }
      ],
      "stateMutability": "nonpayable",
      "type": "function"
    },
    {
      "inputs": [
        {
          "internalType": "contract IStrategy",
          "name": "_strategy",
          "type": "address"
        }
      ],
      "name": "init",
      "outputs": [],
      "stateMutability": "nonpayable",
      "type": "function"
    },
    {
      "inputs": [
        {
          "internalType": "address",
          "name": "receiver",
          "type": "address"
        }
      ],
      "name": "maxDeposit",
      "outputs": [
        {
          "internalType": "uint256",
          "name": "",
          "type": "uint256"
        }
      ],
      "stateMutability": "view",
      "type": "function"
    },
    {
      "inputs": [
        {
          "internalType": "address",
          "name": "receiver",
          "type": "address"
        }
      ],
      "name": "maxMint",
      "outputs": [
        {
          "internalType": "uint256",
          "name": "",
          "type": "uint256"
        }
      ],
      "stateMutability": "view",
      "type": "function"
    },
    {
      "inputs": [
        {
          "internalType": "address",
          "name": "owner",
          "type": "address"
        }
      ],
      "name": "maxRedeem",
      "outputs": [
        {
          "internalType": "uint256",
          "name": "",
          "type": "uint256"
        }
      ],
      "stateMutability": "view",
      "type": "function"
    },
    {
      "inputs": [
        {
          "internalType": "address",
          "name": "owner",
          "type": "address"
        }
      ],
      "name": "maxWithdraw",
      "outputs": [
        {
          "internalType": "uint256",
          "name": "",
          "type": "uint256"
        }
      ],
      "stateMutability": "view",
      "type": "function"
    },
    {
      "inputs": [
        {
          "internalType": "uint256",
          "name": "shares",
          "type": "uint256"
        },
        {
          "internalType": "address",
          "name": "receiver",
          "type": "address"
        }
      ],
      "name": "mint",
      "outputs": [
        {
          "internalType": "uint256",
          "name": "",
          "type": "uint256"
        }
      ],
      "stateMutability": "nonpayable",
      "type": "function"
    },
    {
      "inputs": [],
      "name": "name",
      "outputs": [
        {
          "internalType": "string",
          "name": "",
          "type": "string"
        }
      ],
      "stateMutability": "view",
      "type": "function"
    },
    {
      "inputs": [],
      "name": "owner",
      "outputs": [
        {
          "internalType": "address",
          "name": "",
          "type": "address"
        }
      ],
      "stateMutability": "view",
      "type": "function"
    },
    {
      "inputs": [
        {
          "internalType": "uint256",
          "name": "assets",
          "type": "uint256"
        }
      ],
      "name": "previewDeposit",
      "outputs": [
        {
          "internalType": "uint256",
          "name": "",
          "type": "uint256"
        }
      ],
      "stateMutability": "view",
      "type": "function"
    },
    {
      "inputs": [
        {
          "internalType": "uint256",
          "name": "shares",
          "type": "uint256"
        }
      ],
      "name": "previewMint",
      "outputs": [
        {
          "internalType": "uint256",
          "name": "",
          "type": "uint256"
        }
      ],
      "stateMutability": "view",
      "type": "function"
    },
    {
      "inputs": [
        {
          "internalType": "uint256",
          "name": "shares",
          "type": "uint256"
        }
      ],
      "name": "previewRedeem",
      "outputs": [
        {
          "internalType": "uint256",
          "name": "",
          "type": "uint256"
        }
      ],
      "stateMutability": "view",
      "type": "function"
    },
    {
      "inputs": [
        {
          "internalType": "uint256",
          "name": "assets",
          "type": "uint256"
        }
      ],
      "name": "previewWithdraw",
      "outputs": [
        {
          "internalType": "uint256",
          "name": "",
          "type": "uint256"
        }
      ],
      "stateMutability": "view",
      "type": "function"
    },
    {
      "inputs": [
        {
          "internalType": "address",
          "name": "_implementation",
          "type": "address"
        }
      ],
      "name": "proposeStrat",
      "outputs": [],
      "stateMutability": "nonpayable",
      "type": "function"
    },
    {
      "inputs": [
        {
          "internalType": "uint256",
          "name": "shares",
          "type": "uint256"
        },
        {
          "internalType": "address",
          "name": "receiver",
          "type": "address"
        },
        {
          "internalType": "address",
          "name": "owner",
          "type": "address"
        }
      ],
      "name": "redeem",
      "outputs": [
        {
          "internalType": "uint256",
          "name": "",
          "type": "uint256"
        }
      ],
      "stateMutability": "nonpayable",
      "type": "function"
    },
    {
      "inputs": [],
      "name": "renounceOwnership",
      "outputs": [],
      "stateMutability": "nonpayable",
      "type": "function"
    },
    {
      "inputs": [
        {
          "internalType": "uint256",
          "name": "totalTvlCap_",
          "type": "uint256"
        }
      ],
      "name": "setTotalTvlCap",
      "outputs": [],
      "stateMutability": "nonpayable",
      "type": "function"
    },
    {
      "inputs": [
        {
          "internalType": "address",
          "name": "user_",
          "type": "address"
        },
        {
          "internalType": "uint256",
          "name": "userTvlCap_",
          "type": "uint256"
        }
      ],
      "name": "setUserTvlCap",
      "outputs": [],
      "stateMutability": "nonpayable",
      "type": "function"
    },
    {
      "inputs": [],
      "name": "stratCandidate",
      "outputs": [
        {
          "internalType": "address",
          "name": "implementation",
          "type": "address"
        },
        {
          "internalType": "uint256",
          "name": "proposedTime",
          "type": "uint256"
        }
      ],
      "stateMutability": "view",
      "type": "function"
    },
    {
      "inputs": [],
      "name": "strategy",
      "outputs": [
        {
          "internalType": "contract IStrategy",
          "name": "",
          "type": "address"
        }
      ],
      "stateMutability": "view",
      "type": "function"
    },
    {
      "inputs": [],
      "name": "symbol",
      "outputs": [
        {
          "internalType": "string",
          "name": "",
          "type": "string"
        }
      ],
      "stateMutability": "view",
      "type": "function"
    },
    {
      "inputs": [],
      "name": "totalAssets",
      "outputs": [
        {
          "internalType": "uint256",
          "name": "",
          "type": "uint256"
        }
      ],
      "stateMutability": "view",
      "type": "function"
    },
    {
      "inputs": [],
      "name": "totalSupply",
      "outputs": [
        {
          "internalType": "uint256",
          "name": "",
          "type": "uint256"
        }
      ],
      "stateMutability": "view",
      "type": "function"
    },
    {
      "inputs": [],
      "name": "totalTvlCap",
      "outputs": [
        {
          "internalType": "uint256",
          "name": "",
          "type": "uint256"
        }
      ],
      "stateMutability": "view",
      "type": "function"
    },
    {
      "inputs": [
        {
          "internalType": "address",
          "name": "to",
          "type": "address"
        },
        {
          "internalType": "uint256",
          "name": "amount",
          "type": "uint256"
        }
      ],
      "name": "transfer",
      "outputs": [
        {
          "internalType": "bool",
          "name": "",
          "type": "bool"
        }
      ],
      "stateMutability": "nonpayable",
      "type": "function"
    },
    {
      "inputs": [
        {
          "internalType": "address",
          "name": "from",
          "type": "address"
        },
        {
          "internalType": "address",
          "name": "to",
          "type": "address"
        },
        {
          "internalType": "uint256",
          "name": "amount",
          "type": "uint256"
        }
      ],
      "name": "transferFrom",
      "outputs": [
        {
          "internalType": "bool",
          "name": "",
          "type": "bool"
        }
      ],
      "stateMutability": "nonpayable",
      "type": "function"
    },
    {
      "inputs": [
        {
          "internalType": "address",
          "name": "newOwner",
          "type": "address"
        }
      ],
      "name": "transferOwnership",
      "outputs": [],
      "stateMutability": "nonpayable",
      "type": "function"
    },
    {
      "inputs": [],
      "name": "upgradeStrat",
      "outputs": [],
      "stateMutability": "nonpayable",
      "type": "function"
    },
    {
      "inputs": [
        {
          "internalType": "address",
          "name": "",
          "type": "address"
        }
      ],
      "name": "userTvlCap",
      "outputs": [
        {
          "internalType": "uint256",
          "name": "",
          "type": "uint256"
        }
      ],
      "stateMutability": "view",
      "type": "function"
    },
    {
      "inputs": [
        {
          "internalType": "uint256",
          "name": "assets",
          "type": "uint256"
        },
        {
          "internalType": "address",
          "name": "receiver",
          "type": "address"
        },
        {
          "internalType": "address",
          "name": "owner",
          "type": "address"
        }
      ],
      "name": "withdraw",
      "outputs": [
        {
          "internalType": "uint256",
          "name": "",
          "type": "uint256"
        }
      ],
      "stateMutability": "nonpayable",
      "type": "function"
    }
  ],
  "bytecode": {
    "object": "0x60e06040523480156200001157600080fd5b5060405162002f1538038062002f158339810160408190526200003491620002dc565b848484848484848460036200004a838262000408565b50600462000059828262000408565b5050506000806200007083620000d360201b60201c565b915091508162000095576200008f620001b860201b620017df1760201c565b62000097565b805b60ff1660a05250506001600160a01b0316608052620000b633620001bd565b600160065560c091909152600b55506200050c9650505050505050565b60408051600481526024810182526020810180516001600160e01b031663313ce56760e01b17905290516000918291829182916001600160a01b038716916200011c91620004d4565b600060405180830381855afa9150503d806000811462000159576040519150601f19603f3d011682016040523d82523d6000602084013e6200015e565b606091505b50915091508180156200017357506020815110155b15620001ab57600081806020019051810190620001919190620004f2565b905060ff8111620001a9576001969095509350505050565b505b5060009485945092505050565b601290565b600580546001600160a01b038381166001600160a01b0319831681179093556040519116919082907f8be0079c531659141344cd1fd0a4f28419497f9722a3daafe3b4186f6b6457e090600090a35050565b634e487b7160e01b600052604160045260246000fd5b60005b838110156200024257818101518382015260200162000228565b50506000910152565b600082601f8301126200025d57600080fd5b81516001600160401b03808211156200027a576200027a6200020f565b604051601f8301601f19908116603f01168101908282118183101715620002a557620002a56200020f565b81604052838152866020858801011115620002bf57600080fd5b620002d284602083016020890162000225565b9695505050505050565b600080600080600060a08688031215620002f557600080fd5b85516001600160a01b03811681146200030d57600080fd5b60208701519095506001600160401b03808211156200032b57600080fd5b6200033989838a016200024b565b955060408801519150808211156200035057600080fd5b506200035f888289016200024b565b606088015160809098015196999598509695949350505050565b600181811c908216806200038e57607f821691505b602082108103620003af57634e487b7160e01b600052602260045260246000fd5b50919050565b601f8211156200040357600081815260208120601f850160051c81016020861015620003de5750805b601f850160051c820191505b81811015620003ff57828155600101620003ea565b5050505b505050565b81516001600160401b038111156200042457620004246200020f565b6200043c8162000435845462000379565b84620003b5565b602080601f8311600181146200047457600084156200045b5750858301515b600019600386901b1c1916600185901b178555620003ff565b600085815260208120601f198616915b82811015620004a55788860151825594840194600190910190840162000484565b5085821015620004c45787850151600019600388901b60f8161c191681555b5050505050600190811b01905550565b60008251620004e881846020870162000225565b9190910192915050565b6000602082840312156200050557600080fd5b5051919050565b60805160a05160c0516129af62000566600039600081816107a9015261163d015260006103cf0152600081816104080152818161087e015281816114fc01528181611c6401528181611d89015261204d01526129af6000f3fe6080604052600436106102515760003560e01c80638da5cb5b11610139578063c63d75b6116100b6578063dd62ed3e1161007a578063dd62ed3e14610757578063def68a9c14610777578063e2d1e75c14610797578063e6685244146107cb578063ef8b30f7146106ca578063f2fde38b146107e057600080fd5b8063c63d75b6146106aa578063c6e6f592146106ca578063ce96cb77146106ea578063d42892791461070a578063d905777e1461073757600080fd5b8063a9059cbb116100fd578063a9059cbb1461060a578063b3d7f6b91461062a578063b460af941461064a578063b85d9c251461066a578063ba0876521461068a57600080fd5b80638da5cb5b1461057757806394bf804d1461059557806395d89b41146105b5578063a457c2d7146105ca578063a8c62e76146105ea57600080fd5b806338d52e0f116101d257806351b0fc1c1161019657806351b0fc1c146104965780635b12ff9b146104b65780636e553f65146104d657806370a08231146104e9578063715018a61461051f57806376dfabb81461053457600080fd5b806338d52e0f146103f95780633950935114610440578063402d267d1461046057806340bd2f32146104805780634cdad506146102a057600080fd5b806318160ddd1161021957806318160ddd1461031057806319ab453c1461032557806323b872dd146103475780632965978814610367578063313ce567146103bb57600080fd5b806301e1d1141461025657806306fdde031461027e57806307a2d13a146102a0578063095ea7b3146102c05780630a28a477146102f0575b600080fd5b34801561026257600080fd5b5061026b610800565b6040519081526020015b60405180910390f35b34801561028a57600080fd5b50610293610912565b60405161027591906126d8565b3480156102ac57600080fd5b5061026b6102bb36600461270b565b6109a4565b3480156102cc57600080fd5b506102e06102db366004612739565b6109b7565b6040519015158152602001610275565b3480156102fc57600080fd5b5061026b61030b36600461270b565b6109cf565b34801561031c57600080fd5b5060025461026b565b34801561033157600080fd5b50610345610340366004612765565b6109dc565b005b34801561035357600080fd5b506102e0610362366004612782565b610b06565b34801561037357600080fd5b506040805180820182526000808252602091820152815180830183526008546001600160a01b0316808252600954918301918252835190815290519181019190915201610275565b3480156103c757600080fd5b5060405160ff7f0000000000000000000000000000000000000000000000000000000000000000168152602001610275565b34801561040557600080fd5b507f00000000000000000000000000000000000000000000000000000000000000005b6040516001600160a01b039091168152602001610275565b34801561044c57600080fd5b506102e061045b366004612739565b610b2c565b34801561046c57600080fd5b5061026b61047b366004612765565b610b4e565b34801561048c57600080fd5b5061026b600b5481565b3480156104a257600080fd5b506103456104b136600461270b565b610c68565b3480156104c257600080fd5b506103456104d1366004612765565b610d00565b61026b6104e43660046127c3565b610ee3565b3480156104f557600080fd5b5061026b610504366004612765565b6001600160a01b031660009081526020819052604090205490565b34801561052b57600080fd5b50610345610f56565b34801561054057600080fd5b50600854600954610558916001600160a01b03169082565b604080516001600160a01b039093168352602083019190915201610275565b34801561058357600080fd5b506005546001600160a01b0316610428565b3480156105a157600080fd5b5061026b6105b03660046127c3565b610f6a565b3480156105c157600080fd5b50610293610fdd565b3480156105d657600080fd5b506102e06105e5366004612739565b610fec565b3480156105f657600080fd5b50600a54610428906001600160a01b031681565b34801561061657600080fd5b506102e0610625366004612739565b611072565b34801561063657600080fd5b5061026b61064536600461270b565b611080565b34801561065657600080fd5b5061026b6106653660046127f3565b61108d565b34801561067657600080fd5b50610345610685366004612739565b611109565b34801561069657600080fd5b5061026b6106a53660046127f3565b611211565b3480156106b657600080fd5b5061026b6106c5366004612765565b611285565b3480156106d657600080fd5b5061026b6106e536600461270b565b611478565b3480156106f657600080fd5b5061026b610705366004612765565b611485565b34801561071657600080fd5b5061026b610725366004612765565b600c6020526000908152604090205481565b34801561074357600080fd5b5061026b610752366004612765565b6114a9565b34801561076357600080fd5b5061026b610772366004612835565b6114c7565b34801561078357600080fd5b50610345610792366004612765565b6114f2565b3480156107a357600080fd5b5061026b7f000000000000000000000000000000000000000000000000000000000000000081565b3480156107d757600080fd5b506103456115e5565b3480156107ec57600080fd5b506103456107fb366004612765565b611769565b600061090d600a60009054906101000a90046001600160a01b03166001600160a01b031663722713f76040518163ffffffff1660e01b8152600401602060405180830381865afa158015610858573d6000803e3d6000fd5b505050506040513d601f19601f8201168201806040525081019061087c9190612863565b7f00000000000000000000000000000000000000000000000000000000000000006040516370a0823160e01b81523060048201526001600160a01b0391909116906370a0823190602401602060405180830381865afa1580156108e3573d6000803e3d6000fd5b505050506040513d601f19601f820116820180604052508101906109079190612863565b906117e4565b905090565b6060600380546109219061287c565b80601f016020809104026020016040519081016040528092919081815260200182805461094d9061287c565b801561099a5780601f1061096f5761010080835404028352916020019161099a565b820191906000526020600020905b81548152906001019060200180831161097d57829003601f168201915b5050505050905090565b60006109b18260006117f0565b92915050565b6000336109c5818585611823565b5060019392505050565b60006109b1826001611947565b600754610100900460ff16158080156109fc5750600754600160ff909116105b80610a165750303b158015610a16575060075460ff166001145b610a7e5760405162461bcd60e51b815260206004820152602e60248201527f496e697469616c697a61626c653a20636f6e747261637420697320616c72656160448201526d191e481a5b9a5d1a585b1a5e995960921b60648201526084015b60405180910390fd5b6007805460ff191660011790558015610aa1576007805461ff0019166101001790555b600a80546001600160a01b0319166001600160a01b0384161790558015610b02576007805461ff0019169055604051600181527f7f26b83ff96e1f2b6a682f133852f6798a09c465da95921460cefb38474024989060200160405180910390a15b5050565b600033610b14858285611979565b610b1f8585856119f3565b60019150505b9392505050565b6000336109c5818585610b3f83836114c7565b610b4991906128cc565b611823565b600a5460408051635c975abb60e01b815290516000926001600160a01b031691635c975abb9160048083019260209291908290030181865afa158015610b98573d6000803e3d6000fd5b505050506040513d601f19601f82011682018060405250810190610bbc91906128df565b15610bc957506000919050565b6000610bd3610800565b600b54610be09190612901565b6001600160a01b0384166000908152600c602052604081205491925081610c0957600019610c4e565b610c2b610645866001600160a01b031660009081526020819052604090205490565b6001600160a01b0386166000908152600c6020526040902054610c4e9190612901565b9050808310610c5d5780610c5f565b825b95945050505050565b610c70611b97565b80600b5403610cb05760405162461bcd60e51b815260206004820152600c60248201526b053616d652054564c206361760a41b6044820152606401610a75565b600554600b5460408051918252602082018490526001600160a01b03909216917f62be5807a2922ba46a7c1a6af65af203ab5f9840c6d0b9f469a7689fdfb58eec910160405180910390a2600b55565b6005546001600160a01b0316331480610d8c5750600a546040805163481c6a7560e01b8152905133926001600160a01b03169163481c6a759160048083019260209291908290030181865afa158015610d5d573d6000803e3d6000fd5b505050506040513d601f19601f82011682018060405250810190610d819190612914565b6001600160a01b0316145b610dce5760405162461bcd60e51b815260206004820152601360248201527221286f776e6572207c7c206d616e616765722960681b6044820152606401610a75565b806001600160a01b031663fbfa77cf6040518163ffffffff1660e01b8152600401602060405180830381865afa158015610e0c573d6000803e3d6000fd5b505050506040513d601f19601f82011682018060405250810190610e309190612914565b6001600160a01b0316306001600160a01b031614610e7c5760405162461bcd60e51b8152602060048201526009602482015268085c1c9bdc1bdcd85b60ba1b6044820152606401610a75565b6040805180820182526001600160a01b038316808252426020928301819052600880546001600160a01b0319168317905560095591519182527f1aae2ec5647db56da2d513de40528ba3565c6057525637050660c4323bbac7df910160405180910390a150565b6000610eee82610b4e565b831115610f3d5760405162461bcd60e51b815260206004820152601e60248201527f455243343632363a206465706f736974206d6f7265207468616e206d617800006044820152606401610a75565b6000610f4884611478565b9050610b2533848684611bf1565b610f5e611b97565b610f686000611d05565b565b6000610f7582611285565b831115610fc45760405162461bcd60e51b815260206004820152601b60248201527f455243343632363a206d696e74206d6f7265207468616e206d617800000000006044820152606401610a75565b6000610fcf84611080565b9050610b2533848387611bf1565b6060600480546109219061287c565b60003381610ffa82866114c7565b90508381101561105a5760405162461bcd60e51b815260206004820152602560248201527f45524332303a2064656372656173656420616c6c6f77616e63652062656c6f77604482015264207a65726f60d81b6064820152608401610a75565b6110678286868403611823565b506001949350505050565b6000336109c58185856119f3565b60006109b18260016117f0565b600061109882611485565b8411156110e75760405162461bcd60e51b815260206004820152601f60248201527f455243343632363a207769746864726177206d6f7265207468616e206d6178006044820152606401610a75565b60006110f2856109cf565b90506111013385858885611d57565b949350505050565b611111611b97565b6001600160a01b0382166000908152600c60205260409020548190036111695760405162461bcd60e51b815260206004820152600d60248201526c053616d6520557365722063617609c1b6044820152606401610a75565b816001600160a01b03166111856005546001600160a01b031690565b6001600160a01b03167fc1fa2a9952be0d43691fcfb2f79585c61f18978d7be1af78c4882302c3f8d296600c6000866001600160a01b03166001600160a01b0316815260200190815260200160002054846040516111ed929190918252602082015260400190565b60405180910390a36001600160a01b039091166000908152600c6020526040902055565b600061121c826114a9565b84111561126b5760405162461bcd60e51b815260206004820152601d60248201527f455243343632363a2072656465656d206d6f7265207468616e206d61780000006044820152606401610a75565b6000611276856109a4565b90506111013385858489611d57565b600a5460408051635c975abb60e01b815290516000926001600160a01b031691635c975abb9160048083019260209291908290030181865afa1580156112cf573d6000803e3d6000fd5b505050506040513d601f19601f820116820180604052508101906112f391906128df565b1561130057506000919050565b61130a6001611f9c565b6000306001600160a01b031663c6e6f592306001600160a01b03166301e1d1146040518163ffffffff1660e01b8152600401602060405180830381865afa158015611359573d6000803e3d6000fd5b505050506040513d601f19601f8201168201806040525081019061137d9190612863565b600b5461138a9190612901565b6040518263ffffffff1660e01b81526004016113a891815260200190565b602060405180830381865afa1580156113c5573d6000803e3d6000fd5b505050506040513d601f19601f820116820180604052508101906113e99190612863565b90506113f56002611f9c565b6001600160a01b0383166000908152600c60205260409020546114186003611f9c565b60008082116114295760001961145f565b6001600160a01b03851660009081526020818152604080832054600c9092529091205461145590611478565b61145f9190612901565b905061146b6004611f9c565b808310610c5d5780610c5f565b60006109b1826000611947565b6001600160a01b0381166000908152602081905260408120546109b19060006117f0565b6001600160a01b0381166000908152602081905260408120546109b1565b6001600160a01b03918216600090815260016020908152604080832093909416825291909152205490565b6114fa611b97565b7f00000000000000000000000000000000000000000000000000000000000000006001600160a01b0316816001600160a01b0316036115645760405162461bcd60e51b815260206004820152600660248201526510ba37b5b2b760d11b6044820152606401610a75565b6040516370a0823160e01b81523060048201526000906001600160a01b038316906370a0823190602401602060405180830381865afa1580156115ab573d6000803e3d6000fd5b505050506040513d601f19601f820116820180604052508101906115cf9190612863565b9050610b026001600160a01b0383163383611fe1565b6115ed611b97565b6008546001600160a01b03166116325760405162461bcd60e51b815260206004820152600a6024820152692163616e64696461746560b01b6044820152606401610a75565b6009544290611661907f00000000000000000000000000000000000000000000000000000000000000006117e4565b106116975760405162461bcd60e51b81526020600482015260066024820152652164656c617960d01b6044820152606401610a75565b6008546040516001600160a01b0390911681527f7f37d440e85aba7fbf641c4bda5ca4ef669a80bffaacde2aa8d9feb1b048c82c9060200160405180910390a1600a8054600880546001600160a01b03198084166001600160a01b038381169190911790955516905564012a05f2006009556040805163fb61778760e01b815290519290911691829163fb61778791600480830192600092919082900301818387803b15801561174657600080fd5b505af115801561175a573d6000803e3d6000fd5b50505050611766612049565b50565b611771611b97565b6001600160a01b0381166117d65760405162461bcd60e51b815260206004820152602660248201527f4f776e61626c653a206e6577206f776e657220697320746865207a65726f206160448201526564647265737360d01b6064820152608401610a75565b61176681611d05565b601290565b6000610b2582846128cc565b6000806117fc60025490565b9050801561181d5761181861180f610800565b8590838661215f565b611101565b83611101565b6001600160a01b0383166118855760405162461bcd60e51b8152602060048201526024808201527f45524332303a20617070726f76652066726f6d20746865207a65726f206164646044820152637265737360e01b6064820152608401610a75565b6001600160a01b0382166118e65760405162461bcd60e51b815260206004820152602260248201527f45524332303a20617070726f766520746f20746865207a65726f206164647265604482015261737360f01b6064820152608401610a75565b6001600160a01b0383811660008181526001602090815260408083209487168084529482529182902085905590518481527f8c5be1e5ebec7d5bd14f71427d1e84f3dd0314c0f7b2291e5b200ac8c7c3b925910160405180910390a3505050565b60008061195360025490565b9050831580611960575080155b61181d5761181881611970610800565b8691908661215f565b600061198584846114c7565b905060001981146119ed57818110156119e05760405162461bcd60e51b815260206004820152601d60248201527f45524332303a20696e73756666696369656e7420616c6c6f77616e63650000006044820152606401610a75565b6119ed8484848403611823565b50505050565b6001600160a01b038316611a575760405162461bcd60e51b815260206004820152602560248201527f45524332303a207472616e736665722066726f6d20746865207a65726f206164604482015264647265737360d81b6064820152608401610a75565b6001600160a01b038216611ab95760405162461bcd60e51b815260206004820152602360248201527f45524332303a207472616e7366657220746f20746865207a65726f206164647260448201526265737360e81b6064820152608401610a75565b6001600160a01b03831660009081526020819052604090205481811015611b315760405162461bcd60e51b815260206004820152602660248201527f45524332303a207472616e7366657220616d6f756e7420657863656564732062604482015265616c616e636560d01b6064820152608401610a75565b6001600160a01b03848116600081815260208181526040808320878703905593871680835291849020805487019055925185815290927fddf252ad1be2c89b69c2b068fc378daa952ba7f163c4a11628f55a4df523b3ef910160405180910390a36119ed565b6005546001600160a01b03163314610f685760405162461bcd60e51b815260206004820181905260248201527f4f776e61626c653a2063616c6c6572206973206e6f7420746865206f776e65726044820152606401610a75565b600a60009054906101000a90046001600160a01b03166001600160a01b031663573fef0a6040518163ffffffff1660e01b8152600401600060405180830381600087803b158015611c4157600080fd5b505af1158015611c55573d6000803e3d6000fd5b50505050611c97843084611c867f000000000000000000000000000000000000000000000000000000000000000090565b6001600160a01b03169291906121ba565b611c9f612049565b611ca983826121f2565b826001600160a01b0316846001600160a01b03167fdcbc1c05240f31ff3ad067ef1ee35ce4997762752e3a095284754544f4c709d78484604051611cf7929190918252602082015260400190565b60405180910390a350505050565b600580546001600160a01b038381166001600160a01b0319831681179093556040519116919082907f8be0079c531659141344cd1fd0a4f28419497f9722a3daafe3b4186f6b6457e090600090a35050565b826001600160a01b0316856001600160a01b031614611d7b57611d7b838683611979565b611d8583826122b1565b60007f00000000000000000000000000000000000000000000000000000000000000006040516370a0823160e01b81523060048201529091506000906001600160a01b038316906370a0823190602401602060405180830381865afa158015611df2573d6000803e3d6000fd5b505050506040513d601f19601f82011682018060405250810190611e169190612863565b905083811015611f1f576000611e2c85836123e3565b600a54604051632e1a7d4d60e01b8152600481018390529192506001600160a01b031690632e1a7d4d90602401600060405180830381600087803b158015611e7357600080fd5b505af1158015611e87573d6000803e3d6000fd5b50506040516370a0823160e01b8152306004820152600092506001600160a01b03861691506370a0823190602401602060405180830381865afa158015611ed2573d6000803e3d6000fd5b505050506040513d601f19601f82011682018060405250810190611ef69190612863565b90506000611f0482856123e3565b905082811015611f1b57611f1884826117e4565b96505b5050505b611f336001600160a01b0383168786611fe1565b846001600160a01b0316866001600160a01b0316886001600160a01b03167ffbde797d201c681b91056529119e0b02407c7bb96a4a2c75c01fc9667232c8db8787604051611f8b929190918252602082015260400190565b60405180910390a450505050505050565b61176681604051602401611fb291815260200190565b60408051601f198184030181529190526020810180516001600160e01b031663f5b1bba960e01b1790526123ef565b6040516001600160a01b03831660248201526044810182905261204490849063a9059cbb60e01b906064015b60408051601f198184030181529190526020810180516001600160e01b03166001600160e01b031990931692909217909152612410565b505050565b60007f0000000000000000000000000000000000000000000000000000000000000000600a546040516370a0823160e01b81523060048201529192506120f3916001600160a01b03918216918416906370a0823190602401602060405180830381865afa1580156120be573d6000803e3d6000fd5b505050506040513d601f19601f820116820180604052508101906120e29190612863565b6001600160a01b0384169190611fe1565b600a60009054906101000a90046001600160a01b03166001600160a01b031663d0e30db0346040518263ffffffff1660e01b81526004016000604051808303818588803b15801561214357600080fd5b505af1158015612157573d6000803e3d6000fd5b505050505050565b60008061216d8686866124e2565b9050600183600281111561218357612183612931565b1480156121a057506000848061219b5761219b612947565b868809115b15610c5f576121b06001826128cc565b9695505050505050565b6040516001600160a01b03808516602483015283166044820152606481018290526119ed9085906323b872dd60e01b9060840161200d565b6001600160a01b0382166122485760405162461bcd60e51b815260206004820152601f60248201527f45524332303a206d696e7420746f20746865207a65726f2061646472657373006044820152606401610a75565b806002600082825461225a91906128cc565b90915550506001600160a01b038216600081815260208181526040808320805486019055518481527fddf252ad1be2c89b69c2b068fc378daa952ba7f163c4a11628f55a4df523b3ef910160405180910390a35050565b6001600160a01b0382166123115760405162461bcd60e51b815260206004820152602160248201527f45524332303a206275726e2066726f6d20746865207a65726f206164647265736044820152607360f81b6064820152608401610a75565b6001600160a01b038216600090815260208190526040902054818110156123855760405162461bcd60e51b815260206004820152602260248201527f45524332303a206275726e20616d6f756e7420657863656564732062616c616e604482015261636560f01b6064820152608401610a75565b6001600160a01b0383166000818152602081815260408083208686039055600280548790039055518581529192917fddf252ad1be2c89b69c2b068fc378daa952ba7f163c4a11628f55a4df523b3ef910160405180910390a3505050565b6000610b258284612901565b80516a636f6e736f6c652e6c6f67602083016000808483855afa5050505050565b6000612465826040518060400160405280602081526020017f5361666545524332303a206c6f772d6c6576656c2063616c6c206661696c6564815250856001600160a01b03166125919092919063ffffffff16565b805190915015612044578080602001905181019061248391906128df565b6120445760405162461bcd60e51b815260206004820152602a60248201527f5361666545524332303a204552433230206f7065726174696f6e20646964206e6044820152691bdd081cdd58d8d9595960b21b6064820152608401610a75565b600080806000198587098587029250828110838203039150508060000361251c5783828161251257612512612947565b0492505050610b25565b80841161252857600080fd5b60008486880960026001871981018816978890046003810283188082028403028082028403028082028403028082028403028082028403029081029092039091026000889003889004909101858311909403939093029303949094049190911702949350505050565b6060611101848460008585600080866001600160a01b031685876040516125b8919061295d565b60006040518083038185875af1925050503d80600081146125f5576040519150601f19603f3d011682016040523d82523d6000602084013e6125fa565b606091505b509150915061260b87838387612616565b979650505050505050565b6060831561268557825160000361267e576001600160a01b0385163b61267e5760405162461bcd60e51b815260206004820152601d60248201527f416464726573733a2063616c6c20746f206e6f6e2d636f6e74726163740000006044820152606401610a75565b5081611101565b611101838381511561269a5781518083602001fd5b8060405162461bcd60e51b8152600401610a7591906126d8565b60005b838110156126cf5781810151838201526020016126b7565b50506000910152565b60208152600082518060208401526126f78160408501602087016126b4565b601f01601f19169190910160400192915050565b60006020828403121561271d57600080fd5b5035919050565b6001600160a01b038116811461176657600080fd5b6000806040838503121561274c57600080fd5b823561275781612724565b946020939093013593505050565b60006020828403121561277757600080fd5b8135610b2581612724565b60008060006060848603121561279757600080fd5b83356127a281612724565b925060208401356127b281612724565b929592945050506040919091013590565b600080604083850312156127d657600080fd5b8235915060208301356127e881612724565b809150509250929050565b60008060006060848603121561280857600080fd5b83359250602084013561281a81612724565b9150604084013561282a81612724565b809150509250925092565b6000806040838503121561284857600080fd5b823561285381612724565b915060208301356127e881612724565b60006020828403121561287557600080fd5b5051919050565b600181811c9082168061289057607f821691505b6020821081036128b057634e487b7160e01b600052602260045260246000fd5b50919050565b634e487b7160e01b600052601160045260246000fd5b808201808211156109b1576109b16128b6565b6000602082840312156128f157600080fd5b81518015158114610b2557600080fd5b818103818111156109b1576109b16128b6565b60006020828403121561292657600080fd5b8151610b2581612724565b634e487b7160e01b600052602160045260246000fd5b634e487b7160e01b600052601260045260246000fd5b6000825161296f8184602087016126b4565b919091019291505056fea2646970667358221220d961cb46412d78415d6816c9869d978192ec663c53578933801b7230e1ca48c164736f6c63430008110033",
    "linkReferences": {}
  },
  "methodIdentifiers": {
    "allowance(address,address)": "dd62ed3e",
    "approvalDelay()": "e2d1e75c",
    "approve(address,uint256)": "095ea7b3",
    "asset()": "38d52e0f",
    "balanceOf(address)": "70a08231",
    "convertToAssets(uint256)": "07a2d13a",
    "convertToShares(uint256)": "c6e6f592",
    "decimals()": "313ce567",
    "decreaseAllowance(address,uint256)": "a457c2d7",
    "deposit(uint256,address)": "6e553f65",
    "getStratProposal()": "29659788",
    "inCaseTokensGetStuck(address)": "def68a9c",
    "increaseAllowance(address,uint256)": "39509351",
    "init(address)": "19ab453c",
    "maxDeposit(address)": "402d267d",
    "maxMint(address)": "c63d75b6",
    "maxRedeem(address)": "d905777e",
    "maxWithdraw(address)": "ce96cb77",
    "mint(uint256,address)": "94bf804d",
    "name()": "06fdde03",
    "owner()": "8da5cb5b",
    "previewDeposit(uint256)": "ef8b30f7",
    "previewMint(uint256)": "b3d7f6b9",
    "previewRedeem(uint256)": "4cdad506",
    "previewWithdraw(uint256)": "0a28a477",
    "proposeStrat(address)": "5b12ff9b",
    "redeem(uint256,address,address)": "ba087652",
    "renounceOwnership()": "715018a6",
    "setTotalTvlCap(uint256)": "51b0fc1c",
    "setUserTvlCap(address,uint256)": "b85d9c25",
    "stratCandidate()": "76dfabb8",
    "strategy()": "a8c62e76",
    "symbol()": "95d89b41",
    "totalAssets()": "01e1d114",
    "totalSupply()": "18160ddd",
    "totalTvlCap()": "40bd2f32",
    "transfer(address,uint256)": "a9059cbb",
    "transferFrom(address,address,uint256)": "23b872dd",
    "transferOwnership(address)": "f2fde38b",
    "upgradeStrat()": "e6685244",
    "userTvlCap(address)": "d4289279",
    "withdraw(uint256,address,address)": "b460af94"
  },
  "id": 57
}