{
  "abi": [
    {
      "inputs": [
        {
          "internalType": "address",
          "name": "_chef",
          "type": "address"
        },
        {
          "internalType": "address",
          "name": "_router",
          "type": "address"
        },
        {
          "internalType": "address",
          "name": "_pancakeFactory",
          "type": "address"
        }
      ],
      "stateMutability": "nonpayable",
      "type": "constructor"
    },
    {
      "anonymous": false,
      "inputs": [
        {
          "indexed": true,
          "internalType": "address",
          "name": "user",
          "type": "address"
        },
        {
          "indexed": true,
          "internalType": "address",
          "name": "lpPool",
          "type": "address"
        },
        {
          "indexed": true,
          "internalType": "uint256",
          "name": "poolId",
          "type": "uint256"
        },
        {
          "indexed": false,
          "internalType": "address",
          "name": "vault",
          "type": "address"
        }
      ],
      "name": "VaultCreated",
      "type": "event"
    },
    {
      "inputs": [
        {
          "internalType": "uint256",
          "name": "",
          "type": "uint256"
        }
      ],
      "name": "allVaults",
      "outputs": [
        {
          "internalType": "address",
          "name": "",
          "type": "address"
        }
      ],
      "stateMutability": "view",
      "type": "function"
    },
    {
      "inputs": [
        {
          "components": [
            {
              "internalType": "uint256",
              "name": "poolId",
              "type": "uint256"
            },
            {
              "internalType": "uint256",
              "name": "approvalDelay",
              "type": "uint256"
            },
            {
              "internalType": "address[]",
              "name": "rewardToLp0Route",
              "type": "address[]"
            },
            {
              "internalType": "address[]",
              "name": "rewardToLp1Route",
              "type": "address[]"
            },
            {
              "internalType": "string",
              "name": "tokenName",
              "type": "string"
            },
            {
              "internalType": "string",
              "name": "tokenSymbol",
              "type": "string"
            },
            {
              "internalType": "string",
              "name": "pendingRewardsFunctionName",
              "type": "string"
            }
          ],
          "internalType": "struct CreateVaultParams",
          "name": "createVaultParams",
          "type": "tuple"
        }
      ],
      "name": "createVault",
      "outputs": [
        {
          "internalType": "address",
          "name": "vaultAddress",
          "type": "address"
        }
      ],
      "stateMutability": "nonpayable",
      "type": "function"
    },
    {
      "inputs": [],
      "name": "listAllVaults",
      "outputs": [
        {
          "internalType": "address[]",
          "name": "",
          "type": "address[]"
        }
      ],
      "stateMutability": "view",
      "type": "function"
    }
  ],
  "bytecode": {
    "object": "0x608060405234801561001057600080fd5b50604051615e77380380615e7783398101604081905261002f9161009a565b600180546001600160a01b039485166001600160a01b031991821617909155600280549385169382169390931790925560038054919093169082161790915560048054909116331790556100dd565b80516001600160a01b038116811461009557600080fd5b919050565b6000806000606084860312156100af57600080fd5b6100b88461007e565b92506100c66020850161007e565b91506100d46040850161007e565b90509250925092565b615d8b806100ec6000396000f3fe60806040523480156200001157600080fd5b5060043610620000465760003560e01c806336493348146200004b57806366a9a1bb146200007f5780639094a91e1462000098575b600080fd5b620000626200005c36600462000850565b620000af565b6040516001600160a01b0390911681526020015b60405180910390f35b620000896200060b565b60405162000076919062000975565b62000062620000a9366004620009c4565b6200066f565b604081015180516000918291620000c990600190620009de565b81518110620000dc57620000dc62000a06565b60200260200101519050600083606001516001856060015151620001019190620009de565b8151811062000114576200011462000a06565b602090810291909101015160035460405163e6a4390560e01b81526001600160a01b03858116600483015280841660248301529293506000929091169063e6a4390590604401602060405180830381865afa15801562000178573d6000803e3d6000fd5b505050506040513d601f19601f820116820180604052508101906200019e919062000a1c565b90508460000151600160009054906101000a90046001600160a01b03166001600160a01b031663081e3eda6040518163ffffffff1660e01b8152600401602060405180830381865afa158015620001f9573d6000803e3d6000fd5b505050506040513d601f19601f820116820180604052508101906200021f919062000a43565b1015620002655760405162461bcd60e51b815260206004820152600f60248201526e1253959053125117d413d3d317d251608a1b60448201526064015b60405180910390fd5b6001600160a01b038316620002b65760405162461bcd60e51b81526020600482015260166024820152754c505f544f4b454e305f5a45524f5f4144445245535360501b60448201526064016200025c565b600085608001518660a001518760200151604051620002d5906200069a565b620002e39392919062000aa5565b604051809103906000f08015801562000300573d6000803e3d6000fd5b506040805160a0810182526001600160a01b03808616825289516020808401919091526001548216838501528a8401516060808501919091528b015160808401528351808501855282861681526002549092169082015291519297508793506000929091906200037090620006a8565b6200037d92919062000b25565b604051809103906000f0801580156200039a573d6000803e3d6000fd5b5060405163f2fde38b60e01b81523360048201529091506001600160a01b0383169063f2fde38b90602401600060405180830381600087803b158015620003e057600080fd5b505af1158015620003f5573d6000803e3d6000fd5b505060405163f2fde38b60e01b81523360048201526001600160a01b038416925063f2fde38b9150602401600060405180830381600087803b1580156200043b57600080fd5b505af115801562000450573d6000803e3d6000fd5b50505060c0880151604051630b3cf22760e31b81526001600160a01b03841692506359e7913891620004859160040162000bad565b600060405180830381600087803b158015620004a057600080fd5b505af1158015620004b5573d6000803e3d6000fd5b50506004805460405163d0ebdbe760e01b81526001600160a01b03918216928101929092528416925063d0ebdbe79150602401600060405180830381600087803b1580156200050357600080fd5b505af115801562000518573d6000803e3d6000fd5b505060405163066ad14f60e21b81526001600160a01b038481166004830152851692506319ab453c9150602401600060405180830381600087803b1580156200056057600080fd5b505af115801562000575573d6000803e3d6000fd5b5050600080546001810182559080527f290decd9548b62a8d60345a988386fc84ba6bc95484008f6362f93160ef3e5630180546001600160a01b0319166001600160a01b038a81169182179092558a516040519182529350908616915033907f2ee88224508044af2e7272f772a4a850565fddd70e3a06387cf477f0899df4ca9060200160405180910390a45050505050919050565b606060008054806020026020016040519081016040528092919081815260200182805480156200066557602002820191906000526020600020905b81546001600160a01b0316815260019091019060200180831162000646575b5050505050905090565b600081815481106200068057600080fd5b6000918252602090912001546001600160a01b0316905081565b61227d8062000bc383390190565b612f168062002e4083390190565b634e487b7160e01b600052604160045260246000fd5b60405160e0810167ffffffffffffffff81118282101715620006f257620006f2620006b6565b60405290565b604051601f8201601f1916810167ffffffffffffffff81118282101715620007245762000724620006b6565b604052919050565b6001600160a01b03811681146200074257600080fd5b50565b600082601f8301126200075757600080fd5b8135602067ffffffffffffffff821115620007765762000776620006b6565b8160051b62000787828201620006f8565b9283528481018201928281019087851115620007a257600080fd5b83870192505b84831015620007ce578235620007be816200072c565b82529183019190830190620007a8565b979650505050505050565b600082601f830112620007eb57600080fd5b813567ffffffffffffffff811115620008085762000808620006b6565b6200081d601f8201601f1916602001620006f8565b8181528460208386010111156200083357600080fd5b816020850160208301376000918101602001919091529392505050565b6000602082840312156200086357600080fd5b813567ffffffffffffffff808211156200087c57600080fd5b9083019060e082860312156200089157600080fd5b6200089b620006cc565b8235815260208301356020820152604083013582811115620008bc57600080fd5b620008ca8782860162000745565b604083015250606083013582811115620008e357600080fd5b620008f18782860162000745565b6060830152506080830135828111156200090a57600080fd5b6200091887828601620007d9565b60808301525060a0830135828111156200093157600080fd5b6200093f87828601620007d9565b60a08301525060c0830135828111156200095857600080fd5b6200096687828601620007d9565b60c08301525095945050505050565b6020808252825182820181905260009190848201906040850190845b81811015620009b85783516001600160a01b03168352928401929184019160010162000991565b50909695505050505050565b600060208284031215620009d757600080fd5b5035919050565b8181038181111562000a0057634e487b7160e01b600052601160045260246000fd5b92915050565b634e487b7160e01b600052603260045260246000fd5b60006020828403121562000a2f57600080fd5b815162000a3c816200072c565b9392505050565b60006020828403121562000a5657600080fd5b5051919050565b6000815180845260005b8181101562000a855760208185018101518683018201520162000a67565b506000602082860101526020601f19601f83011685010191505092915050565b60608152600062000aba606083018662000a5d565b828103602084015262000ace818662000a5d565b915050826040830152949350505050565b600081518084526020808501945080840160005b8381101562000b1a5781516001600160a01b03168752958201959082019060010162000af3565b509495945050505050565b60608152600060018060a01b03808551166060840152602085015160808401528060408601511660a0840152606085015160a060c085015262000b6d61010085018262000adf565b90506080860151605f198583030160e086015262000b8c828262000adf565b93505050808451166020840152806020850151166040840152509392505050565b60208152600062000a3c602083018462000a5d56fe60a06040523480156200001157600080fd5b506040516200227d3803806200227d83398101604081905262000034916200019c565b828260036200004483826200029e565b5060046200005382826200029e565b505050620000706200006a6200008160201b60201c565b62000085565b6001600655608052506200036a9050565b3390565b600580546001600160a01b038381166001600160a01b0319831681179093556040519116919082907f8be0079c531659141344cd1fd0a4f28419497f9722a3daafe3b4186f6b6457e090600090a35050565b634e487b7160e01b600052604160045260246000fd5b600082601f830112620000ff57600080fd5b81516001600160401b03808211156200011c576200011c620000d7565b604051601f8301601f19908116603f01168101908282118183101715620001475762000147620000d7565b816040528381526020925086838588010111156200016457600080fd5b600091505b8382101562000188578582018301518183018401529082019062000169565b600093810190920192909252949350505050565b600080600060608486031215620001b257600080fd5b83516001600160401b0380821115620001ca57600080fd5b620001d887838801620000ed565b94506020860151915080821115620001ef57600080fd5b50620001fe86828701620000ed565b925050604084015190509250925092565b600181811c908216806200022457607f821691505b6020821081036200024557634e487b7160e01b600052602260045260246000fd5b50919050565b601f8211156200029957600081815260208120601f850160051c81016020861015620002745750805b601f850160051c820191505b81811015620002955782815560010162000280565b5050505b505050565b81516001600160401b03811115620002ba57620002ba620000d7565b620002d281620002cb84546200020f565b846200024b565b602080601f8311600181146200030a5760008415620002f15750858301515b600019600386901b1c1916600185901b17855562000295565b600085815260208120601f198616915b828110156200033b578886015182559484019460019091019084016200031a565b50858210156200035a5787850151600019600388901b60f8161c191681555b5050505050600190811b01905550565b608051611ef06200038d6000396000818161043b01526111460152611ef06000f3fe608060405234801561001057600080fd5b50600436106101e55760003560e01c806377c7b8fc1161010f578063b6b55f25116100a2578063def68a9c11610071578063def68a9c14610423578063e2d1e75c14610436578063e66852441461045d578063f2fde38b1461046557600080fd5b8063b6b55f25146103ed578063d389800f14610400578063dd62ed3e14610408578063de5f62681461041b57600080fd5b8063a457c2d7116100de578063a457c2d7146103ac578063a8c62e76146103bf578063a9059cbb146103d2578063b69ef8a8146103e557600080fd5b806377c7b8fc14610383578063853828b61461038b5780638da5cb5b1461039357806395d89b41146103a457600080fd5b8063313ce567116101875780635b12ff9b116101565780635b12ff9b1461030957806370a082311461031c578063715018a61461034557806376dfabb81461034d57600080fd5b8063313ce567146102bf57806339509351146102ce5780633a4b66f1146102e157806348a0d7541461030157600080fd5b806319ab453c116101c357806319ab453c1461023d57806323b872dd1461025257806329659788146102655780632e1a7d4d146102ac57600080fd5b806306fdde03146101ea578063095ea7b31461020857806318160ddd1461022b575b600080fd5b6101f2610478565b6040516101ff9190611c73565b60405180910390f35b61021b610216366004611cbb565b61050a565b60405190151581526020016101ff565b6002545b6040519081526020016101ff565b61025061024b366004611ce7565b610524565b005b61021b610260366004611d04565b61064e565b6040805180820182526000808252602091820152815180830183526008546001600160a01b03168082526009549183019182528351908152905191810191909152016101ff565b6102506102ba366004611d45565b610672565b604051601281526020016101ff565b61021b6102dc366004611cbb565b6108a9565b6102e96108cb565b6040516001600160a01b0390911681526020016101ff565b61022f61093e565b610250610317366004611ce7565b6109b2565b61022f61032a366004611ce7565b6001600160a01b031660009081526020819052604090205490565b610250610b95565b600854600954610364916001600160a01b03169082565b604080516001600160a01b0390931683526020830191909152016101ff565b61022f610ba9565b610250610be6565b6005546001600160a01b03166102e9565b6101f2610bff565b61021b6103ba366004611cbb565b610c0e565b600a546102e9906001600160a01b031681565b61021b6103e0366004611cbb565b610c89565b61022f610c97565b6102506103fb366004611d45565b610d8b565b610250610edb565b61022f610416366004611d5e565b610f74565b610250610f9f565b610250610431366004611ce7565b611014565b61022f7f000000000000000000000000000000000000000000000000000000000000000081565b6102506110ee565b610250610473366004611ce7565b61126f565b60606003805461048790611d97565b80601f01602080910402602001604051908101604052809291908181526020018280546104b390611d97565b80156105005780601f106104d557610100808354040283529160200191610500565b820191906000526020600020905b8154815290600101906020018083116104e357829003601f168201915b5050505050905090565b6000336105188185856112e5565b60019150505b92915050565b600754610100900460ff16158080156105445750600754600160ff909116105b8061055e5750303b15801561055e575060075460ff166001145b6105c65760405162461bcd60e51b815260206004820152602e60248201527f496e697469616c697a61626c653a20636f6e747261637420697320616c72656160448201526d191e481a5b9a5d1a585b1a5e995960921b60648201526084015b60405180910390fd5b6007805460ff1916600117905580156105e9576007805461ff0019166101001790555b600a80546001600160a01b0319166001600160a01b038416179055801561064a576007805461ff0019169055604051600181527f7f26b83ff96e1f2b6a682f133852f6798a09c465da95921460cefb38474024989060200160405180910390a15b5050565b60003361065c85828561140a565b610667858585611484565b506001949350505050565b61067a611628565b610682611682565b60006106a861069060025490565b6106a28461069c610c97565b906116db565b906116ee565b90506106b433836116fa565b60006106be6108cb565b6040516370a0823160e01b81523060048201526001600160a01b0391909116906370a0823190602401602060405180830381865afa158015610704573d6000803e3d6000fd5b505050506040513d601f19601f820116820180604052508101906107289190611dd1565b90508181101561083a57600061073e8383611829565b600a54604051632e1a7d4d60e01b8152600481018390529192506001600160a01b031690632e1a7d4d90602401600060405180830381600087803b15801561078557600080fd5b505af1158015610799573d6000803e3d6000fd5b5050505060006107a76108cb565b6040516370a0823160e01b81523060048201526001600160a01b0391909116906370a0823190602401602060405180830381865afa1580156107ed573d6000803e3d6000fd5b505050506040513d601f19601f820116820180604052508101906108119190611dd1565b9050600061081f8285611829565b905082811015610836576108338482611835565b94505b5050505b61085733836108476108cb565b6001600160a01b03169190611841565b337ff279e6a1f5e320cca91135676d9cb6e44ca8a08c0b88342bcdb1144f6511b56883610882610c97565b6040805192835260208301919091520160405180910390a250506108a66001600655565b50565b6000336105188185856108bc8383610f74565b6108c69190611e00565b6112e5565b600a5460408051633a4b66f160e01b815290516000926001600160a01b031691633a4b66f19160048083019260209291908290030181865afa158015610915573d6000803e3d6000fd5b505050506040513d601f19601f820116820180604052508101906109399190611e13565b905090565b60006109486108cb565b6040516370a0823160e01b81523060048201526001600160a01b0391909116906370a0823190602401602060405180830381865afa15801561098e573d6000803e3d6000fd5b505050506040513d601f19601f820116820180604052508101906109399190611dd1565b6005546001600160a01b0316331480610a3e5750600a546040805163481c6a7560e01b8152905133926001600160a01b03169163481c6a759160048083019260209291908290030181865afa158015610a0f573d6000803e3d6000fd5b505050506040513d601f19601f82011682018060405250810190610a339190611e13565b6001600160a01b0316145b610a805760405162461bcd60e51b815260206004820152601360248201527221286f776e6572207c7c206d616e616765722960681b60448201526064016105bd565b806001600160a01b031663fbfa77cf6040518163ffffffff1660e01b8152600401602060405180830381865afa158015610abe573d6000803e3d6000fd5b505050506040513d601f19601f82011682018060405250810190610ae29190611e13565b6001600160a01b0316306001600160a01b031614610b2e5760405162461bcd60e51b8152602060048201526009602482015268085c1c9bdc1bdcd85b60ba1b60448201526064016105bd565b6040805180820182526001600160a01b038316808252426020928301819052600880546001600160a01b0319168317905560095591519182527f1aae2ec5647db56da2d513de40528ba3565c6057525637050660c4323bbac7df910160405180910390a150565b610b9d611628565b610ba760006118a4565b565b6000610bb460025490565b15610bd957610939610bc560025490565b6106a2670de0b6b3a764000061069c610c97565b50670de0b6b3a764000090565b33600090815260208190526040902054610ba790610672565b60606004805461048790611d97565b60003381610c1c8286610f74565b905083811015610c7c5760405162461bcd60e51b815260206004820152602560248201527f45524332303a2064656372656173656420616c6c6f77616e63652062656c6f77604482015264207a65726f60d81b60648201526084016105bd565b61066782868684036112e5565b600033610518818585611484565b6000610939600a60009054906101000a90046001600160a01b03166001600160a01b031663722713f76040518163ffffffff1660e01b8152600401602060405180830381865afa158015610cef573d6000803e3d6000fd5b505050506040513d601f19601f82011682018060405250810190610d139190611dd1565b610d1b6108cb565b6040516370a0823160e01b81523060048201526001600160a01b0391909116906370a0823190602401602060405180830381865afa158015610d61573d6000803e3d6000fd5b505050506040513d601f19601f82011682018060405250810190610d859190611dd1565b90611835565b610d93611682565b610d9b611628565b600a60009054906101000a90046001600160a01b03166001600160a01b031663573fef0a6040518163ffffffff1660e01b8152600401600060405180830381600087803b158015610deb57600080fd5b505af1158015610dff573d6000803e3d6000fd5b505050506000610e0d610c97565b9050610e2e333084610e1d6108cb565b6001600160a01b03169291906118f6565b610e36610edb565b6000610e40610c97565b9050610e4c8183611829565b92506000610e5960025490565b600003610e67575082610e81565b610e7e836106a2610e7760025490565b87906116db565b90505b610e8b338261192e565b337f90890809c654f11d6e72a28fa60149770a0d11ec6c92319d6ceb2bb0a4ea1a1585610eb6610c97565b6040805192835260208301919091520160405180910390a25050506108a66001600655565b610ee3611628565b6000610eed61093e565b600a54909150610f09906001600160a01b0316826108476108cb565b600a60009054906101000a90046001600160a01b03166001600160a01b031663d0e30db06040518163ffffffff1660e01b8152600401600060405180830381600087803b158015610f5957600080fd5b505af1158015610f6d573d6000803e3d6000fd5b5050505050565b6001600160a01b03918216600090815260016020908152604080832093909416825291909152205490565b610ba7610faa6108cb565b6040516370a0823160e01b81523360048201526001600160a01b0391909116906370a0823190602401602060405180830381865afa158015610ff0573d6000803e3d6000fd5b505050506040513d601f19601f820116820180604052508101906103fb9190611dd1565b61101c611628565b6110246108cb565b6001600160a01b0316816001600160a01b03160361106d5760405162461bcd60e51b815260206004820152600660248201526510ba37b5b2b760d11b60448201526064016105bd565b6040516370a0823160e01b81523060048201526000906001600160a01b038316906370a0823190602401602060405180830381865afa1580156110b4573d6000803e3d6000fd5b505050506040513d601f19601f820116820180604052508101906110d89190611dd1565b905061064a6001600160a01b0383163383611841565b6110f6611628565b6008546001600160a01b031661113b5760405162461bcd60e51b815260206004820152600a6024820152692163616e64696461746560b01b60448201526064016105bd565b600954429061116a907f0000000000000000000000000000000000000000000000000000000000000000611835565b106111a05760405162461bcd60e51b81526020600482015260066024820152652164656c617960d01b60448201526064016105bd565b6008546040516001600160a01b0390911681527f7f37d440e85aba7fbf641c4bda5ca4ef669a80bffaacde2aa8d9feb1b048c82c9060200160405180910390a1600a8054600880546001600160a01b03198084166001600160a01b038381169190911790955516905564012a05f2006009556040805163fb61778760e01b815290519290911691829163fb61778791600480830192600092919082900301818387803b15801561124f57600080fd5b505af1158015611263573d6000803e3d6000fd5b505050506108a6610edb565b611277611628565b6001600160a01b0381166112dc5760405162461bcd60e51b815260206004820152602660248201527f4f776e61626c653a206e6577206f776e657220697320746865207a65726f206160448201526564647265737360d01b60648201526084016105bd565b6108a6816118a4565b6001600160a01b0383166113475760405162461bcd60e51b8152602060048201526024808201527f45524332303a20617070726f76652066726f6d20746865207a65726f206164646044820152637265737360e01b60648201526084016105bd565b6001600160a01b0382166113a85760405162461bcd60e51b815260206004820152602260248201527f45524332303a20617070726f766520746f20746865207a65726f206164647265604482015261737360f01b60648201526084016105bd565b6001600160a01b0383811660008181526001602090815260408083209487168084529482529182902085905590518481527f8c5be1e5ebec7d5bd14f71427d1e84f3dd0314c0f7b2291e5b200ac8c7c3b92591015b60405180910390a3505050565b60006114168484610f74565b9050600019811461147e57818110156114715760405162461bcd60e51b815260206004820152601d60248201527f45524332303a20696e73756666696369656e7420616c6c6f77616e636500000060448201526064016105bd565b61147e84848484036112e5565b50505050565b6001600160a01b0383166114e85760405162461bcd60e51b815260206004820152602560248201527f45524332303a207472616e736665722066726f6d20746865207a65726f206164604482015264647265737360d81b60648201526084016105bd565b6001600160a01b03821661154a5760405162461bcd60e51b815260206004820152602360248201527f45524332303a207472616e7366657220746f20746865207a65726f206164647260448201526265737360e81b60648201526084016105bd565b6001600160a01b038316600090815260208190526040902054818110156115c25760405162461bcd60e51b815260206004820152602660248201527f45524332303a207472616e7366657220616d6f756e7420657863656564732062604482015265616c616e636560d01b60648201526084016105bd565b6001600160a01b03848116600081815260208181526040808320878703905593871680835291849020805487019055925185815290927fddf252ad1be2c89b69c2b068fc378daa952ba7f163c4a11628f55a4df523b3ef910160405180910390a361147e565b6005546001600160a01b03163314610ba75760405162461bcd60e51b815260206004820181905260248201527f4f776e61626c653a2063616c6c6572206973206e6f7420746865206f776e657260448201526064016105bd565b6002600654036116d45760405162461bcd60e51b815260206004820152601f60248201527f5265656e7472616e637947756172643a207265656e7472616e742063616c6c0060448201526064016105bd565b6002600655565b60006116e78284611e30565b9392505050565b60006116e78284611e47565b6001600160a01b03821661175a5760405162461bcd60e51b815260206004820152602160248201527f45524332303a206275726e2066726f6d20746865207a65726f206164647265736044820152607360f81b60648201526084016105bd565b6001600160a01b038216600090815260208190526040902054818110156117ce5760405162461bcd60e51b815260206004820152602260248201527f45524332303a206275726e20616d6f756e7420657863656564732062616c616e604482015261636560f01b60648201526084016105bd565b6001600160a01b0383166000818152602081815260408083208686039055600280548790039055518581529192917fddf252ad1be2c89b69c2b068fc378daa952ba7f163c4a11628f55a4df523b3ef91016113fd565b505050565b60006116e78284611e69565b60006116e78284611e00565b6040516001600160a01b03831660248201526044810182905261182490849063a9059cbb60e01b906064015b60408051601f198184030181529190526020810180516001600160e01b03166001600160e01b0319909316929092179091526119ed565b600580546001600160a01b038381166001600160a01b0319831681179093556040519116919082907f8be0079c531659141344cd1fd0a4f28419497f9722a3daafe3b4186f6b6457e090600090a35050565b6040516001600160a01b038085166024830152831660448201526064810182905261147e9085906323b872dd60e01b9060840161186d565b6001600160a01b0382166119845760405162461bcd60e51b815260206004820152601f60248201527f45524332303a206d696e7420746f20746865207a65726f20616464726573730060448201526064016105bd565b80600260008282546119969190611e00565b90915550506001600160a01b038216600081815260208181526040808320805486019055518481527fddf252ad1be2c89b69c2b068fc378daa952ba7f163c4a11628f55a4df523b3ef910160405180910390a35050565b6000611a42826040518060400160405280602081526020017f5361666545524332303a206c6f772d6c6576656c2063616c6c206661696c6564815250856001600160a01b0316611abf9092919063ffffffff16565b8051909150156118245780806020019051810190611a609190611e7c565b6118245760405162461bcd60e51b815260206004820152602a60248201527f5361666545524332303a204552433230206f7065726174696f6e20646964206e6044820152691bdd081cdd58d8d9595960b21b60648201526084016105bd565b6060611ace8484600085611ad6565b949350505050565b606082471015611b375760405162461bcd60e51b815260206004820152602660248201527f416464726573733a20696e73756666696369656e742062616c616e636520666f6044820152651c8818d85b1b60d21b60648201526084016105bd565b600080866001600160a01b03168587604051611b539190611e9e565b60006040518083038185875af1925050503d8060008114611b90576040519150601f19603f3d011682016040523d82523d6000602084013e611b95565b606091505b5091509150611ba687838387611bb1565b979650505050505050565b60608315611c20578251600003611c19576001600160a01b0385163b611c195760405162461bcd60e51b815260206004820152601d60248201527f416464726573733a2063616c6c20746f206e6f6e2d636f6e747261637400000060448201526064016105bd565b5081611ace565b611ace8383815115611c355781518083602001fd5b8060405162461bcd60e51b81526004016105bd9190611c73565b60005b83811015611c6a578181015183820152602001611c52565b50506000910152565b6020815260008251806020840152611c92816040850160208701611c4f565b601f01601f19169190910160400192915050565b6001600160a01b03811681146108a657600080fd5b60008060408385031215611cce57600080fd5b8235611cd981611ca6565b946020939093013593505050565b600060208284031215611cf957600080fd5b81356116e781611ca6565b600080600060608486031215611d1957600080fd5b8335611d2481611ca6565b92506020840135611d3481611ca6565b929592945050506040919091013590565b600060208284031215611d5757600080fd5b5035919050565b60008060408385031215611d7157600080fd5b8235611d7c81611ca6565b91506020830135611d8c81611ca6565b809150509250929050565b600181811c90821680611dab57607f821691505b602082108103611dcb57634e487b7160e01b600052602260045260246000fd5b50919050565b600060208284031215611de357600080fd5b5051919050565b634e487b7160e01b600052601160045260246000fd5b8082018082111561051e5761051e611dea565b600060208284031215611e2557600080fd5b81516116e781611ca6565b808202811582820484141761051e5761051e611dea565b600082611e6457634e487b7160e01b600052601260045260246000fd5b500490565b8181038181111561051e5761051e611dea565b600060208284031215611e8e57600080fd5b815180151581146116e757600080fd5b60008251611eb0818460208701611c4f565b919091019291505056fea2646970667358221220c85bd2cb82997559196b63f712c7bd737141206dfef95ec959c2aab14ab91ec564736f6c6343000811003360806040523480156200001157600080fd5b5060405162002f1638038062002f16833981016040819052620000349162000b67565b80620000403362000452565b6000805460ff60a01b191681558151600180546001600160a01b03199081166001600160a01b039384161782556020948501516002805483169185169190911790556003805433908316179055600491909155855160068054831691841691909117905592850151600a5560408501516009805490941691161790915560608301516080840151815191929091839190620000df57620000df62000c48565b602090810291909101810151600580546001600160a01b0319166001600160a01b0392831617905560065460408051630dfe168160e01b815290519190921692630dfe168192600480820193918290030181865afa15801562000146573d6000803e3d6000fd5b505050506040513d601f19601f820116820180604052508101906200016c919062000c5e565b600780546001600160a01b0319166001600160a01b0392831617905560055483519116908390600090620001a457620001a462000c48565b60200260200101516001600160a01b031614620001fc5760405162461bcd60e51b815260206004820152601160248201527021726577617264546f4c7030526f75746560781b60448201526064015b60405180910390fd5b60075482516001600160a01b039091169083906200021d9060019062000c83565b8151811062000230576200023062000c48565b60200260200101516001600160a01b031614620002845760405162461bcd60e51b815260206004820152601160248201527021726577617264546f4c7030526f75746560781b6044820152606401620001f3565b81516200029990600d90602085019062000981565b50600660009054906101000a90046001600160a01b03166001600160a01b031663d21220a76040518163ffffffff1660e01b8152600401602060405180830381865afa158015620002ee573d6000803e3d6000fd5b505050506040513d601f19601f8201168201806040525081019062000314919062000c5e565b600880546001600160a01b0319166001600160a01b03928316179055600554825191169082906000906200034c576200034c62000c48565b60200260200101516001600160a01b031614620003a05760405162461bcd60e51b815260206004820152601160248201527021726577617264546f4c7031526f75746560781b6044820152606401620001f3565b60085481516001600160a01b03909116908290620003c19060019062000c83565b81518110620003d457620003d462000c48565b60200260200101516001600160a01b031614620004285760405162461bcd60e51b815260206004820152601160248201527021726577617264546f4c7031526f75746560781b6044820152606401620001f3565b80516200043d90600e90602084019062000981565b5062000448620004a2565b5050505062000d62565b600080546001600160a01b038381166001600160a01b0319831681178455604051919092169283917f8be0079c531659141344cd1fd0a4f28419497f9722a3daafe3b4186f6b6457e09190a35050565b600954600654620004cf916001600160a01b039182169116600019620005b0602090811b62000e4c17901c565b600254600554620004fc916001600160a01b039182169116600019620005b0602090811b62000e4c17901c565b60025460075462000528916001600160a01b0391821691166000620005b0602090811b62000e4c17901c565b60025460075462000555916001600160a01b039182169116600019620005b0602090811b62000e4c17901c565b60025460085462000581916001600160a01b0391821691166000620005b0602090811b62000e4c17901c565b600254600854620005ae916001600160a01b039182169116600019620005b0602090811b62000e4c17901c565b565b8015806200062e5750604051636eb1769f60e11b81523060048201526001600160a01b03838116602483015284169063dd62ed3e90604401602060405180830381865afa15801562000606573d6000803e3d6000fd5b505050506040513d601f19601f820116820180604052508101906200062c919062000cab565b155b620006a25760405162461bcd60e51b815260206004820152603660248201527f5361666545524332303a20617070726f76652066726f6d206e6f6e2d7a65726f60448201527f20746f206e6f6e2d7a65726f20616c6c6f77616e6365000000000000000000006064820152608401620001f3565b604080516001600160a01b038416602482015260448082018490528251808303909101815260649091019091526020810180516001600160e01b0390811663095ea7b360e01b17909152620006fa918591620006ff16565b505050565b60006200075b826040518060400160405280602081526020017f5361666545524332303a206c6f772d6c6576656c2063616c6c206661696c6564815250856001600160a01b0316620007dd60201b62000f94179092919060201c565b805190915015620006fa57808060200190518101906200077c919062000cc5565b620006fa5760405162461bcd60e51b815260206004820152602a60248201527f5361666545524332303a204552433230206f7065726174696f6e20646964206e6044820152691bdd081cdd58d8d9595960b21b6064820152608401620001f3565b6060620007ee8484600085620007f6565b949350505050565b606082471015620008595760405162461bcd60e51b815260206004820152602660248201527f416464726573733a20696e73756666696369656e742062616c616e636520666f6044820152651c8818d85b1b60d21b6064820152608401620001f3565b600080866001600160a01b0316858760405162000877919062000d0f565b60006040518083038185875af1925050503d8060008114620008b6576040519150601f19603f3d011682016040523d82523d6000602084013e620008bb565b606091505b509092509050620008cf87838387620008da565b979650505050505050565b606083156200094e57825160000362000946576001600160a01b0385163b620009465760405162461bcd60e51b815260206004820152601d60248201527f416464726573733a2063616c6c20746f206e6f6e2d636f6e74726163740000006044820152606401620001f3565b5081620007ee565b620007ee8383815115620009655781518083602001fd5b8060405162461bcd60e51b8152600401620001f3919062000d2d565b828054828255906000526020600020908101928215620009d9579160200282015b82811115620009d957825182546001600160a01b0319166001600160a01b03909116178255602090920191600190910190620009a2565b50620009e7929150620009eb565b5090565b5b80821115620009e75760008155600101620009ec565b634e487b7160e01b600052604160045260246000fd5b60405160a081016001600160401b038111828210171562000a3d5762000a3d62000a02565b60405290565b80516001600160a01b038116811462000a5b57600080fd5b919050565b600082601f83011262000a7257600080fd5b815160206001600160401b038083111562000a915762000a9162000a02565b8260051b604051601f19603f8301168101818110848211171562000ab95762000ab962000a02565b60405293845285810183019383810192508785111562000ad857600080fd5b83870191505b84821015620008cf5762000af28262000a43565b8352918301919083019062000ade565b60006040828403121562000b1557600080fd5b604080519081016001600160401b038111828210171562000b3a5762000b3a62000a02565b60405290508062000b4b8362000a43565b815262000b5b6020840162000a43565b60208201525092915050565b6000806060838503121562000b7b57600080fd5b82516001600160401b038082111562000b9357600080fd5b9084019060a0828703121562000ba857600080fd5b62000bb262000a18565b62000bbd8362000a43565b81526020830151602082015262000bd76040840162000a43565b604082015260608301518281111562000bef57600080fd5b62000bfd8882860162000a60565b60608301525060808301518281111562000c1657600080fd5b62000c248882860162000a60565b60808301525080945050505062000c3f846020850162000b02565b90509250929050565b634e487b7160e01b600052603260045260246000fd5b60006020828403121562000c7157600080fd5b62000c7c8262000a43565b9392505050565b8181038181111562000ca557634e487b7160e01b600052601160045260246000fd5b92915050565b60006020828403121562000cbe57600080fd5b5051919050565b60006020828403121562000cd857600080fd5b8151801515811462000c7c57600080fd5b60005b8381101562000d0657818101518382015260200162000cec565b50506000910152565b6000825162000d2381846020870162000ce9565b9190910192915050565b602081526000825180602084015262000d4e81604085016020870162000ce9565b601f01601f19169190910160400192915050565b6121a48062000d726000396000f3fe608060405234801561001057600080fd5b50600436106102325760003560e01c8063722713f711610130578063d0e30db0116100b8578063f1a392da1161007c578063f1a392da1461042c578063f2fde38b14610435578063f887ea4014610448578063fb6177871461045b578063fbfa77cf1461046357600080fd5b8063d0e30db0146103f9578063d0ebdbe714610401578063d801d94614610414578063e7a7250a1461041c578063ef21c9941461042457600080fd5b8063a11d3556116100ff578063a11d3556146103ae578063a839d5e6146103c3578063b3a9c91c146103d6578063be3fbd1c146103de578063c0d78655146103e657600080fd5b8063722713f71461037a5780638456cb5914610382578063877562b61461038a5780638da5cb5b1461039d57600080fd5b80634641257d116101be57806359e791381161018257806359e791381461031c5780635c975abb1461032f5780635ee167c01461034c5780636817031b1461035f578063715018a61461037257600080fd5b80634641257d146102e65780634700d305146102ee57806348162c79146102f6578063481c6a7514610309578063573fef0a146102c057600080fd5b8063286a876b11610205578063286a876b146102a55780632e1a7d4d146102ad5780633a4b66f1146102c25780633e0dc34e146102d55780633f4ba83a146102de57600080fd5b806311588086146102375780631fc8bc5d14610252578063228cb7331461027d578063277e5cfd14610290575b600080fd5b61023f610476565b6040519081526020015b60405180910390f35b600954610265906001600160a01b031681565b6040516001600160a01b039091168152602001610249565b600554610265906001600160a01b031681565b6102986104f8565b6040516102499190611c54565b61023f610586565b6102c06102bb366004611c87565b6105f8565b005b600654610265906001600160a01b031681565b61023f600a5481565b6102c06107dc565b6102c06107fe565b6102c0610806565b610265610304366004611c87565b61087f565b600354610265906001600160a01b031681565b6102c061032a366004611ca0565b6108a9565b600054600160a01b900460ff166040519015158152602001610249565b600754610265906001600160a01b031681565b6102c061036d366004611d12565b6108c3565b6102c0610920565b61023f610932565b6102c061094e565b600854610265906001600160a01b031681565b6000546001600160a01b0316610265565b6103b6610966565b6040516102499190611d3b565b6102656103d1366004611c87565b6109c8565b6102c06109d8565b6103b6610a20565b6102c06103f4366004611d12565b610a80565b6102c0610ad6565b6102c061040f366004611d12565b610ade565b6102c0610b34565b61023f610b3c565b6102c0610c93565b61023f600b5481565b6102c0610443366004611d12565b610cd8565b600254610265906001600160a01b031681565b6102c0610d4e565b600154610265906001600160a01b031681565b600954600a546040516393f1a40b60e01b8152600481019190915230602482015260009182916001600160a01b03909116906393f1a40b906044016040805180830381865afa1580156104cd573d6000803e3d6000fd5b505050506040513d601f19601f820116820180604052508101906104f19190611d88565b5092915050565b600c805461050590611dac565b80601f016020809104026020016040519081016040528092919081815260200182805461053190611dac565b801561057e5780601f106105535761010080835404028352916020019161057e565b820191906000526020600020905b81548152906001019060200180831161056157829003601f168201915b505050505081565b6006546040516370a0823160e01b81523060048201526000916001600160a01b0316906370a0823190602401602060405180830381865afa1580156105cf573d6000803e3d6000fd5b505050506040513d601f19601f820116820180604052508101906105f39190611de6565b905090565b610600610fab565b6106086109d8565b6006546040516370a0823160e01b81523060048201526000916001600160a01b0316906370a0823190602401602060405180830381865afa158015610651573d6000803e3d6000fd5b505050506040513d601f19601f820116820180604052508101906106759190611de6565b90508181101561076657600954600a546001600160a01b039091169063441a3e70906106a18486611e15565b6040516001600160e01b031960e085901b16815260048101929092526024820152604401600060405180830381600087803b1580156106df57600080fd5b505af11580156106f3573d6000803e3d6000fd5b50506006546040516370a0823160e01b81523060048201526001600160a01b0390911692506370a082319150602401602060405180830381865afa15801561073f573d6000803e3d6000fd5b505050506040513d601f19601f820116820180604052508101906107639190611de6565b90505b818111156107715750805b60015460065461078e916001600160a01b03918216911683611004565b7f56ca301a9219608c91e7bcee90e083c19671d2cdcc96752c7af291cee5f9c8c86107b7610932565b60408051918252602082018490520160405180910390a1506107d96001600455565b50565b6107e4610c93565b6107ec611034565b6107f4611089565b6107fc611141565b565b6107fc611280565b61080e610c93565b61081661094e565b600954600a54604051632989754760e11b81526001600160a01b0390921691635312ea8e9161084b9160040190815260200190565b600060405180830381600087803b15801561086557600080fd5b505af1158015610879573d6000803e3d6000fd5b50505050565b600d818154811061088f57600080fd5b6000918252602090912001546001600160a01b0316905081565b6108b1610c93565b600c6108be828483611e84565b505050565b6108cb610c93565b600180546001600160a01b0319166001600160a01b0383169081179091556040519081527fd459c7242e23d490831b5676a611c4342d899d28f342d89ae80793e56a930f30906020015b60405180910390a150565b6109286113cf565b6107fc6000611429565b600061093c610476565b610944610586565b6105f39190611f45565b610956610c93565b61095e611479565b6107fc6114bc565b6060600e8054806020026020016040519081016040528092919081815260200182805480156109be57602002820191906000526020600020905b81546001600160a01b031681526001909101906020018083116109a0575b5050505050905090565b600e818154811061088f57600080fd5b6001546001600160a01b031633146107fc5760405162461bcd60e51b8152602060048201526006602482015265085d985d5b1d60d21b60448201526064015b60405180910390fd5b6060600d8054806020026020016040519081016040528092919081815260200182805480156109be576020028201919060005260206000209081546001600160a01b031681526001909101906020018083116109a0575050505050905090565b610a88610c93565b600280546001600160a01b0319166001600160a01b0383169081179091556040519081527f6de4326a8b9054d72d9dbab97d27bc4edffadee7d966f5af9cc4eafdaf8e545590602001610915565b6107f46109d8565b610ae6610c93565b600380546001600160a01b0319166001600160a01b0383169081179091556040519081527f54a6385aa0292b04e1ef8513253c17d1863f7cdfc87029d77fd55cc4c2e717e290602001610915565b6107fe610c93565b600080610bfc600c8054610b4f90611dac565b80601f0160208091040260200160405190810160405280929190818152602001828054610b7b90611dac565b8015610bc85780601f10610b9d57610100808354040283529160200191610bc8565b820191906000526020600020905b815481529060010190602001808311610bab57829003601f168201915b5050505050604051806040016040528060118152602001702875696e743235362c616464726573732960781b815250611534565b600954600a546040516024810191909152306044820152919250600091610c76916001600160a01b031690849060640160408051601f198184030181529082905291610c4791611f58565b6040519081900390206020820180516001600160e01b03166001600160e01b0319909216919091179052611561565b905080806020019051810190610c8c9190611de6565b9250505090565b6003546001600160a01b031633146107fc5760405162461bcd60e51b815260206004820152600860248201526710b6b0b730b3b2b960c11b6044820152606401610a17565b610ce06113cf565b6001600160a01b038116610d455760405162461bcd60e51b815260206004820152602660248201527f4f776e61626c653a206e6577206f776e657220697320746865207a65726f206160448201526564647265737360d01b6064820152608401610a17565b6107d981611429565b610d566109d8565b600954600a54604051632989754760e11b81526001600160a01b0390921691635312ea8e91610d8b9160040190815260200190565b600060405180830381600087803b158015610da557600080fd5b505af1158015610db9573d6000803e3d6000fd5b50506006546040516370a0823160e01b8152306004820152600093506001600160a01b0390911691506370a0823190602401602060405180830381865afa158015610e08573d6000803e3d6000fd5b505050506040513d601f19601f82011682018060405250810190610e2c9190611de6565b6001546006549192506107d9916001600160a01b03908116911683611004565b801580610ec65750604051636eb1769f60e11b81523060048201526001600160a01b03838116602483015284169063dd62ed3e90604401602060405180830381865afa158015610ea0573d6000803e3d6000fd5b505050506040513d601f19601f82011682018060405250810190610ec49190611de6565b155b610f315760405162461bcd60e51b815260206004820152603660248201527f5361666545524332303a20617070726f76652066726f6d206e6f6e2d7a65726f60448201527520746f206e6f6e2d7a65726f20616c6c6f77616e636560501b6064820152608401610a17565b6040516001600160a01b0383166024820152604481018290526108be90849063095ea7b360e01b906064015b60408051601f198184030181529190526020810180516001600160e01b03166001600160e01b03199093169290921790915261158d565b6060610fa3848460008561165f565b949350505050565b600260045403610ffd5760405162461bcd60e51b815260206004820152601f60248201527f5265656e7472616e637947756172643a207265656e7472616e742063616c6c006044820152606401610a17565b6002600455565b6040516001600160a01b0383166024820152604481018290526108be90849063a9059cbb60e01b90606401610f5d565b61103c61173a565b6000805460ff60a01b191690557f5db9ee0a495bf2e6ff9c91a7834c1ba4fdd244a5e8aa4e537bd38aeae4b073aa335b6040516001600160a01b03909116815260200160405180910390a1565b6009546006546110a8916001600160a01b039182169116600019610e4c565b6002546005546110c7916001600160a01b039182169116600019610e4c565b6002546007546110e5916001600160a01b0391821691166000610e4c565b600254600754611104916001600160a01b039182169116600019610e4c565b600254600854611122916001600160a01b0391821691166000610e4c565b6002546008546107fc916001600160a01b039182169116600019610e4c565b61114961178a565b611151610fab565b6006546040516370a0823160e01b81523060048201526000916001600160a01b0316906370a0823190602401602060405180830381865afa15801561119a573d6000803e3d6000fd5b505050506040513d601f19601f820116820180604052508101906111be9190611de6565b9050801561127557600954600a54604051631c57762b60e31b81526001600160a01b039092169163e2bbb15891611202918590600401918252602082015260400190565b600060405180830381600087803b15801561121c57600080fd5b505af1158015611230573d6000803e3d6000fd5b505050507fa3af609bf46297028ce551832669030f9effef2b02606d02cbbcc40fe6b47c5561125d610932565b60408051918252602082018490520160405180910390a15b506107fc6001600455565b61128861178a565b600954600a54604051631c57762b60e31b81526004810191909152600060248201526001600160a01b039091169063e2bbb15890604401600060405180830381600087803b1580156112d957600080fd5b505af11580156112ed573d6000803e3d6000fd5b50506005546040516370a0823160e01b8152306004820152600093506001600160a01b0390911691506370a0823190602401602060405180830381865afa15801561133c573d6000803e3d6000fd5b505050506040513d601f19601f820116820180604052508101906113609190611de6565b905080156107d9576113706117d7565b600061137a610586565b9050611384611141565b42600b55337f9bc239f1724cacfb88cb1d66a2dc437467699b68a8c90d7b63110cf4b6f92410826113b3610932565b6040805192835260208301919091520160405180910390a25050565b6000546001600160a01b031633146107fc5760405162461bcd60e51b815260206004820181905260248201527f4f776e61626c653a2063616c6c6572206973206e6f7420746865206f776e65726044820152606401610a17565b600080546001600160a01b038381166001600160a01b0319831681178455604051919092169283917f8be0079c531659141344cd1fd0a4f28419497f9722a3daafe3b4186f6b6457e09190a35050565b61148161178a565b6000805460ff60a01b1916600160a01b1790557f62e78cea01bee320cd4e420270b5ea74000d11b0c9f74754ebdbfc544b05a25861106c3390565b6009546006546114da916001600160a01b0391821691166000610e4c565b6002546005546114f8916001600160a01b0391821691166000610e4c565b600254600754611516916001600160a01b0391821691166000610e4c565b6002546008546107fc916001600160a01b0391821691166000610e4c565b60608282604051602001611549929190611f74565b60405160208183030381529060405290505b92915050565b6060611586838360405180606001604052806025815260200161214a60259139611b1a565b9392505050565b60006115e2826040518060400160405280602081526020017f5361666545524332303a206c6f772d6c6576656c2063616c6c206661696c6564815250856001600160a01b0316610f949092919063ffffffff16565b8051909150156108be57808060200190518101906116009190611fa3565b6108be5760405162461bcd60e51b815260206004820152602a60248201527f5361666545524332303a204552433230206f7065726174696f6e20646964206e6044820152691bdd081cdd58d8d9595960b21b6064820152608401610a17565b6060824710156116c05760405162461bcd60e51b815260206004820152602660248201527f416464726573733a20696e73756666696369656e742062616c616e636520666f6044820152651c8818d85b1b60d21b6064820152608401610a17565b600080866001600160a01b031685876040516116dc9190611f58565b60006040518083038185875af1925050503d8060008114611719576040519150601f19603f3d011682016040523d82523d6000602084013e61171e565b606091505b509150915061172f87838387611b92565b979650505050505050565b600054600160a01b900460ff166107fc5760405162461bcd60e51b815260206004820152601460248201527314185d5cd8589b194e881b9bdd081c185d5cd95960621b6044820152606401610a17565b600054600160a01b900460ff16156107fc5760405162461bcd60e51b815260206004820152601060248201526f14185d5cd8589b194e881c185d5cd95960821b6044820152606401610a17565b6005546040516370a0823160e01b81523060048201526000916002916001600160a01b03909116906370a0823190602401602060405180830381865afa158015611825573d6000803e3d6000fd5b505050506040513d601f19601f820116820180604052508101906118499190611de6565b6118539190611fc5565b6005546007549192506001600160a01b039182169116146118f1576002546040516338ed173960e01b81526001600160a01b03909116906338ed1739906118a8908490600090600d9030904290600401611fe7565b6000604051808303816000875af11580156118c7573d6000803e3d6000fd5b505050506040513d6000823e601f3d908101601f191682016040526118ef919081019061205d565b505b6005546008546001600160a01b0390811691161461198c576002546040516338ed173960e01b81526001600160a01b03909116906338ed173990611943908490600090600e9030904290600401611fe7565b6000604051808303816000875af1158015611962573d6000803e3d6000fd5b505050506040513d6000823e601f3d908101601f1916820160405261198a919081019061205d565b505b6007546040516370a0823160e01b81523060048201526000916001600160a01b0316906370a0823190602401602060405180830381865afa1580156119d5573d6000803e3d6000fd5b505050506040513d601f19601f820116820180604052508101906119f99190611de6565b6008546040516370a0823160e01b81523060048201529192506000916001600160a01b03909116906370a0823190602401602060405180830381865afa158015611a47573d6000803e3d6000fd5b505050506040513d601f19601f82011682018060405250810190611a6b9190611de6565b60025460075460085460405162e8e33760e81b81526001600160a01b0392831660048201529082166024820152604481018690526064810184905260016084820181905260a48201523060c48201524260e4820152929350169063e8e3370090610104016060604051808303816000875af1158015611aee573d6000803e3d6000fd5b505050506040513d601f19601f82011682018060405250810190611b12919061211b565b505050505050565b6060600080856001600160a01b031685604051611b379190611f58565b600060405180830381855afa9150503d8060008114611b72576040519150601f19603f3d011682016040523d82523d6000602084013e611b77565b606091505b5091509150611b8886838387611b92565b9695505050505050565b60608315611c01578251600003611bfa576001600160a01b0385163b611bfa5760405162461bcd60e51b815260206004820152601d60248201527f416464726573733a2063616c6c20746f206e6f6e2d636f6e74726163740000006044820152606401610a17565b5081610fa3565b610fa38383815115611c165781518083602001fd5b8060405162461bcd60e51b8152600401610a179190611c54565b60005b83811015611c4b578181015183820152602001611c33565b50506000910152565b6020815260008251806020840152611c73816040850160208701611c30565b601f01601f19169190910160400192915050565b600060208284031215611c9957600080fd5b5035919050565b60008060208385031215611cb357600080fd5b823567ffffffffffffffff80821115611ccb57600080fd5b818501915085601f830112611cdf57600080fd5b813581811115611cee57600080fd5b866020828501011115611d0057600080fd5b60209290920196919550909350505050565b600060208284031215611d2457600080fd5b81356001600160a01b038116811461158657600080fd5b6020808252825182820181905260009190848201906040850190845b81811015611d7c5783516001600160a01b031683529284019291840191600101611d57565b50909695505050505050565b60008060408385031215611d9b57600080fd5b505080516020909101519092909150565b600181811c90821680611dc057607f821691505b602082108103611de057634e487b7160e01b600052602260045260246000fd5b50919050565b600060208284031215611df857600080fd5b5051919050565b634e487b7160e01b600052601160045260246000fd5b8181038181111561155b5761155b611dff565b634e487b7160e01b600052604160045260246000fd5b601f8211156108be57600081815260208120601f850160051c81016020861015611e655750805b601f850160051c820191505b81811015611b1257828155600101611e71565b67ffffffffffffffff831115611e9c57611e9c611e28565b611eb083611eaa8354611dac565b83611e3e565b6000601f841160018114611ee45760008515611ecc5750838201355b600019600387901b1c1916600186901b178355611f3e565b600083815260209020601f19861690835b82811015611f155786850135825560209485019460019092019101611ef5565b5086821015611f325760001960f88860031b161c19848701351681555b505060018560011b0183555b5050505050565b8082018082111561155b5761155b611dff565b60008251611f6a818460208701611c30565b9190910192915050565b60008351611f86818460208801611c30565b835190830190611f9a818360208801611c30565b01949350505050565b600060208284031215611fb557600080fd5b8151801515811461158657600080fd5b600082611fe257634e487b7160e01b600052601260045260246000fd5b500490565b600060a082018783526020878185015260a0604085015281875480845260c0860191508860005282600020935060005b8181101561203c5784546001600160a01b031683526001948501949284019201612017565b50506001600160a01b03969096166060850152505050608001529392505050565b6000602080838503121561207057600080fd5b825167ffffffffffffffff8082111561208857600080fd5b818501915085601f83011261209c57600080fd5b8151818111156120ae576120ae611e28565b8060051b604051601f19603f830116810181811085821117156120d3576120d3611e28565b6040529182528482019250838101850191888311156120f157600080fd5b938501935b8285101561210f578451845293850193928501926120f6565b98975050505050505050565b60008060006060848603121561213057600080fd5b835192506020840151915060408401519050925092509256fe416464726573733a206c6f772d6c6576656c207374617469632063616c6c206661696c6564a26469706673582212208c650ed252e841daa97c34f437e9523a0f8b7b25828b797543aba5ba9893c3f664736f6c63430008110033a2646970667358221220961cebfef70817dd84ed6c768c6fe3709f6b1a7f36749f5bc3c91466f452e46c64736f6c63430008110033",
    "linkReferences": {}
  },
  "methodIdentifiers": {
    "allVaults(uint256)": "9094a91e",
    "createVault((uint256,uint256,address[],address[],string,string,string))": "36493348",
    "listAllVaults()": "66a9a1bb"
  },
  "id": 50
}