{
  "abi": [
    {
      "inputs": [
        {
          "components": [
            {
              "internalType": "bool",
              "name": "isTokenZeroDeposit",
              "type": "bool"
            },
            {
              "internalType": "int24",
              "name": "tickLower",
              "type": "int24"
            },
            {
              "internalType": "int24",
              "name": "tickUpper",
              "type": "int24"
            },
            {
              "internalType": "address",
              "name": "stake",
              "type": "address"
            },
            {
              "internalType": "address",
              "name": "chef",
              "type": "address"
            },
            {
              "internalType": "address",
              "name": "reward",
              "type": "address"
            },
            {
              "internalType": "address",
              "name": "tickMathLib",
              "type": "address"
            },
            {
              "internalType": "address",
              "name": "sqrtPriceMathLib",
              "type": "address"
            },
            {
              "internalType": "address",
              "name": "liquidityMathLib",
              "type": "address"
            },
            {
              "internalType": "address",
              "name": "safeCastLib",
              "type": "address"
            },
            {
              "internalType": "address",
              "name": "liquidityAmountsLib",
              "type": "address"
            },
            {
              "internalType": "address",
              "name": "fullMathLib",
              "type": "address"
            },
            {
              "internalType": "uint24",
              "name": "poolFee",
              "type": "uint24"
            }
          ],
          "internalType": "struct CakePoolParams",
          "name": "_cakePoolParams",
          "type": "tuple"
        },
        {
          "components": [
            {
              "internalType": "address",
              "name": "vault",
              "type": "address"
            },
            {
              "internalType": "address",
              "name": "router",
              "type": "address"
            },
            {
              "internalType": "address",
              "name": "NonfungiblePositionManager",
              "type": "address"
            }
          ],
          "internalType": "struct CommonAddresses",
          "name": "_commonAddresses",
          "type": "tuple"
        },
        {
          "components": [
            {
              "internalType": "address",
              "name": "OrderManager",
              "type": "address"
            },
            {
              "internalType": "address",
              "name": "indexTokenChainlink",
              "type": "address"
            },
            {
              "internalType": "uint256",
              "name": "leverage",
              "type": "uint256"
            }
          ],
          "internalType": "struct ShortParams",
          "name": "_shortParams",
          "type": "tuple"
        }
      ],
      "stateMutability": "nonpayable",
      "type": "constructor"
    },
    {
      "anonymous": false,
      "inputs": [
        {
          "indexed": false,
          "internalType": "uint256",
          "name": "tvl",
          "type": "uint256"
        },
        {
          "indexed": false,
          "internalType": "uint256",
          "name": "amount",
          "type": "uint256"
        }
      ],
      "name": "Deposit",
      "type": "event"
    },
    {
      "anonymous": false,
      "inputs": [
        {
          "indexed": true,
          "internalType": "address",
          "name": "previousOwner",
          "type": "address"
        },
        {
          "indexed": true,
          "internalType": "address",
          "name": "newOwner",
          "type": "address"
        }
      ],
      "name": "OwnershipTransferred",
      "type": "event"
    },
    {
      "anonymous": false,
      "inputs": [
        {
          "indexed": false,
          "internalType": "address",
          "name": "account",
          "type": "address"
        }
      ],
      "name": "Paused",
      "type": "event"
    },
    {
      "anonymous": false,
      "inputs": [
        {
          "indexed": false,
          "internalType": "int24",
          "name": "tickLower",
          "type": "int24"
        },
        {
          "indexed": false,
          "internalType": "int24",
          "name": "tickUpper",
          "type": "int24"
        }
      ],
      "name": "RangeChange",
      "type": "event"
    },
    {
      "anonymous": false,
      "inputs": [
        {
          "indexed": false,
          "internalType": "address",
          "name": "manager",
          "type": "address"
        }
      ],
      "name": "SetManager",
      "type": "event"
    },
    {
      "anonymous": false,
      "inputs": [
        {
          "indexed": false,
          "internalType": "address",
          "name": "unirouter",
          "type": "address"
        }
      ],
      "name": "SetRouter",
      "type": "event"
    },
    {
      "anonymous": false,
      "inputs": [
        {
          "indexed": false,
          "internalType": "address",
          "name": "vault",
          "type": "address"
        }
      ],
      "name": "SetVault",
      "type": "event"
    },
    {
      "anonymous": false,
      "inputs": [
        {
          "indexed": true,
          "internalType": "address",
          "name": "harvester",
          "type": "address"
        },
        {
          "indexed": false,
          "internalType": "uint256",
          "name": "stakeHarvested",
          "type": "uint256"
        },
        {
          "indexed": false,
          "internalType": "uint256",
          "name": "tvl",
          "type": "uint256"
        }
      ],
      "name": "StratHarvest",
      "type": "event"
    },
    {
      "anonymous": false,
      "inputs": [
        {
          "indexed": false,
          "internalType": "address",
          "name": "account",
          "type": "address"
        }
      ],
      "name": "Unpaused",
      "type": "event"
    },
    {
      "anonymous": false,
      "inputs": [
        {
          "indexed": false,
          "internalType": "uint256",
          "name": "tvl",
          "type": "uint256"
        },
        {
          "indexed": false,
          "internalType": "uint256",
          "name": "amount",
          "type": "uint256"
        }
      ],
      "name": "Withdraw",
      "type": "event"
    },
    {
      "inputs": [],
      "name": "NonfungiblePositionManager",
      "outputs": [
        {
          "internalType": "address",
          "name": "",
          "type": "address"
        }
      ],
      "stateMutability": "view",
      "type": "function"
    },
    {
      "inputs": [],
      "name": "OrderManager",
      "outputs": [
        {
          "internalType": "address",
          "name": "",
          "type": "address"
        }
      ],
      "stateMutability": "view",
      "type": "function"
    },
    {
      "inputs": [],
      "name": "_getChainlinkPrice",
      "outputs": [
        {
          "internalType": "uint256",
          "name": "",
          "type": "uint256"
        }
      ],
      "stateMutability": "view",
      "type": "function"
    },
    {
      "inputs": [],
      "name": "_increaseLiquidity",
      "outputs": [],
      "stateMutability": "nonpayable",
      "type": "function"
    },
    {
      "inputs": [],
      "name": "assetRatio",
      "outputs": [
        {
          "internalType": "uint256",
          "name": "amount0Ratio",
          "type": "uint256"
        },
        {
          "internalType": "uint256",
          "name": "amount1Ratio",
          "type": "uint256"
        }
      ],
      "stateMutability": "view",
      "type": "function"
    },
    {
      "inputs": [],
      "name": "balanceOf",
      "outputs": [
        {
          "internalType": "uint256",
          "name": "",
          "type": "uint256"
        }
      ],
      "stateMutability": "view",
      "type": "function"
    },
    {
      "inputs": [],
      "name": "balanceOfPool",
      "outputs": [
        {
          "internalType": "uint256",
          "name": "",
          "type": "uint256"
        }
      ],
      "stateMutability": "view",
      "type": "function"
    },
    {
      "inputs": [],
      "name": "beforeDeposit",
      "outputs": [],
      "stateMutability": "nonpayable",
      "type": "function"
    },
    {
      "inputs": [
        {
          "internalType": "int24",
          "name": "_tickLower",
          "type": "int24"
        },
        {
          "internalType": "int24",
          "name": "_tickUpper",
          "type": "int24"
        }
      ],
      "name": "changeRange",
      "outputs": [],
      "stateMutability": "nonpayable",
      "type": "function"
    },
    {
      "inputs": [],
      "name": "chef",
      "outputs": [
        {
          "internalType": "address",
          "name": "",
          "type": "address"
        }
      ],
      "stateMutability": "view",
      "type": "function"
    },
    {
      "inputs": [],
      "name": "deposit",
      "outputs": [],
      "stateMutability": "payable",
      "type": "function"
    },
    {
      "inputs": [],
      "name": "depositV3",
      "outputs": [],
      "stateMutability": "nonpayable",
      "type": "function"
    },
    {
      "inputs": [],
      "name": "fullMathLib",
      "outputs": [
        {
          "internalType": "address",
          "name": "",
          "type": "address"
        }
      ],
      "stateMutability": "view",
      "type": "function"
    },
    {
      "inputs": [],
      "name": "getDepositToken",
      "outputs": [
        {
          "internalType": "address",
          "name": "",
          "type": "address"
        }
      ],
      "stateMutability": "view",
      "type": "function"
    },
    {
      "inputs": [],
      "name": "harvest",
      "outputs": [],
      "stateMutability": "nonpayable",
      "type": "function"
    },
    {
      "inputs": [],
      "name": "indexTokenChainlink",
      "outputs": [
        {
          "internalType": "address",
          "name": "",
          "type": "address"
        }
      ],
      "stateMutability": "view",
      "type": "function"
    },
    {
      "inputs": [],
      "name": "isTokenZeroDeposit",
      "outputs": [
        {
          "internalType": "bool",
          "name": "",
          "type": "bool"
        }
      ],
      "stateMutability": "view",
      "type": "function"
    },
    {
      "inputs": [],
      "name": "lastHarvest",
      "outputs": [
        {
          "internalType": "uint256",
          "name": "",
          "type": "uint256"
        }
      ],
      "stateMutability": "view",
      "type": "function"
    },
    {
      "inputs": [],
      "name": "leverage",
      "outputs": [
        {
          "internalType": "uint256",
          "name": "",
          "type": "uint256"
        }
      ],
      "stateMutability": "view",
      "type": "function"
    },
    {
      "inputs": [],
      "name": "liquidityAmountsLib",
      "outputs": [
        {
          "internalType": "address",
          "name": "",
          "type": "address"
        }
      ],
      "stateMutability": "view",
      "type": "function"
    },
    {
      "inputs": [],
      "name": "liquidityMathLib",
      "outputs": [
        {
          "internalType": "address",
          "name": "",
          "type": "address"
        }
      ],
      "stateMutability": "view",
      "type": "function"
    },
    {
      "inputs": [],
      "name": "lpToken0",
      "outputs": [
        {
          "internalType": "address",
          "name": "",
          "type": "address"
        }
      ],
      "stateMutability": "view",
      "type": "function"
    },
    {
      "inputs": [],
      "name": "lpToken1",
      "outputs": [
        {
          "internalType": "address",
          "name": "",
          "type": "address"
        }
      ],
      "stateMutability": "view",
      "type": "function"
    },
    {
      "inputs": [],
      "name": "manager",
      "outputs": [
        {
          "internalType": "address",
          "name": "",
          "type": "address"
        }
      ],
      "stateMutability": "view",
      "type": "function"
    },
    {
      "inputs": [],
      "name": "managerHarvest",
      "outputs": [],
      "stateMutability": "nonpayable",
      "type": "function"
    },
    {
      "inputs": [
        {
          "internalType": "address",
          "name": "",
          "type": "address"
        },
        {
          "internalType": "address",
          "name": "",
          "type": "address"
        },
        {
          "internalType": "uint256",
          "name": "",
          "type": "uint256"
        },
        {
          "internalType": "bytes",
          "name": "",
          "type": "bytes"
        }
      ],
      "name": "onERC721Received",
      "outputs": [
        {
          "internalType": "bytes4",
          "name": "",
          "type": "bytes4"
        }
      ],
      "stateMutability": "nonpayable",
      "type": "function"
    },
    {
      "inputs": [],
      "name": "onlyManager",
      "outputs": [],
      "stateMutability": "view",
      "type": "function"
    },
    {
      "inputs": [],
      "name": "onlyVault",
      "outputs": [],
      "stateMutability": "view",
      "type": "function"
    },
    {
      "inputs": [],
      "name": "owner",
      "outputs": [
        {
          "internalType": "address",
          "name": "",
          "type": "address"
        }
      ],
      "stateMutability": "view",
      "type": "function"
    },
    {
      "inputs": [],
      "name": "panic",
      "outputs": [],
      "stateMutability": "nonpayable",
      "type": "function"
    },
    {
      "inputs": [],
      "name": "pause",
      "outputs": [],
      "stateMutability": "nonpayable",
      "type": "function"
    },
    {
      "inputs": [],
      "name": "paused",
      "outputs": [
        {
          "internalType": "bool",
          "name": "",
          "type": "bool"
        }
      ],
      "stateMutability": "view",
      "type": "function"
    },
    {
      "inputs": [],
      "name": "poolFee",
      "outputs": [
        {
          "internalType": "uint24",
          "name": "",
          "type": "uint24"
        }
      ],
      "stateMutability": "view",
      "type": "function"
    },
    {
      "inputs": [],
      "name": "renounceOwnership",
      "outputs": [],
      "stateMutability": "nonpayable",
      "type": "function"
    },
    {
      "inputs": [],
      "name": "retireStrat",
      "outputs": [],
      "stateMutability": "nonpayable",
      "type": "function"
    },
    {
      "inputs": [],
      "name": "reward",
      "outputs": [
        {
          "internalType": "address",
          "name": "",
          "type": "address"
        }
      ],
      "stateMutability": "view",
      "type": "function"
    },
    {
      "inputs": [],
      "name": "rewardsAvailable",
      "outputs": [
        {
          "internalType": "uint256",
          "name": "",
          "type": "uint256"
        }
      ],
      "stateMutability": "view",
      "type": "function"
    },
    {
      "inputs": [],
      "name": "router",
      "outputs": [
        {
          "internalType": "address",
          "name": "",
          "type": "address"
        }
      ],
      "stateMutability": "view",
      "type": "function"
    },
    {
      "inputs": [],
      "name": "safeCastLib",
      "outputs": [
        {
          "internalType": "address",
          "name": "",
          "type": "address"
        }
      ],
      "stateMutability": "view",
      "type": "function"
    },
    {
      "inputs": [
        {
          "internalType": "address",
          "name": "_manager",
          "type": "address"
        }
      ],
      "name": "setManager",
      "outputs": [],
      "stateMutability": "nonpayable",
      "type": "function"
    },
    {
      "inputs": [
        {
          "internalType": "address",
          "name": "_router",
          "type": "address"
        }
      ],
      "name": "setRouter",
      "outputs": [],
      "stateMutability": "nonpayable",
      "type": "function"
    },
    {
      "inputs": [
        {
          "internalType": "address",
          "name": "_vault",
          "type": "address"
        }
      ],
      "name": "setVault",
      "outputs": [],
      "stateMutability": "nonpayable",
      "type": "function"
    },
    {
      "inputs": [],
      "name": "sqrtPriceMathLib",
      "outputs": [
        {
          "internalType": "address",
          "name": "",
          "type": "address"
        }
      ],
      "stateMutability": "view",
      "type": "function"
    },
    {
      "inputs": [],
      "name": "stake",
      "outputs": [
        {
          "internalType": "address",
          "name": "",
          "type": "address"
        }
      ],
      "stateMutability": "view",
      "type": "function"
    },
    {
      "inputs": [],
      "name": "tickLower",
      "outputs": [
        {
          "internalType": "int24",
          "name": "",
          "type": "int24"
        }
      ],
      "stateMutability": "view",
      "type": "function"
    },
    {
      "inputs": [],
      "name": "tickMathLib",
      "outputs": [
        {
          "internalType": "address",
          "name": "",
          "type": "address"
        }
      ],
      "stateMutability": "view",
      "type": "function"
    },
    {
      "inputs": [],
      "name": "tickUpper",
      "outputs": [
        {
          "internalType": "int24",
          "name": "",
          "type": "int24"
        }
      ],
      "stateMutability": "view",
      "type": "function"
    },
    {
      "inputs": [],
      "name": "tokenID",
      "outputs": [
        {
          "internalType": "uint256",
          "name": "",
          "type": "uint256"
        }
      ],
      "stateMutability": "view",
      "type": "function"
    },
    {
      "inputs": [
        {
          "internalType": "address",
          "name": "newOwner",
          "type": "address"
        }
      ],
      "name": "transferOwnership",
      "outputs": [],
      "stateMutability": "nonpayable",
      "type": "function"
    },
    {
      "inputs": [],
      "name": "unpause",
      "outputs": [],
      "stateMutability": "nonpayable",
      "type": "function"
    },
    {
      "inputs": [],
      "name": "vault",
      "outputs": [
        {
          "internalType": "address",
          "name": "",
          "type": "address"
        }
      ],
      "stateMutability": "view",
      "type": "function"
    },
    {
      "inputs": [
        {
          "internalType": "uint256",
          "name": "_amount",
          "type": "uint256"
        }
      ],
      "name": "withdraw",
      "outputs": [],
      "stateMutability": "nonpayable",
      "type": "function"
    },
    {
      "inputs": [],
      "name": "withdrawResidualBalance",
      "outputs": [],
      "stateMutability": "nonpayable",
      "type": "function"
    },
    {
      "inputs": [
        {
          "internalType": "uint256",
          "name": "_amount",
          "type": "uint256"
        },
        {
          "internalType": "uint256",
          "name": "_sizeChange",
          "type": "uint256"
        },
        {
          "internalType": "enum MarketNeutralV1.UpdatePositionType",
          "name": "_updateType",
          "type": "uint8"
        }
      ],
      "name": "withdrawShortPosition",
      "outputs": [],
      "stateMutability": "payable",
      "type": "function"
    }
  ],
  "bytecode": {
    "object": "0x60806040523480156200001157600080fd5b506040516200532c3803806200532c833981016040819052620000349162000a53565b828280620000423362000336565b6000805460ff60a01b199081169091558151600180546001600160a01b039283166001600160a01b0319918216178255602080860151600280549186169184169190911790556040958601516004805491861691841691909117815560038054841633179055600593909355606088015160078054918616918416821790556080890151600a805491871691851691909117905588820151601380548b8a01518c5160098054911515600160a01b0291909b161790995560a08c015160068054918a1691881691909117905560c08c0151600b8054918a1691881691909117905560e08c0151600c8054918a169188169190911790556101008c0151600d8054918a169188169190911790556101208c0151600e8054918a169188169190911790556101408c0151600f8054918a169188169190911790556101808c015162ffffff90811666010000000000000262ffffff60301b199a821663010000000265ffffffffffff19909316919094161717979097161790955561016088015160108054919095169216919091179092558351630dfe168160e01b815293519293630dfe168193818301939290918290030181865afa15801562000208573d6000803e3d6000fd5b505050506040513d601f19601f820116820180604052508101906200022e919062000bad565b600880546001600160a01b0319166001600160a01b039283161790556007546040805163d21220a760e01b81529051919092169163d21220a79160048083019260209291908290030181865afa1580156200028d573d6000803e3d6000fd5b505050506040513d601f19601f82011682018060405250810190620002b3919062000bad565b600980546001600160a01b0319166001600160a01b0392909216919091179055620002dd62000386565b5050805160138054600160481b600160e81b03191669010000000000000000006001600160a01b03938416021790556020820151601480546001600160a01b03191691909216179055604001516015555062000c839050565b600080546001600160a01b038381166001600160a01b0319831681178455604051919092169283917f8be0079c531659141344cd1fd0a4f28419497f9722a3daafe3b4186f6b6457e09190a35050565b600254600654620003b3916001600160a01b03918216911660001962000519602090811b6200210817901c565b600254600854620003df916001600160a01b039182169116600062000519602090811b6200210817901c565b6002546008546200040c916001600160a01b03918216911660001962000519602090811b6200210817901c565b60025460095462000438916001600160a01b039182169116600062000519602090811b6200210817901c565b60025460095462000465916001600160a01b03918216911660001962000519602090811b6200210817901c565b60045460085462000491916001600160a01b039182169116600062000519602090811b6200210817901c565b600454600854620004be916001600160a01b03918216911660001962000519602090811b6200210817901c565b600454600954620004ea916001600160a01b039182169116600062000519602090811b6200210817901c565b60045460095462000517916001600160a01b03918216911660001962000519602090811b6200210817901c565b565b801580620005975750604051636eb1769f60e11b81523060048201526001600160a01b03838116602483015284169063dd62ed3e90604401602060405180830381865afa1580156200056f573d6000803e3d6000fd5b505050506040513d601f19601f8201168201806040525081019062000595919062000bd2565b155b6200060f5760405162461bcd60e51b815260206004820152603660248201527f5361666545524332303a20617070726f76652066726f6d206e6f6e2d7a65726f60448201527f20746f206e6f6e2d7a65726f20616c6c6f77616e63650000000000000000000060648201526084015b60405180910390fd5b604080516001600160a01b038416602482015260448082018490528251808303909101815260649091019091526020810180516001600160e01b0390811663095ea7b360e01b17909152620006679185916200066c16565b505050565b6000620006c8826040518060400160405280602081526020017f5361666545524332303a206c6f772d6c6576656c2063616c6c206661696c6564815250856001600160a01b03166200074a60201b62002255179092919060201c565b805190915015620006675780806020019051810190620006e9919062000bec565b620006675760405162461bcd60e51b815260206004820152602a60248201527f5361666545524332303a204552433230206f7065726174696f6e20646964206e6044820152691bdd081cdd58d8d9595960b21b606482015260840162000606565b60606200075b848460008562000763565b949350505050565b606082471015620007c65760405162461bcd60e51b815260206004820152602660248201527f416464726573733a20696e73756666696369656e742062616c616e636520666f6044820152651c8818d85b1b60d21b606482015260840162000606565b600080866001600160a01b03168587604051620007e4919062000c30565b60006040518083038185875af1925050503d806000811462000823576040519150601f19603f3d011682016040523d82523d6000602084013e62000828565b606091505b5090925090506200083c8783838762000847565b979650505050505050565b60608315620008bb578251600003620008b3576001600160a01b0385163b620008b35760405162461bcd60e51b815260206004820152601d60248201527f416464726573733a2063616c6c20746f206e6f6e2d636f6e7472616374000000604482015260640162000606565b50816200075b565b6200075b8383815115620008d25781518083602001fd5b8060405162461bcd60e51b815260040162000606919062000c4e565b604051606081016001600160401b03811182821017156200091f57634e487b7160e01b600052604160045260246000fd5b60405290565b6040516101a081016001600160401b03811182821017156200091f57634e487b7160e01b600052604160045260246000fd5b805180151581146200096857600080fd5b919050565b8051600281900b81146200096857600080fd5b80516001600160a01b03811681146200096857600080fd5b805162ffffff811681146200096857600080fd5b600060608284031215620009bf57600080fd5b620009c9620008ee565b9050620009d68262000980565b8152620009e66020830162000980565b6020820152620009f96040830162000980565b604082015292915050565b60006060828403121562000a1757600080fd5b62000a21620008ee565b905062000a2e8262000980565b815262000a3e6020830162000980565b60208201526040820151604082015292915050565b600080600083850361026081121562000a6b57600080fd5b6101a08082121562000a7c57600080fd5b62000a8662000925565b915062000a938662000957565b825262000aa3602087016200096d565b602083015262000ab6604087016200096d565b604083015262000ac96060870162000980565b606083015262000adc6080870162000980565b608083015262000aef60a0870162000980565b60a083015262000b0260c0870162000980565b60c083015262000b1560e0870162000980565b60e083015261010062000b2a81880162000980565b9083015261012062000b3e87820162000980565b9083015261014062000b5287820162000980565b9083015261016062000b6687820162000980565b9083015261018062000b7a87820162000998565b818401525081945062000b9087828801620009ac565b9350505062000ba485610200860162000a04565b90509250925092565b60006020828403121562000bc057600080fd5b62000bcb8262000980565b9392505050565b60006020828403121562000be557600080fd5b5051919050565b60006020828403121562000bff57600080fd5b62000bcb8262000957565b60005b8381101562000c2757818101518382015260200162000c0d565b50506000910152565b6000825162000c4481846020870162000c0a565b9190910192915050565b602081526000825180602084015262000c6f81604085016020870162000c0a565b601f01601f19169190910160400192915050565b6146998062000c936000396000f3fe6080604052600436106103355760003560e01c8063877562b6116101ab578063d0ebdbe7116100f7578063f2fde38b11610095578063fb1b5c7b1161006f578063fb1b5c7b1461090f578063fb468ac314610924578063fb61778714610939578063fbfa77cf1461094e57600080fd5b8063f2fde38b146108ba578063f887ea40146108da578063f8cea66c146108fa57600080fd5b8063e7a7250a116100d1578063e7a7250a1461085a578063eb582d131461086f578063ef21c9941461088f578063f1a392da146108a457600080fd5b8063d0ebdbe714610805578063d801d94614610825578063e00bb0b51461083a57600080fd5b8063afbd137811610164578063c0e8ca461161013e578063c0e8ca46146107aa578063c3e3fd81146107bd578063c597499d146107dd578063d0e30db0146107fd57600080fd5b8063afbd137814610754578063b3a9c91c14610775578063c0d786551461078a57600080fd5b8063877562b6146106a15780638b4f9c50146106c15780638da5cb5b146106e15780639fa68bca146106ff578063a5c42ef114610714578063a63e8c4b1461072a57600080fd5b80634641257d116102855780635c975abb116102235780636d9adeb0116101fd5780636d9adeb014610642578063715018a614610662578063722713f7146106775780638456cb591461068c57600080fd5b80635c975abb146105d75780635ee167c0146106025780636817031b1461062257600080fd5b806355b812a81161025f57806355b812a814610568578063573fef0a1461059c578063595ce3c8146105a857806359c4f905146105bd57600080fd5b80634641257d1461051e5780634700d30514610533578063481c6a751461054857600080fd5b8063228cb733116102f2578063342226dd116102cc578063342226dd146104a957806334bf6518146104c95780633a4b66f1146104e95780633f4ba83a1461050957600080fd5b8063228cb733146104515780632c86d98e146104715780632e1a7d4d1461048757600080fd5b8063070619141461033a578063089fe6aa146103775780630fb92ea1146103ae57806311588086146103d5578063150b7a02146103f85780631fc8bc5d14610431575b600080fd5b34801561034657600080fd5b5060145461035a906001600160a01b031681565b6040516001600160a01b0390911681526020015b60405180910390f35b34801561038357600080fd5b5060135461039a90600160301b900462ffffff1681565b60405162ffffff909116815260200161036e565b3480156103ba57600080fd5b5060135461035a90600160481b90046001600160a01b031681565b3480156103e157600080fd5b506103ea61096e565b60405190815260200161036e565b34801561040457600080fd5b50610418610413366004613cdc565b610a04565b6040516001600160e01b0319909116815260200161036e565b34801561043d57600080fd5b50600a5461035a906001600160a01b031681565b34801561045d57600080fd5b5060065461035a906001600160a01b031681565b34801561047d57600080fd5b506103ea60155481565b34801561049357600080fd5b506104a76104a2366004613dbc565b610a15565b005b3480156104b557600080fd5b50600b5461035a906001600160a01b031681565b3480156104d557600080fd5b506104a76104e4366004613de4565b610cb4565b3480156104f557600080fd5b5060075461035a906001600160a01b031681565b34801561051557600080fd5b506104a7610e8a565b34801561052a57600080fd5b506104a7610ea4565b34801561053f57600080fd5b506104a7610eac565b34801561055457600080fd5b5060035461035a906001600160a01b031681565b34801561057457600080fd5b50601354610589906301000000900460020b81565b60405160029190910b815260200161036e565b3480156104a757600080fd5b3480156105b457600080fd5b506104a7610f5c565b3480156105c957600080fd5b506013546105899060020b81565b3480156105e357600080fd5b50600054600160a01b900460ff165b604051901515815260200161036e565b34801561060e57600080fd5b5060085461035a906001600160a01b031681565b34801561062e57600080fd5b506104a761063d366004613e1d565b61125a565b34801561064e57600080fd5b5060105461035a906001600160a01b031681565b34801561066e57600080fd5b506104a76112b7565b34801561068357600080fd5b506103ea6112c9565b34801561069857600080fd5b506104a76112d8565b3480156106ad57600080fd5b5060095461035a906001600160a01b031681565b3480156106cd57600080fd5b50600e5461035a906001600160a01b031681565b3480156106ed57600080fd5b506000546001600160a01b031661035a565b34801561070b57600080fd5b506103ea6112f0565b34801561072057600080fd5b506103ea60125481565b34801561073657600080fd5b5061073f611396565b6040805192835260208301919091520161036e565b34801561076057600080fd5b506009546105f290600160a01b900460ff1681565b34801561078157600080fd5b506104a7611cd8565b34801561079657600080fd5b506104a76107a5366004613e1d565b611d30565b6104a76107b8366004613e41565b611d86565b3480156107c957600080fd5b50600d5461035a906001600160a01b031681565b3480156107e957600080fd5b50600f5461035a906001600160a01b031681565b6104a7611e3d565b34801561081157600080fd5b506104a7610820366004613e1d565b611eff565b34801561083157600080fd5b506104a7611f55565b34801561084657600080fd5b50600c5461035a906001600160a01b031681565b34801561086657600080fd5b506103ea611f5d565b34801561087b57600080fd5b5060045461035a906001600160a01b031681565b34801561089b57600080fd5b506104a7611fde565b3480156108b057600080fd5b506103ea60115481565b3480156108c657600080fd5b506104a76108d5366004613e1d565b612023565b3480156108e657600080fd5b5060025461035a906001600160a01b031681565b34801561090657600080fd5b506104a7612099565b34801561091b57600080fd5b5061035a6120c3565b34801561093057600080fd5b506104a76120f8565b34801561094557600080fd5b506104a7612100565b34801561095a57600080fd5b5060015461035a906001600160a01b031681565b600a54601254604051630ec6b3dd60e21b815260009283926001600160a01b0390911691633b1acf74916109a89160040190815260200190565b61012060405180830381865afa1580156109c6573d6000803e3d6000fd5b505050506040513d601f19601f820116820180604052508101906109ea9190613eb0565b50505050505050506001600160801b031690508091505090565b630a85bd0160e11b5b949350505050565b610a1d612264565b610a25611cd8565b610a2d61096e565b811115610a775760405162461bcd60e51b8152602060048201526013602482015272416d6f756e7420697320746f6f206c6172676560681b60448201526064015b60405180910390fd5b600a546040805160a08101825260125481526001600160801b0384166020820152600181830181905260608201524260808201529051630624e65f60e11b815260009283926001600160a01b0390911691630c49ccbe91610ada91600401613f47565b60408051808303816000875af1158015610af8573d6000803e3d6000fd5b505050506040513d601f19601f82011682018060405250810190610b1c9190613f8a565b600a546040805160808101825260125481523060208201526001600160801b038086168284015284166060820152905163fc6f786560e01b81529395509193506001600160a01b03169163fc6f786591610b7891600401613fae565b60408051808303816000875af1158015610b96573d6000803e3d6000fd5b505050506040513d601f19601f82011682018060405250810190610bba9190613f8a565b5050610bc46122bd565b6000610bce6120c3565b6040516370a0823160e01b81523060048201526001600160a01b0391909116906370a0823190602401602060405180830381865afa158015610c14573d6000803e3d6000fd5b505050506040513d601f19601f82011682018060405250810190610c389190613ff1565b600154909150610c64906001600160a01b031682610c546120c3565b6001600160a01b03169190612427565b7f56ca301a9219608c91e7bcee90e083c19671d2cdcc96752c7af291cee5f9c8c8610c8d6112c9565b60408051918252602082018790520160405180910390a1505050610cb16001600555565b50565b610cbc612457565b601354600283810b91900b148015610ce35750601354600282810b6301000000909204900b145b15610d275760405162461bcd60e51b815260206004820152601460248201527352616e67652063616e6e6f742062652073616d6560601b6044820152606401610a6e565b610d3182826124b1565b600754604080516334324e9f60e21b815290516000926001600160a01b03169163d0c93a7c9160048083019260209291908290030181865afa158015610d7b573d6000803e3d6000fd5b505050506040513d601f19601f82011682018060405250810190610d9f919061400a565b9050610dab818461403d565b60020b158015610dc55750610dc0818361403d565b60020b155b610e015760405162461bcd60e51b815260206004820152600d60248201526c496e76616c6964205469636b7360981b6044820152606401610a6e565b610e09612654565b6013805462ffffff84811663010000000265ffffffffffff1990921690861617179055610e34612977565b610e3c612b44565b60135460408051600283810b8252630100000090930490920b60208301527fd00a8d17a19b7ceda57ab41f25a4626f485d085482b0525baaaa7caac12b492e910160405180910390a1505050565b610e92611fde565b610e9a612bcf565b610ea2612c24565b565b610ea2612d37565b610eb4611fde565b610ebc6112d8565b610ec4612654565b610ecc6122bd565b6000610ed66120c3565b6040516370a0823160e01b81523060048201526001600160a01b0391909116906370a0823190602401602060405180830381865afa158015610f1c573d6000803e3d6000fd5b505050506040513d601f19601f82011682018060405250810190610f409190613ff1565b600154909150610cb1906001600160a01b031682610c546120c3565b6000610f666120c3565b6040516370a0823160e01b81523060048201529091506000906001600160a01b038316906370a0823190602401602060405180830381865afa158015610fb0573d6000803e3d6000fd5b505050506040513d601f19601f82011682018060405250810190610fd49190613ff1565b9050600080610fe283612e8e565b60085491935091506001600160a01b03858116911614611027576008546013546110279186916001600160a01b03909116908590600160301b900462ffffff16612fe9565b6009546001600160a01b03858116911614611067576009546013546110679186916001600160a01b03909116908490600160301b900462ffffff16612fe9565b6008546040516370a0823160e01b81523060048201526000916001600160a01b0316906370a0823190602401602060405180830381865afa1580156110b0573d6000803e3d6000fd5b505050506040513d601f19601f820116820180604052508101906110d49190613ff1565b6009546040516370a0823160e01b81523060048201529192506000916001600160a01b03909116906370a0823190602401602060405180830381865afa158015611122573d6000803e3d6000fd5b505050506040513d601f19601f820116820180604052508101906111469190613ff1565b600480546040805160c08101825260125481526020810187905280820185905260016060820181905260808201524260a0820152905163219f5d1760e01b81529394506000936001600160a01b039092169263219f5d17926111a992910161405f565b6060604051808303816000875af11580156111c8573d6000803e3d6000fd5b505050506040513d601f19601f820116820180604052508101906111ec91906140a3565b5050600a54601254604051636768488960e11b815260048101919091529192506001600160a01b03169063ced0911290602401600060405180830381600087803b15801561123957600080fd5b505af115801561124d573d6000803e3d6000fd5b5050505050505050505050565b611262612457565b600180546001600160a01b0319166001600160a01b0383169081179091556040519081527fd459c7242e23d490831b5676a611c4342d899d28f342d89ae80793e56a930f30906020015b60405180910390a150565b6112bf612457565b610ea260006130d0565b60006112d361096e565b905090565b6112e0611fde565b6112e8613120565b610ea2613163565b600080601460009054906101000a90046001600160a01b03166001600160a01b031663feaf968c6040518163ffffffff1660e01b815260040160a060405180830381865afa158015611346573d6000803e3d6000fd5b505050506040513d601f19601f8201168201806040525081019061136a91906140f2565b5050509150506305f5e1008164e8d4a510006113869190614158565b611390919061416f565b91505090565b60135460075460408051633850c7bd60e01b815290516000938493600282810b946301000000909304900b926001600160a01b0390911691859182918491633850c7bd9160048082019260e0929091908290030181865afa1580156113ff573d6000803e3d6000fd5b505050506040513d601f19601f8201168201806040525081019061142391906141a5565b5050600b5460405163986cfba360e01b815260028c900b60048201529597509395506000946001600160a01b039094169363986cfba3935060240191506114679050565b602060405180830381865afa158015611484573d6000803e3d6000fd5b505050506040513d601f19601f820116820180604052508101906114a8919061423b565b600b5460405163986cfba360e01b8152600288900b60048201529192506000916001600160a01b039091169063986cfba390602401602060405180830381865afa1580156114fa573d6000803e3d6000fd5b505050506040513d601f19601f8201168201806040525081019061151e919061423b565b600f5460405163304c7ea560e11b81526001600160a01b038781166004830152858116602483015280841660448301526b204fce5e3e2502611000000060648301819052608483015292935060009290911690636098fd4a9060a401602060405180830381865afa158015611597573d6000803e3d6000fd5b505050506040513d601f19601f820116820180604052508101906115bb9190614258565b90506000806001600160801b03831615611c1e578960020b8660020b12156117a357600c54600b5460405163986cfba360e01b815260028d900b60048201526001600160a01b039283169263c932699b92169063986cfba390602401602060405180830381865afa158015611634573d6000803e3d6000fd5b505050506040513d601f19601f82011682018060405250810190611658919061423b565b600b5460405163986cfba360e01b815260028e900b60048201526001600160a01b039091169063986cfba390602401602060405180830381865afa1580156116a4573d6000803e3d6000fd5b505050506040513d601f19601f820116820180604052508101906116c8919061423b565b600e54604051636e95018b60e11b81526001600160801b03891660048201526001600160a01b039091169063dd2a031690602401602060405180830381865afa158015611719573d6000803e3d6000fd5b505050506040513d601f19601f8201168201806040525081019061173d9190614273565b6040518463ffffffff1660e01b815260040161175b93929190614296565b602060405180830381865afa158015611778573d6000803e3d6000fd5b505050506040513d601f19601f8201168201806040525081019061179c9190613ff1565b9150611c1e565b8860020b8660020b1215611a5d57600c54600b5460405163986cfba360e01b815260028c900b60048201526001600160a01b039283169263c932699b928b9291169063986cfba390602401602060405180830381865afa15801561180b573d6000803e3d6000fd5b505050506040513d601f19601f8201168201806040525081019061182f919061423b565b600e54604051636e95018b60e11b81526001600160801b03891660048201526001600160a01b039091169063dd2a031690602401602060405180830381865afa158015611880573d6000803e3d6000fd5b505050506040513d601f19601f820116820180604052508101906118a49190614273565b6040518463ffffffff1660e01b81526004016118c293929190614296565b602060405180830381865afa1580156118df573d6000803e3d6000fd5b505050506040513d601f19601f820116820180604052508101906119039190613ff1565b600c54600b5460405163986cfba360e01b815260028e900b60048201529294506001600160a01b039182169262c11862929091169063986cfba390602401602060405180830381865afa15801561195e573d6000803e3d6000fd5b505050506040513d601f19601f82011682018060405250810190611982919061423b565b600e54604051636e95018b60e11b81526001600160801b03881660048201528b916001600160a01b03169063dd2a031690602401602060405180830381865afa1580156119d3573d6000803e3d6000fd5b505050506040513d601f19601f820116820180604052508101906119f79190614273565b6040518463ffffffff1660e01b8152600401611a1593929190614296565b602060405180830381865afa158015611a32573d6000803e3d6000fd5b505050506040513d601f19601f82011682018060405250810190611a569190613ff1565b9050611c1e565b600c54600b5460405163986cfba360e01b815260028d900b60048201526001600160a01b039283169262c1186292169063986cfba390602401602060405180830381865afa158015611ab3573d6000803e3d6000fd5b505050506040513d601f19601f82011682018060405250810190611ad7919061423b565b600b5460405163986cfba360e01b815260028e900b60048201526001600160a01b039091169063986cfba390602401602060405180830381865afa158015611b23573d6000803e3d6000fd5b505050506040513d601f19601f82011682018060405250810190611b47919061423b565b600e54604051636e95018b60e11b81526001600160801b03891660048201526001600160a01b039091169063dd2a031690602401602060405180830381865afa158015611b98573d6000803e3d6000fd5b505050506040513d601f19601f82011682018060405250810190611bbc9190614273565b6040518463ffffffff1660e01b8152600401611bda93929190614296565b602060405180830381865afa158015611bf7573d6000803e3d6000fd5b505050506040513d601f19601f82011682018060405250810190611c1b9190613ff1565b90505b601054919b508b91829082906001600160a01b031663aa9a091282611c438c806142bd565b611c51600160601b80614158565b6040516001600160e01b031960e086901b16815260048101939093526001600160a01b0390911660248301526044820152606401602060405180830381865afa158015611ca2573d6000803e3d6000fd5b505050506040513d601f19601f82011682018060405250810190611cc69190613ff1565b9c505050505050505050505050509091565b6000546001600160a01b0316331480611cfb57506001546001600160a01b031633145b610ea25760405162461bcd60e51b8152602060048201526006602482015265085d985d5b1d60d21b6044820152606401610a6e565b611d38612457565b600280546001600160a01b0319166001600160a01b0383169081179091556040519081527f6de4326a8b9054d72d9dbab97d27bc4edffadee7d966f5af9cc4eafdaf8e5455906020016112ac565b611d8e611cd8565b6000611d986112f0565b9050611da6818585856131db565b6000611db06120c3565b6040516370a0823160e01b81523060048201526001600160a01b0391909116906370a0823190602401602060405180830381865afa158015611df6573d6000803e3d6000fd5b505050506040513d601f19601f82011682018060405250810190611e1a9190613ff1565b600154909150611e36906001600160a01b031682610c546120c3565b5050505050565b611e45611cd8565b6000611e4f6120c3565b6040516370a0823160e01b81523060048201526001600160a01b0391909116906370a0823190602401602060405180830381865afa158015611e95573d6000803e3d6000fd5b505050506040513d601f19601f82011682018060405250810190611eb99190613ff1565b90506000611ec860078361416f565b90506000611ed46112f0565b90506000611ee282846134d2565b9050611ef182848360006131db565b611ef9612099565b50505050565b611f07611fde565b600380546001600160a01b0319166001600160a01b0383169081179091556040519081527f54a6385aa0292b04e1ef8513253c17d1863f7cdfc87029d77fd55cc4c2e717e2906020016112ac565b610ea4611fde565b600a5460125460405163672f9ce360e11b815260009283926001600160a01b039091169163ce5f39c691611f979160040190815260200190565b602060405180830381865afa158015611fb4573d6000803e3d6000fd5b505050506040513d601f19601f82011682018060405250810190611fd89190613ff1565b92915050565b6003546001600160a01b03163314610ea25760405162461bcd60e51b815260206004820152600860248201526710b6b0b730b3b2b960c11b6044820152606401610a6e565b61202b612457565b6001600160a01b0381166120905760405162461bcd60e51b815260206004820152602660248201527f4f776e61626c653a206e6577206f776e657220697320746865207a65726f206160448201526564647265737360d01b6064820152608401610a6e565b610cb1816130d0565b6120a1611cd8565b6012546000036120bb576120b3613516565b610ea2612b44565b610ea2610f5c565b600954600090600160a01b900460ff16156120e857506008546001600160a01b031690565b506009546001600160a01b031690565b610ec4611cd8565b610ebc611cd8565b8015806121825750604051636eb1769f60e11b81523060048201526001600160a01b03838116602483015284169063dd62ed3e90604401602060405180830381865afa15801561215c573d6000803e3d6000fd5b505050506040513d601f19601f820116820180604052508101906121809190613ff1565b155b6121ed5760405162461bcd60e51b815260206004820152603660248201527f5361666545524332303a20617070726f76652066726f6d206e6f6e2d7a65726f60448201527520746f206e6f6e2d7a65726f20616c6c6f77616e636560501b6064820152608401610a6e565b6040516001600160a01b03831660248201526044810182905261225090849063095ea7b360e01b906064015b60408051601f198184030181529190526020810180516001600160e01b03166001600160e01b031990931692909217909152613628565b505050565b6060610a0d84846000856136fa565b6002600554036122b65760405162461bcd60e51b815260206004820152601f60248201527f5265656e7472616e637947756172643a207265656e7472616e742063616c6c006044820152606401610a6e565b6002600555565b6008546040516370a0823160e01b81523060048201526000916001600160a01b0316906370a0823190602401602060405180830381865afa158015612306573d6000803e3d6000fd5b505050506040513d601f19601f8201168201806040525081019061232a9190613ff1565b6009546040516370a0823160e01b81523060048201529192506000916001600160a01b03909116906370a0823190602401602060405180830381865afa158015612378573d6000803e3d6000fd5b505050506040513d601f19601f8201168201806040525081019061239c9190613ff1565b905060006123a86120c3565b6008549091506001600160a01b038083169116146123e9576008546013546123e9916001600160a01b03169083908690600160301b900462ffffff16612fe9565b6009546001600160a01b0382811691161461225057600954601354612250916001600160a01b03169083908590600160301b900462ffffff16612fe9565b6040516001600160a01b03831660248201526044810182905261225090849063a9059cbb60e01b90606401612219565b6000546001600160a01b03163314610ea25760405162461bcd60e51b815260206004820181905260248201527f4f776e61626c653a2063616c6c6572206973206e6f7420746865206f776e65726044820152606401610a6e565b8060020b8260020b126124ec5760405162461bcd60e51b8152602060048201526003602482015262544c5560e81b6044820152606401610a6e565b600b60009054906101000a90046001600160a01b03166001600160a01b031663a1634b146040518163ffffffff1660e01b8152600401602060405180830381865afa15801561253f573d6000803e3d6000fd5b505050506040513d601f19601f82011682018060405250810190612563919061400a565b60020b8260020b121561259e5760405162461bcd60e51b8152602060048201526003602482015262544c4d60e81b6044820152606401610a6e565b600b60009054906101000a90046001600160a01b03166001600160a01b0316636882a8886040518163ffffffff1660e01b8152600401602060405180830381865afa1580156125f1573d6000803e3d6000fd5b505050506040513d601f19601f82011682018060405250810190612615919061400a565b60020b8160020b13156126505760405162461bcd60e51b815260206004820152600360248201526254554d60e81b6044820152606401610a6e565b5050565b61265c612264565b600061266661096e565b9050600081116126b15760405162461bcd60e51b81526020600482015260166024820152754e6f204c697175696469747920617661696c61626c6560501b6044820152606401610a6e565b600a54601254604051627b8a6760e11b815260048101919091523060248201526001600160a01b039091169062f714ce906044016020604051808303816000875af1158015612704573d6000803e3d6000fd5b505050506040513d601f19601f820116820180604052508101906127289190613ff1565b50600480546040805160a08101825260125481526001600160801b0385166020820152600181830181905260608201524260808201529051630624e65f60e11b81526001600160a01b0390921692630c49ccbe92612787929101613f47565b60408051808303816000875af11580156127a5573d6000803e3d6000fd5b505050506040513d601f19601f820116820180604052508101906127c99190613f8a565b50506004805460125460405163133f757160e31b81529283015260009182916001600160a01b0316906399fbab889060240161018060405180830381865afa158015612819573d6000803e3d6000fd5b505050506040513d601f19601f8201168201806040525081019061283d9190614302565b9b509b5050505050505050505050600460009054906101000a90046001600160a01b03166001600160a01b031663fc6f786560405180608001604052806012548152602001306001600160a01b03168152602001856001600160801b03168152602001846001600160801b03168152506040518263ffffffff1660e01b81526004016128c99190613fae565b60408051808303816000875af11580156128e7573d6000803e3d6000fd5b505050506040513d601f19601f8201168201806040525081019061290b9190613f8a565b505060048054601254604051630852cd8d60e31b8152928301526001600160a01b0316906342966c6890602401600060405180830381600087803b15801561295257600080fd5b505af1158015612966573d6000803e3d6000fd5b50505050505050610ea26001600555565b6008546040516370a0823160e01b81523060048201526000916001600160a01b0316906370a0823190602401602060405180830381865afa1580156129c0573d6000803e3d6000fd5b505050506040513d601f19601f820116820180604052508101906129e49190613ff1565b6009546040516370a0823160e01b81523060048201529192506000916001600160a01b03909116906370a0823190602401602060405180830381865afa158015612a32573d6000803e3d6000fd5b505050506040513d601f19601f82011682018060405250810190612a569190613ff1565b6004805460408051610160810182526008546001600160a01b039081168252600954811660208301526101f482840152601354600281810b60608501526301000000909104900b608083015260a0820188905260c08201869052600160e0830181905261010083015230610120830152426101408301529151634418b22b60e11b81529495506000949190921692638831645692612af6929091016143e3565b6080604051808303816000875af1158015612b15573d6000803e3d6000fd5b505050506040513d601f19601f82011682018060405250810190612b3991906144a7565b505050601255505050565b612b4c6137d5565b612b54612264565b60048054600a54601254604051632142170760e11b815230948101949094526001600160a01b039182166024850152604484015216906342842e0e90606401600060405180830381600087803b158015612bad57600080fd5b505af1158015612bc1573d6000803e3d6000fd5b50505050610ea26001600555565b612bd7613822565b6000805460ff60a01b191690557f5db9ee0a495bf2e6ff9c91a7834c1ba4fdd244a5e8aa4e537bd38aeae4b073aa335b6040516001600160a01b03909116815260200160405180910390a1565b600254600654612c43916001600160a01b039182169116600019612108565b600254600854612c61916001600160a01b0391821691166000612108565b600254600854612c80916001600160a01b039182169116600019612108565b600254600954612c9e916001600160a01b0391821691166000612108565b600254600954612cbd916001600160a01b039182169116600019612108565b600454600854612cdb916001600160a01b0391821691166000612108565b600454600854612cfa916001600160a01b039182169116600019612108565b600454600954612d18916001600160a01b0391821691166000612108565b600454600954610ea2916001600160a01b039182169116600019612108565b612d3f6137d5565b600a54601254604051630c7e663b60e11b815260048101919091523060248201526001600160a01b03909116906318fccc76906044016020604051808303816000875af1158015612d94573d6000803e3d6000fd5b505050506040513d601f19601f82011682018060405250810190612db89190613ff1565b506006546040516370a0823160e01b81523060048201526000916001600160a01b0316906370a0823190602401602060405180830381865afa158015612e02573d6000803e3d6000fd5b505050506040513d601f19601f82011682018060405250810190612e269190613ff1565b90508015610cb1576000612e38613872565b426011559050337f9bc239f1724cacfb88cb1d66a2dc437467699b68a8c90d7b63110cf4b6f924106001600160801b038316612e726112c9565b6040805192835260208301919091520160405180910390a25050565b600080600080612e9c611396565b9150915081600003612eb45760009350849250612fe2565b80600003612ec85760009250849350612fe2565b6010546001600160a01b031663aa9a09128684612ee585826144e3565b6040516001600160e01b031960e086901b168152600481019390935260248301919091526044820152606401602060405180830381865afa158015612f2e573d6000803e3d6000fd5b505050506040513d601f19601f82011682018060405250810190612f529190613ff1565b6010549094506001600160a01b031663aa9a09128683612f7281876144e3565b6040516001600160e01b031960e086901b168152600481019390935260248301919091526044820152606401602060405180830381865afa158015612fbb573d6000803e3d6000fd5b505050506040513d601f19601f82011682018060405250810190612fdf9190613ff1565b92505b5050915091565b6002546040805160e0810182526001600160a01b0387811682528681166020830190815262ffffff8681168486019081523060608601908152608086018a8152600160a08801908152600060c0890190815298516304e45aaf60e01b8152975187166004890152945186166024880152915190921660448601529051831660648501525160848401525160a48301529151821660c48201529116906304e45aaf9060e4016020604051808303816000875af11580156130ac573d6000803e3d6000fd5b505050506040513d601f19601f82011682018060405250810190611e369190613ff1565b600080546001600160a01b038381166001600160a01b0319831681178455604051919092169283917f8be0079c531659141344cd1fd0a4f28419497f9722a3daafe3b4186f6b6457e09190a35050565b6131286137d5565b6000805460ff60a01b1916600160a01b1790557f62e78cea01bee320cd4e420270b5ea74000d11b0c9f74754ebdbfc544b05a258612c073390565b600a54600754613181916001600160a01b0391821691166000612108565b60025460065461319f916001600160a01b0391821691166000612108565b6002546008546131bd916001600160a01b0391821691166000612108565b600254600954610ea2916001600160a01b0391821691166000612108565b600083116131e857600080fd5b6000808260018111156131fd576131fd6144f6565b14905080156133835760135461323690600160481b90046001600160a01b0316856132266120c3565b6001600160a01b03169190612108565b601354600954600091600160481b90046001600160a01b03169034908390600190600160a01b900460ff16613276576008546001600160a01b0316613283565b6009546001600160a01b03165b61328b6120c3565b60006132a08d6132996120c3565b8e8e613b5c565b6040516024016132b59695949392919061455c565b60408051601f198184030181529181526020820180516001600160e01b0316632f25f18360e01b179052516132ea91906145ad565b60006040518083038185875af1925050503d8060008114613327576040519150601f19603f3d011682016040523d82523d6000602084013e61332c565b606091505b505090508061337d5760405162461bcd60e51b815260206004820181905260248201527f4f726465724d616e6167657220706c6163654f72646572206661696c656420216044820152606401610a6e565b50611e36565b601354600954600091600160481b90046001600160a01b03169034906001908190600160a01b900460ff166133c3576008546001600160a01b03166133d0565b6009546001600160a01b03165b6133d86120c3565b60006133ed8d6133e66120c3565b8d8f613baf565b6040516024016134029695949392919061455c565b60408051601f198184030181529181526020820180516001600160e01b0316632f25f18360e01b1790525161343791906145ad565b60006040518083038185875af1925050503d8060008114613474576040519150601f19603f3d011682016040523d82523d6000602084013e613479565b606091505b50509050806134ca5760405162461bcd60e51b815260206004820152601e60248201527f4f726465724d616e616765722e706c6163654f72646572206661696c656400006044820152606401610a6e565b505050505050565b60008060155484846134e4919061416f565b6134ee9190614158565b905060006134fc8583614158565b905061350d8164e8d4a51000614158565b95945050505050565b60006135206120c3565b6040516370a0823160e01b81523060048201529091506000906001600160a01b038316906370a0823190602401602060405180830381865afa15801561356a573d6000803e3d6000fd5b505050506040513d601f19601f8201168201806040525081019061358e9190613ff1565b9050600061359d60028361416f565b6008549091506001600160a01b038481169116146135e0576008546013546135e09185916001600160a01b03909116908490600160301b900462ffffff16612fe9565b6009546001600160a01b03848116911614613620576009546013546136209185916001600160a01b03909116908490600160301b900462ffffff16612fe9565b612250612977565b600061367d826040518060400160405280602081526020017f5361666545524332303a206c6f772d6c6576656c2063616c6c206661696c6564815250856001600160a01b03166122559092919063ffffffff16565b805190915015612250578080602001905181019061369b91906145c9565b6122505760405162461bcd60e51b815260206004820152602a60248201527f5361666545524332303a204552433230206f7065726174696f6e20646964206e6044820152691bdd081cdd58d8d9595960b21b6064820152608401610a6e565b60608247101561375b5760405162461bcd60e51b815260206004820152602660248201527f416464726573733a20696e73756666696369656e742062616c616e636520666f6044820152651c8818d85b1b60d21b6064820152608401610a6e565b600080866001600160a01b0316858760405161377791906145ad565b60006040518083038185875af1925050503d80600081146137b4576040519150601f19603f3d011682016040523d82523d6000602084013e6137b9565b606091505b50915091506137ca87838387613c13565b979650505050505050565b600054600160a01b900460ff1615610ea25760405162461bcd60e51b815260206004820152601060248201526f14185d5cd8589b194e881c185d5cd95960821b6044820152606401610a6e565b600054600160a01b900460ff16610ea25760405162461bcd60e51b815260206004820152601460248201527314185d5cd8589b194e881b9bdd081c185d5cd95960621b6044820152606401610a6e565b6006546040516370a0823160e01b815230600482015260009182916001600160a01b03909116906370a0823190602401602060405180830381865afa1580156138bf573d6000803e3d6000fd5b505050506040513d601f19601f820116820180604052508101906138e39190613ff1565b90506000806138f183612e8e565b6006546008549294509092506001600160a01b0391821691161461392f5760065460085461392f916001600160a01b039081169116846109c4612fe9565b6006546009546001600160a01b0390811691161461396757600654600954613967916001600160a01b039081169116836109c4612fe9565b6008546040516370a0823160e01b81523060048201526000916001600160a01b0316906370a0823190602401602060405180830381865afa1580156139b0573d6000803e3d6000fd5b505050506040513d601f19601f820116820180604052508101906139d49190613ff1565b6009546040516370a0823160e01b81523060048201529192506000916001600160a01b03909116906370a0823190602401602060405180830381865afa158015613a22573d6000803e3d6000fd5b505050506040513d601f19601f82011682018060405250810190613a469190613ff1565b600480546040805160c08101825260125481526020810187905280820185905260016060820181905260808201524260a0820152905163219f5d1760e01b81529394506000936001600160a01b039092169263219f5d1792613aa992910161405f565b6060604051808303816000875af1158015613ac8573d6000803e3d6000fd5b505050506040513d601f19601f82011682018060405250810190613aec91906140a3565b5050600a54601254604051636768488960e11b815260048101919091529192506001600160a01b03169063ced0911290602401600060405180830381600087803b158015613b3957600080fd5b505af1158015613b4d573d6000803e3d6000fd5b50929998505050505050505050565b6040805160006020808301829052835180840390910181528284019093526060928592613b9491899189918691899183918a016145e4565b60408051808303601f19018152919052979650505050505050565b60606000858585856000604051602001613bd891906001600160a01b0391909116815260200190565b60408051601f1981840301815290829052613bf9959493929160200161461d565b60408051808303601f190181529190529695505050505050565b60608315613c82578251600003613c7b576001600160a01b0385163b613c7b5760405162461bcd60e51b815260206004820152601d60248201527f416464726573733a2063616c6c20746f206e6f6e2d636f6e74726163740000006044820152606401610a6e565b5081610a0d565b610a0d8383815115613c975781518083602001fd5b8060405162461bcd60e51b8152600401610a6e9190614650565b6001600160a01b0381168114610cb157600080fd5b634e487b7160e01b600052604160045260246000fd5b60008060008060808587031215613cf257600080fd5b8435613cfd81613cb1565b93506020850135613d0d81613cb1565b925060408501359150606085013567ffffffffffffffff80821115613d3157600080fd5b818701915087601f830112613d4557600080fd5b813581811115613d5757613d57613cc6565b604051601f8201601f19908116603f01168101908382118183101715613d7f57613d7f613cc6565b816040528281528a6020848701011115613d9857600080fd5b82602086016020830137600060208483010152809550505050505092959194509250565b600060208284031215613dce57600080fd5b5035919050565b8060020b8114610cb157600080fd5b60008060408385031215613df757600080fd5b8235613e0281613dd5565b91506020830135613e1281613dd5565b809150509250929050565b600060208284031215613e2f57600080fd5b8135613e3a81613cb1565b9392505050565b600080600060608486031215613e5657600080fd5b8335925060208401359150604084013560028110613e7357600080fd5b809150509250925092565b80516001600160801b0381168114613e9557600080fd5b919050565b8051613e9581613dd5565b8051613e9581613cb1565b60008060008060008060008060006101208a8c031215613ecf57600080fd5b613ed88a613e7e565b9850613ee660208b01613e7e565b975060408a0151613ef681613dd5565b60608b0151909750613f0781613dd5565b8096505060808a0151945060a08a0151935060c08a0151613f2781613cb1565b8093505060e08a015191506101008a015190509295985092959850929598565b600060a082019050825182526001600160801b03602084015116602083015260408301516040830152606083015160608301526080830151608083015292915050565b60008060408385031215613f9d57600080fd5b505080516020909101519092909150565b815181526020808301516001600160a01b0316908201526040808301516001600160801b0390811691830191909152606092830151169181019190915260800190565b60006020828403121561400357600080fd5b5051919050565b60006020828403121561401c57600080fd5b8151613e3a81613dd5565b634e487b7160e01b600052601260045260246000fd5b60008260020b8061405057614050614027565b808360020b0791505092915050565b600060c082019050825182526020830151602083015260408301516040830152606083015160608301526080830151608083015260a083015160a083015292915050565b6000806000606084860312156140b857600080fd5b6140c184613e7e565b925060208401519150604084015190509250925092565b805169ffffffffffffffffffff81168114613e9557600080fd5b600080600080600060a0868803121561410a57600080fd5b614113866140d8565b9450602086015193506040860151925060608601519150614136608087016140d8565b90509295509295909350565b634e487b7160e01b600052601160045260246000fd5b8082028115828204841417611fd857611fd8614142565b60008261417e5761417e614027565b500490565b805161ffff81168114613e9557600080fd5b80518015158114613e9557600080fd5b600080600080600080600060e0888a0312156141c057600080fd5b87516141cb81613cb1565b60208901519097506141dc81613dd5565b95506141ea60408901614183565b94506141f860608901614183565b935061420660808901614183565b925060a088015163ffffffff8116811461421f57600080fd5b915061422d60c08901614195565b905092959891949750929550565b60006020828403121561424d57600080fd5b8151613e3a81613cb1565b60006020828403121561426a57600080fd5b613e3a82613e7e565b60006020828403121561428557600080fd5b815180600f0b8114613e3a57600080fd5b6001600160a01b039384168152919092166020820152600f9190910b604082015260600190565b6001600160a01b038281168282168181028316929181158285048214176142e6576142e6614142565b50505092915050565b805162ffffff81168114613e9557600080fd5b6000806000806000806000806000806000806101808d8f03121561432557600080fd5b8c516bffffffffffffffffffffffff8116811461434157600080fd5b9b5061434f60208e01613ea5565b9a5061435d60408e01613ea5565b995061436b60608e01613ea5565b985061437960808e016142ef565b975061438760a08e01613e9a565b965061439560c08e01613e9a565b95506143a360e08e01613e7e565b94506101008d015193506101208d015192506143c26101408e01613e7e565b91506143d16101608e01613e7e565b90509295989b509295989b509295989b565b81516001600160a01b031681526101608101602083015161440f60208401826001600160a01b03169052565b506040830151614426604084018262ffffff169052565b50606083015161443b606084018260020b9052565b506080830151614450608084018260020b9052565b5060a083015160a083015260c083015160c083015260e083015160e083015261010080840151818401525061012080840151614496828501826001600160a01b03169052565b505061014092830151919092015290565b600080600080608085870312156144bd57600080fd5b845193506144cd60208601613e7e565b6040860151606090960151949790965092505050565b80820180821115611fd857611fd8614142565b634e487b7160e01b600052602160045260246000fd5b60005b8381101561452757818101518382015260200161450f565b50506000910152565b6000815180845261454881602086016020860161450c565b601f01601f19169290920160200192915050565b60ff878116825286811660208301526001600160a01b038681166040840152851660608301528316608082015260c060a082018190526000906145a190830184614530565b98975050505050505050565b600082516145bf81846020870161450c565b9190910192915050565b6000602082840312156145db57600080fd5b613e3a82614195565b86815260018060a01b038616602082015284604082015283606082015282608082015260c060a082015260006145a160c0830184614530565b85815260018060a01b038516602082015283604082015282606082015260a0608082015260006137ca60a0830184614530565b602081526000613e3a602083018461453056fea2646970667358221220ff6a22a3deca2df9f6d056fc1a477588b226aa6dca71fb8ceadc8178db73743d64736f6c63430008110033",
    "linkReferences": {}
  },
  "methodIdentifiers": {
    "NonfungiblePositionManager()": "eb582d13",
    "OrderManager()": "0fb92ea1",
    "_getChainlinkPrice()": "9fa68bca",
    "_increaseLiquidity()": "595ce3c8",
    "assetRatio()": "a63e8c4b",
    "balanceOf()": "722713f7",
    "balanceOfPool()": "11588086",
    "beforeDeposit()": "573fef0a",
    "changeRange(int24,int24)": "34bf6518",
    "chef()": "1fc8bc5d",
    "deposit()": "d0e30db0",
    "depositV3()": "f8cea66c",
    "fullMathLib()": "6d9adeb0",
    "getDepositToken()": "fb1b5c7b",
    "harvest()": "4641257d",
    "indexTokenChainlink()": "07061914",
    "isTokenZeroDeposit()": "afbd1378",
    "lastHarvest()": "f1a392da",
    "leverage()": "2c86d98e",
    "liquidityAmountsLib()": "c597499d",
    "liquidityMathLib()": "c3e3fd81",
    "lpToken0()": "5ee167c0",
    "lpToken1()": "877562b6",
    "manager()": "481c6a75",
    "managerHarvest()": "d801d946",
    "onERC721Received(address,address,uint256,bytes)": "150b7a02",
    "onlyManager()": "ef21c994",
    "onlyVault()": "b3a9c91c",
    "owner()": "8da5cb5b",
    "panic()": "4700d305",
    "pause()": "8456cb59",
    "paused()": "5c975abb",
    "poolFee()": "089fe6aa",
    "renounceOwnership()": "715018a6",
    "retireStrat()": "fb617787",
    "reward()": "228cb733",
    "rewardsAvailable()": "e7a7250a",
    "router()": "f887ea40",
    "safeCastLib()": "8b4f9c50",
    "setManager(address)": "d0ebdbe7",
    "setRouter(address)": "c0d78655",
    "setVault(address)": "6817031b",
    "sqrtPriceMathLib()": "e00bb0b5",
    "stake()": "3a4b66f1",
    "tickLower()": "59c4f905",
    "tickMathLib()": "342226dd",
    "tickUpper()": "55b812a8",
    "tokenID()": "a5c42ef1",
    "transferOwnership(address)": "f2fde38b",
    "unpause()": "3f4ba83a",
    "vault()": "fbfa77cf",
    "withdraw(uint256)": "2e1a7d4d",
    "withdrawResidualBalance()": "fb468ac3",
    "withdrawShortPosition(uint256,uint256,uint8)": "c0e8ca46"
  },
  "id": 54
}