{
  "abi": [
    {
      "anonymous": false,
      "inputs": [
        {
          "indexed": false,
          "internalType": "uint256",
          "name": "tvl",
          "type": "uint256"
        },
        {
          "indexed": false,
          "internalType": "uint256",
          "name": "amount",
          "type": "uint256"
        }
      ],
      "name": "Deposit",
      "type": "event"
    },
    {
      "anonymous": false,
      "inputs": [
        {
          "indexed": false,
          "internalType": "uint8",
          "name": "version",
          "type": "uint8"
        }
      ],
      "name": "Initialized",
      "type": "event"
    },
    {
      "anonymous": false,
      "inputs": [
        {
          "indexed": true,
          "internalType": "address",
          "name": "previousOwner",
          "type": "address"
        },
        {
          "indexed": true,
          "internalType": "address",
          "name": "newOwner",
          "type": "address"
        }
      ],
      "name": "OwnershipTransferred",
      "type": "event"
    },
    {
      "anonymous": false,
      "inputs": [
        {
          "indexed": false,
          "internalType": "address",
          "name": "account",
          "type": "address"
        }
      ],
      "name": "Paused",
      "type": "event"
    },
    {
      "anonymous": false,
      "inputs": [
        {
          "indexed": false,
          "internalType": "int24",
          "name": "tickLower",
          "type": "int24"
        },
        {
          "indexed": false,
          "internalType": "int24",
          "name": "tickUpper",
          "type": "int24"
        }
      ],
      "name": "RangeChange",
      "type": "event"
    },
    {
      "anonymous": false,
      "inputs": [
        {
          "indexed": false,
          "internalType": "address[]",
          "name": "newRewardToLp0AddressPath",
          "type": "address[]"
        },
        {
          "indexed": false,
          "internalType": "uint24[]",
          "name": "newRewardToLp0FeePath",
          "type": "uint24[]"
        }
      ],
      "name": "RewardToLp0PathChange",
      "type": "event"
    },
    {
      "anonymous": false,
      "inputs": [
        {
          "indexed": false,
          "internalType": "address[]",
          "name": "newRewardToLp1AddressPath",
          "type": "address[]"
        },
        {
          "indexed": false,
          "internalType": "uint24[]",
          "name": "newRewardToLp1FeePath",
          "type": "uint24[]"
        }
      ],
      "name": "RewardToLp1PathChange",
      "type": "event"
    },
    {
      "anonymous": false,
      "inputs": [
        {
          "indexed": false,
          "internalType": "address",
          "name": "manager",
          "type": "address"
        }
      ],
      "name": "SetManager",
      "type": "event"
    },
    {
      "anonymous": false,
      "inputs": [
        {
          "indexed": true,
          "internalType": "address",
          "name": "harvester",
          "type": "address"
        },
        {
          "indexed": false,
          "internalType": "uint256",
          "name": "stakeHarvested",
          "type": "uint256"
        },
        {
          "indexed": false,
          "internalType": "uint256",
          "name": "tvl",
          "type": "uint256"
        }
      ],
      "name": "StratHarvest",
      "type": "event"
    },
    {
      "anonymous": false,
      "inputs": [
        {
          "indexed": false,
          "internalType": "address",
          "name": "account",
          "type": "address"
        }
      ],
      "name": "Unpaused",
      "type": "event"
    },
    {
      "anonymous": false,
      "inputs": [
        {
          "indexed": false,
          "internalType": "uint256",
          "name": "tvl",
          "type": "uint256"
        },
        {
          "indexed": false,
          "internalType": "uint256",
          "name": "amount",
          "type": "uint256"
        }
      ],
      "name": "Withdraw",
      "type": "event"
    },
    {
      "inputs": [],
      "name": "NonfungiblePositionManager",
      "outputs": [
        {
          "internalType": "address",
          "name": "",
          "type": "address"
        }
      ],
      "stateMutability": "view",
      "type": "function"
    },
    {
      "inputs": [],
      "name": "_burnAndCollectV3",
      "outputs": [
        {
          "internalType": "uint256",
          "name": "amount0",
          "type": "uint256"
        },
        {
          "internalType": "uint256",
          "name": "amount1",
          "type": "uint256"
        }
      ],
      "stateMutability": "nonpayable",
      "type": "function"
    },
    {
      "inputs": [],
      "name": "_increaseLiquidity",
      "outputs": [],
      "stateMutability": "nonpayable",
      "type": "function"
    },
    {
      "inputs": [],
      "name": "_mintAndAddLiquidityV3",
      "outputs": [],
      "stateMutability": "nonpayable",
      "type": "function"
    },
    {
      "inputs": [],
      "name": "_stakeNonFungibleLiquidityPosition",
      "outputs": [],
      "stateMutability": "nonpayable",
      "type": "function"
    },
    {
      "inputs": [],
      "name": "_swapAssetsToNewRangeRatio",
      "outputs": [],
      "stateMutability": "nonpayable",
      "type": "function"
    },
    {
      "inputs": [],
      "name": "assettoNativeFeed",
      "outputs": [
        {
          "internalType": "address",
          "name": "",
          "type": "address"
        }
      ],
      "stateMutability": "view",
      "type": "function"
    },
    {
      "inputs": [],
      "name": "balanceOf",
      "outputs": [
        {
          "internalType": "uint256",
          "name": "",
          "type": "uint256"
        }
      ],
      "stateMutability": "view",
      "type": "function"
    },
    {
      "inputs": [
        {
          "internalType": "int24",
          "name": "_tickLower",
          "type": "int24"
        },
        {
          "internalType": "int24",
          "name": "_tickUpper",
          "type": "int24"
        }
      ],
      "name": "changeRange",
      "outputs": [],
      "stateMutability": "nonpayable",
      "type": "function"
    },
    {
      "inputs": [],
      "name": "chef",
      "outputs": [
        {
          "internalType": "address",
          "name": "",
          "type": "address"
        }
      ],
      "stateMutability": "view",
      "type": "function"
    },
    {
      "inputs": [],
      "name": "deposit",
      "outputs": [],
      "stateMutability": "nonpayable",
      "type": "function"
    },
    {
      "inputs": [],
      "name": "depositV3",
      "outputs": [],
      "stateMutability": "nonpayable",
      "type": "function"
    },
    {
      "inputs": [],
      "name": "fullMathLib",
      "outputs": [
        {
          "internalType": "address",
          "name": "",
          "type": "address"
        }
      ],
      "stateMutability": "view",
      "type": "function"
    },
    {
      "inputs": [],
      "name": "getDepositToken",
      "outputs": [
        {
          "internalType": "address",
          "name": "",
          "type": "address"
        }
      ],
      "stateMutability": "view",
      "type": "function"
    },
    {
      "inputs": [],
      "name": "harvest",
      "outputs": [],
      "stateMutability": "nonpayable",
      "type": "function"
    },
    {
      "inputs": [
        {
          "components": [
            {
              "internalType": "int24",
              "name": "tickLower",
              "type": "int24"
            },
            {
              "internalType": "int24",
              "name": "tickUpper",
              "type": "int24"
            },
            {
              "internalType": "address",
              "name": "stake",
              "type": "address"
            },
            {
              "internalType": "address",
              "name": "chef",
              "type": "address"
            },
            {
              "internalType": "address",
              "name": "reward",
              "type": "address"
            },
            {
              "internalType": "address",
              "name": "tickMathLib",
              "type": "address"
            },
            {
              "internalType": "address",
              "name": "sqrtPriceMathLib",
              "type": "address"
            },
            {
              "internalType": "address",
              "name": "liquidityMathLib",
              "type": "address"
            },
            {
              "internalType": "address",
              "name": "safeCastLib",
              "type": "address"
            },
            {
              "internalType": "address",
              "name": "liquidityAmountsLib",
              "type": "address"
            },
            {
              "internalType": "address",
              "name": "fullMathLib",
              "type": "address"
            },
            {
              "internalType": "address[]",
              "name": "rewardToLp0AddressPath",
              "type": "address[]"
            },
            {
              "internalType": "uint24[]",
              "name": "rewardToLp0FeePath",
              "type": "uint24[]"
            },
            {
              "internalType": "address[]",
              "name": "rewardToLp1AddressPath",
              "type": "address[]"
            },
            {
              "internalType": "uint24[]",
              "name": "rewardToLp1FeePath",
              "type": "uint24[]"
            },
            {
              "internalType": "address",
              "name": "rewardtoNativeFeed",
              "type": "address"
            },
            {
              "internalType": "address",
              "name": "assettoNativeFeed",
              "type": "address"
            }
          ],
          "internalType": "struct CakePoolParams",
          "name": "_cakePoolParams",
          "type": "tuple"
        },
        {
          "components": [
            {
              "internalType": "address",
              "name": "vault",
              "type": "address"
            },
            {
              "internalType": "address",
              "name": "router",
              "type": "address"
            },
            {
              "internalType": "address",
              "name": "NonfungiblePositionManager",
              "type": "address"
            }
          ],
          "internalType": "struct CommonAddresses",
          "name": "_commonAddresses",
          "type": "tuple"
        }
      ],
      "name": "init",
      "outputs": [],
      "stateMutability": "nonpayable",
      "type": "function"
    },
    {
      "inputs": [],
      "name": "isTokenZeroDeposit",
      "outputs": [
        {
          "internalType": "bool",
          "name": "",
          "type": "bool"
        }
      ],
      "stateMutability": "view",
      "type": "function"
    },
    {
      "inputs": [],
      "name": "lastHarvest",
      "outputs": [
        {
          "internalType": "uint256",
          "name": "",
          "type": "uint256"
        }
      ],
      "stateMutability": "view",
      "type": "function"
    },
    {
      "inputs": [],
      "name": "liquidityAmountsLib",
      "outputs": [
        {
          "internalType": "address",
          "name": "",
          "type": "address"
        }
      ],
      "stateMutability": "view",
      "type": "function"
    },
    {
      "inputs": [],
      "name": "liquidityBalance",
      "outputs": [
        {
          "internalType": "uint128",
          "name": "liquidity",
          "type": "uint128"
        }
      ],
      "stateMutability": "view",
      "type": "function"
    },
    {
      "inputs": [],
      "name": "liquidityMathLib",
      "outputs": [
        {
          "internalType": "address",
          "name": "",
          "type": "address"
        }
      ],
      "stateMutability": "view",
      "type": "function"
    },
    {
      "inputs": [],
      "name": "lpRewardsAvailable",
      "outputs": [
        {
          "internalType": "uint256",
          "name": "lpFeesDepositToken",
          "type": "uint256"
        }
      ],
      "stateMutability": "view",
      "type": "function"
    },
    {
      "inputs": [],
      "name": "lpToken0",
      "outputs": [
        {
          "internalType": "address",
          "name": "",
          "type": "address"
        }
      ],
      "stateMutability": "view",
      "type": "function"
    },
    {
      "inputs": [],
      "name": "lpToken1",
      "outputs": [
        {
          "internalType": "address",
          "name": "",
          "type": "address"
        }
      ],
      "stateMutability": "view",
      "type": "function"
    },
    {
      "inputs": [],
      "name": "manager",
      "outputs": [
        {
          "internalType": "address",
          "name": "",
          "type": "address"
        }
      ],
      "stateMutability": "view",
      "type": "function"
    },
    {
      "inputs": [
        {
          "internalType": "address",
          "name": "",
          "type": "address"
        },
        {
          "internalType": "address",
          "name": "",
          "type": "address"
        },
        {
          "internalType": "uint256",
          "name": "",
          "type": "uint256"
        },
        {
          "internalType": "bytes",
          "name": "",
          "type": "bytes"
        }
      ],
      "name": "onERC721Received",
      "outputs": [
        {
          "internalType": "bytes4",
          "name": "",
          "type": "bytes4"
        }
      ],
      "stateMutability": "nonpayable",
      "type": "function"
    },
    {
      "inputs": [],
      "name": "onlyManager",
      "outputs": [],
      "stateMutability": "view",
      "type": "function"
    },
    {
      "inputs": [],
      "name": "onlyVault",
      "outputs": [],
      "stateMutability": "view",
      "type": "function"
    },
    {
      "inputs": [],
      "name": "owner",
      "outputs": [
        {
          "internalType": "address",
          "name": "",
          "type": "address"
        }
      ],
      "stateMutability": "view",
      "type": "function"
    },
    {
      "inputs": [],
      "name": "panic",
      "outputs": [],
      "stateMutability": "nonpayable",
      "type": "function"
    },
    {
      "inputs": [],
      "name": "pause",
      "outputs": [],
      "stateMutability": "nonpayable",
      "type": "function"
    },
    {
      "inputs": [],
      "name": "paused",
      "outputs": [
        {
          "internalType": "bool",
          "name": "",
          "type": "bool"
        }
      ],
      "stateMutability": "view",
      "type": "function"
    },
    {
      "inputs": [],
      "name": "poolFee",
      "outputs": [
        {
          "internalType": "uint24",
          "name": "",
          "type": "uint24"
        }
      ],
      "stateMutability": "view",
      "type": "function"
    },
    {
      "inputs": [],
      "name": "renounceOwnership",
      "outputs": [],
      "stateMutability": "nonpayable",
      "type": "function"
    },
    {
      "inputs": [],
      "name": "retireStrat",
      "outputs": [],
      "stateMutability": "nonpayable",
      "type": "function"
    },
    {
      "inputs": [],
      "name": "reward",
      "outputs": [
        {
          "internalType": "address",
          "name": "",
          "type": "address"
        }
      ],
      "stateMutability": "view",
      "type": "function"
    },
    {
      "inputs": [
        {
          "internalType": "uint256",
          "name": "",
          "type": "uint256"
        }
      ],
      "name": "rewardToLp0AddressPath",
      "outputs": [
        {
          "internalType": "address",
          "name": "",
          "type": "address"
        }
      ],
      "stateMutability": "view",
      "type": "function"
    },
    {
      "inputs": [
        {
          "internalType": "uint256",
          "name": "",
          "type": "uint256"
        }
      ],
      "name": "rewardToLp0FeePath",
      "outputs": [
        {
          "internalType": "uint24",
          "name": "",
          "type": "uint24"
        }
      ],
      "stateMutability": "view",
      "type": "function"
    },
    {
      "inputs": [
        {
          "internalType": "uint256",
          "name": "",
          "type": "uint256"
        }
      ],
      "name": "rewardToLp1AddressPath",
      "outputs": [
        {
          "internalType": "address",
          "name": "",
          "type": "address"
        }
      ],
      "stateMutability": "view",
      "type": "function"
    },
    {
      "inputs": [
        {
          "internalType": "uint256",
          "name": "",
          "type": "uint256"
        }
      ],
      "name": "rewardToLp1FeePath",
      "outputs": [
        {
          "internalType": "uint24",
          "name": "",
          "type": "uint24"
        }
      ],
      "stateMutability": "view",
      "type": "function"
    },
    {
      "inputs": [],
      "name": "rewardsAvailable",
      "outputs": [
        {
          "internalType": "uint256",
          "name": "rewardsAvbl",
          "type": "uint256"
        }
      ],
      "stateMutability": "view",
      "type": "function"
    },
    {
      "inputs": [],
      "name": "rewardtoNativeFeed",
      "outputs": [
        {
          "internalType": "address",
          "name": "",
          "type": "address"
        }
      ],
      "stateMutability": "view",
      "type": "function"
    },
    {
      "inputs": [],
      "name": "router",
      "outputs": [
        {
          "internalType": "address",
          "name": "",
          "type": "address"
        }
      ],
      "stateMutability": "view",
      "type": "function"
    },
    {
      "inputs": [],
      "name": "safeCastLib",
      "outputs": [
        {
          "internalType": "address",
          "name": "",
          "type": "address"
        }
      ],
      "stateMutability": "view",
      "type": "function"
    },
    {
      "inputs": [
        {
          "internalType": "address",
          "name": "_manager",
          "type": "address"
        }
      ],
      "name": "setManager",
      "outputs": [],
      "stateMutability": "nonpayable",
      "type": "function"
    },
    {
      "inputs": [
        {
          "internalType": "address[]",
          "name": "rewardToLp0AddressPath_",
          "type": "address[]"
        },
        {
          "internalType": "uint24[]",
          "name": "rewardToLp0FeePath_",
          "type": "uint24[]"
        }
      ],
      "name": "setRewardToLp0Path",
      "outputs": [],
      "stateMutability": "nonpayable",
      "type": "function"
    },
    {
      "inputs": [
        {
          "internalType": "address[]",
          "name": "rewardToLp1AddressPath_",
          "type": "address[]"
        },
        {
          "internalType": "uint24[]",
          "name": "rewardToLp1FeePath_",
          "type": "uint24[]"
        }
      ],
      "name": "setRewardToLp1Path",
      "outputs": [],
      "stateMutability": "nonpayable",
      "type": "function"
    },
    {
      "inputs": [],
      "name": "sqrtPriceMathLib",
      "outputs": [
        {
          "internalType": "address",
          "name": "",
          "type": "address"
        }
      ],
      "stateMutability": "view",
      "type": "function"
    },
    {
      "inputs": [],
      "name": "stake",
      "outputs": [
        {
          "internalType": "address",
          "name": "",
          "type": "address"
        }
      ],
      "stateMutability": "view",
      "type": "function"
    },
    {
      "inputs": [],
      "name": "tickLower",
      "outputs": [
        {
          "internalType": "int24",
          "name": "",
          "type": "int24"
        }
      ],
      "stateMutability": "view",
      "type": "function"
    },
    {
      "inputs": [],
      "name": "tickMathLib",
      "outputs": [
        {
          "internalType": "address",
          "name": "",
          "type": "address"
        }
      ],
      "stateMutability": "view",
      "type": "function"
    },
    {
      "inputs": [],
      "name": "tickUpper",
      "outputs": [
        {
          "internalType": "int24",
          "name": "",
          "type": "int24"
        }
      ],
      "stateMutability": "view",
      "type": "function"
    },
    {
      "inputs": [],
      "name": "tokenID",
      "outputs": [
        {
          "internalType": "uint256",
          "name": "",
          "type": "uint256"
        }
      ],
      "stateMutability": "view",
      "type": "function"
    },
    {
      "inputs": [
        {
          "internalType": "address",
          "name": "newOwner",
          "type": "address"
        }
      ],
      "name": "transferOwnership",
      "outputs": [],
      "stateMutability": "nonpayable",
      "type": "function"
    },
    {
      "inputs": [],
      "name": "unpause",
      "outputs": [],
      "stateMutability": "nonpayable",
      "type": "function"
    },
    {
      "inputs": [],
      "name": "vault",
      "outputs": [
        {
          "internalType": "address",
          "name": "",
          "type": "address"
        }
      ],
      "stateMutability": "view",
      "type": "function"
    },
    {
      "inputs": [
        {
          "internalType": "uint256",
          "name": "_amount",
          "type": "uint256"
        }
      ],
      "name": "withdraw",
      "outputs": [],
      "stateMutability": "nonpayable",
      "type": "function"
    }
  ],
  "bytecode": {
    "object": "0x60806040523480156200001157600080fd5b506200001d3362000035565b6000805460ff60a01b19169055600160055562000085565b600080546001600160a01b038381166001600160a01b0319831681178455604051919092169283917f8be0079c531659141344cd1fd0a4f28419497f9722a3daafe3b4186f6b6457e09190a35050565b61421280620000956000396000f3fe608060405234801561001057600080fd5b50600436106103835760003560e01c8063a5c42ef1116101de578063d0e30db01161010f578063ef21c994116100ad578063f8cea66c1161007c578063f8cea66c14610750578063fb1b5c7b14610758578063fb61778714610760578063fbfa77cf1461076857600080fd5b8063ef21c99414610719578063f1a392da14610721578063f2fde38b1461072a578063f887ea401461073d57600080fd5b8063e7a7250a116100e9578063e7a7250a146106d8578063e93d5fc1146106e0578063eb582d13146106f3578063ebf678f01461070657600080fd5b8063d0e30db0146106aa578063d0ebdbe7146106b2578063e00bb0b5146106c557600080fd5b8063b5164afd1161017c578063c3926a2911610156578063c3926a2914610651578063c3e3fd8114610671578063c597499d14610684578063c5dc114c1461069757600080fd5b8063b5164afd14610618578063b97db3cf1461062b578063ba4eb8261461063e57600080fd5b8063adf085a2116101b8578063adf085a2146105e1578063afbd1378146105e9578063b018d38e146105fd578063b3a9c91c1461061057600080fd5b8063a5c42ef1146105c8578063aac41ef9146105d1578063abba9686146105d957600080fd5b806355b812a8116102b85780636d9adeb0116102565780638456cb59116102305780638456cb5914610589578063877562b6146105915780638b4f9c50146105a45780638da5cb5b146105b757600080fd5b80636d9adeb014610558578063715018a61461056b578063722713f71461057357600080fd5b806359c4f9051161029257806359c4f905146105075780635c975abb146105145780635ee167c01461053257806368b807231461054557600080fd5b806355b812a8146104c55780635774c0f6146104ec578063595ce3c8146104ff57600080fd5b8063342226dd116103255780633f4ba83a116102ff5780633f4ba83a1461049a5780634641257d146104a25780634700d305146104aa578063481c6a75146104b257600080fd5b8063342226dd1461046157806334bf6518146104745780633a4b66f11461048757600080fd5b80631fc8bc5d116103615780631fc8bc5d146103ed578063228cb733146104185780632534434d146104315780632e1a7d4d1461044e57600080fd5b8063089fe6aa146103885780630ca1cc5b146103b7578063150b7a02146103c1575b600080fd5b60135461039e90600160301b900462ffffff1681565b60405162ffffff90911681526020015b60405180910390f35b6103bf61077b565b005b6103d46103cf366004613620565b610952565b6040516001600160e01b031990911681526020016103ae565b600a54610400906001600160a01b031681565b6040516001600160a01b0390911681526020016103ae565b600654610400906201000090046001600160a01b031681565b610439610963565b604080519283526020830191909152016103ae565b6103bf61045c3660046136e4565b610bfb565b600b54610400906001600160a01b031681565b6103bf610482366004613717565b610ca3565b600754610400906001600160a01b031681565b6103bf610dc0565b6103bf610de2565b6103bf6111d2565b600354610400906001600160a01b031681565b6013546104d9906301000000900460020b81565b60405160029190910b81526020016103ae565b6104006104fa3660046136e4565b611218565b6103bf611242565b6013546104d99060020b81565b600054600160a01b900460ff165b60405190151581526020016103ae565b600854610400906001600160a01b031681565b6103bf61055336600461385d565b611453565b601054610400906001600160a01b031681565b6103bf6114cf565b61057b6114e1565b6040519081526020016103ae565b6103bf61182f565b600954610400906001600160a01b031681565b600e54610400906001600160a01b031681565b6000546001600160a01b0316610400565b61057b60125481565b61057b611847565b6103bf61193a565b6103bf611ba8565b60095461052290600160a01b900460ff1681565b6103bf61060b36600461385d565b611c33565b6103bf611caf565b601854610400906001600160a01b031681565b61039e6106393660046136e4565b611cf2565b61040061064c3660046136e4565b611d2b565b610659611d3b565b6040516001600160801b0390911681526020016103ae565b600d54610400906001600160a01b031681565b600f54610400906001600160a01b031681565b6103bf6106a5366004613937565b611dbc565b6103bf612469565b6103bf6106c0366004613b13565b612481565b600c54610400906001600160a01b031681565b61057b6124dd565b61039e6106ee3660046136e4565b61252b565b600454610400906001600160a01b031681565b601954610400906001600160a01b031681565b6103bf61253b565b61057b60115481565b6103bf610738366004613b13565b612580565b600254610400906001600160a01b031681565b6103bf6125f6565b610400612618565b6103bf61264d565b600154610400906001600160a01b031681565b6008546040516370a0823160e01b81523060048201526000916001600160a01b0316906370a0823190602401602060405180830381865afa1580156107c4573d6000803e3d6000fd5b505050506040513d601f19601f820116820180604052508101906107e89190613b37565b6009546040516370a0823160e01b81523060048201529192506000916001600160a01b03909116906370a0823190602401602060405180830381865afa158015610836573d6000803e3d6000fd5b505050506040513d601f19601f8201168201806040525081019061085a9190613b37565b6004805460408051610160810182526008546001600160a01b0390811682526009548116602083015260135462ffffff600160301b82041683850152600281810b60608501526301000000909104900b608083015260a0820188905260c08201869052600060e08301819052610100830181905230610120840152426101408401529251634418b22b60e11b81529596509194919092169263883164569261090492909101613b50565b6080604051808303816000875af1158015610923573d6000803e3d6000fd5b505050506040513d601f19601f820116820180604052508101906109479190613c2b565b505050601255505050565b630a85bd0160e11b5b949350505050565b60008061096e612655565b6000610978611d3b565b90506000816001600160801b0316116109d15760405162461bcd60e51b81526020600482015260166024820152754e6f204c697175696469747920617661696c61626c6560501b60448201526064015b60405180910390fd5b600a54601254604051627b8a6760e11b815260048101919091523060248201526001600160a01b039091169062f714ce906044016020604051808303816000875af1158015610a24573d6000803e3d6000fd5b505050506040513d601f19601f82011682018060405250810190610a489190613b37565b50600480546040805160a08101825260125481526001600160801b0385166020820152600081830181905260608201524260808201529051630624e65f60e11b81526001600160a01b0390921692630c49ccbe92610aa7929101613c67565b60408051808303816000875af1158015610ac5573d6000803e3d6000fd5b505050506040513d601f19601f82011682018060405250810190610ae99190613caa565b5050600480546040805160808101825260125481523060208201526001600160801b038183018190526060820152905163fc6f786560e01b81526001600160a01b039092169263fc6f786592610b40929101613cce565b60408051808303816000875af1158015610b5e573d6000803e3d6000fd5b505050506040513d601f19601f82011682018060405250810190610b829190613caa565b60048054601254604051630852cd8d60e31b8152928301529295509093506001600160a01b03909116906342966c6890602401600060405180830381600087803b158015610bcf57600080fd5b505af1158015610be3573d6000803e3d6000fd5b5050600060125550610bf791506126ae9050565b9091565b610c03612655565b610c0b611caf565b600080610c17836126b5565b915091506000610c27838361295c565b600154909150610c53906001600160a01b031682610c43612618565b6001600160a01b03169190612a29565b7f56ca301a9219608c91e7bcee90e083c19671d2cdcc96752c7af291cee5f9c8c8610c7c6114e1565b60408051918252602082018790520160405180910390a1505050610ca06001600555565b50565b610cab612a8c565b601354600b54600754604051638745d9e760e01b815273__$5e45ab65a274056c1a42c62f410605b0da$__93638745d9e793610d0d93600283810b946301000000909404900b92899289926001600160a01b0391821692911690600401613d11565b60006040518083038186803b158015610d2557600080fd5b505af4158015610d39573d6000803e3d6000fd5b50505050610d45610963565b50506013805462ffffff83811663010000000265ffffffffffff1990921690851617179055610d72612ae6565b60135460408051600283810b8252630100000090930490920b60208301527fd00a8d17a19b7ceda57ab41f25a4626f485d085482b0525baaaa7caac12b492e91015b60405180910390a15050565b610dc861253b565b610dd0612af6565b610dd8612b4b565b610de0612469565b565b610dea612c88565b600a54601254604051630c7e663b60e11b815260048101919091523060248201526001600160a01b03909116906318fccc76906044016020604051808303816000875af1158015610e3f573d6000803e3d6000fd5b505050506040513d601f19601f82011682018060405250810190610e639190613b37565b506006546040516370a0823160e01b81523060048201526000916201000090046001600160a01b0316906370a0823190602401602060405180830381865afa158015610eb3573d6000803e3d6000fd5b505050506040513d601f19601f82011682018060405250810190610ed79190613b37565b905080156110eb576006546008546001600160a01b03908116620100009092041614801590610f0f5750600954600160a01b900460ff165b15610ff557610ff36014805480602002602001604051908101604052809291908181526020018280548015610f6d57602002820191906000526020600020905b81546001600160a01b03168152600190910190602001808311610f4f575b50505050506015805480602002602001604051908101604052809291908181526020018280548015610fe857602002820191906000526020600020906000905b82829054906101000a900462ffffff1662ffffff1681526020019060030190602082600201049283019260010382029150808411610fad5790505b505050505083612cd5565b505b6006546009546001600160a01b039081166201000090920416148015906110265750600954600160a01b900460ff16155b156110e6576110e4601680548060200260200160405190810160405280929190818152602001828054801561108457602002820191906000526020600020905b81546001600160a01b03168152600190910190602001808311611066575b50505050506017805480602002602001604051908101604052809291908181526020018280548015610fe8576000918252602091829020805462ffffff168452908202830192909160039101808411610fad579050505050505083612cd5565b505b426011555b600a546040805160808101825260125481523060208201526001600160801b038183018190526060820152905163fc6f786560e01b81526001600160a01b039092169163fc6f78659161114091600401613cce565b60408051808303816000875af115801561115e573d6000803e3d6000fd5b505050506040513d601f19601f820116820180604052508101906111829190613caa565b505061118c612ae6565b337f9bc239f1724cacfb88cb1d66a2dc437467699b68a8c90d7b63110cf4b6f92410826111b76114e1565b6040805192835260208301919091520160405180910390a250565b6111da61253b565b6111e261182f565b6000806111ed610963565b6001549193509150611214906001600160a01b031661120c848461295c565b610c43612618565b5050565b6014818154811061122857600080fd5b6000918252602090912001546001600160a01b0316905081565b6008546040516370a0823160e01b81523060048201526000916001600160a01b0316906370a0823190602401602060405180830381865afa15801561128b573d6000803e3d6000fd5b505050506040513d601f19601f820116820180604052508101906112af9190613b37565b6009546040516370a0823160e01b81523060048201529192506000916001600160a01b03909116906370a0823190602401602060405180830381865afa1580156112fd573d6000803e3d6000fd5b505050506040513d601f19601f820116820180604052508101906113219190613b37565b600480546040805160c081018252601254815260208101878152818301868152600060608401818152608085019182524260a08601908152955163219f5d1760e01b81529451978501979097529151602484015251604483015293516064820152925160848401525160a48301529192506001600160a01b039091169063219f5d179060c4016060604051808303816000875af11580156113c6573d6000803e3d6000fd5b505050506040513d601f19601f820116820180604052508101906113ea9190613d4d565b5050600a54601254604051636768488960e11b815260048101919091526001600160a01b03909116915063ced0911290602401600060405180830381600087803b15801561143757600080fd5b505af115801561144b573d6000803e3d6000fd5b505050505050565b61145b61253b565b600182516114699190613d98565b8151146114885760405162461bcd60e51b81526004016109c890613db1565b611493601483612e49565b61149e601582612eb5565b7f92ec361f55eabacf1c0ffe0509739dc2462b2e206c59631b15d558124e1dda188282604051610db4929190613dcd565b6114d7612a8c565b610de06000612f38565b6000806114ec611d3b565b6040805160e081018252601354600281810b83526301000000909104900b60208201526001600160801b03831681830152600e546001600160a01b039081166060830152600c5481166080830152600b54811660a08301526007541660c082015290516338c4b34760e21b8152919250600091829173__$5e45ab65a274056c1a42c62f410605b0da$__9163e312cd1c9161158991600401613ebb565b6040805180830381865af41580156115a5573d6000803e3d6000fd5b505050506040513d601f19601f820116820180604052508101906115c99190613caa565b6008546040516370a0823160e01b81523060048201529294509092506000916001600160a01b03909116906370a0823190602401602060405180830381865afa15801561161a573d6000803e3d6000fd5b505050506040513d601f19601f8201168201806040525081019061163e9190613b37565b6009546040516370a0823160e01b81523060048201529192506000916001600160a01b03909116906370a0823190602401602060405180830381865afa15801561168c573d6000803e3d6000fd5b505050506040513d601f19601f820116820180604052508101906116b09190613b37565b600954909150600160a01b900460ff16156117835773__$5e45ab65a274056c1a42c62f410605b0da$__632ca891326116e98386613ec9565b60075460105460405160e085901b6001600160e01b031916815260048101939093526001600160a01b039182166024840152166044820152606401602060405180830381865af4158015611741573d6000803e3d6000fd5b505050506040513d601f19601f820116820180604052508101906117659190613b37565b61176f8386613ec9565b6117799190613ec9565b9550505050505090565b808373__$5e45ab65a274056c1a42c62f410605b0da$__636520a11d6117a98689613ec9565b60075460105460405160e085901b6001600160e01b031916815260048101939093526001600160a01b039182166024840152166044820152606401602060405180830381865af4158015611801573d6000803e3d6000fd5b505050506040513d601f19601f820116820180604052508101906118259190613b37565b61176f9190613ec9565b61183761253b565b61183f612f88565b610de0612fcb565b6040805160a081018252600954600160a01b900460ff1615158152601254602082019081526007546001600160a01b0390811683850190815260048054831660608601908152601054841660808701908152965163d001211f60e01b815295511515918601919091529251602485015251811660448401529051811660648301529151909116608482015260009073__$5e45ab65a274056c1a42c62f410605b0da$__9063d001211f9060a401602060405180830381865af4158015611911573d6000803e3d6000fd5b505050506040513d601f19601f820116820180604052508101906119359190613b37565b905090565b6008546040516370a0823160e01b81523060048201526000916001600160a01b0316906370a0823190602401602060405180830381865afa158015611983573d6000803e3d6000fd5b505050506040513d601f19601f820116820180604052508101906119a79190613b37565b6009546040516370a0823160e01b81523060048201529192506000916001600160a01b03909116906370a0823190602401602060405180830381865afa1580156119f5573d6000803e3d6000fd5b505050506040513d601f19601f82011682018060405250810190611a199190613b37565b6040805160e081018252601354600281810b835263010000008204900b6020808401919091526b204fce5e3e2502611000000083850152600e546001600160a01b03908116606080860191909152600c548216608080870191909152600b54831660a0870152600754831660c087015286519081018752600160301b90940462ffffff1684529183018890528285018690526010541690820152915163bf37f00f60e01b8152929350600092839273__$5e45ab65a274056c1a42c62f410605b0da$__9263bf37f00f92611af09290600401613edc565b6040805180830381865af4158015611b0c573d6000803e3d6000fd5b505050506040513d601f19601f82011682018060405250810190611b309190613caa565b9150915081600014611b6c57600854600954601354611b6a926001600160a01b039081169216908590600160301b900462ffffff16613067565b505b8015611ba257600954600854601354611ba0926001600160a01b039081169216908490600160301b900462ffffff16613067565b505b50505050565b611bb0612c88565b611bb8612655565b60048054600a54601254604051632142170760e11b815230948101949094526001600160a01b039182166024850152604484015216906342842e0e90606401600060405180830381600087803b158015611c1157600080fd5b505af1158015611c25573d6000803e3d6000fd5b50505050610de06001600555565b611c3b61253b565b60018251611c499190613d98565b815114611c685760405162461bcd60e51b81526004016109c890613db1565b611c73601683612e49565b611c7e601782612eb5565b7fd60de51c4b7b31568ee8c6a5fcc0338f89e13844171d916ff7cce68943275e5f8282604051610db4929190613dcd565b6001546001600160a01b03163314610de05760405162461bcd60e51b8152602060048201526006602482015265085d985d5b1d60d21b60448201526064016109c8565b60158181548110611d0257600080fd5b90600052602060002090600a9182820401919006600302915054906101000a900462ffffff1681565b6016818154811061122857600080fd5b600a54601254604051630ec6b3dd60e21b815260048101919091526000916001600160a01b031690633b1acf749060240161012060405180830381865afa158015611d8a573d6000803e3d6000fd5b505050506040513d601f19601f82011682018060405250810190611dae9190613f28565b509698975050505050505050565b600654610100900460ff1615808015611ddc5750600654600160ff909116105b80611df65750303b158015611df6575060065460ff166001145b611e595760405162461bcd60e51b815260206004820152602e60248201527f496e697469616c697a61626c653a20636f6e747261637420697320616c72656160448201526d191e481a5b9a5d1a585b1a5e995960921b60648201526084016109c8565b6006805460ff191660011790558015611e7c576006805461ff0019166101001790555b60a0830151600b80546001600160a01b03199081166001600160a01b039384161790915560c0850151600c8054831691841691909117905560e0850151600d80548316918416919091179055610100850151600e80548316918416919091179055610120850151600f8054831691841691909117905561014085015160108054831691841691909117905560408501516007805483169184169190911790556060850151600a805490921690831617905560808401516006805462010000600160b01b03191662010000929093169190910291909117905561016083015151611f6790600190613d98565b8361018001515114611f8b5760405162461bcd60e51b81526004016109c890613db1565b6001836101a0015151611f9e9190613d98565b836101c001515114611fc25760405162461bcd60e51b81526004016109c890613db1565b6101608301518051611fdc9160149160209091019061346d565b506101808301518051611ff7916015916020909101906134d2565b506101a083015180516120129160169160209091019061346d565b506101c0830151805161202d916017916020909101906134d2565b5082516020840151600b54600754604051638745d9e760e01b815273__$5e45ab65a274056c1a42c62f410605b0da$__94638745d9e7946120859460009485946001600160a01b039283169290911690600401613d11565b60006040518083038186803b15801561209d57600080fd5b505af41580156120b1573d6000803e3d6000fd5b505084516013805460208089015162ffffff90811663010000000265ffffffffffff199093169416939093171790556007546040805163ddca3f4360e01b815290516001600160a01b03909216945063ddca3f43935060048082019392918290030181865afa158015612128573d6000803e3d6000fd5b505050506040513d601f19601f8201168201806040525081019061214c9190613fbf565b601360066101000a81548162ffffff021916908362ffffff160217905550600760009054906101000a90046001600160a01b03166001600160a01b0316630dfe16816040518163ffffffff1660e01b8152600401602060405180830381865afa1580156121bd573d6000803e3d6000fd5b505050506040513d601f19601f820116820180604052508101906121e19190613fdc565b600880546001600160a01b0319166001600160a01b039283161790556007546040805163d21220a760e01b81529051919092169163d21220a79160048083019260209291908290030181865afa15801561223f573d6000803e3d6000fd5b505050506040513d601f19601f820116820180604052508101906122639190613fdc565b600980546001600160a01b039283166001600160a01b0319909116179055825160408051808201825260078152666173736574282960c81b60209182015281516004815260248101835290810180516001600160e01b03166338d52e0f60e01b1790529051600093849316916122d89161401d565b6000604051808303816000865af19150503d8060008114612315576040519150601f19603f3d011682016040523d82523d6000602084013e61231a565b606091505b5091509150816123515760405162461bcd60e51b815260206004820152600260248201526120a360f11b60448201526064016109c8565b60085481516001600160a01b03909116906123759083016020908101908401613fdc565b6009805460ff60a01b19166001600160a01b0392831693909314600160a01b02929092179091556101e0860151601880546001600160a01b0319908116928416929092179055610200870151601980548316918416919091179055855160018054831691841691909117905560208601516002805483169184169190911790556003805433908316179055604086015160048054909216921691909117905561241c612b4b565b50508015612464576006805461ff0019169055604051600181527f7f26b83ff96e1f2b6a682f133852f6798a09c465da95921460cefb38474024989060200160405180910390a15b505050565b612471612c88565b612479611caf565b610de0612ae6565b61248961253b565b600380546001600160a01b0319166001600160a01b0383169081179091556040519081527f54a6385aa0292b04e1ef8513253c17d1863f7cdfc87029d77fd55cc4c2e717e29060200160405180910390a150565b600a5460125460405163672f9ce360e11b815260048101919091526000916001600160a01b03169063ce5f39c690602401602060405180830381865afa158015611911573d6000803e3d6000fd5b60178181548110611d0257600080fd5b6003546001600160a01b03163314610de05760405162461bcd60e51b815260206004820152600860248201526710b6b0b730b3b2b960c11b60448201526064016109c8565b612588612a8c565b6001600160a01b0381166125ed5760405162461bcd60e51b815260206004820152602660248201527f4f776e61626c653a206e6577206f776e657220697320746865207a65726f206160448201526564647265737360d01b60648201526084016109c8565b610ca081612f38565b6012546000036126105761260861077b565b610de0611ba8565b610de0611242565b600954600090600160a01b900460ff161561263d57506008546001600160a01b031690565b506009546001600160a01b031690565b6111e2611caf565b6002600554036126a75760405162461bcd60e51b815260206004820152601f60248201527f5265656e7472616e637947756172643a207265656e7472616e742063616c6c0060448201526064016109c8565b6002600555565b6001600555565b6040805160e081018252601354600281810b835263010000008204900b6020808401919091526b204fce5e3e2502611000000083850152600e546001600160a01b03908116606080860191909152600c548216608080870191909152600b54831660a080880191909152600754841660c088015287519081018852600954600160a01b900460ff1615158152600160301b90950462ffffff1693850193909352838601879052601054821690840152600f54169082015291516328dd68f160e11b81526000928392839273__$5e45ab65a274056c1a42c62f410605b0da$__926351bad1e2926127aa92909190600401614039565b602060405180830381865af41580156127c7573d6000803e3d6000fd5b505050506040513d601f19601f820116820180604052508101906127eb9190614097565b905060006127f7611d3b565b9050806001600160801b0316826001600160801b03161115612817578091505b600a546040805160a08101825260125481526001600160801b0385166020820152600081830181905260608201524260808201529051630624e65f60e11b81526001600160a01b0390921691630c49ccbe9161287591600401613c67565b60408051808303816000875af1158015612893573d6000803e3d6000fd5b505050506040513d601f19601f820116820180604052508101906128b79190613caa565b5050600a546040805160808101825260125481523060208201526001600160801b038183018190526060820152905163fc6f786560e01b81526001600160a01b039092169163fc6f78659161290e91600401613cce565b60408051808303816000875af115801561292c573d6000803e3d6000fd5b505050506040513d601f19601f820116820180604052508101906129509190613caa565b90969095509350505050565b600080612967612618565b6008549091506000906001600160a01b0380841691161480159061298a57508415155b156129c7576008546013546129b8916001600160a01b03169084908890600160301b900462ffffff16613067565b90506129c48185613ec9565b92505b6009546001600160a01b038381169116148015906129e457508315155b15612a2157600954601354612a12916001600160a01b03169084908790600160301b900462ffffff16613067565b9050612a1e8186613ec9565b92505b505092915050565b6040516001600160a01b03831660248201526044810182905261246490849063a9059cbb60e01b906064015b60408051601f198184030181529190526020810180516001600160e01b03166001600160e01b031990931692909217909152613113565b6000546001600160a01b03163314610de05760405162461bcd60e51b815260206004820181905260248201527f4f776e61626c653a2063616c6c6572206973206e6f7420746865206f776e657260448201526064016109c8565b612aee61193a565b610de06125f6565b612afe6131e5565b6000805460ff60a01b191690557f5db9ee0a495bf2e6ff9c91a7834c1ba4fdd244a5e8aa4e537bd38aeae4b073aa335b6040516001600160a01b03909116815260200160405180910390a1565b600254600654612b6f916001600160a01b0362010000909204821691166000613235565b600254600654612b94916001600160a01b036201000090920482169116600019613235565b600254600854612bb2916001600160a01b0391821691166000613235565b600254600854612bd1916001600160a01b039182169116600019613235565b600254600954612bef916001600160a01b0391821691166000613235565b600254600954612c0e916001600160a01b039182169116600019613235565b600454600854612c2c916001600160a01b0391821691166000613235565b600454600854612c4b916001600160a01b039182169116600019613235565b600454600954612c69916001600160a01b0391821691166000613235565b600454600954610de0916001600160a01b039182169116600019613235565b600054600160a01b900460ff1615610de05760405162461bcd60e51b815260206004820152601060248201526f14185d5cd8589b194e881c185d5cd95960821b60448201526064016109c8565b60008084600081518110612ceb57612ceb6140b2565b6020026020010151604051602001612d1b919060609190911b6bffffffffffffffffffffffff1916815260140190565b604051602081830303815290604052905060005b8451811015612daf5781858281518110612d4b57612d4b6140b2565b602002602001015187836001612d619190613ec9565b81518110612d7157612d716140b2565b6020026020010151604051602001612d8b939291906140c8565b60405160208183030381529060405291508080612da790614114565b915050612d2f565b506002546040805160808101825283815230602082015280820186905260006060820152905163b858183f60e01b81526001600160a01b039092169163b858183f91612dfd91600401614159565b6020604051808303816000875af1158015612e1c573d6000803e3d6000fd5b505050506040513d601f19601f82011682018060405250810190612e409190613b37565b95945050505050565b60005b81518110156124645782828281518110612e6857612e686140b2565b60209081029190910181015182546001810184556000938452919092200180546001600160a01b0319166001600160a01b0390921691909117905580612ead81614114565b915050612e4c565b60005b81518110156124645782828281518110612ed457612ed46140b2565b602002602001015190806001815401808255809150506001900390600052602060002090600a91828204019190066003029091909190916101000a81548162ffffff021916908362ffffff1602179055508080612f3090614114565b915050612eb8565b600080546001600160a01b038381166001600160a01b0319831681178455604051919092169283917f8be0079c531659141344cd1fd0a4f28419497f9722a3daafe3b4186f6b6457e09190a35050565b612f90612c88565b6000805460ff60a01b1916600160a01b1790557f62e78cea01bee320cd4e420270b5ea74000d11b0c9f74754ebdbfc544b05a258612b2e3390565b600254600654612fef916001600160a01b0362010000909204821691166000613235565b60025460085461300d916001600160a01b0391821691166000613235565b60025460095461302b916001600160a01b0391821691166000613235565b600454600854613049916001600160a01b0391821691166000613235565b600454600954610de0916001600160a01b0391821691166000613235565b6002546040805160e0810182526001600160a01b0387811682528681166020830190815262ffffff8681168486019081523060608601908152608086018a8152600060a0880181815260c0890182815299516304e45aaf60e01b81529851881660048a015295518716602489015292519093166044870152518416606486015290516084850152905160a48401529251811660c4830152919291909116906304e45aaf9060e401612dfd565b6000613168826040518060400160405280602081526020017f5361666545524332303a206c6f772d6c6576656c2063616c6c206661696c6564815250856001600160a01b031661334a9092919063ffffffff16565b805190915015612464578080602001905181019061318691906141a7565b6124645760405162461bcd60e51b815260206004820152602a60248201527f5361666545524332303a204552433230206f7065726174696f6e20646964206e6044820152691bdd081cdd58d8d9595960b21b60648201526084016109c8565b600054600160a01b900460ff16610de05760405162461bcd60e51b815260206004820152601460248201527314185d5cd8589b194e881b9bdd081c185d5cd95960621b60448201526064016109c8565b8015806132af5750604051636eb1769f60e11b81523060048201526001600160a01b03838116602483015284169063dd62ed3e90604401602060405180830381865afa158015613289573d6000803e3d6000fd5b505050506040513d601f19601f820116820180604052508101906132ad9190613b37565b155b61331a5760405162461bcd60e51b815260206004820152603660248201527f5361666545524332303a20617070726f76652066726f6d206e6f6e2d7a65726f60448201527520746f206e6f6e2d7a65726f20616c6c6f77616e636560501b60648201526084016109c8565b6040516001600160a01b03831660248201526044810182905261246490849063095ea7b360e01b90606401612a55565b606061095b848460008585600080866001600160a01b03168587604051613371919061401d565b60006040518083038185875af1925050503d80600081146133ae576040519150601f19603f3d011682016040523d82523d6000602084013e6133b3565b606091505b50915091506133c4878383876133cf565b979650505050505050565b6060831561343e578251600003613437576001600160a01b0385163b6134375760405162461bcd60e51b815260206004820152601d60248201527f416464726573733a2063616c6c20746f206e6f6e2d636f6e747261637400000060448201526064016109c8565b508161095b565b61095b83838151156134535781518083602001fd5b8060405162461bcd60e51b81526004016109c891906141c9565b8280548282559060005260206000209081019282156134c2579160200282015b828111156134c257825182546001600160a01b0319166001600160a01b0390911617825560209092019160019091019061348d565b506134ce929150613575565b5090565b82805482825590600052602060002090600901600a900481019282156134c25791602002820160005b8382111561353d57835183826101000a81548162ffffff021916908362ffffff16021790555092602001926003016020816002010492830192600103026134fb565b801561356c5782816101000a81549062ffffff021916905560030160208160020104928301926001030261353d565b50506134ce9291505b5b808211156134ce5760008155600101613576565b6001600160a01b0381168114610ca057600080fd5b80356135aa8161358a565b919050565b634e487b7160e01b600052604160045260246000fd5b604051610220810167ffffffffffffffff811182821017156135e9576135e96135af565b60405290565b604051601f8201601f1916810167ffffffffffffffff81118282101715613618576136186135af565b604052919050565b6000806000806080858703121561363657600080fd5b84356136418161358a565b93506020858101356136528161358a565b935060408601359250606086013567ffffffffffffffff8082111561367657600080fd5b818801915088601f83011261368a57600080fd5b81358181111561369c5761369c6135af565b6136ae601f8201601f191685016135ef565b915080825289848285010111156136c457600080fd5b808484018584013760008482840101525080935050505092959194509250565b6000602082840312156136f657600080fd5b5035919050565b8060020b8114610ca057600080fd5b80356135aa816136fd565b6000806040838503121561372a57600080fd5b8235613735816136fd565b91506020830135613745816136fd565b809150509250929050565b600067ffffffffffffffff82111561376a5761376a6135af565b5060051b60200190565b600082601f83011261378557600080fd5b8135602061379a61379583613750565b6135ef565b82815260059290921b840181019181810190868411156137b957600080fd5b8286015b848110156137dd5780356137d08161358a565b83529183019183016137bd565b509695505050505050565b62ffffff81168114610ca057600080fd5b600082601f83011261380a57600080fd5b8135602061381a61379583613750565b82815260059290921b8401810191818101908684111561383957600080fd5b8286015b848110156137dd578035613850816137e8565b835291830191830161383d565b6000806040838503121561387057600080fd5b823567ffffffffffffffff8082111561388857600080fd5b61389486838701613774565b935060208501359150808211156138aa57600080fd5b506138b7858286016137f9565b9150509250929050565b6000606082840312156138d357600080fd5b6040516060810181811067ffffffffffffffff821117156138f6576138f66135af565b60405290508082356139078161358a565b815260208301356139178161358a565b6020820152604083013561392a8161358a565b6040919091015292915050565b6000806080838503121561394a57600080fd5b823567ffffffffffffffff8082111561396257600080fd5b90840190610220828703121561397757600080fd5b61397f6135c5565b6139888361370c565b81526139966020840161370c565b60208201526139a76040840161359f565b60408201526139b86060840161359f565b60608201526139c96080840161359f565b60808201526139da60a0840161359f565b60a08201526139eb60c0840161359f565b60c08201526139fc60e0840161359f565b60e0820152610100613a0f81850161359f565b90820152610120613a2184820161359f565b90820152610140613a3384820161359f565b908201526101608381013583811115613a4b57600080fd5b613a5789828701613774565b8284015250506101808084013583811115613a7157600080fd5b613a7d898287016137f9565b8284015250506101a08084013583811115613a9757600080fd5b613aa389828701613774565b8284015250506101c08084013583811115613abd57600080fd5b613ac9898287016137f9565b8284015250506101e09150613adf82840161359f565b828201526102009150613af382840161359f565b82820152809450505050613b0a84602085016138c1565b90509250929050565b600060208284031215613b2557600080fd5b8135613b308161358a565b9392505050565b600060208284031215613b4957600080fd5b5051919050565b81516001600160a01b0316815261016081016020830151613b7c60208401826001600160a01b03169052565b506040830151613b93604084018262ffffff169052565b506060830151613ba8606084018260020b9052565b506080830151613bbd608084018260020b9052565b5060a083015160a083015260c083015160c083015260e083015160e083015261010080840151818401525061012080840151613c03828501826001600160a01b03169052565b505061014092830151919092015290565b80516001600160801b03811681146135aa57600080fd5b60008060008060808587031215613c4157600080fd5b84519350613c5160208601613c14565b6040860151606090960151949790965092505050565b600060a082019050825182526001600160801b03602084015116602083015260408301516040830152606083015160608301526080830151608083015292915050565b60008060408385031215613cbd57600080fd5b505080516020909101519092909150565b815181526020808301516001600160a01b0316908201526040808301516001600160801b0390811691830191909152606092830151169181019190915260800190565b600296870b815294860b602086015292850b6040850152930b60608301526001600160a01b03928316608083015290911660a082015260c00190565b600080600060608486031215613d6257600080fd5b613d6b84613c14565b925060208401519150604084015190509250925092565b634e487b7160e01b600052601160045260246000fd5b81810381811115613dab57613dab613d82565b92915050565b602080825260029082015261049560f41b604082015260600190565b604080825283519082018190526000906020906060840190828701845b82811015613e0f5781516001600160a01b031684529284019290840190600101613dea565b5050508381038285015284518082528583019183019060005b81811015613e4957835162ffffff1683529284019291840191600101613e28565b5090979650505050505050565b805160020b8252602081015160020b60208301526001600160801b036040820151166040830152606081015160018060a01b0380821660608501528060808401511660808501528060a08401511660a08501528060c08401511660c085015250505050565b60e08101613dab8284613e56565b80820180821115613dab57613dab613d82565b6101608101613eeb8285613e56565b825162ffffff1660e0830152602083015161010083015260408301516101208301526060909201516001600160a01b031661014090910152919050565b60008060008060008060008060006101208a8c031215613f4757600080fd5b613f508a613c14565b9850613f5e60208b01613c14565b975060408a0151613f6e816136fd565b60608b0151909750613f7f816136fd565b8096505060808a0151945060a08a0151935060c08a0151613f9f8161358a565b8093505060e08a015191506101008a015190509295985092959850929598565b600060208284031215613fd157600080fd5b8151613b30816137e8565b600060208284031215613fee57600080fd5b8151613b308161358a565b60005b83811015614014578181015183820152602001613ffc565b50506000910152565b6000825161402f818460208701613ff9565b9190910192915050565b61018081016140488285613e56565b8251151560e0830152602083015162ffffff16610100830152604083015161012083015260608301516001600160a01b0390811661014084015260809093015190921661016090910152919050565b6000602082840312156140a957600080fd5b613b3082613c14565b634e487b7160e01b600052603260045260246000fd5b600084516140da818460208901613ff9565b60e89490941b6001600160e81b0319169190930190815260609190911b6bffffffffffffffffffffffff1916600382015260170192915050565b60006001820161412657614126613d82565b5060010190565b60008151808452614145816020860160208601613ff9565b601f01601f19169290920160200192915050565b60208152600082516080602084015261417560a084018261412d565b905060018060a01b03602085015116604084015260408401516060840152606084015160808401528091505092915050565b6000602082840312156141b957600080fd5b81518015158114613b3057600080fd5b602081526000613b30602083018461412d56fea2646970667358221220781411ea170c6efe2a9ae989a2b8fdf3dc1b348467971bc63dd4aa38acf4ccc064736f6c63430008110033",
    "linkReferences": {
      "src/libs/DexV3Calculations.sol": {
        "DexV3Calculations": [
          {
            "start": 3416,
            "length": 20
          },
          {
            "start": 5624,
            "length": 20
          },
          {
            "start": 5980,
            "length": 20
          },
          {
            "start": 6172,
            "length": 20
          },
          {
            "start": 6508,
            "length": 20
          },
          {
            "start": 7006,
            "length": 20
          },
          {
            "start": 8415,
            "length": 20
          },
          {
            "start": 10262,
            "length": 20
          }
        ]
      }
    }
  },
  "methodIdentifiers": {
    "NonfungiblePositionManager()": "eb582d13",
    "_burnAndCollectV3()": "2534434d",
    "_increaseLiquidity()": "595ce3c8",
    "_mintAndAddLiquidityV3()": "0ca1cc5b",
    "_stakeNonFungibleLiquidityPosition()": "adf085a2",
    "_swapAssetsToNewRangeRatio()": "abba9686",
    "assettoNativeFeed()": "ebf678f0",
    "balanceOf()": "722713f7",
    "changeRange(int24,int24)": "34bf6518",
    "chef()": "1fc8bc5d",
    "deposit()": "d0e30db0",
    "depositV3()": "f8cea66c",
    "fullMathLib()": "6d9adeb0",
    "getDepositToken()": "fb1b5c7b",
    "harvest()": "4641257d",
    "init((int24,int24,address,address,address,address,address,address,address,address,address,address[],uint24[],address[],uint24[],address,address),(address,address,address))": "c5dc114c",
    "isTokenZeroDeposit()": "afbd1378",
    "lastHarvest()": "f1a392da",
    "liquidityAmountsLib()": "c597499d",
    "liquidityBalance()": "c3926a29",
    "liquidityMathLib()": "c3e3fd81",
    "lpRewardsAvailable()": "aac41ef9",
    "lpToken0()": "5ee167c0",
    "lpToken1()": "877562b6",
    "manager()": "481c6a75",
    "onERC721Received(address,address,uint256,bytes)": "150b7a02",
    "onlyManager()": "ef21c994",
    "onlyVault()": "b3a9c91c",
    "owner()": "8da5cb5b",
    "panic()": "4700d305",
    "pause()": "8456cb59",
    "paused()": "5c975abb",
    "poolFee()": "089fe6aa",
    "renounceOwnership()": "715018a6",
    "retireStrat()": "fb617787",
    "reward()": "228cb733",
    "rewardToLp0AddressPath(uint256)": "5774c0f6",
    "rewardToLp0FeePath(uint256)": "b97db3cf",
    "rewardToLp1AddressPath(uint256)": "ba4eb826",
    "rewardToLp1FeePath(uint256)": "e93d5fc1",
    "rewardsAvailable()": "e7a7250a",
    "rewardtoNativeFeed()": "b5164afd",
    "router()": "f887ea40",
    "safeCastLib()": "8b4f9c50",
    "setManager(address)": "d0ebdbe7",
    "setRewardToLp0Path(address[],uint24[])": "68b80723",
    "setRewardToLp1Path(address[],uint24[])": "b018d38e",
    "sqrtPriceMathLib()": "e00bb0b5",
    "stake()": "3a4b66f1",
    "tickLower()": "59c4f905",
    "tickMathLib()": "342226dd",
    "tickUpper()": "55b812a8",
    "tokenID()": "a5c42ef1",
    "transferOwnership(address)": "f2fde38b",
    "unpause()": "3f4ba83a",
    "vault()": "fbfa77cf",
    "withdraw(uint256)": "2e1a7d4d"
  },
  "id": 65
}