{
  "abi": [
    {
      "inputs": [
        {
          "components": [
            {
              "internalType": "address",
              "name": "asset",
              "type": "address"
            },
            {
              "internalType": "uint256",
              "name": "totalTvlCap",
              "type": "uint256"
            },
            {
              "internalType": "uint256",
              "name": "approvalDelay",
              "type": "uint256"
            },
            {
              "internalType": "string",
              "name": "tokenName",
              "type": "string"
            },
            {
              "internalType": "string",
              "name": "tokenSymbol",
              "type": "string"
            },
            {
              "internalType": "int24",
              "name": "tickLower",
              "type": "int24"
            },
            {
              "internalType": "int24",
              "name": "tickUpper",
              "type": "int24"
            },
            {
              "internalType": "address",
              "name": "stake",
              "type": "address"
            },
            {
              "internalType": "address[]",
              "name": "rewardToLp0AddressPath",
              "type": "address[]"
            },
            {
              "internalType": "uint24[]",
              "name": "rewardToLp0FeePath",
              "type": "uint24[]"
            },
            {
              "internalType": "address[]",
              "name": "rewardToLp1AddressPath",
              "type": "address[]"
            },
            {
              "internalType": "uint24[]",
              "name": "rewardToLp1FeePath",
              "type": "uint24[]"
            },
            {
              "internalType": "address",
              "name": "rewardtoNativeFeed",
              "type": "address"
            },
            {
              "internalType": "address",
              "name": "assettoNativeFeed",
              "type": "address"
            },
            {
              "internalType": "address",
              "name": "tickMathLib",
              "type": "address"
            },
            {
              "internalType": "address",
              "name": "sqrtPriceMathLib",
              "type": "address"
            },
            {
              "internalType": "address",
              "name": "liquidityMathLib",
              "type": "address"
            },
            {
              "internalType": "address",
              "name": "safeCastLib",
              "type": "address"
            },
            {
              "internalType": "address",
              "name": "liquidityAmountsLib",
              "type": "address"
            },
            {
              "internalType": "address",
              "name": "fullMathLib",
              "type": "address"
            }
          ],
          "internalType": "struct CreateVaultParams",
          "name": "createVaultParams",
          "type": "tuple"
        },
        {
          "internalType": "address",
          "name": "vaultAddress",
          "type": "address"
        },
        {
          "internalType": "address",
          "name": "user",
          "type": "address"
        },
        {
          "internalType": "address",
          "name": "manager",
          "type": "address"
        },
        {
          "internalType": "address",
          "name": "router",
          "type": "address"
        },
        {
          "internalType": "address",
          "name": "NonfungiblePositionManager",
          "type": "address"
        },
        {
          "internalType": "address",
          "name": "chef",
          "type": "address"
        }
      ],
      "name": "createStrat",
      "outputs": [
        {
          "internalType": "address",
          "name": "",
          "type": "address"
        }
      ],
      "stateMutability": "nonpayable",
      "type": "function"
    }
  ],
  "bytecode": {
    "object": "0x608060405234801561001057600080fd5b5061558d806100206000396000f3fe608060405234801561001057600080fd5b506004361061002b5760003560e01c80631b14074c14610030575b600080fd5b61004361003e366004610543565b61005f565b6040516001600160a01b03909116815260200160405180910390f35b60008060405161006e90610324565b604051809103906000f08015801561008a573d6000803e3d6000fd5b509050806001600160a01b031663c5dc114c6040518061022001604052808c60a0015160020b81526020018c60c0015160020b81526020018c60e001516001600160a01b03168152602001866001600160a01b031681526020018c61010001516000815181106100fc576100fc6107cb565b60200260200101516001600160a01b031681526020018c6101c001516001600160a01b031681526020018c6101e001516001600160a01b031681526020018c61020001516001600160a01b031681526020018c61022001516001600160a01b031681526020018c61024001516001600160a01b031681526020018c61026001516001600160a01b031681526020018c610100015181526020018c610120015181526020018c610140015181526020018c610160015181526020018c61018001516001600160a01b031681526020018c6101a001516001600160a01b031681525060405180606001604052808c6001600160a01b03168152602001896001600160a01b03168152602001886001600160a01b03168152506040518363ffffffff1660e01b815260040161022f92919061085a565b600060405180830381600087803b15801561024957600080fd5b505af115801561025d573d6000803e3d6000fd5b505060405163f2fde38b60e01b81526001600160a01b038a811660048301528416925063f2fde38b9150602401600060405180830381600087803b1580156102a457600080fd5b505af11580156102b8573d6000803e3d6000fd5b505060405163d0ebdbe760e01b81526001600160a01b0389811660048301528416925063d0ebdbe79150602401600060405180830381600087803b1580156102ff57600080fd5b505af1158015610313573d6000803e3d6000fd5b50929b9a5050505050505050505050565b614ae880610a7083390190565b634e487b7160e01b600052604160045260246000fd5b604051610280810167ffffffffffffffff8111828210171561036b5761036b610331565b60405290565b604051601f8201601f1916810167ffffffffffffffff8111828210171561039a5761039a610331565b604052919050565b80356001600160a01b03811681146103b957600080fd5b919050565b600082601f8301126103cf57600080fd5b813567ffffffffffffffff8111156103e9576103e9610331565b6103fc601f8201601f1916602001610371565b81815284602083860101111561041157600080fd5b816020850160208301376000918101602001919091529392505050565b8035600281900b81146103b957600080fd5b600067ffffffffffffffff82111561045a5761045a610331565b5060051b60200190565b600082601f83011261047557600080fd5b8135602061048a61048583610440565b610371565b82815260059290921b840181019181810190868411156104a957600080fd5b8286015b848110156104cb576104be816103a2565b83529183019183016104ad565b509695505050505050565b600082601f8301126104e757600080fd5b813560206104f761048583610440565b82815260059290921b8401810191818101908684111561051657600080fd5b8286015b848110156104cb57803562ffffff811681146105365760008081fd5b835291830191830161051a565b600080600080600080600060e0888a03121561055e57600080fd5b873567ffffffffffffffff8082111561057657600080fd5b90890190610280828c03121561058b57600080fd5b610593610347565b61059c836103a2565b815260208301356020820152604083013560408201526060830135828111156105c457600080fd5b6105d08d8286016103be565b6060830152506080830135828111156105e857600080fd5b6105f48d8286016103be565b60808301525061060660a0840161042e565b60a082015261061760c0840161042e565b60c082015261062860e084016103a2565b60e0820152610100808401358381111561064157600080fd5b61064d8e828701610464565b828401525050610120808401358381111561066757600080fd5b6106738e8287016104d6565b828401525050610140808401358381111561068d57600080fd5b6106998e828701610464565b82840152505061016080840135838111156106b357600080fd5b6106bf8e8287016104d6565b82840152505061018091506106d58284016103a2565b828201526101a091506106e98284016103a2565b828201526101c091506106fd8284016103a2565b828201526101e091506107118284016103a2565b8282015261020091506107258284016103a2565b8282015261022091506107398284016103a2565b82820152610240915061074d8284016103a2565b8282015261026091506107618284016103a2565b82820152809950505050610777602089016103a2565b9550610785604089016103a2565b9450610793606089016103a2565b93506107a1608089016103a2565b92506107af60a089016103a2565b91506107bd60c089016103a2565b905092959891949750929550565b634e487b7160e01b600052603260045260246000fd5b600081518084526020808501945080840160005b8381101561081a5781516001600160a01b0316875295820195908201906001016107f5565b509495945050505050565b600081518084526020808501945080840160005b8381101561081a57815162ffffff1687529582019590820190600101610839565b6080815261086e60808201845160020b9052565b6000602084015161088460a084018260020b9052565b5060408401516001600160a01b03811660c08401525060608401516001600160a01b03811660e08401525060808401516101006108cb818501836001600160a01b03169052565b60a086015191506101206108e9818601846001600160a01b03169052565b60c08701519250610140610907818701856001600160a01b03169052565b60e08801519350610160610925818801866001600160a01b03169052565b92880151935061018092610943878501866001600160a01b03169052565b9188015193506101a091610961878401866001600160a01b03169052565b9088015193506101c09061097f878301866001600160a01b03169052565b808901519450506102206101e0818189015261099f6102a08901876107e1565b9550848a01519450607f19610200818a890301818b01526109c08888610825565b9750858c01519650818a890301848b01526109db88886107e1565b9750848c01519650818a8903016102408b01526109f88888610825565b9750828c01519650610a166102608b01886001600160a01b03169052565b8b01516001600160a01b0381166102808b01529550610a36945050505050565b509050610a68602083018480516001600160a01b03908116835260208083015182169084015260409182015116910152565b939250505056fe60806040523480156200001157600080fd5b506200001d3362000035565b6000805460ff60a01b19169055600160055562000085565b600080546001600160a01b038381166001600160a01b0319831681178455604051919092169283917f8be0079c531659141344cd1fd0a4f28419497f9722a3daafe3b4186f6b6457e09190a35050565b614a5380620000956000396000f3fe608060405234801561001057600080fd5b50600436106103af5760003560e01c8063a5c42ef1116101f4578063d0ebdbe71161011a578063f137b1e7116100ad578063f8cea66c1161007c578063f8cea66c146107c0578063fb1b5c7b146107c8578063fb617787146107d0578063fbfa77cf146107d857600080fd5b8063f137b1e71461077e578063f1a392da14610791578063f2fde38b1461079a578063f887ea40146107ad57600080fd5b8063eb582d13116100e9578063eb582d131461073d578063ebf678f014610750578063ed32249c14610763578063ef21c9941461077657600080fd5b8063d0ebdbe7146106fc578063e00bb0b51461070f578063e7a7250a14610722578063e93d5fc11461072a57600080fd5b8063b5164afd11610192578063c3e3fd8111610161578063c3e3fd81146106bb578063c597499d146106ce578063c5dc114c146106e1578063d0e30db0146106f457600080fd5b8063b5164afd14610662578063b97db3cf14610675578063ba4eb82614610688578063c3926a291461069b57600080fd5b8063adf085a2116101ce578063adf085a21461062b578063afbd137814610633578063b018d38e14610647578063b3a9c91c1461065a57600080fd5b8063a5c42ef114610612578063aac41ef91461061b578063abba96861461062357600080fd5b80634b432629116102d957806368b80723116102775780638456cb59116102465780638456cb59146105d3578063877562b6146105db5780638b4f9c50146105ee5780638da5cb5b1461060157600080fd5b806368b807231461058f5780636d9adeb0146105a2578063715018a6146105b5578063722713f7146105bd57600080fd5b8063595ce3c8116102b3578063595ce3c81461054957806359c4f905146105515780635c975abb1461055e5780635ee167c01461057c57600080fd5b80634b4326291461050757806355b812a81461050f5780635774c0f61461053657600080fd5b806330a236e6116103515780633f4ba83a116103205780633f4ba83a146104dc5780634641257d146104e45780634700d305146104ec578063481c6a75146104f457600080fd5b806330a236e61461048d578063342226dd146104a357806334bf6518146104b65780633a4b66f1146104c957600080fd5b80631fc8bc5d1161038d5780631fc8bc5d14610419578063228cb733146104445780632534434d1461045d5780632e1a7d4d1461047a57600080fd5b8063089fe6aa146103b45780630ca1cc5b146103e3578063150b7a02146103ed575b600080fd5b6013546103ca90600160301b900462ffffff1681565b60405162ffffff90911681526020015b60405180910390f35b6103eb6107eb565b005b6104006103fb366004613d5d565b6109c2565b6040516001600160e01b031990911681526020016103da565b600a5461042c906001600160a01b031681565b6040516001600160a01b0390911681526020016103da565b60065461042c906201000090046001600160a01b031681565b6104656109d3565b604080519283526020830191909152016103da565b6103eb610488366004613e21565b610c6b565b610495610f79565b6040516103da929190613e3a565b600b5461042c906001600160a01b031681565b6103eb6104c4366004613edd565b611060565b60075461042c906001600160a01b031681565b6103eb6111df565b6103eb611201565b6103eb611607565b60035461042c906001600160a01b031681565b6104956116c6565b601354610523906301000000900460020b81565b60405160029190910b81526020016103da565b61042c610544366004613e21565b611785565b6103eb6117af565b6013546105239060020b81565b600054600160a01b900460ff165b60405190151581526020016103da565b60085461042c906001600160a01b031681565b6103eb61059d366004614023565b61199a565b60105461042c906001600160a01b031681565b6103eb611a16565b6105c5611a28565b6040519081526020016103da565b6103eb611d76565b60095461042c906001600160a01b031681565b600e5461042c906001600160a01b031681565b6000546001600160a01b031661042c565b6105c560125481565b6105c5611d8e565b6103eb611f86565b6103eb6121f4565b60095461056c90600160a01b900460ff1681565b6103eb610655366004614023565b61227f565b6103eb6122fb565b60185461042c906001600160a01b031681565b6103ca610683366004613e21565b61233e565b61042c610696366004613e21565b612377565b6106a3612387565b6040516001600160801b0390911681526020016103da565b600d5461042c906001600160a01b031681565b600f5461042c906001600160a01b031681565b6103eb6106ef3660046140fd565b612412565b6103eb612acb565b6103eb61070a3660046142d9565b612ae3565b600c5461042c906001600160a01b031681565b6105c5612b3f565b6103ca610738366004613e21565b612bc0565b60045461042c906001600160a01b031681565b60195461042c906001600160a01b031681565b6103eb6107713660046142d9565b612bd0565b6103eb612c7c565b6103eb61078c3660046142d9565b612cc1565b6105c560115481565b6103eb6107a83660046142d9565b612d6d565b60025461042c906001600160a01b031681565b6103eb612de3565b61042c612e15565b6103eb612e4a565b60015461042c906001600160a01b031681565b6008546040516370a0823160e01b81523060048201526000916001600160a01b0316906370a0823190602401602060405180830381865afa158015610834573d6000803e3d6000fd5b505050506040513d601f19601f8201168201806040525081019061085891906142fd565b6009546040516370a0823160e01b81523060048201529192506000916001600160a01b03909116906370a0823190602401602060405180830381865afa1580156108a6573d6000803e3d6000fd5b505050506040513d601f19601f820116820180604052508101906108ca91906142fd565b6004805460408051610160810182526008546001600160a01b0390811682526009548116602083015260135462ffffff600160301b82041683850152600281810b60608501526301000000909104900b608083015260a0820188905260c08201869052600060e08301819052610100830181905230610120840152426101408401529251634418b22b60e11b81529596509194919092169263883164569261097492909101614316565b6080604051808303816000875af1158015610993573d6000803e3d6000fd5b505050506040513d601f19601f820116820180604052508101906109b791906143f1565b505050601255505050565b630a85bd0160e11b5b949350505050565b6000806109de612e52565b60006109e8612387565b90506000816001600160801b031611610a415760405162461bcd60e51b81526020600482015260166024820152754e6f204c697175696469747920617661696c61626c6560501b60448201526064015b60405180910390fd5b600a54601254604051627b8a6760e11b815260048101919091523060248201526001600160a01b039091169062f714ce906044016020604051808303816000875af1158015610a94573d6000803e3d6000fd5b505050506040513d601f19601f82011682018060405250810190610ab891906142fd565b50600480546040805160a08101825260125481526001600160801b0385166020820152600081830181905260608201524260808201529051630624e65f60e11b81526001600160a01b0390921692630c49ccbe92610b1792910161442d565b60408051808303816000875af1158015610b35573d6000803e3d6000fd5b505050506040513d601f19601f82011682018060405250810190610b599190614470565b5050600480546040805160808101825260125481523060208201526001600160801b038183018190526060820152905163fc6f786560e01b81526001600160a01b039092169263fc6f786592610bb0929101614494565b60408051808303816000875af1158015610bce573d6000803e3d6000fd5b505050506040513d601f19601f82011682018060405250810190610bf29190614470565b60048054601254604051630852cd8d60e31b8152928301529295509093506001600160a01b03909116906342966c6890602401600060405180830381600087803b158015610c3f57600080fd5b505af1158015610c53573d6000803e3d6000fd5b5050600060125550610c679150612eab9050565b9091565b610c73612e52565b610c7b6122fb565b6040805160e081018252601354600281810b835263010000008204900b6020808401919091526b204fce5e3e2502611000000083850152600e546001600160a01b03908116606080860191909152600c548216608080870191909152600b54831660a080880191909152600754841660c088015287519081018852600954600160a01b900460ff1615158152600160301b90950462ffffff1693850193909352838601879052601054821690840152600f54169082015291516328dd68f160e11b815260009273__$5e45ab65a274056c1a42c62f410605b0da$__926351bad1e292610d6a929060040161453c565b602060405180830381865af4158015610d87573d6000803e3d6000fd5b505050506040513d601f19601f82011682018060405250810190610dab919061459a565b600a546040805160a08101825260125481526001600160801b0384166020820152600081830181905260608201524260808201529051630624e65f60e11b81529293506001600160a01b0390911691630c49ccbe91610e0c9160040161442d565b60408051808303816000875af1158015610e2a573d6000803e3d6000fd5b505050506040513d601f19601f82011682018060405250810190610e4e9190614470565b5050600a546040805160808101825260125481523060208201526001600160801b038183018190526060820152905163fc6f786560e01b815260009283926001600160a01b039091169163fc6f786591610eaa91600401614494565b60408051808303816000875af1158015610ec8573d6000803e3d6000fd5b505050506040513d601f19601f82011682018060405250810190610eec9190614470565b915091506000610efc8383612eb2565b600154909150610f28906001600160a01b031682610f18612e15565b6001600160a01b03169190612f7f565b7f56ca301a9219608c91e7bcee90e083c19671d2cdcc96752c7af291cee5f9c8c8610f51611a28565b60408051918252602082018890520160405180910390a150505050610f766001600555565b50565b6060806014601581805480602002602001604051908101604052809291908181526020018280548015610fd557602002820191906000526020600020905b81546001600160a01b03168152600190910190602001808311610fb7575b505050505091508080548060200260200160405190810160405280929190818152602001828054801561105157602002820191906000526020600020906000905b82829054906101000a900462ffffff1662ffffff16815260200190600301906020826002010492830192600103820291508084116110165790505b50505050509050915091509091565b611068612fe2565b601354600283810b91900b14801561108f5750601354600282810b6301000000909204900b145b156110c15760405162461bcd60e51b815260206004820152600260248201526129a960f11b6044820152606401610a38565b600b546007546040516302faf59960e31b8152600285810b600483015284900b60248201526001600160a01b0392831660448201529116606482015273__$5e45ab65a274056c1a42c62f410605b0da$__906317d7acc89060840160006040518083038186803b15801561113457600080fd5b505af4158015611148573d6000803e3d6000fd5b505050506111546109d3565b50506013805462ffffff83811663010000000265ffffffffffff1990921690851617179055611181611f86565b6111896107eb565b6111916121f4565b60135460408051600283810b8252630100000090930490920b60208301527fd00a8d17a19b7ceda57ab41f25a4626f485d085482b0525baaaa7caac12b492e91015b60405180910390a15050565b6111e7612c7c565b6111ef61303c565b6111f7613091565b6111ff612acb565b565b6112096131ce565b600a54601254604051630c7e663b60e11b815260048101919091523060248201526001600160a01b03909116906318fccc76906044016020604051808303816000875af115801561125e573d6000803e3d6000fd5b505050506040513d601f19601f8201168201806040525081019061128291906142fd565b506006546040516370a0823160e01b81523060048201526000916201000090046001600160a01b0316906370a0823190602401602060405180830381865afa1580156112d2573d6000803e3d6000fd5b505050506040513d601f19601f820116820180604052508101906112f691906142fd565b9050801561150a576006546008546001600160a01b0390811662010000909204161480159061132f5750600954600160a01b900460ff16155b1561141557611413601480548060200260200160405190810160405280929190818152602001828054801561138d57602002820191906000526020600020905b81546001600160a01b0316815260019091019060200180831161136f575b5050505050601580548060200260200160405190810160405280929190818152602001828054801561140857602002820191906000526020600020906000905b82829054906101000a900462ffffff1662ffffff16815260200190600301906020826002010492830192600103820291508084116113cd5790505b50505050508361321b565b505b6006546009546001600160a01b039081166201000090920416148015906114455750600954600160a01b900460ff165b156115055761150360168054806020026020016040519081016040528092919081815260200182805480156114a357602002820191906000526020600020905b81546001600160a01b03168152600190910190602001808311611485575b50505050506017805480602002602001604051908101604052809291908181526020018280548015611408576000918252602091829020805462ffffff1684529082028301929091600391018084116113cd57905050505050508361321b565b505b426011555b600a546040805160808101825260125481523060208201526001600160801b038183018190526060820152905163fc6f786560e01b81526001600160a01b039092169163fc6f78659161155f91600401614494565b60408051808303816000875af115801561157d573d6000803e3d6000fd5b505050506040513d601f19601f820116820180604052508101906115a19190614470565b50506115ab611f86565b60006115b561338f565b9050337f9bc239f1724cacfb88cb1d66a2dc437467699b68a8c90d7b63110cf4b6f924106001600160801b0383166115eb611a28565b6040805192835260208301919091520160405180910390a25050565b61160f612c7c565b611617611d76565b6000806116226109d3565b915091506116308282612eb2565b50600061163b612e15565b6040516370a0823160e01b81523060048201526001600160a01b0391909116906370a0823190602401602060405180830381865afa158015611681573d6000803e3d6000fd5b505050506040513d601f19601f820116820180604052508101906116a591906142fd565b6001549091506116c1906001600160a01b031682610f18612e15565b505050565b6060806016601781805480602002602001604051908101604052809291908181526020018280548015610fd5576020028201919060005260206000209081546001600160a01b03168152600190910190602001808311610fb7575050505050915080805480602002602001604051908101604052809291908181526020018280548015611051576000918252602091829020805462ffffff16845290820283019290916003910180841161101657905050505050509050915091509091565b6014818154811061179557600080fd5b6000918252602090912001546001600160a01b0316905081565b6008546040516370a0823160e01b81523060048201526000916001600160a01b0316906370a0823190602401602060405180830381865afa1580156117f8573d6000803e3d6000fd5b505050506040513d601f19601f8201168201806040525081019061181c91906142fd565b6009546040516370a0823160e01b81523060048201529192506000916001600160a01b03909116906370a0823190602401602060405180830381865afa15801561186a573d6000803e3d6000fd5b505050506040513d601f19601f8201168201806040525081019061188e91906142fd565b600480546040805160c08101825260125481526020810187905280820185905260006060820181905260808201524260a0820152905163219f5d1760e01b81529394506001600160a01b039091169263219f5d17926118ee9291016145b5565b6060604051808303816000875af115801561190d573d6000803e3d6000fd5b505050506040513d601f19601f8201168201806040525081019061193191906145f9565b5050600a54601254604051636768488960e11b815260048101919091526001600160a01b03909116915063ced0911290602401600060405180830381600087803b15801561197e57600080fd5b505af1158015611992573d6000803e3d6000fd5b505050505050565b6119a2612c7c565b600182516119b09190614644565b8151146119cf5760405162461bcd60e51b8152600401610a3890614657565b6119da601483613586565b6119e56015826135f2565b7f92ec361f55eabacf1c0ffe0509739dc2462b2e206c59631b15d558124e1dda1882826040516111d3929190613e3a565b611a1e612fe2565b6111ff6000613675565b600080611a33612387565b6040805160e081018252601354600281810b83526301000000909104900b60208201526001600160801b03831681830152600e546001600160a01b039081166060830152600c5481166080830152600b54811660a08301526007541660c082015290516338c4b34760e21b8152919250600091829173__$5e45ab65a274056c1a42c62f410605b0da$__9163e312cd1c91611ad091600401614673565b6040805180830381865af4158015611aec573d6000803e3d6000fd5b505050506040513d601f19601f82011682018060405250810190611b109190614470565b6008546040516370a0823160e01b81523060048201529294509092506000916001600160a01b03909116906370a0823190602401602060405180830381865afa158015611b61573d6000803e3d6000fd5b505050506040513d601f19601f82011682018060405250810190611b8591906142fd565b6009546040516370a0823160e01b81523060048201529192506000916001600160a01b03909116906370a0823190602401602060405180830381865afa158015611bd3573d6000803e3d6000fd5b505050506040513d601f19601f82011682018060405250810190611bf791906142fd565b600954909150600160a01b900460ff1615611cca5773__$5e45ab65a274056c1a42c62f410605b0da$__632ca89132611c308386614681565b60075460105460405160e085901b6001600160e01b031916815260048101939093526001600160a01b039182166024840152166044820152606401602060405180830381865af4158015611c88573d6000803e3d6000fd5b505050506040513d601f19601f82011682018060405250810190611cac91906142fd565b611cb68386614681565b611cc09190614681565b9550505050505090565b808373__$5e45ab65a274056c1a42c62f410605b0da$__636520a11d611cf08689614681565b60075460105460405160e085901b6001600160e01b031916815260048101939093526001600160a01b039182166024840152166044820152606401602060405180830381865af4158015611d48573d6000803e3d6000fd5b505050506040513d601f19601f82011682018060405250810190611d6c91906142fd565b611cb69190614681565b611d7e612c7c565b611d866136c5565b6111ff613708565b6004805460125460405163133f757160e31b815292830152600091829182916001600160a01b03909116906399fbab889060240161018060405180830381865afa158015611de0573d6000803e3d6000fd5b505050506040513d601f19601f82011682018060405250810190611e0491906146b5565b9b509b5050505050505050505050600960149054906101000a900460ff1615611eda57600754601054604051631654489960e11b81526001600160801b03841660048201526001600160a01b0392831660248201529116604482015273__$5e45ab65a274056c1a42c62f410605b0da$__90632ca8913290606401602060405180830381865af4158015611e9c573d6000803e3d6000fd5b505050506040513d601f19601f82011682018060405250810190611ec091906142fd565b611ed3906001600160801b038416614681565b9250505090565b600754601054604051636520a11d60e01b81526001600160801b03851660048201526001600160a01b0392831660248201529116604482015273__$5e45ab65a274056c1a42c62f410605b0da$__90636520a11d90606401602060405180830381865af4158015611f4f573d6000803e3d6000fd5b505050506040513d601f19601f82011682018060405250810190611f7391906142fd565b611ed3906001600160801b038316614681565b6008546040516370a0823160e01b81523060048201526000916001600160a01b0316906370a0823190602401602060405180830381865afa158015611fcf573d6000803e3d6000fd5b505050506040513d601f19601f82011682018060405250810190611ff391906142fd565b6009546040516370a0823160e01b81523060048201529192506000916001600160a01b03909116906370a0823190602401602060405180830381865afa158015612041573d6000803e3d6000fd5b505050506040513d601f19601f8201168201806040525081019061206591906142fd565b6040805160e081018252601354600281810b835263010000008204900b6020808401919091526b204fce5e3e2502611000000083850152600e546001600160a01b03908116606080860191909152600c548216608080870191909152600b54831660a0870152600754831660c087015286519081018752600160301b90940462ffffff1684529183018890528285018690526010541690820152915163bf37f00f60e01b8152929350600092839273__$5e45ab65a274056c1a42c62f410605b0da$__9263bf37f00f9261213c9290600401614796565b6040805180830381865af4158015612158573d6000803e3d6000fd5b505050506040513d601f19601f8201168201806040525081019061217c9190614470565b91509150816000146121b8576008546009546013546121b6926001600160a01b039081169216908590600160301b900462ffffff166137a4565b505b80156121ee576009546008546013546121ec926001600160a01b039081169216908490600160301b900462ffffff166137a4565b505b50505050565b6121fc6131ce565b612204612e52565b60048054600a54601254604051632142170760e11b815230948101949094526001600160a01b039182166024850152604484015216906342842e0e90606401600060405180830381600087803b15801561225d57600080fd5b505af1158015612271573d6000803e3d6000fd5b505050506111ff6001600555565b612287612c7c565b600182516122959190614644565b8151146122b45760405162461bcd60e51b8152600401610a3890614657565b6122bf601683613586565b6122ca6017826135f2565b7fd60de51c4b7b31568ee8c6a5fcc0338f89e13844171d916ff7cce68943275e5f82826040516111d3929190613e3a565b6001546001600160a01b031633146111ff5760405162461bcd60e51b8152602060048201526006602482015265085d985d5b1d60d21b6044820152606401610a38565b6015818154811061234e57600080fd5b90600052602060002090600a9182820401919006600302915054906101000a900462ffffff1681565b6016818154811061179557600080fd5b600a54601254604051630ec6b3dd60e21b815260009283926001600160a01b0390911691633b1acf74916123c19160040190815260200190565b61012060405180830381865afa1580156123df573d6000803e3d6000fd5b505050506040513d601f19601f8201168201806040525081019061240391906147e2565b50969998505050505050505050565b600654610100900460ff16158080156124325750600654600160ff909116105b8061244c5750303b15801561244c575060065460ff166001145b6124af5760405162461bcd60e51b815260206004820152602e60248201527f496e697469616c697a61626c653a20636f6e747261637420697320616c72656160448201526d191e481a5b9a5d1a585b1a5e995960921b6064820152608401610a38565b6006805460ff1916600117905580156124d2576006805461ff0019166101001790555b60a0830151600b80546001600160a01b03199081166001600160a01b039384161790915560c0850151600c8054831691841691909117905560e0850151600d80548316918416919091179055610100850151600e80548316918416919091179055610120850151600f8054831691841691909117905561014085015160108054831691841691909117905560408501516007805483169184169190911790556060850151600a805490921690831617905560808401516006805462010000600160b01b031916620100009290931691909102919091179055610160830151516125bd90600190614644565b83610180015151146125e15760405162461bcd60e51b8152600401610a3890614657565b6001836101a00151516125f49190614644565b836101c0015151146126185760405162461bcd60e51b8152600401610a3890614657565b610160830151805161263291601491602090910190613baa565b50610180830151805161264d91601591602090910190613c0f565b506101a0830151805161266891601691602090910190613baa565b506101c0830151805161268391601791602090910190613c0f565b5082516020840151600b546007546040516302faf59960e31b8152600294850b60048201529290930b60248301526001600160a01b039081166044830152909116606482015273__$5e45ab65a274056c1a42c62f410605b0da$__906317d7acc89060840160006040518083038186803b15801561270057600080fd5b505af4158015612714573d6000803e3d6000fd5b505084516013805460208089015162ffffff90811663010000000265ffffffffffff199093169416939093171790556007546040805163ddca3f4360e01b815290516001600160a01b03909216945063ddca3f43935060048082019392918290030181865afa15801561278b573d6000803e3d6000fd5b505050506040513d601f19601f820116820180604052508101906127af9190614879565b601360066101000a81548162ffffff021916908362ffffff160217905550600760009054906101000a90046001600160a01b03166001600160a01b0316630dfe16816040518163ffffffff1660e01b8152600401602060405180830381865afa158015612820573d6000803e3d6000fd5b505050506040513d601f19601f820116820180604052508101906128449190614896565b600880546001600160a01b0319166001600160a01b039283161790556007546040805163d21220a760e01b81529051919092169163d21220a79160048083019260209291908290030181865afa1580156128a2573d6000803e3d6000fd5b505050506040513d601f19601f820116820180604052508101906128c69190614896565b600980546001600160a01b039283166001600160a01b0319909116179055825160408051808201825260078152666173736574282960c81b60209182015281516004815260248101835290810180516001600160e01b03166338d52e0f60e01b17905290516000938493169161293b916148d7565b6000604051808303816000865af19150503d8060008114612978576040519150601f19603f3d011682016040523d82523d6000602084013e61297d565b606091505b5091509150816129b45760405162461bcd60e51b815260206004820152600260248201526120a360f11b6044820152606401610a38565b60085481516001600160a01b03909116906129d89083016020908101908401614896565b6009805460ff60a01b19166001600160a01b0392831693909314600160a01b02929092179091556101e0860151601880546001600160a01b03199081169284169290921790556102008701516019805483169184169190911790558551600180548316918416919091179055602086015160028054831691841691909117905560038054339083161790556040860151600480549092169216919091179055612a7f613091565b505080156116c1576006805461ff0019169055604051600181527f7f26b83ff96e1f2b6a682f133852f6798a09c465da95921460cefb38474024989060200160405180910390a1505050565b612ad36131ce565b612adb6122fb565b6111ff612de3565b612aeb612c7c565b600380546001600160a01b0319166001600160a01b0383169081179091556040519081527f54a6385aa0292b04e1ef8513253c17d1863f7cdfc87029d77fd55cc4c2e717e29060200160405180910390a150565b600a5460125460405163672f9ce360e11b815260009283926001600160a01b039091169163ce5f39c691612b799160040190815260200190565b602060405180830381865afa158015612b96573d6000803e3d6000fd5b505050506040513d601f19601f82011682018060405250810190612bba91906142fd565b92915050565b6017818154811061234e57600080fd5b612bd8612c7c565b6001600160a01b038116612c135760405162461bcd60e51b8152602060048201526002602482015261494160f01b6044820152606401610a38565b601854604080516001600160a01b03928316815291831660208301527fc07d1041a159c837352873b4b2a09cf6aed789d94475436a8cb9295105ad9d34910160405180910390a1601880546001600160a01b0319166001600160a01b0392909216919091179055565b6003546001600160a01b031633146111ff5760405162461bcd60e51b815260206004820152600860248201526710b6b0b730b3b2b960c11b6044820152606401610a38565b612cc9612c7c565b6001600160a01b038116612d045760405162461bcd60e51b8152602060048201526002602482015261494160f01b6044820152606401610a38565b601954604080516001600160a01b03928316815291831660208301527fa24d8ee336fd15e7b24bfaf221c3779762d5c1a7b792cdea2451e51be2e81ad8910160405180910390a1601980546001600160a01b0319166001600160a01b0392909216919091179055565b612d75612fe2565b6001600160a01b038116612dda5760405162461bcd60e51b815260206004820152602660248201527f4f776e61626c653a206e6577206f776e657220697320746865207a65726f206160448201526564647265737360d01b6064820152608401610a38565b610f7681613675565b601254600003612e0557612df5611f86565b612dfd6107eb565b6111ff6121f4565b612e0d611f86565b6111ff6117af565b600954600090600160a01b900460ff1615612e3a57506008546001600160a01b031690565b506009546001600160a01b031690565b6116176122fb565b600260055403612ea45760405162461bcd60e51b815260206004820152601f60248201527f5265656e7472616e637947756172643a207265656e7472616e742063616c6c006044820152606401610a38565b6002600555565b6001600555565b600080612ebd612e15565b6008549091506000906001600160a01b03808416911614801590612ee057508415155b15612f1d57600854601354612f0e916001600160a01b03169084908890600160301b900462ffffff166137a4565b9050612f1a8185614681565b92505b6009546001600160a01b03838116911614801590612f3a57508315155b15612f7757600954601354612f68916001600160a01b03169084908790600160301b900462ffffff166137a4565b9050612f748186614681565b92505b505092915050565b6040516001600160a01b0383166024820152604481018290526116c190849063a9059cbb60e01b906064015b60408051601f198184030181529190526020810180516001600160e01b03166001600160e01b031990931692909217909152613850565b6000546001600160a01b031633146111ff5760405162461bcd60e51b815260206004820181905260248201527f4f776e61626c653a2063616c6c6572206973206e6f7420746865206f776e65726044820152606401610a38565b613044613922565b6000805460ff60a01b191690557f5db9ee0a495bf2e6ff9c91a7834c1ba4fdd244a5e8aa4e537bd38aeae4b073aa335b6040516001600160a01b03909116815260200160405180910390a1565b6002546006546130b5916001600160a01b0362010000909204821691166000613972565b6002546006546130da916001600160a01b036201000090920482169116600019613972565b6002546008546130f8916001600160a01b0391821691166000613972565b600254600854613117916001600160a01b039182169116600019613972565b600254600954613135916001600160a01b0391821691166000613972565b600254600954613154916001600160a01b039182169116600019613972565b600454600854613172916001600160a01b0391821691166000613972565b600454600854613191916001600160a01b039182169116600019613972565b6004546009546131af916001600160a01b0391821691166000613972565b6004546009546111ff916001600160a01b039182169116600019613972565b600054600160a01b900460ff16156111ff5760405162461bcd60e51b815260206004820152601060248201526f14185d5cd8589b194e881c185d5cd95960821b6044820152606401610a38565b60008084600081518110613231576132316148f3565b6020026020010151604051602001613261919060609190911b6bffffffffffffffffffffffff1916815260140190565b604051602081830303815290604052905060005b84518110156132f55781858281518110613291576132916148f3565b6020026020010151878360016132a79190614681565b815181106132b7576132b76148f3565b60200260200101516040516020016132d193929190614909565b604051602081830303815290604052915080806132ed90614955565b915050613275565b506002546040805160808101825283815230602082015280820186905260006060820152905163b858183f60e01b81526001600160a01b039092169163b858183f916133439160040161499a565b6020604051808303816000875af1158015613362573d6000803e3d6000fd5b505050506040513d601f19601f8201168201806040525081019061338691906142fd565b95945050505050565b6008546040516370a0823160e01b815230600482015260009182916001600160a01b03909116906370a0823190602401602060405180830381865afa1580156133dc573d6000803e3d6000fd5b505050506040513d601f19601f8201168201806040525081019061340091906142fd565b6009546040516370a0823160e01b81523060048201529192506000916001600160a01b03909116906370a0823190602401602060405180830381865afa15801561344e573d6000803e3d6000fd5b505050506040513d601f19601f8201168201806040525081019061347291906142fd565b600480546040805160c081018252601254815260208101879052808201859052600060608201819052608082018190524260a0830152915163219f5d1760e01b815294955090936001600160a01b039092169263219f5d17926134d69291016145b5565b6060604051808303816000875af11580156134f5573d6000803e3d6000fd5b505050506040513d601f19601f8201168201806040525081019061351991906145f9565b5050600a54601254604051636768488960e11b815260048101919091529192506001600160a01b03169063ced0911290602401600060405180830381600087803b15801561356657600080fd5b505af115801561357a573d6000803e3d6000fd5b50929695505050505050565b60005b81518110156116c157828282815181106135a5576135a56148f3565b60209081029190910181015182546001810184556000938452919092200180546001600160a01b0319166001600160a01b03909216919091179055806135ea81614955565b915050613589565b60005b81518110156116c15782828281518110613611576136116148f3565b602002602001015190806001815401808255809150506001900390600052602060002090600a91828204019190066003029091909190916101000a81548162ffffff021916908362ffffff160217905550808061366d90614955565b9150506135f5565b600080546001600160a01b038381166001600160a01b0319831681178455604051919092169283917f8be0079c531659141344cd1fd0a4f28419497f9722a3daafe3b4186f6b6457e09190a35050565b6136cd6131ce565b6000805460ff60a01b1916600160a01b1790557f62e78cea01bee320cd4e420270b5ea74000d11b0c9f74754ebdbfc544b05a2586130743390565b60025460065461372c916001600160a01b0362010000909204821691166000613972565b60025460085461374a916001600160a01b0391821691166000613972565b600254600954613768916001600160a01b0391821691166000613972565b600454600854613786916001600160a01b0391821691166000613972565b6004546009546111ff916001600160a01b0391821691166000613972565b6002546040805160e0810182526001600160a01b0387811682528681166020830190815262ffffff8681168486019081523060608601908152608086018a8152600060a0880181815260c0890182815299516304e45aaf60e01b81529851881660048a015295518716602489015292519093166044870152518416606486015290516084850152905160a48401529251811660c4830152919291909116906304e45aaf9060e401613343565b60006138a5826040518060400160405280602081526020017f5361666545524332303a206c6f772d6c6576656c2063616c6c206661696c6564815250856001600160a01b0316613a879092919063ffffffff16565b8051909150156116c157808060200190518101906138c391906149e8565b6116c15760405162461bcd60e51b815260206004820152602a60248201527f5361666545524332303a204552433230206f7065726174696f6e20646964206e6044820152691bdd081cdd58d8d9595960b21b6064820152608401610a38565b600054600160a01b900460ff166111ff5760405162461bcd60e51b815260206004820152601460248201527314185d5cd8589b194e881b9bdd081c185d5cd95960621b6044820152606401610a38565b8015806139ec5750604051636eb1769f60e11b81523060048201526001600160a01b03838116602483015284169063dd62ed3e90604401602060405180830381865afa1580156139c6573d6000803e3d6000fd5b505050506040513d601f19601f820116820180604052508101906139ea91906142fd565b155b613a575760405162461bcd60e51b815260206004820152603660248201527f5361666545524332303a20617070726f76652066726f6d206e6f6e2d7a65726f60448201527520746f206e6f6e2d7a65726f20616c6c6f77616e636560501b6064820152608401610a38565b6040516001600160a01b0383166024820152604481018290526116c190849063095ea7b360e01b90606401612fab565b60606109cb848460008585600080866001600160a01b03168587604051613aae91906148d7565b60006040518083038185875af1925050503d8060008114613aeb576040519150601f19603f3d011682016040523d82523d6000602084013e613af0565b606091505b5091509150613b0187838387613b0c565b979650505050505050565b60608315613b7b578251600003613b74576001600160a01b0385163b613b745760405162461bcd60e51b815260206004820152601d60248201527f416464726573733a2063616c6c20746f206e6f6e2d636f6e74726163740000006044820152606401610a38565b50816109cb565b6109cb8383815115613b905781518083602001fd5b8060405162461bcd60e51b8152600401610a389190614a0a565b828054828255906000526020600020908101928215613bff579160200282015b82811115613bff57825182546001600160a01b0319166001600160a01b03909116178255602090920191600190910190613bca565b50613c0b929150613cb2565b5090565b82805482825590600052602060002090600901600a90048101928215613bff5791602002820160005b83821115613c7a57835183826101000a81548162ffffff021916908362ffffff1602179055509260200192600301602081600201049283019260010302613c38565b8015613ca95782816101000a81549062ffffff0219169055600301602081600201049283019260010302613c7a565b5050613c0b9291505b5b80821115613c0b5760008155600101613cb3565b6001600160a01b0381168114610f7657600080fd5b8035613ce781613cc7565b919050565b634e487b7160e01b600052604160045260246000fd5b604051610220810167ffffffffffffffff81118282101715613d2657613d26613cec565b60405290565b604051601f8201601f1916810167ffffffffffffffff81118282101715613d5557613d55613cec565b604052919050565b60008060008060808587031215613d7357600080fd5b8435613d7e81613cc7565b9350602085810135613d8f81613cc7565b935060408601359250606086013567ffffffffffffffff80821115613db357600080fd5b818801915088601f830112613dc757600080fd5b813581811115613dd957613dd9613cec565b613deb601f8201601f19168501613d2c565b91508082528984828501011115613e0157600080fd5b808484018584013760008482840101525080935050505092959194509250565b600060208284031215613e3357600080fd5b5035919050565b604080825283519082018190526000906020906060840190828701845b82811015613e7c5781516001600160a01b031684529284019290840190600101613e57565b5050508381038285015284518082528583019183019060005b81811015613eb657835162ffffff1683529284019291840191600101613e95565b5090979650505050505050565b8060020b8114610f7657600080fd5b8035613ce781613ec3565b60008060408385031215613ef057600080fd5b8235613efb81613ec3565b91506020830135613f0b81613ec3565b809150509250929050565b600067ffffffffffffffff821115613f3057613f30613cec565b5060051b60200190565b600082601f830112613f4b57600080fd5b81356020613f60613f5b83613f16565b613d2c565b82815260059290921b84018101918181019086841115613f7f57600080fd5b8286015b84811015613fa3578035613f9681613cc7565b8352918301918301613f83565b509695505050505050565b62ffffff81168114610f7657600080fd5b600082601f830112613fd057600080fd5b81356020613fe0613f5b83613f16565b82815260059290921b84018101918181019086841115613fff57600080fd5b8286015b84811015613fa357803561401681613fae565b8352918301918301614003565b6000806040838503121561403657600080fd5b823567ffffffffffffffff8082111561404e57600080fd5b61405a86838701613f3a565b9350602085013591508082111561407057600080fd5b5061407d85828601613fbf565b9150509250929050565b60006060828403121561409957600080fd5b6040516060810181811067ffffffffffffffff821117156140bc576140bc613cec565b60405290508082356140cd81613cc7565b815260208301356140dd81613cc7565b602082015260408301356140f081613cc7565b6040919091015292915050565b6000806080838503121561411057600080fd5b823567ffffffffffffffff8082111561412857600080fd5b90840190610220828703121561413d57600080fd5b614145613d02565b61414e83613ed2565b815261415c60208401613ed2565b602082015261416d60408401613cdc565b604082015261417e60608401613cdc565b606082015261418f60808401613cdc565b60808201526141a060a08401613cdc565b60a08201526141b160c08401613cdc565b60c08201526141c260e08401613cdc565b60e08201526101006141d5818501613cdc565b908201526101206141e7848201613cdc565b908201526101406141f9848201613cdc565b90820152610160838101358381111561421157600080fd5b61421d89828701613f3a565b828401525050610180808401358381111561423757600080fd5b61424389828701613fbf565b8284015250506101a0808401358381111561425d57600080fd5b61426989828701613f3a565b8284015250506101c0808401358381111561428357600080fd5b61428f89828701613fbf565b8284015250506101e091506142a5828401613cdc565b8282015261020091506142b9828401613cdc565b828201528094505050506142d08460208501614087565b90509250929050565b6000602082840312156142eb57600080fd5b81356142f681613cc7565b9392505050565b60006020828403121561430f57600080fd5b5051919050565b81516001600160a01b031681526101608101602083015161434260208401826001600160a01b03169052565b506040830151614359604084018262ffffff169052565b50606083015161436e606084018260020b9052565b506080830151614383608084018260020b9052565b5060a083015160a083015260c083015160c083015260e083015160e0830152610100808401518184015250610120808401516143c9828501826001600160a01b03169052565b505061014092830151919092015290565b80516001600160801b0381168114613ce757600080fd5b6000806000806080858703121561440757600080fd5b84519350614417602086016143da565b6040860151606090960151949790965092505050565b600060a082019050825182526001600160801b03602084015116602083015260408301516040830152606083015160608301526080830151608083015292915050565b6000806040838503121561448357600080fd5b505080516020909101519092909150565b815181526020808301516001600160a01b0316908201526040808301516001600160801b0390811691830191909152606092830151169181019190915260800190565b805160020b8252602081015160020b60208301526001600160801b036040820151166040830152606081015160018060a01b0380821660608501528060808401511660808501528060a08401511660a08501528060c08401511660c085015250505050565b610180810161454b82856144d7565b8251151560e0830152602083015162ffffff16610100830152604083015161012083015260608301516001600160a01b0390811661014084015260809093015190921661016090910152919050565b6000602082840312156145ac57600080fd5b6142f6826143da565b600060c082019050825182526020830151602083015260408301516040830152606083015160608301526080830151608083015260a083015160a083015292915050565b60008060006060848603121561460e57600080fd5b614617846143da565b925060208401519150604084015190509250925092565b634e487b7160e01b600052601160045260246000fd5b81810381811115612bba57612bba61462e565b602080825260029082015261049560f41b604082015260600190565b60e08101612bba82846144d7565b80820180821115612bba57612bba61462e565b8051613ce781613cc7565b8051613ce781613fae565b8051613ce781613ec3565b6000806000806000806000806000806000806101808d8f0312156146d857600080fd5b8c516bffffffffffffffffffffffff811681146146f457600080fd5b9b5061470260208e01614694565b9a5061471060408e01614694565b995061471e60608e01614694565b985061472c60808e0161469f565b975061473a60a08e016146aa565b965061474860c08e016146aa565b955061475660e08e016143da565b94506101008d015193506101208d015192506147756101408e016143da565b91506147846101608e016143da565b90509295989b509295989b509295989b565b61016081016147a582856144d7565b825162ffffff1660e0830152602083015161010083015260408301516101208301526060909201516001600160a01b031661014090910152919050565b60008060008060008060008060006101208a8c03121561480157600080fd5b61480a8a6143da565b985061481860208b016143da565b975060408a015161482881613ec3565b60608b015190975061483981613ec3565b8096505060808a0151945060a08a0151935060c08a015161485981613cc7565b8093505060e08a015191506101008a015190509295985092959850929598565b60006020828403121561488b57600080fd5b81516142f681613fae565b6000602082840312156148a857600080fd5b81516142f681613cc7565b60005b838110156148ce5781810151838201526020016148b6565b50506000910152565b600082516148e98184602087016148b3565b9190910192915050565b634e487b7160e01b600052603260045260246000fd5b6000845161491b8184602089016148b3565b60e89490941b6001600160e81b0319169190930190815260609190911b6bffffffffffffffffffffffff1916600382015260170192915050565b6000600182016149675761496761462e565b5060010190565b600081518084526149868160208601602086016148b3565b601f01601f19169290920160200192915050565b6020815260008251608060208401526149b660a084018261496e565b905060018060a01b03602085015116604084015260408401516060840152606084015160808401528091505092915050565b6000602082840312156149fa57600080fd5b815180151581146142f657600080fd5b6020815260006142f6602083018461496e56fea26469706673582212206aab6a52ad23493c6b83c86cb0c1a19030a6d879f89ccec25986c1b1f5e2f82864736f6c63430008110033a264697066735822122004000d4211f2f26a221a0057c2461e60b1d70080c86446b81379417461f8929c64736f6c63430008110033",
    "linkReferences": {
      "src/libs/DexV3Calculations.sol": {
        "DexV3Calculations": [
          {
            "start": 6248,
            "length": 20
          },
          {
            "start": 7204,
            "length": 20
          },
          {
            "start": 9679,
            "length": 20
          },
          {
            "start": 10035,
            "length": 20
          },
          {
            "start": 10227,
            "length": 20
          },
          {
            "start": 10631,
            "length": 20
          },
          {
            "start": 10810,
            "length": 20
          },
          {
            "start": 11322,
            "length": 20
          },
          {
            "start": 12784,
            "length": 20
          }
        ]
      }
    }
  },
  "methodIdentifiers": {
    "createStrat((address,uint256,uint256,string,string,int24,int24,address,address[],uint24[],address[],uint24[],address,address,address,address,address,address,address,address),address,address,address,address,address,address)": "1b14074c"
  },
  "id": 43
}